:020000041000EA
:1000000000B5324B212058609868022188439860DF
:10001000D860186158612E4B002199600221596106
:100020000121F02299502B49196001219960352056
:1000300000F044F80222904214D00621196600F024
:1000400034F8196E01211966002018661A6600F04E
:100050002CF8196E196E196E052000F02FF8012189
:100060000842F9D1002199601B49196000215960AB
:100070001A491B48016001219960EB211966A021F2
:10008000196600F012F800219960164914480160C1
:100090000121996001BC002800D000471248134993
:1000A000086003C880F30888084703B5996A0420EC
:1000B0000142FBD001200142F8D103BD02B5186610
:1000C0001866FFF7F2FF186E186E02BD00000240BE
:1000D000000000180000070000035F00212200005C
:1000E000F4000018222000A00001001008ED00E03C
:1000F00000000000000000000000000074B24E7A12
:1001000000200420F7010010C3010010C5010010F9
:10011000C1010010C1010010C1010010C101001097
:10012000C1010010C1010010C1010010C701001081
:10013000C1010010C1010010C9010010CB01001065
:10014000CD010010CD010010CD010010CD01001037
:10015000CD010010CD010010CD010010CD01001027
:10016000CD010010CD010010CD010010CD01001017
:10017000CD010010CD010010CD010010CD01001007
:10018000CD010010CD010010CD010010CD010010F7
:10019000CD010010CD010010CD010010CD010010E7
:1001A000CD010010CD010010CD010010CD010010D7
:1001B000CD010010CD010010CD010010CD010010C7
:1001C00000BE00BE00BE00BE00BE00BEEFF3058054
:1001D000103800BEF2EB8871B0C70110D0C7011013
:1001E0003802001090A31AE71E481F49086006C88D
:1001F00081F3088810471D480068002801D019487D
:10020000F3E70DA40ECC002902D000F012F8F9E7B4
:100210001749184A002000E001C19142FCD116495B
:100220008847164988471649884700BEFDE701C937
:1002300001C29A42FBD37047D0C70110C000002012
:10024000DC260020ECED011000000420000004205A
:10025000ECED01100010042000100420000000004C
:10026000704700000000000008ED00E0000000D032
:10027000DC260020C061002039620010151000103B
:10028000F9610010F8B5C046044B10B5002B03D03F
:100290000349044800E000BF10BDC0460000000054
:1002A00058610020408A0110F0B5DE4657464E46A0
:1002B0004546E0B5D9B0984662AB1B78040007AD5F
:1002C0000AA82B700300454E8946924686CE86C307
:1002D0000CF082F9070008A80300320042CA42C3AA
:1002E0000CF07AF906000DA80AF0B2FA00232200F9
:1002F00003930DA9029501960097033314A80BF000
:100300007BFF0022002114A80BF0C4FF002849D174
:1003100014A80CF013F8002854D143460024002BF5
:1003200030DD2F4B05932F4B9B4604E0AE4230D17E
:100330000134444526D04B461E5753461D57701B6B
:10034000AE42F3DD04F028F9274904F01FF9002834
:10035000EED0300003F08CFC552303935B4606007F
:1003600028000F00029303F083FC32003B00009052
:10037000019105980CF0A8F801221C4B01341A7069
:100380004445D8D159B0F0BCBB46B246A946A046B8
:10039000F0BDA81B04F000F9134904F0F7F8002899
:1003A000C6D0D6E7124C0023512200900D49200000
:1003B0000CF08AF801220D4B14A81A700BF0BEFF46
:1003C0000028AAD00B4C002352220090054920009F
:1003D0000CF07AF80122054B1A709EE778A1011003
:1003E0000C8B0110408A0110ACC52737B161002089
:1003F000948A0110D48A0110F0B5DE4657464E4665
:100400004546E0B5D9B01D0062AB1B78834607AE08
:100410000AA833700300464F9146884616CF16C38C
:100420000CF0DAF8824608A80300390084C984C3B6
:100430000CF0D2F807000DA80AF00AFA0023039383
:1004400053465A4600930DA903230296019714A818
:100450000BF0D2FE0022002114A80BF01BFF002895
:100460004AD114A80BF06AFF002855D16B009A46B8
:100470000024002D30DD2F4B05932F4B9B4604E0CD
:10048000AE4230D10234A24526D043461E5F4B46D1
:100490001D5F701BAE42F3DD04F07EF8274904F0C7
:1004A00075F80028EED0300003F0E2FB55230393EB
:1004B0005B46060028000F00029303F0D9FB3200D0
:1004C0003B000090019105980BF0FEFF01221C4BB0
:1004D00002341A70A245D8D159B0F0BCBB46B2461E
:1004E000A946A046F0BDA81B04F056F8134904F035
:1004F0004DF80028C6D0D6E7124C002351220090B8
:100500000D4920000BF0E0FF01220D4B14A81A70DA
:100510000BF014FF0028A9D00B4C002352220090AE
:10052000054920000BF0D0FF0122054B1A709DE712
:1005300078A101100C8B0110408A0110ACC527373F
:10054000B1610020948A0110D48A0110F0B5DE4612
:1005500057464E464546E0B5D9B0984662AB1B7843
:10056000040007AD0AA82B700300484E8946924646
:1005700086CE86C30CF030F8070008A803003200CE
:1005800042CA42C30CF028F806000DA80AF060F930
:100590000023220003930DA90295019600970333CF
:1005A00014A80BF029FE0022002114A80BF072FE03
:1005B00000284ED114A80BF0C1FE002859D14346A3
:1005C000002B3FDD324B00240593324B9B460AE063
:1005D000301C03F074FF304903F0D8FF002818D115
:1005E000013444452ED04A46A300D6585246D55829
:1005F000301C291C03F0CAFF291C0028E8D1301C3C
:1006000003F0A6FF0028EBD1311C281C03F057FF94
:10061000E1E7301C04F01AF8552303935B4606000B
:10062000281C0F00029304F011F832003B000090E8
:10063000019105980BF048FF0122184B01341A7004
:100640004445D0D159B0F0BCBB46B246A946A046FD
:10065000F0BD134C0023512200900E4920000BF0F6
:1006600033FF01220D4B14A81A700BF067FE00280F
:10067000A5D00C4C002352220090064920000BF01C
:1006800023FF0122054B1A7099E7C04678A101109B
:100690000C8B0110408A0110ACC52737B1610020D6
:1006A000948A0110D48A0110F0B5D6464F464646CA
:1006B000C0B59AB0140089469A460BF08DFF80466B
:1006C00020000BF089FF070022980BF085FF4346BE
:1006D00006000822002104A8079304F083F84B4683
:1006E00000250693012302AC40469946A383029558
:1006F000A57765600BF0FAFE8046207F08F0F8FBD6
:100700004346584308220021A0610CA8676304F007
:1007100069F83E23E554534623634B463800A387CC
:10072000256265620BF0E2FE3C230700E05C08F006
:10073000DFFB78430021A063082214A8666504F05B
:1007400051F85E23E554249B4A4623655C23984672
:100750003000E252256465640BF0C8FE4346070092
:10076000E05C08F0C5FB7843A06530000BF0BEFEEE
:10077000249A0300239920000095FFF7E7FE1AB0A2
:10078000E0BCBA46B146A846F0BDC046F0B5DE466C
:10079000574645464E46E0B59BB01D0029AB1B7839
:1007A0000C0092469B460BF017FF070028000BF049
:1007B00013FF814626980BF00FFF804638000BF0A0
:1007C00095FE002824DD80005546261806E080208E
:1007D0004042043428700135A64219D08121206896
:1007E000C90503F086FE03F031FF03F013FB6C4BE9
:1007F000002203F096F903F053FA03008033E6DB9E
:100800007F28E6DD7F20043428700135A642E5D13B
:100810000822002104A8079703F0E4FF53460025AF
:100820000693092302AC3800A3830295A57765607F
:100830000BF05CFE0600207F08F05AFBFA239B05B4
:10084000A3600A2370435B42A061E36048460B3318
:10085000029365600BF04AFE002824DD249D800091
:10086000259E2F1806E08020404204353070013666
:10087000AF4218D02868011C03F024FE03F0E6FE06
:1008800003F0C8FA474B002203F054F903F008FACA
:1008900003008033E7DB7F28E7DD7F2004353070FD
:1008A0000136AF42E6D14B46082200210CA80025B4
:1008B000636303F097FF3E230926E554259B4846D2
:1008C0002363A687256265620BF010FE3C230700B8
:1008D000E05C08F00DFBFC239B05A3620423784336
:1008E000E3620127434608220021A06314A8636540
:1008F0002762656203F076FF5E23E5542A9B40463B
:1009000023655C239946E652256465640BF0EEFD91
:100910004B460600E05C08F0EBFAFE239B05A3645F
:100920000D237043A0654046E364276465640BF0C3
:10093000DDFD002821DD279D8000289E2F1806E080
:1009400080204042043530700136BD4215D0286801
:1009500003F07CFE03F05EFA134B002203F0EAF88A
:1009600003F09EF903008033EADB7F28EADD7F2075
:10097000043530700136BD42E9D140460BF0B6FD7A
:100980005A460300009220002A9A2899FFF78CFC0F
:100990001BB0F0BCBB46B246A946A046F0BDC0465F
:1009A000000024400000104000002A40F0B5DE4660
:1009B0004E4657464546E0B59DB01D002B9B0C00AA
:1009C00016009B4603920BF007FE814628000BF0B1
:1009D00003FE029028980BF0FFFD824648460BF07C
:1009E00085FD00281FDD80231B02984680006D4F87
:1009F000350026186C49206803F067FD03F026FED9
:100A000003F008FA0022002303F094F803F048F9F9
:100A1000B84200DA6348404500DB6448043428806B
:100A20000235A642E6D14B460822002106A80993CA
:100A300003F0D8FE039B00250893072304AC484627
:100A4000A3830495A57765600BF050FD0600207F19
:100A500008F04EFA544B7043A3600123A061029842
:100A6000E560049365600BF041FD002821DD4D4BEE
:100A7000269D984680231B0299468000279E2F18AA
:100A80004B49286803F021FD03F0E0FD03F0C2F9B3
:100A90000022002303F04EF803F002F9404500DA8B
:100AA0004048484500DB4148043530800236AF42BB
:100AB000E6D1029F082200210EA80025676303F0FB
:100AC00091FE3E230726E554279B38002363A68723
:100AD000256265620BF00AFD3C230700E05C08F02C
:100AE00007FA334B7843A3620127534608220021BB
:100AF000A06316A86365E5622762656203F072FE73
:100B00005E23E5542C9B504623655C239846E652B1
:100B1000256465640BF0EAFC43460600E05C08F0DF
:100B2000E7F95B467043A0655046A364E56427641B
:100B300065640BF0DBFC002821DD1A4B299D9846EB
:100B400080231B02994680002A9E2F185946286848
:100B500003F0BBFC03F07AFD03F05CF900220023F4
:100B600002F0E8FF03F09CF8404500DA0D484845E4
:100B700000DB0E48043530800236BD42E6D15046D7
:100B80000BF0B4FC00220300009220002C9A2A995A
:100B9000FFF732FC1DB0F0BCBB46B246A946A046EA
:100BA000F0BDC0460080FFFFCDCCCC3DFF7F0000F4
:100BB000CDCC4C3DF0B5DE464E4657464546E0B5F9
:100BC0009DB01D002BAB1B780C0016000292039306
:100BD0000BF002FD814628000BF0FEFC83462898AE
:100BE0000BF0FAFC824648460BF080FC002820DD22
:100BF00080231B02984680006D4F35002618812106
:100C00002068C90503F075FC03F020FD03F002F92C
:100C10000022002302F08EFF03F042F8B84200DA0F
:100C20006348404500DB6348043428800235A6420F
:100C3000E5D14B460822002106A8099303F0D2FD16
:100C4000029B00250893072304AC4846A383049520
:100C5000A57765600BF04AFC0600207F08F048F994
:100C6000FA239B05A36001237043A0615846E56009
:100C7000049365600BF03AFC002821DD4C4B269D67
:100C8000984680231B0299468000279E2F182868CB
:100C9000011C03F017FC03F0D9FC03F0BBF80022A1
:100CA000002302F047FF02F0FBFF404500DA404816
:100CB000484500DB3F48043530800236AF42E6D17C
:100CC0005B46082200210EA80025636303F08AFD1D
:100CD0003E230726E554279B58462363A6872562B3
:100CE00065620BF003FC3C230700E05C08F000F9B0
:100CF000FC239B057843A362012753460822002169
:100D0000A06316A86365E5622762656203F06AFD69
:100D10005E23E5542C9B504623655C239846E6529F
:100D2000256465640BF0E2FB43460600E05C08F0D6
:100D3000DFF8FE2370439B05A0655046A364E5647D
:100D4000276465640BF0D2FB00281EDD184B299D3B
:100D5000984680231B02994680002A9E2F182868F7
:100D600003F074FC03F056F80022002302F0E2FEC8
:100D700002F096FF404500DA0D48484500DB0D487B
:100D8000043530800236BD42E9D150460BF0AEFB4F
:100D9000039A0300009220002C9A2A99FFF72CFB5B
:100DA0001DB0F0BCBB46B246A946A046F0BDC04649
:100DB0000080FFFFFF7F0000F0B5DE4657464E463D
:100DC0004546E0B59FB099462F9B0C0090469B4648
:100DD0000BF002FC070028980BF0FEFB05902C9806
:100DE0000BF0FAFB824638000BF080FB061E28DD74
:100DF000484602F03DFFB600454602900391A61911
:100E000006E080204042043428700135A64218D004
:100E10007E49206803F059FB03F018FC02F0FAFF4A
:100E2000029A039B02F086FE02F03AFF0300803331
:100E3000E7DB7F28E7DD7F20043428700135A642F8
:100E4000E6D10822002108A80B9703F0CBFC43460B
:100E500000240A93092306AE3800B3830694B477BE
:100E600074600BF043FB0500307F08F041F8674BDE
:100E70006843B3604B46F3600123B0610598069365
:100E800074600BF033FB8146002832DD2B9802F0B2
:100E9000EFFE2A9B299F98464B469B0099460400EB
:100EA0000D00B94409E080204042434618700123F8
:100EB0009C460437E044B9451BD05549386803F0D7
:100EC00004FB03F0C3FB02F0A5FF2B00220002F09D
:100ED00031FE02F0E5FE03008033E4DB7F28E4DD31
:100EE00043467F20187001239C460437E044B945EF
:100EF000E3D1059F0822002110A80024776303F0A6
:100F000071FC3E230925F4542A9B38003363B587CE
:100F1000346274620BF0EAFA3C230700F05C07F0DD
:100F2000E7FF3B4B7843B3622B9B0127F3625346A9
:100F300008220021B06318A873653762746203F059
:100F400051FC5E23F454319B504633655C23984634
:100F5000F552346474640BF0C9FA43460500F05C42
:100F600007F0C6FF5B466843B364309BB0655046EC
:100F7000F364376474640BF0B9FA8146002832DDFB
:100F8000309802F075FE2E9B2D9F98464B469B0095
:100F9000994604000D00B94409E0802040424346D0
:100FA000187001239C460437E0444F451BD0594636
:100FB000386803F08AFA03F049FB02F02BFF2B009C
:100FC000220002F0B7FD02F06BFE03008033E4DB89
:100FD0007F28E4DD43467F20187001239C460437B8
:100FE000E0444F45E3D150460BF080FA0022030065
:100FF00000923000319A2E99FFF756F91FB0F0BCDD
:10100000BB46B246A946A046F0BDC046CDCCCC3DBD
:10101000CDCC4C3DF0B5DE4657464E464546E0B594
:10102000F44CA5440BF0C8FAF34BF44E0D93F44B7B
:101030003593F44B0E93F44B0C9398AB0B93F34B0B
:10104000139380AB9B46F24B2593F24B2693F24BC6
:101050001893F24B2793F24B2893F24B1D93F24BCC
:101060003393F24B3493F24B2293F24B2993F24B8E
:101070001C93F24B2A93F24B2B93F24B2C93F24B93
:101080001E93F24B1F93F24B2093F24B1693F24BAD
:101090001A93F24B1B93F24B2D93F24B2E93F24B80
:1010A0002F93F24B3093F24B3193F24B3293F24B3E
:1010B0002393F24B2493F24B3693F24B3793002356
:1010C0009A4652460D9B35981A6032600BF0FCF937
:1010D0005146139D0B9F0E9A50462B0011703A00FB
:1010E0000C991433087013CB13C203CB03C22B002B
:1010F0004AAA283313CB13C21B6813602B005CAAC7
:10110000383313CB13C21B6813602B006EAD48330A
:1011100013CB13C558461B684AAC2B6002906EA8CF
:1011200001905CA803003A00210038000097FFF707
:10113000BBFA01200C990E9A0D9B097810701B6860
:101140000122002901D1002201330D9925980B605D
:10115000336854469B1833600BF0B6F95046139D24
:101160000E9B5A4618702B000C981433047013CB46
:1011700013C203CB03C22B0046AA283313CB13C2DE
:101180001B6813602B004AAA383313CB13C21B68A9
:1011900013602B005CAA583313CB13C21B6858464C
:1011A00013600BF019FA070058460BF015FA05000A
:1011B00058460BF011FA0B9B040000215F610822D6
:1011C0009AA803F00FFB52460B9B38001A605A6036
:1011D0009A7746AA1A6101229A830BF087F90B9B32
:1011E0000700187F07F084FE78430B9FA2ABB8611D
:1011F0007D6308220021180003F0F4FA534651469B
:101200003B627B623E230122F9544AABBA873B63BF
:1012100028000BF06BF93C230500F85C07F068FE32
:101220006843AAAD0021B8637C650822280003F05A
:10123000D9FA3D005E2357462F646F64EF546EAFBA
:1012400001222F655C272000EA530B950BF04EF925
:101250000B9B0500D85D07F04BFE68430B9DA8650E
:10126000200002240BF042F900945CAC0300210042
:1012700028006EAAFFF76AF901230E9A0D990C98BF
:1012800013700B6801780122002901D1002201337B
:101290000D9926980B6033689B1833600BF014F996
:1012A00052460E9B1A700C9B1A70139B5CAA6833F3
:1012B00013CB13C213CB13C2189D6EAB2A0013CAF3
:1012C00013C313CA13C32B005A46183313CB13C2CC
:1012D00013CB13C2342200219AA803F083FA012110
:1012E00006230B9A0320536011601300042402228A
:1012F000DC635A619A61D8619862DA621963586353
:10130000196458649964DA6498AB1C000B934AAB77
:1013100002935B4622002000019300946EAB5CA90F
:10132000FFF7C2F91434ACABA342F0D101220E9BFB
:101330001A700C9A0D9B11781B680122002901D1AB
:10134000002201330D9927980B6033689B18336096
:101350000BF0BAF852460E9B1A700C9B1A70139B36
:101360006EAA683313CB13C213CB13C253465A462B
:101370004693454B4A93189B303313CB13C213CB80
:1013800013C2342200219AA803F02CFA012106236B
:101390000B9A989103205360042413000222DC630B
:1013A0005A619A61D8619862DA6219635863196464
:1013B00058649964DA6498AB1C000B935CAB02939D
:1013C0005B462000019300944AAB46AA6EA9FFF742
:1013D0006BF91434ACABA342F0D101220E9B1A700E
:1013E0000C9A0D9B11781B68012200294ED1002216
:1013F00001334BE08CFCFFFF6C2A0020682A0020A0
:10140000408B0110B2610020B161002078A1011071
:10141000608B0110808B0110F8A10110A48B0110CA
:10142000C88B0110408A0110948A0110D48A0110DF
:101430000C8B0110E88B011078A20110108C0110A8
:10144000388C0110648C0110BC1E00206C1E002022
:10145000F09E01100C1F002048A1011030A10110C6
:10146000948C0110C08C0110EC8C0110148D0110B3
:10147000408D01106C8D01109C8D0110C88D0110E4
:10148000DC8D0110F48D0110CDCCCC3D0D99289848
:101490000B6033689B1833600BF016F852460E9BB6
:1014A0001A700C9B1A70139B5CAA143313CB13C2D3
:1014B00003CB03C2189D3EAA2B00483313CB13C2A3
:1014C0001B6813602B0042AA583313CB13C21B684E
:1014D00013602B0046AA683313CB13C21B685CA8A9
:1014E00013600BF079F807005CA80BF075F80500A5
:1014F0005CA80BF071F85946040008224F6182A8DD
:10150000002103F06FF959465046022308604860F5
:1015100088773EA88B83086138000AF0E7FF5946B8
:101520000700087F07F0E4FC5946784308228861E9
:101530004D638AA8002103F055F9594650463E23D1
:1015400008624862C8543C3B42A808638B87280065
:101550000AF0CCFF3C2359460500C85C07F0C8FCE4
:101560005946684308224C658863002192A803F01D
:1015700039F9594650465E235C2708644864C854CC
:101580005C3B4AA80865CB5320000AF0AFFF5946E0
:101590000500C85D07F0ACFC59466843886520002B
:1015A0000AF0A4FF0F9028202EA909185046139A7C
:1015B00008703BAD13CA13C53BA80BF00DF8012210
:1015C0000223040039A839923A930BF005F805007C
:1015D0006EA809F03DF9534600940B9C039338AB79
:1015E0005A4602936EA90323200001950AF004FED7
:1015F0000022002120000AF04DFE002801D000F05A
:1016000088FE0B980AF09AFE002801D000F075FEC3
:10161000002399460F9B4AAC2700B04646AD002BED
:101620000CDC36E0B44201D000F05BFE01239C46A6
:101630000F9BE144043504374B4529D02C683E68A4
:10164000A01BB442EEDD02F0A7FFF54902F09EFFB9
:101650000028EBD0200002F00BFB552303931D9BC9
:10166000109011913000029302F002FB109A119B2E
:101670000090019122980AF027FF01220C9B04356B
:101680001A7001239C460F9BE14404374B45D5D18A
:10169000464601220E9B1A700C9A0D9B11781B680E
:1016A0000122002901D1002201330D9929980B60F4
:1016B00033685CAF9B1833600AF006FF5246504611
:1016C0000E9B0B9D1A700C9A107013982A00143000
:1016D000030013CB13C203CB03C218986EAA783051
:1016E000030013CB13C71B683B601C9F3B000833F0
:1016F00013CB13C21B6813603B005F46183313CB38
:1017000013C71B684AA83B6006905046059046A840
:10171000049058463EAC039042A8220001905CAC75
:101720006EA82B002100009002952800FFF72EF8EC
:1017300001200E9B0D990C9A18700B6811780122EC
:10174000002901D1002201330D992A980B603368DA
:101750005CAF9B1833600AF0B7FE524650460E9BB2
:101760000B9D1A700C9A107013982A001430030005
:1017700013CB13C203CB03C218986EAA78300300B0
:1017800013CB13C71B683B601C9F3B00083313CB74
:1017900013C21B6813603B005F46283313CB13C78B
:1017A0001B684AA83B6006900220059046A804905A
:1017B00058463EAC039042A8220001905CAC6EA853
:1017C0002B002100009002952800FEF7DFFF01208A
:1017D0000E9B0D990C9A18700B6811780122002944
:1017E00001D1002201330D992B980B60336804243A
:1017F0009B1833600AF068FE52460E9B00211A7057
:101800000C9B9AA81A70342202F0ECFF01210623E7
:101810000B9A98910320536013000222DC63D86175
:101820009862196358631964586499645A619A619B
:10183000DA62DA64139B5CAA683313CB13C213CB4E
:1018400013C2189D6EAB2A0013CA13C313CA13C365
:101850002B005A46183313CB13C213CB13C298ABC9
:101860001C000E276F4D0B934AAB099346AB0693B2
:101870005B4605930523039342AB02936EAB019342
:1018800009232000049400945B42089707953EAA20
:101890005CA9FFF791FA1434ACABA342E4D1012266
:1018A0000E9B1A700C9A0D9B11781B68012200295F
:1018B00001D1002201330D992C980B6033689B18DD
:1018C00033600AF001FE52460E9B1F9F1A700C9B5C
:1018D000B9461A701E9B209A109790461F001293CB
:1018E00015920F9616980AF077FE060038000AF057
:1018F00073FE050048460AF06FFE5B4604000021B7
:101900005E61082282A802F06DFF5B4652461A60B3
:101910005A609A771A9A30001A6101235A469383C3
:101920000AF0E4FD5A460600107F07F0E1FA5A4635
:10193000704355639061002108228AA802F052FF8B
:101940005A4651465046116251623E21012350547D
:101950001B999387116328000AF0C8FD3C235A465F
:101960000500D05C07F0C4FA5A4668430021906332
:10197000546592A8082202F035FF5A4651465E236C
:10198000116451645C26D15459460B9A5D3B0A653B
:1019900020008B530AF0AAFD5B460500985D07F016
:1019A000A7FA5B466843986520000AF09FFD514600
:1019B00003000091584641460B9AFEF7C7FD1423D9
:1019C0009C467C33E1449C46174B1437E044BB42B1
:1019D00088D101230E9A0F9E13700C9A0D9B1178DB
:1019E0001B680122002901D1002201330D992D9895
:1019F0000B6033680C279B1833600AF065FD524674
:101A00000E9B0A4D1A700C9B1A70139B6EAA6833BA
:101A100013CB13C213CB13C253465A4608E0C04639
:101A2000ACC52737CDCCCC3D0C1F0020CDCC4C3DD8
:101A30003B93A44B3E93189B303313CB13C213CB71
:101A400013C2342200219AA802F0CCFE0121062301
:101A50000B9A989103205360042413000222DC6344
:101A60005A619A61D8619862DA621963586319649D
:101A700058649964DA6498AB1C000B935CAB0993CF
:101A80004AAB06935B4605930423039346AB02934C
:101A90003EAB01933BAB00930823200004945B42D0
:101AA0000897079542AA6EA9FFF786F91434ACABE4
:101AB000A342E3D101220E9B1A700C9A0D9B117860
:101AC0001B680122002901D1002201330D992E98B3
:101AD0000B6033689B1833600AF0F6FC52460E9B8D
:101AE0000B9C1A700C9B21961A70209B14931F9BC1
:101AF0000F931E9B984616980AF06EFD05001990EC
:101B000040460AF069FD17900F980AF065FD81467E
:101B100028000AF0EBFC00282FDD7021F3232EAA09
:101B200052181370012828D02EAA9446823B634491
:101B30001D004AAB644E1F1806E08020404228700A
:101B400001350436AF4218D05E49306802F0BDFC62
:101B500002F07CFD02F05EF95C4B002201F0E1FF37
:101B600002F09EF803008033E7DB7F28E7DD7F206B
:101B7000287001350436AF42E6D1199D08220021B4
:101B800065619AA802F02EFE534623606360A37736
:101B90004AAB236109232800A3830AF0A7FC0500B0
:101BA000207F07F0A5F9474B6843A3600A235B42F7
:101BB000E3600B3323605346A061636017980AF01B
:101BC00095FC00282FDDB821FF232EAA5218137090
:101BD000012828D02EAA9446463B63441D005CABE6
:101BE0003B4E1F1806E08020404228700135043625
:101BF000AF4218D03749306802F067FC02F026FD8A
:101C000002F008F9344B002201F08BFF02F048F893
:101C100003008033E7DB7F28E7DD7F202870013574
:101C20000436AF42E6D1179D002108226563A2A8C1
:101C300002F0D8FD53465246236263623E230927D1
:101C4000E2545CAB28002363A7870AF04FFC3C23D7
:101C50000500E05C07F04CF952461E4B6262A3623D
:101C600005234A4668435B42E36206330021A063D2
:101C700023626265AAA8082202F0B4FD52465E23E0
:101C8000226462645C26E2545A4648462265A753A1
:101C90000AF02CFC0500A05D07F02AF90723E36495
:101CA000063B236453466843064AA065A26448463F
:101CB00063640AF01BFC002830DD149D80006EAECA
:101CC000471912E0CDCCCC3D4CA1011000002440BE
:101CD00034A10110CDCC4C3D000014408020404286
:101CE000043530700136AF4218D0F149286802F04F
:101CF000ECFB02F0ABFC02F08DF8EE4B002201F0A1
:101D000019FF01F0CDFF03008033E7DB7F28E7DD1B
:101D10007F20043530700136AF42E6D148460AF0E4
:101D2000E5FB52460300009220005A466EA9FEF7DA
:101D3000BBFA14239C460F9BE04414330F93149B6F
:101D400090331493DC4B434500D0D4E601220E9B24
:101D5000219E1A700C9A0D9B11781B680122002994
:101D600001D1002201330D992F980B6033685CAFCD
:101D70009B1833600AF0A8FB524650460E9B0B9D01
:101D80001A700C9A107013982A001430030013CBA9
:101D900013C203CB03C218986EAA7830030013CB8A
:101DA00013C71B683B601C9F3B00383313CB13C227
:101DB0001B6813603B005F46183313CB13C71B68C7
:101DC0004AA83B6006905046059046A804905846A5
:101DD0003EAC039042A8220001905CAC6EA82B00A0
:101DE0002100009002952800FEF7E4FE01200E9BE2
:101DF0000D990C9A18700B6811780122002901D1F5
:101E0000002201330D9930980B6033685CAF9B184A
:101E100033600AF059FB524650460E9B0B9D1A70D8
:101E20000C9A107013982A001430030013CB13C2BD
:101E300003CB03C218986EAA7830030013CB13C7E4
:101E40001B683B601C9F3B00083313CB13C21B680D
:101E500013603B005F46283313CB13C71B684AA8A7
:101E60003B6006900220059046A8049058463EAC80
:101E7000039042A8220001905CAC6EA82B002100C8
:101E8000009002952800FEF795FE01200E9B0D990B
:101E90000C9A18700B6811780122002901D10022D8
:101EA00001330D9931980B60336804249B1833601B
:101EB0000AF00AFB52460E9B00211A700C9B9AA84E
:101EC0001A70342202F08EFC012106230B9A98919D
:101ED0000320536013000222DC63D8619862196307
:101EE00058631964586499645A619A61DA62DA64D1
:101EF000139B5CAA683313CB13C213CB13C2189D78
:101F00006EAB2A0013CA13C313CA13C32B005A465D
:101F1000183313CB13C213CB13C298AB1C00644D00
:101F20000B934AAB069346AB04935B46039342ABD9
:101F300001936EAB200002940093059523003EAA06
:101F40005CA9FEF733FD1434ACAB9C42E9D101220D
:101F50000E9B1A700C9A0D9B11781B6801220029A8
:101F600001D1002201330D9932980B603368534D33
:101F70009B1833600AF0A8FA52460E9B1A700C9B0D
:101F80001A70139B6EAA683313CB13C213CB13C200
:101F900053465A463B93464B3E93189B303313CBE4
:101FA00013C213CB13C2342200219AA802F01AFCE8
:101FB000012106230B9A98910320536004241300F7
:101FC0000222DC635A619A61D8619862DA6219630D
:101FD0005863196458649964DA6498AB1C000B93D5
:101FE0005CAB06934AAB04935B46039346AB019309
:101FF0003EAB20000294009305953BAB42AA6EA92C
:10200000FEF7D4FC1434ACABA342E9D101220E9B01
:102010001A700C9A0D9B11781B680122002901D1BE
:10202000002201330D9923980B6033689B183360AD
:102030000AF04AFA52460E9B19961A700C9B1A70B7
:102040000B9B984616980AF0C7FA0400179012984E
:102050000AF0C2FA0F9010980AF0BEFA149020000D
:102060000AF044FA00283ADD032370212EAA5B42CD
:1020700052181380012832D02EAA94467533634437
:102080001C004AAB9946802640000D4D0D4F8144FF
:1020900036020749286802F018FA02F0D7FA01F070
:1020A000B9FE0022002301F045FD01F0F9FD0BE02F
:1020B000CDCCCC3D00001C400C1F0020CDCC4C3DB5
:1020C0004CA101100080FFFFB84200DA9948B042ED
:1020D00000DB99482080023404354C45D9D1434671
:1020E000179C00215C6108229AA802F07BFB434602
:1020F00052461A605A609A774AAA1A61072220004B
:102100009A830AF0F3F943460400187F06F0F0FEC4
:1021100043468A4A60439A605246DA6001221A6056
:10212000524698615A600F980AF0E0F900282CDDB9
:10213000B8222EAB9B18B43A1A80012825D02EAABB
:10214000BA23944663441C005CAB99468026400049
:102150007B4D784F814436027A49286802F0B5F900
:1021600002F074FA01F056FE0022002301F0E2FCB6
:1021700001F096FDB84200DA6E48B04200DB6E48CE
:10218000208002340435A145E6D143460F9C082245
:102190005C630021A2A802F025FB4346524651464B
:1021A0001A625A623E2342460726D15443465CAA2D
:1021B0001A639E8720000AF099F93C2342460400E6
:1021C000D05C06F095FE43464246604398635D4B03
:1021D0000127936243465246149CDA625A625C6558
:1021E000082200211F62AAA802F0FCFA43465246C8
:1021F00051461A645A645E2342465C25D1544346D4
:102200005A4620001A655E530AF070F943462600CC
:102210000400585D06F06CFE4346484A60439A64E9
:1022200052469865DA6430001F645A640AF05EF919
:10223000002820DD159C8026A14680003D4F6EAD14
:10224000814436023D49206802F03FF902F0FEF970
:1022500001F0E0FD0022002301F06CFC01F020FD04
:10226000B84200DA3348B04200DB334804342880F7
:102270000235A145E6D114980AF038F95246030018
:10228000009240465A466EA9FEF7B6F8109A129B85
:1022900014321092159A1433903215922A4A1293DE
:1022A0009A4200D0CEE601220E9B199E1A700D9B19
:1022B00019680C9B1A780123002A01D100230131EF
:1022C0000D9A2498116032689A18326052180AF0F8
:1022D000FBF83368002B28D136980AF0F5F8FEF7A2
:1022E000F0FE301B02F058F9184902F04FF90028AF
:1022F00001D1FFF79BF9FFF7ADF9002352220090BF
:102300001D9934980AF0E0F801220C9B1A70FFF72F
:102310007FF90023512200901D9933980AF0D4F8D8
:1023200001220C9B1A70FFF76CF937980AF0CCF871
:10233000FEF7C7FE0080FFFFFF7F0000CDCCCC3D45
:1023400034A10110CDCC4C3D0C1F0020ACC527376B
:102350008023DB051868000F7047C0460FB400B536
:10236000084883B004F004F9049B002B07D005A9AA
:102370001800019103F0D0FE034804F0F9F80120A1
:1023800003F0E2FE108E0110208E011070B5EFF305
:10239000108C72B60D4D2B68002BFCD0BFF35F8FF5
:1023A0000724CB08C618C05C01230C40A3401C00C6
:1023B0000440034207D118433070BFF35F8F2C6095
:1023C0008CF3108870BD1000FFF7C8FF2C0100D0FF
:1023D000F8B54746CE46884680B5EFF3108C72B606
:1023E0001C4D2C68002CFCD0BFF35F8F9A4222D882
:1023F00007210126894602E00132934218D34D4657
:1024000037001540AF40D4080119045D2742F3D1CD
:1024100010003C430C70BFF35F8F00220D4B1A601D
:102420008CF3108800280EDBC0BCB946B046F8BD5E
:1024300001204042EFE7BFF35F8F00232B608CF356
:102440001088012040424346002BEDD00898FFF74A
:1024500085FFC0462C0100D0044A1078431CDBB233
:10246000172B00D9102313707047C046201F00207F
:1024700010B5064B064C82B00100009318221F23B2
:102480002000FFF7A5FF02B010BDC046248E01104A
:10249000DC5C00200021044B044ABFF35F8F02C3C1
:1024A0009342FAD17047C046000100D0800100D0AD
:1024B000054B064A1360064A136053609360D3606D
:1024C00013615361936170478080808000E400E075
:1024D00004E400E01F2318401E3B8340002905D080
:1024E000C021044A490053501360704780220149BB
:1024F0008B50FAE700E100E001228240034B1B68A9
:1025000013405A1E9341D8B27047C04600E100E024
:1025100001238340014A13607047C04600E200E097
:10252000084B10309B688000C358002B07D0064A28
:1025300000209B1A2F229A424041C0B270470020CF
:10254000FCE7C04600ED00E0241F002070B50D0040
:10255000EFF3108672B60F4A1368002BFCD0BFF35E
:102560005F8F0D4B10309B6884001B590B4A9342C0
:1025700003D09D4201D000F093FF074B9B681D5193
:10258000BFF35F8FBFF35F8F0022024B1A6086F3A9
:10259000108870BD240100D000ED00E0CD010010D6
:1025A000F0B557464E46DE464546E0B585B00600D6
:1025B00000911700EFF3108B72B66A4A1368002B74
:1025C000FCD0BFF35F8F0025674B5D579A46002D07
:1025D00000DAA9E06B00654C01935B199B009846FB
:1025E000A146C1444B4652469B7910361370604B4E
:1025F000B6009B6899590B1B2F2B33D95D4B994221
:1026000000D0ACE0019B42469C465B4B6544AD006C
:1026100063535A4B0232A218043B9B1A1B05584ABB
:102620005B0D651913436B80564B0121AB80FF2373
:10263000AB71009BEF71AB604B460B4319004C4BE9
:102640009B689951BFF35F8FBFF35F8F0022454BAB
:102650001A608BF3108805B0F0BCBB46B246A946A1
:10266000A046F0BD01200A008243D3798C46BB42CC
:1026700031D84546130044491B1B5B415943090DA2
:102680003D4B63533D4B02356519043B5B1B1B05FA
:102690003B4D5B0D2B43AA464D466B800425AC4653
:1026A0005546E044131F44441B1B1B055B0D1D4393
:1026B0004B46997100999D8099604946DF71334B73
:1026C00001431360BBE75800C01880002018C1798F
:1026D000B9422FD902000623D356002BF3DA029316
:1026E0002B4B61460393131D9A4604235B429C4681
:1026F000E14450464B461B1A1B055B0D9C46204B84
:10270000957198466346404603439380019B5A194E
:102710009200039BA418A380029B1C4AA371009BF8
:102720002260E771A3608AE700F0BAFE00255346F5
:102730005D574FE7908802934005131D9A46031595
:1027400061469C464046D444634604302018181A1B
:10275000E0230005400D1B0218430390C5E700F07D
:102760009FFE4FE7240100D0B8610020241F002005
:1027700000ED00E0CD01001000A1FFFF541F00207C
:1027800000E0FFFF01BDFFFFAAAA0000014880474B
:1027900001BD000070B501240443EFF30581EFF3A0
:1027A000108C72B6214A1368002BFCD0BFF35F8FE8
:1027B0001F4B05001F4AED1A6D416A43120D1E4D55
:1027C0008900AE6852B27658A6421CD006215956EE
:1027D00091421CD012215956914222D01E215956A5
:1027E000914220D02A2159560324914210D0134BF4
:1027F00019781A708171BFF35F8F00220B4B1A603A
:102800008CF3108870BDAB680D4C5C50EFE7002472
:102810006100091989005B18FF21997109499980A4
:10282000E5E70124F4E70224F2E7C046240100D0E2
:10283000241F0020AAAA000000ED00E0B8610020DB
:10284000CD01001001BDFFFF10B5084B084C82B050
:1028500001000093002205232000FFF7B9FD0028A6
:1028600001DB1F23181A02B010BDC046408E0110B4
:10287000BC610020024B9C466144890001607047A6
:102880004000003470B5114C114DAC420FD2FF2600
:102890002368002B0CD0FFF7DFFD01002000FFF7BD
:1028A000E9FFA680BFF35F8F0834AC42F0D370BD60
:1028B000FFF7D2FD01002000FFF7DCFF2671BFF318
:1028C0005F8F0834AC42E3D3F1E7C046CC2600204A
:1028D000DC26002010B50400FFF7BEFD010020003B
:1028E000FFF7C8FFFF232371BFF35F8F10BDC04602
:1028F00010B504000120FFF7BBFD034BC3189B007C
:102900002360BFF35F8F10BD40000034034B9C4633
:10291000614489000160BFF35F8F7047400000345D
:102920000A4B1968EFF3108072B60A68002AFCD0CF
:10293000BFF35F8F1B68BFF35F8F00221A6080F3C5
:10294000108840BF002000217047C04694610020DD
:10295000F0B5DE4657464E464546E0B587B0EFF344
:1029600005820323012513409D409900B34AB44BCF
:1029700054581D60B34B8846A946049329E0A388A8
:102980001BB2002B00DBA5E0A379002B00D0E6E012
:102990000823E05E002800DA0FE1430062691B189B
:1029A000DB00D3189E68DD68731C00D111E1A64BD3
:1029B000190041449A6A0B69B01A9B1A984200D2D6
:1029C0000E61A14800F030FB8D4200DDF5E000D142
:1029D0002BE14B469C4843630823E55E002DCEDB8C
:1029E00062696B0092465B19DB009A4453469E680D
:1029F000DF6800F019FB8F42C1DC00D10BE1002F32
:102A000000DAF0E05246534652691B699346049A35
:102A1000934200D1E1E052460821605E52880004F2
:102A2000594610439847029003910299039A0B006C
:102A30001000134300D1D6E013000A00B61A9F41DC
:102A4000002806DB804800F0EFFA029E039F36184C
:102A50004F4153469E60DF6000229A5E002A8EDB63
:102A6000530099186069C900411801938B68C968BF
:102A70009B46B94200DD82E702D1B34200D97EE72E
:102A800008239C46A444059565462281A446019BE3
:102A90002C0006E053009918C90041188D68C968D8
:102AA000AB469B18DB00C318B94206DC00D1C0E07E
:102AB0001C000023E25E002AECDA230064469C46F8
:102AC00053461A806346059D1D80A3881BB2002BC8
:102AD00000DA59E72269EFF3108172B61368002B10
:102AE000FCD0BFF35F8F0123A7885B42A3803FB276
:102AF0002369BFF35F8F00221A6081F31088002FD3
:102B000000DA41E72300083322009A4666697B0019
:102B1000DB19DB00F318996850468C460824115FD6
:102B2000DD68002910DB019306E0AB424DD00023A5
:102B3000E15E2000002906DB4C006418E400341933
:102B4000E368AB42F1DD019B078000201F5E198026
:102B5000002FDCDA1400A379002B00D118E7002342
:102B6000A37126000823E15E08364B1C25D008001F
:102B7000A246656902E03E004B1C1AD04B005B1870
:102B8000DB00EF180A008C46E95E7B881BB2002B45
:102B9000F1DA01235B42DC17BB60FC60824205D0A6
:102BA000534631801B893B8053461A8160464B1C3B
:102BB000E4D15446002800DBEFE640BF07B0F0BC8C
:102BC000BB46B246A946A046F0BDA3686345AED950
:102BD000B9E76B1C00D0EAE6F3E65B4658461B6992
:102BE000984700281BD153461B8822692381EFF3A5
:102BF000108372B611680029FCD0BFF35F8F514675
:102C000062880A8022696580BFF35F8F00211160AE
:102C100083F31088B3E6864200D8F0E6AFE65B4661
:102C20001A685B6802920393FFE6864200D8D0E6FA
:102C3000C3E7B34500D83BE73FE7C04678610020D3
:102C40003C700540512900100040054070B52E4CE5
:102C50002569002D04D00A212C48FFF70BFE70BD1A
:102C60002B4E0321300000F0D5F9E660FFF7F4FBAE
:102C7000284B03229C46D02322701B061B6801218F
:102C80006370254B6044A3600F2380002061022005
:102C9000638063694942A1801980023119864731F6
:102CA0001D83585218315A5275325C399952183274
:102CB0000131995218320131995218320131995229
:102CC000083518329D5202311832995218320131AA
:102CD00099521832013199521832013199521832F1
:102CE000013199521832013199520C4B0C49DC6078
:102CF00001303562FFF72AFC01210320FFF7EAFBD0
:102D0000084B1D60A7E7C0466C1F0020946100209F
:102D10000040054040000034FFFF100078610020B3
:102D20005129001038600540004870476C1F002092
:102D3000F8B51F0008AB1B7804001600002B08D163
:102D400000F07AF932003B00121A8B41002B00DAB6
:102D500052E02269EFF3108072B61368002BFCD0AA
:102D6000BFF35F8F0223E15E63694A005218D2000D
:102D70009B182269002936DB1D886580BFF35F8FB1
:102D80000025156080F31088069A9E60DF601A6146
:102D9000079A5A615A8801325204520C101C002AB8
:102DA0001FD082B25880080410432669EFF31087C1
:102DB00072B63268002AFCD0BFF35F8FA2881A80F7
:102DC000A1802369BFF35F8F00221A6087F3108808
:102DD0000A4923788C4601329A40E36863441A60BA
:102DE000F8BD0120DDE7BFF35F8F0023136080F3A0
:102DF000108801204042F3E70020F1E73C2000006A
:102E000070B501000469EFF3108C72B620680028D9
:102E1000FCD0BFF35F8F02200D5E4C696800401943
:102E2000C00024180869002D36DB26884E80BFF3C9
:102E30005F8F002606608CF31088E3606388049837
:102E4000013320615B0405985B0CA26060611A1C71
:102E5000002B1FD093B22804628018430A69EFF355
:102E6000108C72B61368002BFCD0BFF35F8F8B8879
:102E700023808D800B69BFF35F8F00221A608CF373
:102E800010880B7801329A40CB6808498C4663441D
:102E90001A6070BD0122DDE7BFF35F8F002303607E
:102EA0008CF3108801204042F3E7C0463C2000002C
:102EB00010B543890A1493421ADD53009B184269E6
:102EC000DB00D3180469EFF3108C72B62268002A75
:102ED000FCD0BFF35F8F5A88090494B2090C8A4270
:102EE00008D00369BFF35F8F00221A608CF310884B
:102EF000002010BD8022120214435C80012302696D
:102F00008371BFF35F8F002111608CF31088044937
:102F100002788C469340C268012062441360E8E75F
:102F20003C20000040787047F0B5CE46474680B55B
:102F300004000D0083B0EFF3058399460F00002BCA
:102F400042D1314EA0463378F06804339B00816A49
:102F50001B58601A5B1A984212D320BF2B490020DD
:102F60004B6AAB4207D38A6A5B1B591E8B414146B1
:102F70008A424041184303B0C0BCB946B046F0BDD8
:102F800000F05AF822002B00121A8B41002B28DB8C
:102F90004B4601931E4B2200009330002B00FFF79D
:102FA0002FFF011E1DDD194B5A6AAA422AD39B6AC4
:102FB0009C4225D83000FFF77BFF144A0020536A5B
:102FC000BB42D8D3926ACFE7104900204B6AAB428C
:102FD000D1D38A6A5B1B591E8B41A24240411843E0
:102FE000C9E70A4A0020536ABB42C4D300204146C5
:102FF000926A5B1B8A4240415A1E93411843BAE7CA
:10300000AA42D7D120BFD5E76C1F00200040054061
:103010002129001010B5024A0248FFF7B7F910BD88
:103020005C8E0110E05C00200300416A0A00986A8F
:10303000596A8A42FAD17047034B596A0A00986A62
:10304000596A9142FAD170470040054070B50400BA
:103050000D00174A536A1900966A536A8B42FAD1D7
:103060003000190024184D41AB4216D813D0104B34
:103070002A005B6A9D4203D90D494B6A9342FCD3F7
:10308000934207D10A4A02E0516A994202D1916AF9
:10309000A142F9D370BDA642E9D9054B5B6A1C0079
:1030A0005A1CEFD0012201246442E5175242E3E7A3
:1030B00000400540F8B5DE464E4657464546E0B569
:1030C0008B4605000A991800160000F0EFFA0A9BDB
:1030D0006C001F02324B64199C46A4006444636870
:1030E00081469F4200D967602B1FDBB29846012BB7
:1030F00030D9C02380229B01E31812011A60294BAA
:10310000AD0059599A4600291BD17301E026226867
:1031100053401E40802342465B01E3181E60012A93
:1031200030D9802380229B01E31812011A60534694
:103130004A4667605A51F0BCBB46B246A946A04613
:10314000F8BD586900F0B2FA013043001B18033B88
:10315000FDD2DAE75B46012BCBD1C02303229B01D2
:10316000E3181A60023AA3681A42FCD07301E02601
:103170002268AD0053401E4080230A4A5B019246FC
:10318000E3181E605A462168514003220A401A6023
:1031900001225B469A40A3681A42FCD0C1E7C046B0
:1031A00000800040E45C0020F0B546464F46D6461D
:1031B000C0B51F00344B44009C462418A40064444E
:1031C000636888461600FF2B02D880235B0063608B
:1031D000031FDBB29A46012B30D9C02380229B010A
:1031E000E31812011A60294B8500595999460029A4
:1031F0001BD17301E026226853401E4080235246B3
:103200005B01E3181E60012A30D9802380229B01D4
:10321000E31812011A6080235B0063604B465F5124
:10322000E0BCBA46B146A846F0BD586900F03EFA87
:10323000013043001B18033BFDD2DAE74346012B64
:10324000CBD1C02303229B01E3181A60023AA36882
:103250001A42FCD07301E0262268850053401E40CC
:1032600080230A4A5B019146E3181E6042462168AA
:10327000514003220A401A60012342469340A2684B
:103280001342FCD0C1E7C04600800040E45C00204F
:10329000014B8000C0587047E45C0020F8B5040082
:1032A00021481E0017000D0000F000FA0100380050
:1032B00000F0FCF9069B36041B031E432368002B19
:1032C00020DB1A4B1A49E3185A1E934180229201BF
:1032D00094465B421B0B174A1B0363441360164A58
:1032E00013601F000A689743FBD1144B2560E21856
:1032F0002123A06013602368002BFCDA0823E6601A
:103300001360F8BD3F2322681340AB42D9D1A368B4
:103310001B051B0D8342D4D1EE22E368D202134079
:10332000B342CED1EDE7C046001BB7000040FDBF61
:1033300008C0004000E0004000F000400430000001
:1033400010B580241C4BE4051C6000281AD0012312
:103350001A4C18431A4BDC611A4C44401C625962E7
:1033600098628021144BC9051960174817490860F5
:10337000E021C9041960002A07D18022144B1206EB
:103380001A6010BD0E4BD861EBE753019B1A9B00EE
:103390009A18802312015B049A4209D213000D4946
:1033A0000B60074B5A608022094BD2051A60E8E790
:1033B000094B1A00F3E7C04600B00540D3C007B080
:1033C000008005402D3FF84FFCFF01000820014020
:1033D00000A0054050610020FFFFFF008023024A4B
:1033E0009B000B43D362704700800540002310B55B
:1033F0000100988A1B8B984710BDC046162310B554
:103400000100188802331B88984710BDF8B547465D
:10341000CE4680B50F1E18D01423994604330400FD
:103420000025012698464B461888434621681B888C
:10343000984701C4431E984101350640AF42F2D17E
:103440003000C0BCB946B046F8BD0126F8E7C0461A
:10345000002370B504000D00988A05491B8B98471E
:1034600003000020002C01DB0130A0402900984718
:1034700055420000AA23064A1B0113602F23054969
:10348000D360054B19605368002BFCDA7047C046C7
:103490000040024000B0FA00006002407047C046A1
:1034A00010B50148FEF75AFF808E011070B5074D28
:1034B000074EB54209D20024013E761BB60808CD5E
:1034C000984723000134B342F9D170BDF08901104F
:1034D0002C8A0110054B064A06491A60064A074B1A
:1034E0001A6010000B689843FBD1704700E0004061
:1034F000BFCDFBFE08C00040FE7F3C0000F0004056
:10350000044BDB6C002B03D18022034BD2021A60E8
:103510007047C046000011504C201150044A054B22
:103520001A60054A1368DB018033FBD17047C0463F
:10353000FFFFFF0100F0004008C000404022034BA5
:103540009A675A671A67DA667047C04600F001400A
:1035500010B5FEF79FFF10BD70B5044D044CA9686F
:10356000C022200001F044F9AC6070BD00ED00E025
:1035700000000020002310B5294C82B0A367FFF79C
:1035800079FF0122274B1A60636C012BFCD10322C7
:10359000254B1A60224A936B012BFCD10133009317
:1035A0000121224A22480433FFF778FE0523012136
:1035B0000093204A2048FFF771FE002202210420D8
:1035C0001E4BFFF7F1FD0022012105201C4BFFF7E8
:1035D000EBFD0022002107201A4BFFF7E5FD00223A
:1035E00000210820174BFFF7DFFD8023DB0000934D
:1035F000002200210920134BFFF75CFD0022104B35
:1036000000210620FFF7D0FD0420FFF741FE0E4900
:1036100000F04CF801000020FFF7E0FE02B010BD02
:10362000008000403CB0004030B00040002F68599E
:1036300000800240008C864700C00240001BB7009B
:1036400040597307006CDC0240420F00014804211E
:10365000014B1847901F00200D340010124A936F41
:103660009B0815D29066D166002905D0FFE7FFE7D9
:10367000FFE7516F106F704704B580210906C2172C
:103680005140002800D0C84315F012F9002104BDB4
:10369000F0B5146E556E576F166FFFF7E3FF1466A3
:1036A000556657671667F0BD000000D0114A936F4A
:1036B0009B0813D210665166002905D0FFE7FFE78B
:1036C000FFE7516F106F704704B5002801D000204C
:1036D000C04315F0EDF8002104BDC046F0B5146EEE
:1036E000556E576F166FFFF7E5FF146655665767FF
:1036F0001667F0BD000000D094464A4A926F9208C7
:10370000624601D228E0C046F0B5464E346E756E72
:10371000776F366F00F020F89446424A146655667B
:10372000576716676246F0BD94463E4A926F92080C
:10373000624601D254E0C046F0B53A4E346E756E22
:10374000776F366F00F04CF89446364A146655662B
:10375000576716676246F0BD002B24DB11D00029A5
:103760003EDA00B5C943404200D1013100F038F8DB
:10377000C943404200D10131DB43524200D1013301
:1037800000BD002AEBD1002801D1002905D000207E
:10379000C90FC90701D1C043410800B515F050F861
:1037A0000022002300BD00B500290ADBDB435242A2
:1037B00000D1013300F014F8C943404200D1013177
:1037C00000BDC943404200D10131DB43524200D128
:1037D000013300F005F8DB43524200D1013300BD54
:1037E000002923D1002B18D1002A0CD0BC460D4F44
:1037F00038667A6600210023FFE7FFE7FFE77A6F6C
:10380000386F67467047002801D00748010000B5AF
:1038100015F016F80022002300BD02000B00002066
:1038200000217047000000D0FFFFFFFF002B00D0F9
:10383000BFE0130C28D1002AE7D080B4114F3966BD
:103840007A66FFE7FFE730B4040C7B6F396F1B0427
:1038500023433B667A66FFE7FFE7FFE7C04684B293
:103860007B6F3D6F1B0423433B667A66FFE7FFE7F0
:10387000C04600232C042D0C7A6F386F0019694163
:10388000B0BC7047000000D0F0B594460025140E7F
:1038900001D112020835140F01D112010435940F21
:1038A00001D192000235D40F01D152000135D40B61
:1038B0000134254F7C66254C3C660E0C93B2FFE725
:1038C000FFE7FFE73C6F6643360C7703BE46734362
:1038D000DF0B5B04C01AB941130C7343DB18C91A20
:1038E000CE086643360CB64493B273431F0F1B01D8
:1038F000C01AB941130C73431F0B1B05C01AB94101
:10390000860D8F023E436643360C092D24DB520A96
:103910007243801A7703460A6643360C16235B1BF4
:10392000DE40DF40BF1964466643821B70460435A3
:1039300006330100D940A840C01900D30131A2428A
:1039400006D20023F0BD0000000000D0FFFFFFFF03
:10395000121B0130F3D3F1E709277F1BFE406446B9
:10396000A2B27243801A00D20139220C7243130CA6
:103970001204821A99410B00704604351337010076
:10398000F940A840801900D30131002B02D1A24296
:103990000AD2F0BD013000D30131121BFAD2013B33
:1039A000F8D1A24200D2F0BD013000D30131121B88
:1039B000F7E7F0B51C0C00D080E00CB400251C0A21
:1039C00004D11B02160E3343120208351C0B04D11E
:1039D0001B01160F3343120104359C0B04D19B00CD
:1039E000960F334392000235DC0B02D192185B41F3
:1039F00001351C00971864410134464F7C66464CE3
:103A00003C660E0CFFE7FFE7FFE7C0463C6F6643EE
:103A1000360C7703BE4697B27743C01B00D20139FC
:103A2000C01B00D201399FB27743C91BC91B170CB9
:103A300077437E04FF0B801BB941CE086643360CEA
:103A40000C2D33DBB644120B1F053A431B0B97B208
:103A50007743C01B00D201399FB27743C91B170CB3
:103A600077433E043F0C801BB941860D8F023E43D5
:103A7000664329277F1BFE400C3D7746AF40BF19A8
:103A800030BCA2B2ABB272437343801A9941220C8C
:103A90007243130C1204801A994102000B00013783
:103AA000001BA941F9D2781E0021F0BD0C277F1B15
:103AB000FE4077467F0BAF40FF19E0E700245D1C16
:103AC00007D0144F7D663966FFE7FFE7FFE7FFE7A2
:103AD0003C6F95B29EB265436643401BB141150CE5
:103AE0001E0C6543664336042F0C3E432D04401BD9
:103AF000B141994204D202000B0020000021F0BD28
:103B000001D19042F7D3801A994101349942F2D3FE
:103B1000F6E70000000000D0FFFFFFFF48404140F3
:103B2000484018B41B4B5B68FC46019308BD04DF9A
:103B3000E33E001018B4174B1B68FC46019308BD08
:103B400000DFED3E00109446134A926F920809D2AE
:103B5000624618B40F4BDB68FC46019308BD0CDFCE
:103B6000A54100100C4AF0B5146E556E576F166FD4
:103B70006246FFF7EEFF084A1466556657671667F8
:103B8000F0BD18B4034B9B68FC46019308BD08DFE9
:103B90004940001068280020000000D0FFB55040C8
:103BA0004240504059404B40594000E0FFB5154F4E
:103BB0004C00640D03D0BC4204D10C0314D8002087
:103BC000090D09055C00640D03D0BC4204D11C033F
:103BD0000AD800221B0D1B0501264B4009D44B407F
:103BE00003D58B4200D18242FFBD9942FCD1904265
:103BF000FFBD0B43DB1803431343F5D0C9434918FA
:103C0000FFBD0000FF07000000B5FFF7CFFF01D0A8
:103C1000002000BD012000BD00B5FFF7C7FF8041B7
:103C200000BDC04600B5FFF7C1FF01D9002000BDAF
:103C3000012000BD00B5FFF7B1FF01D9002000BD94
:103C4000012000BD00B5FFF7A9FF804100BD0120A4
:103C500040054A00121804D85A00121801D8002052
:103C600070470120704700000021002805D17047EF
:103C7000C1174840401AFAD0C90713B5064B1B6854
:103C800098470CBC441CA2401005120B0349091BA9
:103C900009051943114310BD906100201F04000065
:103CA00010B54C00620D8023D218DB00D21A5B05E0
:103CB0007E2A10DD9E3A13DACC170903490819430E
:103CC0005242D140640001341532202A05DAD04036
:103CD0000843604310BD002010BD0846604310BD7E
:103CE000C80FC018013810BD18B4044B5B6AFC46FD
:103CF000019308BD24DF5543001000006828002010
:103D0000C94211D300B549004908002200F018F853
:103D1000002904D4002240428A41114600BD80217E
:103D20000906002000BD000018B4044BDB6EFC4601
:103D3000019308BD6CDF6343001000006828002079
:103D400018B4044B9B6FFC46019308BD78DF7F439A
:103D5000001000006828002018B4044BDB6FFC46FC
:103D6000019308BD7CDFED430010000068280020AF
:103D7000132370B51D78012D19D014DD1F48FFF7EE
:103D80003DFB06001E48FFF739FB1E4C8022310028
:103D9000200000F02DFD022D2DD01B48FFF726FB43
:103DA0001A4B186070BD1A4B164CA364F5E7184BFC
:103DB000144C23606360A360E36023616361A361CB
:103DC000E36123626362A362E36223636363A363C9
:103DD000E36323646364A364E36423656365A365A9
:103DE000E36523666366A366E36623676367A36789
:103DF000E367A364D1E7064BA364CEE75344000016
:103E000053460000682800204C33000090610020D9
:103E1000B13E0010244A4B0094465B0D6344F0B55C
:103E200004000D005A1C21DB5A1C35D0342B1CDA3F
:103E30003326F61A3700203F1CD40121B9400B006D
:103E40000121B1400A0012196B41002F1EDB022430
:103E5000BC4021000224B44020001600002544424A
:103E60008D4126402B4030001900F0BDCB0F0020C3
:103E7000D907FAE720210120891BC8400121B14060
:103E800003000A0012196B41002FE0DA20240225FA
:103E9000A41BE5402900DDE7CB0F044ADB071A43EA
:103EA00000201100E1E7C04601FCFFFF0000F03FE9
:103EB00007B5604601880A0A0230DF2AFAD1C9B282
:103EC000820804D3028840880004104300E00068A0
:103ED000014A5050039007BD682800200FB403BC6E
:103EE0000CBCF0B50124E407634000E0F0B50C0D14
:103EF000CF0F661E3605891B640503D3C9434042B4
:103F000000D30131640D03D0661CF60A07D0E41B10
:103F100000207F00791C89078912803C24031D0D35
:103F2000DF0F6E1E36059B1B6D0503D3DB4352422C
:103F300000D301336D0D03D06E1CF60A07D0ED1BC4
:103F400000227F007B1C9B079B12803D2D032F1BB3
:103F5000661B58D4A446202E46DA20371400BC40F5
:103F60001D00BD40F24033412A4380185941CB0F18
:103F700005D0C943C04300226442504151416246CA
:103F80004D0D28D10D0D07D100281FD02419404117
:103F90004941013A0D0DF9D0640006D3013000D338
:103FA0000131002C01D140084000013A0BD4941C8F
:103FB000E40A04D112051144DB071944F0BDD90706
:103FC000204B194300E0D9070020F0BD0029DDD1C6
:103FD000002CDBD1F0BD0132C6074008CD072843D5
:103FE0004908002EE1D0D9E73C2E29DA203E40379F
:103FF0001400BC4000D00124F24014431A00BB401E
:104000001C43D317ACE7AC46202F08DA2036040057
:10401000B4400D00B540F84039412843A5E73C2F96
:104020000CDA203F40360400B44000D00124F840B0
:1040300004430800B1400C43C117EAE7100019001F
:10404000002494E70000F07FF0B50C0D661E3605E5
:10405000891BE60A6405640D02D0651CED0A04D0D4
:10406000002001210905803C2403A4461C0D671E85
:104070003F05DB1BE70A6405640D02D0651CED0AF1
:1040800004D0002201231B05803C240377406444B4
:1040900097B484B296B27443070C7E43150C6F43F9
:1040A00080B26843361802D3012000043F18300460
:1040B000350C00197D41844688B29AB250430C0CED
:1040C00062431F0C7C438EB27E43921902D30126B9
:1040D0003604A4191604170C3618674101BC81B2C6
:1040E0009AB25143040C62431B0C5C4380B25843A8
:1040F000121802D30120000424181004130C4018D5
:1041000063412D185E410020474106BC88B293B23E
:1041100058430C0C6343120C544389B251435B184F
:1041200002D301210904641819041A0C0918624108
:104130006D1856410020474118BCF902720D114319
:10414000F0026A0D1043ED020A0D03D16D194041D2
:104150004941013B124E9B1B7600B3420ED26D00CB
:1041600007D30130002671416646354301D140082E
:1041700040001B05C918E4072144F0BD0BDA0133E8
:1041800006D1013004D101314F0D01D04908F2E7C9
:10419000E1070020F0BD013631050020EBE700000B
:1041A000FF030000F0B51C0D671E3F05DB1BE70A8F
:1041B0006405640D02D0661CF60A04D000220123B7
:1041C0001B05803C2403D0252D060026F6432E66D1
:1041D0001E096E66CE0FF619B44649004F0D02D087
:1041E0007E1CF60A03D000200021403F3F033E1B07
:1041F000B600B444013F7F05C91B49082E6F013644
:1042000076089C02950D25437543ED137543AD1358
:1042100001356D10F603761B0CB4CC02450D2C4312
:10422000A2B2B3B25A43270C7B43350C6F43A4B2FE
:104230006C431B1902D3012424043F191C041D0CD8
:10424000A4187D4124196D41009A91B2ACB261432A
:10425000170C7C432B0C5F4392B25A43A41802D331
:1042600001221204BF182204230C52187B41019C26
:104270006C431B19520ED9010A434401A01A81B2A2
:10428000B2B2514303145A43360C734387B2774397
:10429000D617D21900277E4136049B191704160C35
:1042A0007F185E417316ED18F301002680337541C7
:1042B000A90F06D16400690AE8055B0A184309D210
:1042C0002FE00422944480337541A90AA8059B0A73
:1042D000184326D3404149412404009A019B0D0014
:1042E0005543641B4343E41A95B286B27543170CD9
:1042F0007E43030C5F4392B25A43B61802D30122A5
:104300001204BF183204330C52197B4152429C41B3
:10431000002C02D40022013051414008CA0710434A
:10432000490802B06246D7079210084BD218084BD2
:104330009A4203D212058918C919F0BD0020002A3B
:1043400001DC3900F0BD01331905F5E7FD0300007C
:10435000FE070000002200B5203200F010F808002F
:1043600000BD002200B500F00CF8CA179A4200D137
:1043700000BDD8430121C907414000BD00220B15F3
:104380000AD410B5944600F05FF81414013400DA32
:104390000021CB17144C20470020002170476244B5
:1043A000343A0CD40C2A07DA04009140904052426F
:1043B0002032D440214310BDD843D94310BD203210
:1043C00007D40C469440524220321141D040204341
:1043D00010BD0800C917203203D4524220321041C8
:1043E00010BD1800190010BD9F4300104A00520D67
:1043F000144BD21A13DDFF2A1EDAD205CB0FDB07CE
:104400001A43C300400F0903490A084310435B00E5
:1044100001D301D0013070474308FBD2704702D06E
:10442000C80FC00770470A0312130132F8D1420FB8
:10443000072AF5D1012200E0FF22C80F00028018F0
:10444000C0057047800300000A0DCC0F531E1B05EA
:10445000C91A520503D3C943404200D30131520D5A
:1044600003D0531CDB0A07D0121B00206400611C20
:1044700089078912803A1203014BD21A7047000053
:10448000FF03000051434343C9188C46110C83B20B
:104490004B4310B4040C614392B280B25043624368
:1044A0001C041B0C001910BC59411304120CC01839
:1044B00051416144704700004840414048400E4B24
:1044C0005B6818470C4B1B6818470C4A936F9B0896
:1044D00002D2094BDB681847F0B5146E556E576F62
:1044E000166FFFF7F6FF054A14665566576716679D
:1044F000F0BD014B9B68184768290020000000D0E0
:1045000007B548404140484001E0C04607B5420079
:10451000120E03D0FF2A03D1420218D8C00DC005E5
:104520004A00120E03D0FF2A03D14A020FD8C90D48
:10453000C9050122414005D4414001D5814207BD52
:10454000884207BD0143491801D0C043001807BD88
:1045500000B5FFF7DBFF01D0002000BD012000BD4A
:1045600000B5FFF7D3FF804100BDC04600B5FFF79F
:10457000CDFF01D9002000BD012000BD00B5FFF72F
:10458000BFFF01D9002000BD012000BD00B5FFF72D
:10459000B7FF804100BD0000C10FC90700D54042F0
:1045A000002817D0F44603B40B4B1B68984706BC91
:1045B00081409E384042803107D20B0607D0490027
:1045C000490AC0051043084360470130F8E7490A2B
:1045D0008902F5E7704700009061002041000A0E53
:1045E00080231B067E2A0BDD9E3A0BDAC1174002A0
:1045F000400818435242D0404900013148437047B7
:1046000000207047C00FC01801387047C0420DD35A
:1046100000B540004008002100F012F8002801D445
:10462000404200BD8020000600BD0000034BDB6956
:10463000FC4618471CDFF1460010000068290020E6
:10464000014B5B6A1847000068290020034BDB6FB1
:10465000FC4618477CDF094700100000682900204D
:10466000132310B512481C78FEF7C8FE0100012C78
:104670000AD003DD80220F4800F0BAF80E48FEF79A
:10468000B5FE0E4B186010BD0A4C5422200000F0FD
:10469000AFF80B4B6365A365E36523666366A366AA
:1046A000E36623676367A367E3672362E361E5E784
:1046B00053460000682900204C3300009061002020
:1046C000C546001007B5604601880A0A0230DF2A95
:1046D000FAD1C9B2820804D302884088000410438A
:1046E00000E00068014A5050039007BD682900208F
:1046F0000021C2158032803201D0024A10470020CA
:1047000070470000CD2A0000C30FDB0741000A0EEE
:1047100007D0FF2A08D00909054A8918194340071C
:1047200070471900002070470249C918FAE70000D5
:10473000000000380000F07F70B504000A4E300021
:1047400014F03EF920000DF0A3FE0500300014F037
:104750006FF8002D05D0054B2C199C4201D828007C
:1047600070BD0348FDF7FAFDCC26002000000420B0
:104770008C8E011070B505000C000B4E300014F04B
:104780001FF9280021000EF08DF90500300014F00B
:104790004FF8002D05D0054B2C199C4201D828005C
:1047A00070BD0348FDF7DAFDCC2600200000042090
:1047B0008C8E011070B50400054D280014F000F92E
:1047C00020000DF06FFE280014F032F870BDC046D6
:1047D000CC26002001480421014B1847A01F0020CF
:1047E0000D340010014B1B6818470000A01F00206B
:1047F000014B5B6818470000A01F002010B5FFF7B1
:104800009BFF10BD10B5FFF7D5FF10BD10B5FFF72A
:10481000D1FF10BD9A4200D2885470477047C046FD
:10482000F8B55746DE464E464546E0B599460A9BE2
:1048300007009A460D9B884693460B9C9B073BD1ED
:104840000C9B9C423DD21E1B0B9415000C005E4439
:104850002A004B46013521002020B847B542F7D148
:10486000A0460B9C002C20D0454636195346321BDF
:10487000013C185D29004B46B847002CF6D12B00AF
:10488000350098460D9B9B070FD55B46EC1A0C9B99
:10489000A3420AD9464698462A004B4631002020BA
:1048A0000134B84701354445F6D32800F0BCBB4677
:1048B000B246A946A046F8BD16001500002CD3D17B
:1048C000E0E716001500002CCED1EEE7F0B5454626
:1048D000DE4657464E46E0B585B09C4610AB1B7889
:1048E000149F934698460F9C129E139DBB074CD471
:1048F000002D42D1B44248D201233B4099460E9B41
:10490000013B9A46302304E0524601341355A64237
:1049100001D9202CF8D14B46002B00D183E00E9B0F
:10492000013B99463023A54205D82EE04A46013482
:104930001355AC4229D0202CF8D1FB060CD57B05B1
:1049400054D4A64263D0A54261D0119B102B50D005
:10495000022B57D0202C32D1202301930E9B5A4694
:104960000093039763460295FFF75AFF05B0F0BC2A
:10497000BB46B246A946A046F0BD01233B4099463E
:1049800001233B422AD1B442B9D3FB061CD57B0597
:10499000DBD4002CD5D1119B102B5BD0119B022BAB
:1049A0006BD0302301240E9A13704346002B10D194
:1049B0007B073ED52B260E9A631C1655CDE72300A8
:1049C000013430260E9AD654202CC5D04346002BF5
:1049D000EED02D260E9A631C1655BEE74346002BDB
:1049E0002FD0013DB44200D289E798E7119B102BEC
:1049F000B2D1BB0637D5202CAED058230E9A135512
:104A00000134A7E7202CA7D02300013407E0631E60
:104A1000012CC0D0119A102A31D0022AD1D162269D
:104A20000E9AD65496E7FB06CED57B0500D488E7D0
:104A30008BE723003E0790D520260E9A01331655AA
:104A40008BE70C233B405A1E9341ED1AB44200D22F
:104A500055E764E7BB060ED478230E9A0224137040
:104A600030235370A1E7202C00D175E778230E9AEC
:104A7000135501346EE75823EFE76033EDE70E9AE4
:104A8000A61E91464E44BA0602D55822327098E7C7
:104A90007822327095E7C04610B5002800D110BDCD
:104AA00001F01CFDFBE7C046F0B55746DE464E461A
:104AB0004546E0B595B083460F00924698461E9A4B
:104AC0001F9B10001900209EFFF7C1F8002800D09E
:104AD000EAE11E981F990122C54B5242FFF79CF84C
:104AE000002800D014E11E981F990122C14B5242A8
:104AF000FFF7A8F8002800D0E9E01E981F990022CF
:104B0000BD4BFFF79FF8002800D0C8E01E981F9902
:104B10000022BA4BFFF780F8002800D0BFE01E98B3
:104B20001F9900220023FFF777F8002800D0E4E067
:104B300000230B93229B5B0500D406260024302320
:104B400007E0172106AA013452181355013E202C04
:104B500001D0092EF5D81E981F99FFF7A1F8A84B90
:104B6000F2009B181A685B68050008920993FFF72A
:104B70007FF802000B001E981F99FEF7D2FF089ADB
:104B8000099BFEF7FEFF06900791FFF7ADF88146FF
:104B9000FFF76AF802000B0006980799FEF7C1FFBD
:104BA0000022984B06900791FFF74CF8002800D19F
:104BB0000DE101239C46E1444846FFF755F8020009
:104BC0000B0008980999FFF72DF8002802D0002360
:104BD00099460135002E00D1D9E006954D46B946DB
:104BE00014E006AA944617230A21634428000134DE
:104BF0001F19FEF75BFD3031397028000A21013E94
:104C0000FEF754FD092D00D817E10500202CE8D14E
:104C10004F46069D20240CAE06AA172394466344F3
:104C200099465B46B34606930FE04B4628000A219F
:104C30000134E618FEF712FD3031280031700A21E8
:104C4000FEF70CFD051E00D1E4E0202CEDD1069B03
:104C50005E469B460323229A1340012B18D1219BC9
:104C6000002B15D00B9B002B00D1FDE0219B013BBD
:104C70002193202B0CD93023219A07E0172006A975
:104C8000013409180B55944200D3CCE0202CF5D107
:104C9000229B01940393219B0096029322E0229B86
:104CA00052460493219B3900039358461E9B1F9C38
:104CB000029600930194434600F04AF90400200054
:104CC00015B0F0BCBB46B246A946A046F0BD229B3B
:104CD0005B070FD403224C4B229901920391219937
:104CE000009302914346524639005846FFF798FD1B
:104CF0000400E4E70422454BEEE71E9A1F9B0020C8
:104D00000021FEF70EFF01231E901F910B9311E768
:104D1000229B54469B0711D1219B042B0ED9219B2A
:104D200055469C465E46043C64442A004346013591
:104D300039002020B047A542F7D1B346344D2600B4
:104D40002B1F99465B46A3461C003200E878434679
:104D50003900013DA04701364D45F6D123005C46A0
:104D60009B46229B04349B07A9D55346219AE31AFC
:104D70009A42A4D95E4615002200434639002020FD
:104D8000B04753460134E31A9D42F5D897E728000F
:104D9000FEF76EFF02000B001E981F99FEF7C1FE82
:104DA0000022184B06900791FEF736FF0CAE002844
:104DB00000D031E7069807990022124BFEF742FF18
:104DC000002800D028E7012301359D4324E7002275
:104DD000069807990B4BFEF71FFF002800D0F9E655
:104DE0004B46002B5CD101239C46E144F2E6C046D1
:104DF000FFFFEFFFFFFFEF7F65CDCD4165CDCDC15B
:104E0000B8A401100000E03FEC8E0110E48E011008
:104E1000F48E0110069B5E469B460323229A1340A4
:104E2000012B00D181E0202C00D131E70B9B002B1E
:104E300027D02D23335501342AE74F46069D202CD9
:104E400000D1E7E63022331907E0172006A9013424
:104E500009180A55202C00D1DCE6A342F5D12E22F8
:104E60000CAE0134F254D7E60C23229A134257D0E9
:104E7000219B013B2193A34200D9FCE6202C00D1C9
:104E800006E7229B5B0703D52B2333550134FFE64E
:104E9000229B1B0700D4FBE6202333550134F7E6A1
:104EA000DB0700D496E69EE7229B55469B0711D16F
:104EB000219B032B0ED9219B54469C465E46033D05
:104EC000654422004346013439002020B047AC42FB
:104ED000F7D1B346B9465F461C4EEC1C2A00B078A9
:104EE000434649460135B847013EAC42F6D1229BC4
:104EF000BB464F469B0700D4E1E65346219AE31A8E
:104F00009A4200D8DBE65E4615002200434639008F
:104F10002020B04753460134E31AAB42F5D3CEE626
:104F2000219BA34200D9A6E6B2E6219B002B00D12B
:104F300079E70B9B002B97D0219B013B21939C424F
:104F400000D298E6202C00D073E7A1E6F08E011085
:104F5000F0B5DE4657464E464546E0B599B0814627
:104F60008B4692469846229A239B10001900FEF722
:104F70006EFE002800D0CAE0229823990122824BBD
:104F80005242FEF75FFE002800D0C0E0229823992D
:104F900001227E4B5242FEF73FFE002800D0B6E0D1
:104FA0002298239900220023FEF736FE002800D025
:104FB000C9E1229B239C08930994089809998023AE
:104FC000269ADB001A400D928022269C1201144082
:104FD00022000B94269C07000E001C4200D0ADE07E
:104FE0000B00034300D0D5E0002A00D00AE22200E3
:104FF00006332493022313400C930223134200D060
:1050000002E2259B042B00D20FE2043B0B9300230A
:1050100004250A930022229823990023FEF7FCFD21
:10502000002800D003E25A4B269A134004930B9BAE
:105030000393249B0293089B099C00930194594677
:10504000434652464846FFF72FFD02002020269B8C
:105050001F27034059424B415B421840531C0893A1
:10506000594643464530C8470A9AD317D4185C407E
:10507000D30F0A936B1E0B9308AB9C460025674425
:1050800001E0202D0FD020000A21FEF70FFB013593
:105090007E193031317020000A21FEF707FB26000F
:1050A0000400092EEDD8052306930B9B5946059362
:1050B000002304930A3303930A9B4846029310ABE0
:1050C0000093089A43460195FFF700FC0C9B002BC8
:1050D0002DD05346C41A259BA34228D94D465F467E
:1050E00081461E00534639001A19202043460134D8
:1050F000A847A642F6D8534648462599C21A013217
:105100000023914200D386E1013018180FE0269B5E
:105110000493259B0393249B0293229B239C00933F
:1051200001944346524659464846FFF7BDFC19B024
:10513000F0BCBB46B246A946A046F0BD01432BD108
:105140000B9B2200002B00D154E700230A93249BE1
:105150000A9A0024934200DD85E1229823990022D7
:105160000023FEF759FD002800D035E1269B084AB0
:1051700002941A408023DB0013430493259B03937E
:10518000089B099CCBE7C046FFFFEF7FFFFFEFFFC7
:10519000FFF7FFFF06232493B44B70009C46400D9D
:1051A0006044FEF765FDB24AB24BFEF7EAFCB24A34
:1051B000B24BFEF7BFFC3603B14B360B3343040052
:1051C0000D00380019000022AE4BFEF7AAFCAE4AD3
:1051D000AE4BFEF7D6FC02000B0020002900FEF7C4
:1051E000A9FCFEF75DFD0A90FEF742FDA84AA94B17
:1051F00004000D00FEF7C5FC0022A74BFEF79AFC49
:10520000FEF74EFDA54A0600A54B20002900FEF73B
:10521000B8FC040030000D000C96FEF729FDA14AF1
:10522000A14BFEF7AEFC02000B0020002900FEF7A8
:1052300078FC02000B0006000F00FEF7A2FC320013
:1052400004000D003B0030003900FEF773FC002223
:105250000E900F91954B20002900FEF774FC002260
:10526000934BFEF767FC02000B0020002900FEF7BD
:105270006AFC00228F4BFEF75DFC02000B00200051
:105280002900FEF760FC0D008021040032003B0085
:105290000020C905FEF745FC02000B002000290094
:1052A000FEF748FC02000B000E980F99FEF74BFC2E
:1052B0000022734BFEF73EFC7F4B0C9C9C466444E3
:1052C00000222305FEF75DFC06000F0002000B0024
:1052D00008980999FEF7A0FC00280AD00A9B300024
:1052E000013B39000A930022714BFEF72CFC0600AB
:1052F0000F000A9A330063323900C62A12D80222FC
:105300002698042510400B9A0C90002A25D1259B45
:10531000042B05D9002800D0A1E0259B043B0B936A
:10532000042541E00222269810400B9A0C90002A96
:1053300012D1259B052B76D9002872D1259B0525F6
:10534000053B0B9334E0802212069446229B08937F
:10535000239B6344099330E605250B4300D1F6E611
:1053600008980999554A564BFEF764FC002808D066
:10537000089809990022534BFEF74EFC002800D0F4
:10538000E5E6249B002B1CD00D9B002B19D0249B01
:10539000013B2493259BAB4204D90C9B002B5AD094
:1053A00002230C9300230B930A9B002B00D131E6C0
:1053B0000898099932003B00FEF7C5FB0890099157
:1053C00028E6259BAB42EDD90C9B002B43D0002354
:1053D0000B9302330C93E7E78020269B3A4A0006A2
:1053E0001A40802384460294089C099D2900DB0012
:1053F00013430493259B6144220003930B00009206
:1054000001938EE60524A8E600230B930A9302334A
:1054100004250C93FEE553468C46013B63441B1A5E
:1054200072E602230C930525C2E70423EDE58020F4
:10543000089E099F000639008446269A224B614443
:10544000134004930B9B32000393249B02930B00A5
:1054500000920193F3E5259B5B1B0B93A4E70223CA
:1054600004250C93A0E79C1A013C76E601FCFFFFA3
:10547000FB799F501344D33FB3C8608B288AC63F43
:105480000000F03F0000F83F61436F63A787D23F01
:1054900071A379094F930A400000E03F1655B5BB50
:1054A000B16B0240EF39FAFE422EE63F00002C407D
:1054B0000000244000001840FF0300002D431CEBB7
:1054C000E2361A3F80842E41FFF7FFFFF0B5DE463B
:1054D00057464E464546E0B5A5B01E002E9B924667
:1054E0000C93CD4ACD4B80468B461A60002900D1E3
:1054F000EAE1002330789946002800D1ECE1C84B5E
:105500004C460B93C74B454657460E930AE0631C27
:10551000984622003B005946A84744463078002868
:1055200000D187E001362528F1D108239A46043BB3
:105530009946023B9846013B00229C460D943078E8
:10554000711C0300203BDBB2102B03D80B9C9B008B
:10555000E3589F460300303B89460D9C092B3AD9FE
:10556000002398462A2800D1C1E000239A462E281D
:105570004BD00300683BDBB2122B1ED80E999B0068
:10558000CB589F4663460E001A43D8E743460E00A9
:105590001A43D4E74B460E001A43D0E710230E00FF
:1055A0001A43CCE753460E001A43C8E780235B003A
:1055B0001A43FF3B9C467078E1444E4667284FD81B
:1055C0002428A4D90300253BDBB2422B9FD896495F
:1055D0009B00CB589F46002394461E0000E00131FB
:1055E000B3009B195B001E180878303E0300303B67
:1055F000092BF4D90123624689469C460023B04614
:105600009A460E00E1442E28B3D130218020494231
:105610008C46C000024370784B4684446146092999
:1056200000D86CE12A2800D17AE101239C464E463D
:10563000E1449EE7A146A846BA46CA4503D80123DD
:105640005B425344994653464A4659460020C04758
:10565000200025B0F0BCBB46B246A946A046F0BD2E
:105660000300693BDBB20D930F2B00D94FE70121FB
:1056700099408C466D49894661464B4619400F91C9
:10568000634649460B4200D028E10D9B0A2B3AD0D5
:10569000072B00D03BE70C9B190008C98846002B5C
:1056A00000D14BE121200243914614A98C461F22D0
:1056B0000F2162448C4651460D950C91A24615006F
:1056C0000F9902E020290CD0130064461C402000F2
:1056D0003730092C00D80738013168541A090F2BCC
:1056E000F0D80C9B54460D9D9A460F9133E10C9BCC
:1056F00002CB8846002947DB0C9301239C46707837
:105700004E46E14431E70C9B02CB14935346002BE9
:1057100000D138E19C4608780B000C908C4400289E
:1057200001D100F098FC89466146944603E05A781E
:105730000133002A01D08B42F9D1494662465B1AF7
:105740000C900F93530500D520E102231800104060
:105750000D90134200D1CBE30D930B1BB1469A463B
:105760005E460C9822003B003100A84753460134A6
:10577000185D0028F6D1B3464E460D9B002B00D095
:10578000C7E1149B0C93C9E60C9301239C4628386F
:1057900049420243884670784E46E144E5E6707817
:1057A0006C2800D17FE180235B001A43FF3B9C46BD
:1057B000E14402E780239B001A4301239C46707852
:1057C000E144FAE67078682800D173E180231A4337
:1057D0007F3B9C46E144F0E6672800D103E147287F
:1057E00000D15AE1452800D15AE1049207214246EE
:1057F0000C9B0392073352468B43190002920CC94B
:105800002800009201930C9122003B005946FFF7BB
:105810009FFB040082E6C046CD5400104C6100207E
:105820001CA3011060A30110ACA301104190000063
:10583000462800D1DBE00492072142460C9B0392EC
:10584000073352468B43190002920CC9280000927C
:1058500001930C9122003B005946FFF725F9040003
:105860005CE6631C984622003B0059462520A84769
:10587000444653E60C9B04330D93631C99469207F0
:1058800000D422E10C9B2200187859463B00A8471F
:1058900043464444012B00D885E23300B8462E002D
:1058A0005F4625004C4699462200434601343900A4
:1058B0002020B047AC42F7D12C00BB46350047460C
:1058C0004E460D9B0C9329E6DB4B3078984600231F
:1058D0009946002800D012E60024AEE66F2800D1D9
:1058E00088E000D80BE31023782800D1CFE09A435A
:1058F0000A239C4600230F930A330D9380E05646FB
:10590000B1008919490001330E181878303E0100A2
:1059100030390929F4D9B2461E000133994628E6E8
:105920000C9B023602CB8A46C9435046C917084031
:1059300082460C933078731C99461AE610231000A7
:10594000984311331843814680201300C000034060
:10595000024200D1A9E64B4606930823059353461D
:10596000049310230393002302930F9B22000193BF
:105970001CAB009359463B002800FEF7A7FF4346A7
:1059800004000C93CAE501235B42C3E60F9B534519
:1059900001D953460F930223180010400D90134273
:1059A00000D1B7E10D93D1460B1B9A463300A144B9
:1059B0002E0022004D460C98B9465F469B4608E0F3
:1059C0004B463900541CB0475346185D002877D029
:1059D00022009542F4D15B46BB464F46A9463500AE
:1059E0004C461E00C9E680231B011A43FDE6202316
:1059F0001A4320E708239C4600230F9308330D9396
:105A000080231100DB0019401A4200D116E10D235A
:105A10009A431000802302009B001A4014921842FF
:105A200000D0C2E1802302005B001A4091460C9A2C
:105A300004320F92184200D0B7E2430600D59FE12E
:105A4000030600D419E30C9B1B880993002B00D09C
:105A5000FCE110339843002900D1F7E10023994677
:105A600043460593534604930D9B069003930023EE
:105A7000D2E0582808D0622867D102239C46002330
:105A80000F9302330D93BBE720231A43103B9C4630
:105A900000230F9310330D93B2E780231B011A43A9
:105AA00020231A43A1E6C0239B001A43F31C994606
:105AB000B07882E5C0231A43F31C9946B0787CE5A0
:105AC00035005E46BB464F4657E64346012B00D89D
:105AD00063E1631E43449A463300B9462E005F4695
