:020000041000EA
:1000000000B5324B212058609868022188439860DF
:10001000D860186158612E4B002199600221596106
:100020000121F02299502B49196001219960352056
:1000300000F044F80222904214D00621196600F024
:1000400034F8196E01211966002018661A6600F04E
:100050002CF8196E196E196E052000F02FF8012189
:100060000842F9D1002199601B49196000215960AB
:100070001A491B48016001219960EB211966A021F2
:10008000196600F012F800219960164914480160C1
:100090000121996001BC002800D000471248134993
:1000A000086003C880F30888084703B5996A0420EC
:1000B0000142FBD001200142F8D103BD02B5186610
:1000C0001866FFF7F2FF186E186E02BD00000240BE
:1000D000000000180000070000035F00212200005C
:1000E000F4000018222000A00001001008ED00E03C
:1000F00000000000000000000000000074B24E7A12
:1001000000200420F7010010C3010010C5010010F9
:10011000C1010010C1010010C1010010C101001097
:10012000C1010010C1010010C1010010C701001081
:10013000C1010010C1010010C9010010CB01001065
:10014000CD010010CD010010CD010010CD01001037
:10015000CD010010CD010010CD010010CD01001027
:10016000CD010010CD010010CD010010CD01001017
:10017000CD010010CD010010CD010010CD01001007
:10018000CD010010CD010010CD010010CD010010F7
:10019000CD010010CD010010CD010010CD010010E7
:1001A000CD010010CD010010CD010010CD010010D7
:1001B000CD010010CD010010CD010010CD010010C7
:1001C00000BE00BE00BE00BE00BE00BEEFF3058054
:1001D000103800BEF2EB887188E30110A8E301102B
:1001E0003802001090A31AE71E481F49086006C88D
:1001F00081F3088810471D480068002801D019487D
:10020000F3E70DA40ECC002902D000F012F8F9E7B4
:100210001749184A002000E001C19142FCD116495B
:100220008847164988471649884700BEFDE701C937
:1002300001C29A42FBD37047A8E30110C00000201E
:100240001C260020040902100000042000000420E5
:100250000409021000100420001004200000000017
:10026000704700000000000008ED00E0000000D032
:100270001C260020006100202D7C0010A902001027
:10028000ED7B0010F8B5C046044B10B5002B03D031
:100290000349044800E000BF10BDC0460000000054
:1002A00098600020D8A10110F0B5DE4657464E46B2
:1002B0004546E0B5F74CA5440CF094FBF64BF74CE3
:1002C0009946F74B1193F74B0693F74B9B4688AB38
:1002D0009A46F64B0593F64B0D93F64B1093F64B5F
:1002E0000793F64B0A93F64B0B93F64B0C93F64B96
:1002F0001293F64B1393012398465B46A34604934F
:1003000000254B461D605B4611981D600CF002FBFA
:10031000069B20A81D70049B1D7000F083FE20A981
:1003200000232CAA504600F0D1FE19A80AF0ECFEDA
:10033000524615AB13CA13C312681A6010AA882359
:1003400094461B01634418000CF05CFB10AA944611
:10035000DF4B0400634418000CF054FB15ABFFAAFC
:1003600002930190783219A919230395009444A8A7
:100370000BF0B4F90022002144A80BF0FDF900288D
:1003800009D000236E22009005990D980CF0C2FA56
:100390004246049B1A7044A80BF042FA002801D090
:1003A00000F0B3FD10AA9446CA4B3C9C63441E68FF
:1003B000201C311C05F0B2FD311C002801D000F0DA
:1003C00065FD201C05F08CFD002801D100F0C4FD66
:1003D00010AA8F2394461B0163441E683D9C311C68
:1003E000201C05F09BFD311C002801D000F02CFDE5
:1003F000201C05F075FD002801D100F00CFE10AAAC
:100400009446B54B3E9C63441E68201C311C05F08D
:1004100085FD311C002801D000F0EFFC201C05F008
:100420005FFD002801D100F0F1FD10AA9446AB4B0E
:100430003F9C63441E68201C311C05F06FFD311C7D
:10044000002801D000F0B7FC201C05F049FD002871
:1004500001D100F0D6FD10AA9446A14B409C634404
:100460001E68201C311C05F059FD311C002801D0EC
:1004700000F07FFC201C05F033FD002801D100F0C6
:10048000BBFD10AA902394461B0163441E68419C47
:10049000311C201C05F042FD311C002801D000F069
:1004A00046FC201C05F01CFD002801D100F09FFD3A
:1004B00010AA94468B4B429C63441E68201C311C3E
:1004C00005F02CFD311C002801D000F00EFC201C92
:1004D00005F006FD002801D100F084FD10AA944625
:1004E000814B439C63441E68201C311C05F016FDA3
:1004F000311C002800D0D7E3201C05F0F1FC0028B7
:1005000001D100F06AFD10AA9446784B309C6344F8
:100510001E68201C311C05F001FD311C002800D094
:10052000A2E3201C05F0DCFC002801D100F050FD06
:1005300010AA942394461B0163441E68319C311C0D
:10054000201C05F0EBFC311C002800D06CE3201CC3
:1005500005F0C6FC002801D100F035FD10AA944634
:10056000634B329C63441E68201C311C05F0D6FC92
:10057000311C002800D037E3201C05F0B1FC002816
:1005800001D100F01BFD10AA94465A4B339C6344E2
:100590001E68201C311C05F0C1FC311C002800D055
:1005A000FDE2201C05F09CFC002801D100F001FDBB
:1005B0004246049B1978069B1A704B4601221B6821
:1005C000002901D10022013349460B605B461B68BC
:1005D00000259B185A460A9813600CF09BF9069B5D
:1005E00020A81D70049B1D7000F01CFD20A9002395
:1005F0002CAA504602F0FCF919A80AF085FD5246D3
:1006000015AB13CA13C312681A6010AA822394464A
:100610001B01634418000CF0F5F910AA9446364B00
:100620000400634418000CF0EDF915ABFFAA029327
:100630000190183219A919230395009444A80BF0CE
:100640004DF80022002144A80BF096F8002801D0B4
:1006500000F03EFC44A80BF0E3F8002801D000F0C5
:1006600048FCB698B79905F03FF85246C023D758D2
:10067000224B061CD056C01B05F056FC311C05F061
:1006800000FC52461E4B0890D056C01B05F04CFC97
:10069000311C37E04CF6FFFFAC290020A8290020D0
:1006A000D8A10110F2600020F1600020FCA101102F
:1006B00084A20110C4A20110FCA2011034A30110F5
:1006C00058A301107CA3011090A30110A8A301104E
:1006D000E4080000EC080000F4080000F80800003E
:1006E000FC08000004090000080900003C090000A3
:1006F000440900004809000084080000C406000006
:10070000C506000005F0BDFB5246DB4B051CD0566C
:10071000C01B05F009FC311C05F0B3FB5246D74B5A
:10072000041CD056C01B05F0FFFB311C05F0A9FBD3
:10073000309E0899071C301C05F0F0FB0899002832
:1007400000D00CE2301C05F0CBFB002801D100F0FA
:100750002BFC319E291C301C05F0E0FB291C0028D5
:1007600000D0DCE1301C05F0BBFB002801D100F01B
:1007700016FC329D211C281C05F0D0FB211C0028F2
:1007800000D0ACE1281C05F0ABFB002801D100F043
:1007900001FC339C391C201C05F0C0FB391C0028CF
:1007A00000D077E1201C05F09BFB002800D1ECE392
:1007B0004246049B1978069B1A704B4601221B681F
:1007C000002901D10022013349460B605B461B68BA
:1007D00000259B185A460B9813600CF09BF8069B5B
:1007E00020A81D70049B1D7000F01CFC20A9002394
:1007F0002CAA504603F016FA19A80AF085FC5246B6
:1008000015AB13CA13C312681A6010AA8423944646
:100810001B01634418000CF0F5F810AA9446984B9D
:100820000400634418000CF0EDF815ABFFAA029326
:100830000190383219A919230395009444A80AF0AD
:100840004DFF0022002144A80AF096FF002800D0A6
:1008500072E344A80AF0E4FF002800D061E3BE98E8
:10086000BF9904F041FF5246E023D758854B061C40
:10087000D05EC01B05F058FB311C05F002FB524650
:10088000814B0890D05EC01B05F04EFB311C05F07B
:10089000F8FADF235246DB00051CD05EC01B05F0D2
:1008A00043FB311C05F0EDFA5246784B041CD05E38
:1008B000C01B05F039FB311C05F0E3FA309E0899A6
:1008C000071C301C05F02AFB0899002800D0B3E073
:1008D000301C05F005FB002800D151E3319E291C96
:1008E000301C05F01BFB291C002800D084E0301CC4
:1008F00005F0F6FA002800D13DE3329D211C281CAA
:1009000005F00CFB211C002857D1281C05F0E8FA43
:10091000002800D12AE3339C391C201C05F0FEFA84
:10092000391C002825D1201C05F0DAFA002800D156
:1009300017E34146069A049B11704A461B781168DA
:100940000122002B01D1002201314B4619605B4688
:100950001B680C98D2185B461A6052180BF0DAFF2D
:100960005B461B68002B00D0F1E212980BF0D2FF1F
:10097000C6E4201C05F06BFA454905F0CFFA0028C3
:10098000D7D0201C05F02AFB25230393059B0400E8
:10099000381C0D00029305F021FB2200009001910C
:1009A0002B0007980BF0B6FF4246049B1A70069B7B
:1009B0001A704B4601221968C7E7281C05F047FA50
:1009C000334905F0ABFA0028A5D0281C05F006FB3A
:1009D00025230393059B0500201C0E00029305F0C0
:1009E000FDFA2A0033000090019107980BF092FF66
:1009F0004246049B1A708EE7301C05F028FA244901
:100A000005F08CFA002800D177E7301C05F0E6FAF3
:100A100025230393059B08900991281C029305F058
:100A2000DDFA089A099B0090019107980BF072FF7C
:100A30004246049B1A7060E7301C05F008FA14491E
:100A400005F06CFA002800D148E7301C05F0C6FA22
:100A500025230393059B0E900F910898029305F0B0
:100A6000BDFA0E9A0F9B0090019107980BF052FF70
:100A70004246049B1A7031E7C6060000C706000014
:100A8000A4080000F4060000F6060000FA060000C4
:100A90006F12833A201C05F0DAF9E94905F03EFAB5
:100AA000002800D184E6201C05F098FA2523039342
:100AB000059B0400381C0D00029305F08FFA2200FC
:100AC0002B000090019107980BF024FF4246049BF5
:100AD0001A70069B1A704B4601221B6874E6281C8C
:100AE00005F0B5F9D64905F019FA002800D150E60D
:100AF000281C05F073FA25230393059B0500201C91
:100B00000E00029305F06AFA2A003300009001916A
:100B100007980BF0FFFE4246049B1A7039E6301C22
:100B200005F095F9C64905F0F9F9002800D120E64D
:100B3000301C05F053FA25230393059B0890099177
:100B4000281C029305F04AFA089A099B009001912B
:100B500007980BF0DFFE4246049B1A7009E6301C32
:100B600005F075F9B64905F0D9F9002800D1F0E58E
:100B7000301C05F033FA25230393059B0E900F914B
:100B80000898029305F02AFA0E9A0F9B00900191A3
:100B900007980BF0BFFE4246049B1A70D9E5201C53
:100BA00005F055F9A74905F0B9F9002800D1FFE48F
:100BB000201C05F013FA25230393059B0400301C29
:100BC0000D00029305F00AFA22002B00009001911B
:100BD00007980BF09FFE4246049B1A70069B1A7002
:100BE0004B4601221B68EFE4201C05F030F99549C3
:100BF00005F094F9002800D1C5E4201C05F0EEF9B9
:100C000025230393059B0400301C0D00029305F07F
:100C1000E5F922002B000090019107980BF07AFE75
:100C20004246049B1A70AEE4201C05F010F9854979
:100C300005F074F9002800D190E4201C05F0CEF9ED
:100C400025230393059B0400301C0D00029305F03F
:100C5000C5F922002B000090019107980BF05AFE75
:100C60004246049B1A7079E4201C05F0F0F875499F
:100C700005F054F9002800D15AE4201C05F0AEF923
:100C800025230393059B0400301C0D00029305F0FF
:100C9000A5F922002B000090019107980BF03AFE75
:100CA0004246049B1A7043E4201C05F0D0F86549C5
:100CB00005F034F9002800D125E4201C05F08EF958
:100CC00025230393059B0400301C0D00029305F0BF
:100CD00085F922002B000090019107980BF01AFE75
:100CE0004246049B1A70FFF70EFC201C05F0AFF87B
:100CF000544905F013F9002801D1FFF7EFFB201C40
:100D000005F06CF925230393059B0400301C0D00AE
:100D1000029305F063F922002B00009001910798DF
:100D20000BF0F8FD4246049B1A70FFF7D7FB201C1E
:100D300005F08DF8434905F0F1F8002801D1FFF7DF
:100D4000B7FB201C05F04AF925230393059B0400FB
:100D5000301C0D00029305F041F922002B00009099
:100D6000019107980BF0D6FD4246049B1A70FFF7DD
:100D70009FFB201C05F06BF8324905F0CFF80028E6
:100D800001D1FFF77EFB201C05F028F925230393F2
:100D9000059B0400301C0D00029305F01FF9220092
:100DA0002B000090019107980BF0B4FD4246049B84
:100DB0001A70FFF766FB201C05F049F8214905F081
:100DC000ADF8002801D1FFF746FB201C05F006F91D
:100DD00025230393059B0400301C0D00029305F0AE
:100DE000FDF822002B000090019107980BF092FD76
:100DF0004246049B1A70FFF72EFB201C05F027F8D3
:100E0000104905F08BF8002801D1FFF70EFB201CDC
:100E100005F0E4F825230393059B0400301C0D0026
:100E2000029305F0DBF822002B0000900191079857
:100E30000BF070FD4246049B1A70FFF7F6FAC046AD
:100E40000AD7233CBD378635201C05F000F87449CD
:100E500005F064F8002801D1FFF7D1FA201C05F055
:100E6000BDF825230393059B0400301C0D0002935D
:100E700005F0B4F822002B000090019107980BF0C8
:100E800049FD4246049B1A70FFF7B9FA201C04F092
:100E9000DEFF634905F042F8002801D1FFF798FA18
:100EA000201C05F09BF825230393059B0400301CB0
:100EB0000D00029305F092F822002B0000900191A2
:100EC00007980BF027FD4246049B1A70FFF780FA43
:100ED00000233A22009005990D980BF01BFD424625
:100EE000049B44A81A700AF09BFC002801D1FFF76C
:100EF000B8FB00233B220090059910980BF00AFDE7
:100F00004246049B1A70FFF7ACFB00236F2200904F
:100F1000059910980BF0FEFC4246049B1A70FFF7EF
:100F200041FA00233B220090059910980BF0F2FC47
:100F30004246049B1A7092E400233A2200900599DD
:100F40000D980BF0E7FC4246049B1A7081E413985D
:100F50000BF0E0FCFFF7D4F9211C301C04F077FF04
:100F600097E7211C381C04F072FF05E5291C201CA2
:100F700004F06DFF24E5311C281C04F068FF3EE5F9
:100F80000898311C04F063FF59E5211C381C04F05B
:100F90005EFF82E5291C201C04F059FFA2E5311CEC
:100FA000281C04F054FFBDE50898311C04F04FFFE5
:100FB000D8E5211C301C04F04AFFF3E5211C301C4D
:100FC00004F045FF13E6211C301C04F040FF2EE620
:100FD000211C301C04F03BFF49E6211C301C04F0AE
:100FE00036FF64E6211C301C04F031FF80E6211C32
:100FF000301C04F02CFF9DE6211C301C04F027FF60
:10100000BAE6211C301C04F022FFD7E6211C301C5C
:1010100004F01DFFF4E6211C301C04F018FF16E755
:10102000BD378635F0B5274DA1B02A0008AB1900B1
:1010300004001032C1CAC1C1C1CAC1C1C1CAC1C143
:10104000C1CAC1C1220043CB43C243CB43C243CB3D
:1010500043C243CB43C2200010220021303005F0B0
:10106000BBF82A0014AB19004032C1CAC1C1C1CAC1
:10107000C1C1C1CAC1C1C1CAC1C12200403243CB32
:1010800043C243CB43C243CB43C243CB43C22B00F7
:101090006946703361CB61C1196823006A467033B9
:1010A00061CA61C3196004AB1900074A61CA61C112
:1010B00011682200803261CB61C22000116021B032
:1010C000F0BDC04640BA0110C0BA0110F0B5DE460E
:1010D00057464E464546E0B5FE4DC3B009932B003A
:1010E0000400103307910892190038220AA805F06D
:1010F00079F8483518AB29003822180005F072F845
:10110000F54D26AB29003822180005F06BF834ABFA
:1011100029003822180005F065F82200EF4B43CB78
:1011200043C21B680AA9136010239846A0443822C2
:10113000404605F057F848239A4618ABA2441900D8
:101140003822504605F04EF880239C46A44463465E
:101150003822180026A9039305F044F8B8239946CD
:10116000A1444B4634AE310038221800049305F0F8
:1011700039F882239B00E2182B00383343CB43C25B
:1011800019681160862229009200A2183831C1C95D
:10119000C1C21B6813608A232A009B00E3184832EF
:1011A00043CA43C38D232A009B00E318483243CA35
:1011B00043C390239B00E718012202233A607B601F
:1011C00092239B00E318483507CD07C39525C82215
:1011D000AD0000216019920004F0FEFF9622C04B82
:1011E0000021E018520004F0F7FFBE4A01259346A3
:1011F000A34418265A46BC4B0021E5500433E65060
:10120000130010221800019304F0E6FFB74A944639
:10121000A44461460B00102218000021029304F040
:10122000DBFFB34A00219146A1443022484604F036
:10123000D3FFB04A00219346A3445A4613003022FC
:101240001800059304F0C8FFD423DB00E650822683
:10125000A94AFF21A018B600602204F0BDFF4B464A
:10126000B1469922A144920048469A26A350009381
:101270000BF0C8FBB600A0510836A55500264A461B
:101280009E49974B665400991000E15006920BF06E
:10129000B9FBAF239A4ADB00A554974AE050A92333
:1012A000A65042469B00E2508A2292009146A144F9
:1012B00048460BF0A7FBAA2342469B00E0500833A8
:1012C000E554904B4846E6548F4BE2500BF09AFBA6
:1012D000B2230222DB00E0508C4BE5548C4BE250F1
:1012E0001E329346C923A3445A469B00E2508D22E6
:1012F00092009046A04440460BF084FBCA235A4615
:101300009B00E0500833E554824B4046E654824B44
:10131000E2500BF077FBB8230622DB00E0507F4B56
:101320003800E5547E4BE2502A329346A3445A4695
:101330007C4BE2500BF066FB81235A46DB00E05009
:101340000833E554784B3800E654FF33FF33E2505E
:101350000BF058FB0D22754BE0500433E554C033BD
:10136000E250A12352469B004846E2500BF04AFB54
:10137000A2239B00E0500833E5546D4B5246E654DF
:10138000B0234846DB00E2500BF03CFB582292466B
:10139000684BA244E0500433E5542133FF33E55059
:1013A000C12352469B004046E2500BF02BFBC22368
:1013B0009B00E0500833E5545F4B5246E654B62399
:1013C0004046DB00E2500BF01DFB05225B4BE0507A
:1013D0000433E5540133FF33E25063329246F9237C
:1013E000A24452469B003800E2500BF00BFBFA235C
:1013F00052469B00E0500833E554514B3800E65408
:10140000504BE2500BF0FEFAC1230C22DB00E050FF
:101410004D4B0399E5544D4B4846E250B1239B0098
:10142000E1500BF0EFFAB2239B00E0500833E55493
:10143000474B0399E654B3234846DB00E1500BF0D9
:10144000E1FA902103228A46424BA244E050043341
:10145000E5541133FF33E250D12351469B004046FF
:10146000E1500BF0CFFAD2239B00E0500833E55453
:10147000394B5146E654B9234046DB00E1500BF0AE
:10148000C1FAA0218A460722A2445146334BE050BC
:101490000433E554F033E250314B3800E1500BF0A7
:1014A000B1FA85235146DB00E0500833E5542D4B5B
:1014B0003800E6542C4BE1500BF0A4FAC4230E2262
:1014C000DB00E050294B0499E554294B4846E25093
:1014D00050E0C046C0BA011040BB0110ACB90110C9
:1014E000740500000C070000040700001C07000042
:1014F0002C0700005C070000A40600007202000038
:101500007C050000B20200008C050000940500007C
:10151000AC06000032030000BC050000C40500005A
:10152000BC060000040400001204000014060000C1
:10153000920200008405000012030000B4050000C0
:10154000F2030000040600000C060000D4060000B0
:10155000D20200009C05000052030000CC050000F0
:1015600024040000320400001C06000024060000D1
:10157000DC060000B9239B00E1500BF043FABA23CC
:101580009B00E0500833E5546F4B0499E6546F4BD1
:101590004846E1500BF036FAC821B52304228946AB
:1015A000DB00E0506A4BA144E5546A4B4946E250E7
:1015B000D92340469B00E1500BF024FADA23494638
:1015C0009B00E0500833E554634B4046E654634BC0
:1015D000E1500BF017FAD8218846BB230822A0441B
:1015E0004146DB00E0505E4B3800E5545D4BE25075
:1015F0005D4BE1500BF006FA89234146DB00E050D9
:101600000833E554594B3800E654D733FF33E150E3
:101610000BF0F8F992270F22554BBF00E05004332E
:10162000E554B033E250E719524B01993800E150CC
:101630000BF0E8F99523DB00E0500833E5544E4BFE
:101640000199E5544D4B3800E1500BF0DBF9CA230A
:101650001222DB00E0504A4B0299E554494B380016
:10166000E250494BE1500BF0CDF99923DB00E050FB
:101670000833E554454B0299E5548733FF3338006E
:10168000E1500BF0BFF986271322414BBF00E05019
:101690000433E5549033E25005983E4BE719E0508F
:1016A00038000BF0AFF9AD23DB00E0500833E55410
:1016B000394B0598E554394BE05038000BF0A2F94E
:1016C000D323DB00E050364B0798E554002823D0A5
:1016D000009B0100984630221800992704F082FDF3
:1016E0004346069ABF0010009046E35100930BF06A
:1016F00089F92C492C4B043766540099E051404637
:101700000837E150E5550BF07DF9AF23DB00E050E1
:10171000264A274BA650E554089B002B04D01022E4
:101720001900019804F05EFD099B002B04D01022E3
:101730001900029804F056FD200043B0F0BCBB46EF
:10174000B246A946A046F0BDF2020000A405000082
:10175000AC050000B406000072030000D4050000D0
:10176000DC050000C4060000440400005204000030
:101770002C060000A4040000B20400004C06000087
:1017800054060000EC060000C4040000D20400006F
:101790005C0600006405000072050000940600006D
:1017A0009C0600007202000074050000A406000000
:1017B0007C050000F0B5D6464F464646C0B592B00F
:1017C00098461AAB80CB0E001B7805003868796804
:1017D0009946924603F088FF041C011C306804F00F
:1017E0003CFB04F0FBFB03F0DDFF0C900D91211C92
:1017F000706804F032FB04F0F1FB03F0D3FF0E90AD
:101800000F91211CB06804F028FB04F0E7FB03F003
:10181000C9FF10901191211CF06804F01EFB04F028
:10182000DDFB03F0BFFF089009913869796903F087
:101830005BFF041C011C306904F00FFB04F0CEFBBD
:1018400003F0B0FF0A900B917069211C04F005FBB6
:1018500004F0C4FB03F0A6FF04900591211CB069BD
:1018600004F0FBFA04F0BAFB03F09CFF0290039132
:10187000211CF06904F0F1FA04F0B0FB03F092FFD0
:10188000069007910C980D9903F002FF4B1C00DAAB
:101890001BE14B1C00D114E1002900DC57E17F2043
:1018A000C4B20E980F9903F0F3FE4B1C00DA05E169
:1018B0004B1C00D1FEE0002900DC41E17F20C0B2DA
:1018C000000204431098119903F0E2FE4B1C00DA69
:1018D000EDE04B1C00D1E6E0002900DC29E17F208F
:1018E0009E4BC0B200041C4004430898099903F0C1
:1018F000CFFE4B1C00DAD3E04B1C00D1CCE000291A
:1019000000DC0FE17F2024020006240A04432C603F
:101910000A980B9903F0BCFE4B1C00DAB9E04B1C93
:1019200000D1B2E0002900DCF5E07F20C4B20498C9
:10193000059903F0ADFE4B1C00DAA3E04B1C00D16F
:101940009CE0002900DCDFE07F20C0B200020443FD
:101950000298039903F09CFE4B1C00DA8BE04B1CB1
:1019600000D184E0002900DCC7E07F207B4BC0B2BF
:1019700000041C4004430698079903F089FE4B1CA1
:1019800000DA71E04B1C6CD0002900DCAEE07F2057
:1019900024020006240A04436C60386A796A03F062
:1019A000A3FE011C041C306A04F057FA04F016FB75
:1019B00003F0F8FE03F06CFE4B1C50DB4B1C4AD0CE
:1019C000002900DC8BE06648A860211C706A04F0E6
:1019D00044FA04F003FB03F0E5FE03F059FE4B1C50
:1019E00014DB4B1C0ED0002900DC71E05C484B4638
:1019F000E860002B0FD1280012B0E0BCBA46B14617
:101A0000A846F0BD80231B069842F0D84B465548A7
:101A1000E860002BEFD02B002A001033083203CAF5
:101A200003C3534699682B00103328000093022209
:101A30000223494208F068FE0023AB61EB61434694
:101A400099682B0018330093022202234942281D73
:101A500008F05AFECFE780231B069842B4D84148CD
:101A6000B2E703007F3393D27F20404290E7030028
:101A70007F3300D37AE77F20404277E703007F334C
:101A800000D362E77F2040425FE703007F3300D34B
:101A90004CE77F20404249E703007F3300D332E721
:101AA0007F2040422FE703007F3300D318E77F20D9
:101AB000404215E703007F3300D300E77F20404218
:101AC000FDE603007F3300D3EAE67F204042E7E6ED
:101AD000002900D08BE7002800DB88E786E7002993
:101AE00000D071E7002800DB6EE76CE7002900D02A
:101AF0004EE77F2800D84BE749E7002900D035E7BB
:101B00007F2800D832E730E7002900D01DE77F2882
:101B100000D81AE718E7002900D007E77F2800D887
:101B200004E702E7002900D0EDE67F2800D8EAE6C6
:101B3000E8E6002900D0D3E67F2800D8D0E6CEE63C
:101B4000002900D0BBE67F2800D8B8E6B6E6002919
:101B500000D0A5E67F2800D8A2E6A0E6FFFF00FFA0
:101B6000FFFFFF7F01000080F0B5DE4657464E467E
:101B70004546E0B50D009A460E000F0019002B00F7
:101B80009046CBB0283718365833040010310192F4
:101B9000009332003B002AA8FFF70CFE4346019356
:101BA0008823A9469C46CC446346514632004831BE
:101BB0001F93009332A83B00FFF7FCFD43460193BF
:101BC000B8239C46CC446346514632008031209372
:101BD00000933AA83B00FFF7EDFD43460193E8234D
:101BE0009C46CC44634651463200B83142A821930A
:101BF00000933B000895FFF7DDFD524626AB43CA34
:101C000043C3126826A91A602000102204F0EAFAE1
:101C100010239846A044202240462AA904F0E2FA64
:101C200030239B46A3442022584632A904F0DAFA16
:101C300050239C46A444624613003AA9202218006F
:101C4000049304F0CFFA70239946A1444B46202216
:101C5000180042A9069304F0C5FAFE4B21001A00B1
:101C6000A931FF313832C1CAC1C11E0010683836EF
:101C7000086030000431E0C8E0C112680A60220048
:101C80001900C932FF324831C1C9C1C219004831F7
:101C9000C1C9C1C2F022012702215200A75004325B
:101CA000A1502200E932FF32483343CB43C2230024
:101CB000C822F533FF3318000021920004F08CFA9B
:101CC0009622E54B0021E018520004F085FA182610
:101CD000E24B0822E75000270433E650E04B002196
:101CE000E75004339C46A44463461800099304F06B
:101CF00073FAD723DB009946A1444A461500002118
:101D00000C22280004F068FAD6490C228C46A44420
:101D100061460B00002118000A9304F05DFAC82305
:101D2000DB00E650D04EFF21A019D4267600B14644
:101D30006022A14404F050FA4E46812330009B00FB
:101D4000E55002951E960AF05DFE822335000926B5
:101D50009B00E0500833E654C44B029AE754BE4B54
:101D60002800E2500AF04EFEA323DB00E050C04BF7
:101D70004246E654BC4BE75091239B00E2507C3B2B
:101D80009946A1444B4618001D000AF03BFE9223E1
:101D900042469B00E0500833E654B64B2800E75417
:101DA000B54BE2500AF02EFEA6230221DB00E050E4
:101DB000B24BE654B24BE15014239846B123A044F1
:101DC00042469B00E250F03B9946A14448460AF047
:101DD00019FEB22342469B00E0500833E654A94B5B
:101DE0004846E754A84BE2500AF00CFEAC2306220A
:101DF000DB00E050A54BE654A54BE2501823984673
:101E0000E923A04442469B00E250C53BFF3B984675
:101E1000A04440460C920AF0F5FDEA2302219B0003
:101E2000E0500833E1549B4B0C9AE754FF33FF33E7
:101E30004046E2500AF0E6FD02210D22964BE050AA
:101E40000433E154C033E25089235A469B002800F2
:101E5000E2500AF0D7FD8A239B00E0500833E65495
:101E60008E4B5A46E754A4232800DB00E2500AF0C8
:101E7000C9FD01228A4BE0500433E6542133FF337D
:101E8000E25034239B46A923A34459469B0048466D
:101E9000E1500AF0B7FDAA239B00E0500833E65456
:101EA000804B5946E754AA234846DB00E1500AF02C
:101EB000A9FD05227C4BE0500433E6540133FF3387
:101EC000E25038239B46E123A34459469B004046F9
:101ED000E1500AF097FDE22302219B00E050083315
:101EE000E1545946714B4046E754714BE1500AF0BA
:101EF00089FDB52302210C22DB00E0506D4B280048
:101F0000E1546D4BE2509923049A9B00E2500AF091
:101F100079FD9A239B00E0500833E654674B049AFE
:101F2000E754A7232800DB00E2500AF06BFD0322F0
:101F3000634BE0500433E6541133FF33E250542333
:101F40009B46B923A3445A469B004846E2500AF0F8
:101F500059FDBA239B00E0500833E654594B5A46CA
:101F6000E754AD234846DB00E2500AF04BFD564BE8
:101F7000E0500433E65407239B46CC235A46DB004B
:101F8000E25058239C46A44463461A00F12340467D
:101F90009B00E25004920AF035FDF22302219B00DF
:101FA000E0500833E154494B049AE754484B40460B
:101FB000E2500AF027FDB82302210E22DB00E05098
:101FC000444B2800E154444BE250A123069A9B0065
:101FD000E2500AF017FDA2239B00E0500833E654BC
:101FE0003E4B069AE7543E4B2800E2500AF00AFDA9
:101FF000A9230422DB00E0503A4B4846E6543A4B12
:10200000E25074239C46A44463461D00C1239B00F8
:10201000E5500AF0F7FCC2239B00E0500833E65479
:10202000324B4846E754324BE5500AF0EBFCAF2305
:102030000822DB00E0502F4B4046E6542E4BE25086
:1020400078239946F923A1444A469B00E2500AF0BE
:10205000D9FC53E040BB011014050000A4060000A9
:10206000AC060000C4060000440600001202000096
:102070001C050000520200002C0500003405000081
:102080004C060000D20200005C0500006405000060
:102090005C060000B2030000B4050000320200003C
:1020A00024050000B2020000540500009203000065
:1020B000A4050000AC0500007406000072020000D8
:1020C0003C050000F20200006C050000D203000095
:1020D000BC050000C40500007C0600009202000060
:1020E000440500004C0500005406000012030000E7
:1020F000740500007C05000064060000FA2302213C
:102100009B00E0500833E154F14B4046E7544F4602
:10211000D733FF33E750EF4F0D00B8460AF072FC9B
:102120000F22A0444746EC4BE0500433E554B03353
:10213000E250EA4BE7502700E937FF3738000AF052
:1021400061FC892301224146DB00E0500833E6545C
:10215000E34B3800E254E34BE1500AF053FCBE235A
:102160001222DB00E050E04B099DE654DF4B3800C3
:10217000E250DF4BE5500AF045FC8D23DB00E050D8
:10218000584601220833E054DA4B3800E2548733D2
:10219000FF33E5500AF036FC5F46D74B1322E05080
:1021A0000433E75427009033B9370A9DE250FF37D4
:1021B000D24B3800E5500AF025FCA1230122DB00B8
:1021C000E0500833E654CE4B3800E254CD4BE55096
:1021D0000AF018FCC723DB00E050089DCA4BA86931
:1021E000E969E65403F080FA8046286A03F008FAA9
:1021F0005246C64B06000F00D058414603F02DFE54
:1022000003F0ECFE03F0CEFAE6235246DB00069024
:102210000791D058414603F020FE03F0DFFE03F0A3
:10222000C1FA5246BA4B0A900B91D058414603F07E
:1022300014FE03F0D3FE03F0B5FAE7235246DB00A9
:102240000C900D91D058414603F007FE03F0C6FEF6
:1022500003F0A8FA5246AF4B0E900F91D05841466A
:1022600003F0FBFD03F0BAFE03F09CFAE8235246AC
:10227000DB0010901191D058414603F0EEFD03F0C1
:10228000ADFE03F08FFA5246A34B12901391D05833
:10229000414603F0E2FD03F0A1FE03F083FAE923D7
:1022A0005246DB0014901591D058414603F0D5FDFD
:1022B00003F094FE03F076FA5246984B169017916D
:1022C000D058414603F0C9FD03F088FE03F06AFAD6
:1022D000EA235246DB0018901991D058414603F08A
:1022E000BCFD03F07BFE03F05DFA52468C4B1A9066
:1022F0001B91D058414603F0B0FD03F06FFE03F090
:1023000051FAEB235246DB001C901D91D0584146F8
:1023100003F0A3FD03F062FE03F044FA069A079B64
:10232000049005913000390003F0CCF803F080F9F7
:102330000300803300DB56E380204042C3B298465E
:102340000A9A0B9B3000390003F0BCF803F070F9D7
:102350000300803300DB41E3802040424346C0B2AB
:102360000002034398460C9A0D9B3000390003F09D
:10237000A9F803F05DF90300803300DB29E3802036
:1023800040424246674BC0B21A4013000004034368
:1023900098460E9A0F9B3000390003F093F803F033
:1023A00047F90300803300DB0EE3802040424346C0
:1023B0001B0200061B0A034326933000109A119B50
:1023C000390003F07FF803F033F90300803300DBBA
:1023D000F5E280204042C3B29946129A139B300026
:1023E000390003F06FF803F023F90300803300DBBA
:1023F000E0E2802040424B46C0B2000203439946CF
:10240000149A159B3000390003F05CF803F010F9C2
:102410000300803300DBC8E2802040424A46414B43
:10242000C0B21A401300000403439946169A179B42
:102430003000390003F046F803F0FAF80300803367
:1024400000DBADE2802040424B461B0200061B0A27
:10245000034327933000189A199B390003F032F890
:1024600003F0E6F80300803300DB94E28020404272
:10247000C3B299461A9A1B9B3000390003F022F828
:1024800003F0D6F80300803300DB7FE28020404277
:102490004B46C0B20002034399461C9A1D9B300074
:1024A000390003F00FF803F0C3F80300803300DBBA
:1024B00067E2802040424A461A4BC0B21A401300DD
:1024C0000004034332000498059999463B002BE031
:1024D000F2030000AC060000CC050000440400003C
:1024E00052040000EC050000F40500008C0600001A
:1024F0006404000072040000FC05000004050000F4
:1025000012050000340600003C0600002C07000005
:10251000340700003C070000440700004C0700009F
:1025200054070000FFFF00FF02F0CCFF03F080F82B
:102530000300803300DB1FE2802040424B46029DB7
:102540001B0200061B0A034326A90C22280028931D
:1025500003F048FE81239B00E55002951E9D09274C
:1025600028000AF04FFA822300269B00E05008332F
:10257000E754E54B029AE654E44B2800E2500AF097
:1025800041FAA323DB00E050E14B089DE754E14B07
:10259000A86BE96BE65003F0A7F82B6C8046180097
:1025A0001D0003F02DF85246DB4B06000F00D058FB
:1025B000414603F052FC03F011FD03F0F3F8E2236F
:1025C0005246DB0006900791D058414603F045FC87
:1025D00003F004FD03F0E6F85246D04B029003915D
:1025E000D058414603F039FC03F0F8FC03F0DAF868
:1025F000E3235246DB000A900B91D058414603F08A
:102600002CFC03F0EBFC03F0CDF83B00320004900F
:1026100005910698079902F055FF03F009F80300A9
:10262000803300DBA3E180204042C3B23200029835
:10263000039999463B0002F045FF02F0F9FF0300C1
:10264000803300DB8EE1802040424B46C0B2000266
:10265000034399460A9A0B9B3000390002F032FF7F
:1026600002F0E6FF0300803300DB76E18020404289
:102670004A46AB4BC0B21A40130000040343320079
:102680000498059999463B0002F01CFF02F0D0FF28
:102690000300803300DB5BE1802040424B461B029D
:1026A00000061B0A034399464A469E4B089EE25089
:1026B000B06CF16C03F018F8336D814618009B463E
:1026C00002F09EFF524606000F00974B4946D05835
:1026D00003F0C3FB03F082FC03F064F83B0032001C
:1026E00002F0F0FE02F0A4FF904B984200DA1800CE
:1026F00080231B02984200DB8D4820AB1882E42324
:102700005246DB00D058494603F0A7FB03F066FCB5
:1027100003F048F83B00320002F0D4FE02F088FFDC
:10272000824B984200DA180080231B02984200DB9B
:102730007F48524620AB58827E4B4946D05803F022
:102740008CFB03F04BFC03F02DF83B00320002F051
:10275000B9FE02F06DFF754B984200DA1800802335
:102760001B02984200DB724820AB9882E523524658
:10277000DB00D058494603F070FB03F02FFC03F058
:1027800011F83B00320002F09DFE02F051FF674B52
:10279000984200DA180080231B02984200DB64484C
:1027A00020ABD88224A90822099803F01BFD200041
:1027B0008C22089F52003900903003F013FDB86955
:1027C000F96902F091FFFE233A6A5B00E05004339E
:1027D000E250B86DF96D02F087FF8F233A6E9B00CF
:1027E000E0500433E250B86EF96E02F07DFFAF2383
:1027F0003A6F9B00E0500433E250B86FF96F02F07B
:1028000073FFE7239B00E0508023FA58E8231F9EC4
:102810009B00E2503068716802F066FF8723B2685F
:102820003E009B00E05098360433E25030687168F7
:1028300002F05AFFA723B2689B00E0500433E25035
:102840003069716902F050FFDF23B2699B00209E5E
:10285000E0500433E2503068716802F045FF97237E
:10286000B2683E009B00E050C8360433E250306846
:10287000716802F039FFB723B2689B00E05004335F
:10288000E2503069716902F02FFFEF23B2699B00BB
:10289000219EE0500433E2503068716802F024FF5A
:1028A0009F23B2683E009B00E050F8360433E250AC
:1028B0003068716802F018FFBF23B2689B00E050D7
:1028C0000433E2503069716902F00EFFF723B269F8
:1028D0009B00E0500433E2504246B86AF96A164B56
:1028E000E2504A460433E550144BE2505A46043352
:1028F000E25002F0F9FE124B3A6BE0502000043334
:10290000E2504BB01EE0C046120200001405000069
:102910001C050000440600000C070000140700001E
:10292000FFFF00FFAC0600001C0700000080FFFF57
:10293000FF7F0000240700003C0400005C0400004E
:10294000FC040000F0BCBB46B246A946A046F0BD60
:102950007F2800DCA2E67F20A0E67F2800DC87E657
:102960007F2085E67F2800DC6FE67F206DE67F28EC
:1029700000DC5AE67F2058E67F2800DCDEE57F2079
:10298000DCE57F2800DC96E57F2094E57F2800DCED
:102990007EE57F207CE57F2800DC69E57F2067E518
:1029A0007F2800DC50E57F204EE57F2800DC35E500
:1029B0007F2033E57F2800DC1DE57F201BE57F2895
:1029C00000DC08E57F2006E57F2800DCEFE47F20BF
:1029D000EDE47F2800DCD4E47F20D2E47F2800DC13
:1029E000BCE47F20BAE47F2800DCA7E47F20A5E4D4
:1029F00070B5264C0500A54446A8FEF767FB244B9E
:102A0000244A0093244B254C02920393244A254BDD
:102A1000260004920593244A244B694606920793A4
:102A20000023242258368B540AA83100143A089304
:102A300003F0D8FB310010220EA803F0D3FB2100D5
:102A400010227834683112A803F0CCFB2100302228
:102A500016A803F0C7FB2100302222A803F0C2FB16
:102A6000134C302221002EA803F0BCFB21003022A1
:102A70003AA803F0B7FB28000122694646ABFFF7EE
:102A800073F828000B4B9D4470BDC04658F7FFFFFC
:102A9000090907020F4001F5FFFF2F3F40BB01105E
:102AA000C6401071FFFFFF3E101010101010803F45
:102AB000E8BB0110A8080000F0B5D6464F464646D0
:102AC000C0B592B099461AAB80CB0E001B780500BA
:102AD000386879689846924602F006FE041C011C8C
:102AE000306803F0BAF903F079FA02F05BFE0C905B
:102AF0000D91211C706803F0B0F903F06FFA02F039
:102B000051FE0E900F91211CB06803F0A6F903F05E
:102B100065FA02F047FE10901191211CF06803F055
:102B20009CF903F05BFA02F03DFE089009913869C8
:102B3000796902F0D9FD041C011C306903F08DF99C
:102B400003F04CFA02F02EFE0A900B917069211CE2
:102B500003F083F903F042FA02F024FE0490059199
:102B6000211CB06903F079F903F038FA02F01AFE7B
:102B700002900391211CF06903F06FF903F02EFA23
:102B800002F010FE069007910C980D9902F080FD5E
:102B90004B1C00DAEBE04B1C00D1E4E0002900DC28
:102BA00019E17F20C4B20E980F9902F071FD4B1C01
:102BB00000DAD5E04B1C00D1CEE0002900DC03E1B7
:102BC0007F20C0B2000204431098119902F060FD0A
:102BD0004B1C00DABDE04B1C00D1B6E0002900DC44
:102BE000EBE07F20974BC0B200041C4004430898E0
:102BF000099902F04DFD4B1C00DAA3E04B1C00D1FB
:102C00009CE0002900DCD1E07F2024020006240A99
:102C100004432C600A980B9902F03AFD4B1C00DA31
:102C200089E04B1C00D182E0002900DCB7E07F2066
:102C3000C4B20498059902F02BFD4B1C00DA73E036
:102C40004B1C00D16CE0002900DCA1E07F20C0B269
:102C5000000204430298039902F01AFD4B1C5CDB4E
:102C60004B1C57D0002900DC8BE07F20754BC0B295
:102C700000041C4004430698079902F009FD4B1C10
:102C800045DB4B1C40D0002900DC73E07F20240290
:102C90000006240A04436C60386A796A02F024FD55
:102CA000011C041C306A03F0D8F803F097F902F015
:102CB00079FD02F0EDFC80220B00A860E9601206AD
:102CC000914200D1B8E0EB60A860211C706A03F06B
:102CD000C4F803F083F902F065FD02F0D9FC80220C
:102CE0000B00286169611206914200D17AE06B61A4
:102CF00043462861002B00D07EE0280012B0E0BCE3
:102D0000BA46B146A846F0BD03007F33BFD27F204C
:102D10004042BCE703007F33A8D27F204042A5E7B2
:102D200003007F3300D392E77F2040428FE7030008
:102D30007F3300D37CE77F20404279E703007F3375
:102D400000D362E77F2040425FE703007F3300D378
:102D500048E77F20404245E703007F3300D330E758
:102D60007F2040422DE703007F3300D31AE77F2006
:102D7000404217E7002900D089E77F2800D886E77E
:102D800084E7002900D071E77F2800D86EE76CE760
:102D9000002900D05BE77F2800D858E756E70029D4
:102DA00000D045E77F2800D842E740E7002900D05F
:102DB0002BE77F2800D828E726E7002900D011E775
:102DC0007F2800D80EE70CE7002900D0F9E67F281D
:102DD00000D8F6E6F4E6002900D0E3E67F2800D824
:102DE000E0E6DEE6002800D081E76B614346013073
:102DF0002861002B00D180E72C002900183408221C
:102E00002000083103F0EEF95346996828000223A8
:102E100002224942009407F077FC00232B626B6288
:102E20004B4699682B00203300930222022349422B
:102E3000281D07F069FC60E7002800D043E7013057
:102E400041E7C046FFFF00FFF0B5DE4657468B4620
:102E50004E4645469846E0B50D000E0019005B460B
:102E6000C9B02836183558330400170010310192C4
:102E700000932A00330020A8FFF71EFE8823414656
:102E80005B442A0048310197159300932AA8330028
:102E9000FFF712FEB82341465B442A0080310197B8
:102EA0001293009334A83300FFF706FEE82341464F
:102EB0005B442A00B8313EA8019713930093330076
:102EC000FFF7FAFD424627001AAB23CA23C3126854
:102ED00010371A601AA91022200003F083F9380075
:102EE000282220A9029703F07DF938239A46A244AC
:102EF000282250462AA903F075F960239C46A44471
:102F000061460B002822180034A90A9303F06AF9DD
:102F100088239946A1444B463EAD2900282218003B
:102F20000C9303F05FF9FE4922000B00C932FF3217
:102F3000383361CB61C20D00186838351060280045
:102F40000432E0C8E0C21B68136023000A00E933C2
:102F5000FF33483261CA61C30A00483261CA61C3A3
:102F600080239B009C46A444634601221D0002234B
:102F70002A606B60822292000495A318852648314E
:102F800025C925C3C822B6000021A019920003F06C
:102F900023F99622E34E0021A019E34E520003F0DC
:102FA0001BF9B446A444664601221825DF4B0021D4
:102FB000E250300004330732E550069603F00CF976
:102FC000DB4BDC4E9946A14449460B000822180011
:102FD0000021099303F000F9B446A44461460F00B0
:102FE00018220021380003F0F7F8D34A0021914657
:102FF000A1444A461300182218000E9303F0ECF87F
:10300000CC23DB00E550CD4DFF216019E425602283
:103010006D0003F0E1F8AC46A44462468923100039
:103020009B001492E7501097170009F0EBFC8A23DD
:1030300000269B00C23DE050FF3D0833E554C04BE5
:103040001099E654B74B3800E15009F0DBFCA72398
:10305000DB00E050BB4B029FE554B84B0235E65015
:1030600099239B00E7507C3B9946A144484609F0D0
:10307000C9FC9A239B00E0500833E554B24B484604
:10308000E654B24BE75009F0BDFCAA230222DB0054
:10309000E050AF4B2700E554AE4B1437E250B92354
:1030A0009B00E750F03B9C46A44463461800029303
:1030B00009F0A8FCBA239B00E0500833E554A64B66
:1030C0000298E654A54BE750182709F09BFCB02363
:1030D0000622BC46DB00E050A14BA444E554A14BC2
:1030E0006746E250F12304989B00E750119709F0DE
:1030F00089FCF22304279B00E0500833E7549A4BE5
:103100001199E654FF33FF330498E15009F07AFC3B
:103110000D22964B5146E0500433E754C033E25041
:10312000912348469B00E15009F06CFC92239B00E0
:10313000E0500833E5548E4B5146E654A8234846E8
:10314000DB00E15009F05EFC01218A4BE0500433C2
:10315000E5542133FF33E1503C239A46B123A24486
:1031600052469B000298E25009F04CFCB2239B00AF
:10317000E0500833E554804B5246E654AE230298A3
:10318000DB00E25009F03EFC05227C4BE0500433AA
:10319000E5540133FF33E25040239A46E923A24429
:1031A00052469B000498E25009F02CFCEA23524658
:1031B0009B00E0500833E754714B0498E654714B80
:1031C000E25009F01FFCB9230C22DB00E0506E4BEB
:1031D0000A99E7546D4B4846E250A1239B00E15009
:1031E00009F010FCA2239B00E0500833E554684B23
:1031F0000A99E654AB234846DB00E15009F002FC93
:10320000642103228A46634BA244E0500433E55410
:103210001133FF33E250C12351469B000298E15025
:1032200009F0F0FBC2239B00E0500833E5545A4BF1
:103230005146E654B1230298DB00E15009F0E2FB6D
:10324000682107228A46554BA244E0500433E554D6
:10325000F033E250F92351469B000498E15009F005
:10326000D1FBFA2351469B00E0500833E7544C4B06
:10327000049AE6544B4B10009246E15009F0C2FB11
:10328000BC230E22DB00E050474B0C99E754474B20
:103290004846E250A9239B00E15009F0B3FBAA2362
:1032A0009B00E0500833E554414B0C99E654414BE8
:1032B0004846E15009F0A6FB8C21AD238946DB008E
:1032C000E0503D4BA144E5543C4B4946E750C923EF
:1032D00002989B00E15009F095FBCA2349469B00E8
:1032E000E0500833E554364B0298E654354BE15034
:1032F00009F088FBB323DB00E050334B0822E55490
:103300002500324B9035E250314B5046E55009F0E4
:1033100079FB8123DB00E0500833E7545AE0C046D4
:1033200040BB011034050000CC060000C4060000BC
:10333000D4060000DC060000F4060000640600006D
:10334000320200003C050000720200004C05000043
:10335000540500006C060000F20200007C0500002D
:10336000840500007C060000D2030000D4050000A4
:103370005202000044050000D20200007405000063
:10338000B2030000C4050000CC0500009406000054
:10339000920200005C050000120300008C05000092
:1033A000F2030000DC050000E40500009C060000BC
:1033B000B2020000640500006C0500007406000005
:1033C00032030000940500009C0500008406000004
:1033D00004040000E14B5046E654D733FF33E55078
:1033E00009F010FB0F22DE4B069DE0500433E7543A
:1033F000B033E250DB4B0736E55082239B00E518E3
:10340000280009F0FFFA8D23DB00E0500833E65472
:10341000D54B033FE754069AD44B2800E25009F0FD
:10342000F1FAC2231222DB00E050D14B0999E65495
:10343000D04B2800E250D04BE15009F0E3FA912341
:10344000DB00E0500833E654CC4B0999E75487334E
:10345000FF332800E15009F0D5FA1322C84B303D64
:10346000E0500433E6549033E250C64B0E9A2800E5
:10347000E25009F0C7FAA523DB00E0500833E65418
:10348000C14B0E9AE754C14B2800E25009F0BAFA3A
:10349000CB23DB00E050BE4BE6545B469869D9690C
:1034A00002F022F95B46071C186A02F0A9F84246AE
:1034B000B84B05000E00D058391C02F0CEFC02F0CB
:1034C0008DFD02F06FF90B0002003100280001F0C1
:1034D000F9FF02F0ADF8B04B984200DA18008023F3
:1034E0001B02984200DBAD4814AB1883E62342462A
:1034F000DB00D058391C02F0B0FC02F06FFD02F086
:1035000051F90B0002003100280001F0DBFF02F04E
:103510008FF8A14B984200DA180080231B029842D2
:1035200000DB9E48424614AB58839D4B391CD05853
:1035300002F093FC02F052FD02F034F90B0002009D
:103540003100280001F0BEFF02F072F8924B984261
:1035500000DA180080231B02984200DB8F4814AB6E
:103560009883E7234246DB00D058391C02F075FCF3
:1035700002F034FD02F016F90B00020031002800C1
:1035800001F0A0FF02F054F8834B984200DA1800D3
:1035900080231B02984200DB8048424614ABD8834C
:1035A000804B391CD05802F058FC02F017FD02F095
:1035B000F9F80B0002003100280001F083FF02F04F
:1035C00037F8754B984200DA180080231B029842A6
:1035D00000DB724814AB1884E8234246DB00D05865
:1035E000391C02F03AFC02F0F9FC02F0DBF80B00A7
:1035F00002003100280001F065FF02F019F8664B67
:10360000984200DA180080231B02984200DB6348CE
:10361000424614AB5884644B391CD05802F01DFC50
:1036200002F0DCFC02F0BEF80B00020031002800C2
:1036300001F048FF01F0FCFF574B984200DA1800F8
:1036400080231B02984200DB544814AB9884E92382
:103650004246DB00D058391C02F0FFFB02F0BEFCF2
:1036600002F0A0F80B0002003100280001F02AFF50
:1036700001F0DEFF484B984200DA180080231B025D
:10368000984200DB4548424614ABD884474B391C6E
:10369000D05802F0E2FB02F0A1FC02F083F8EA232A
:1036A0004246DB0004900591D058391C02F0D5FB4E
:1036B00002F094FC02F076F842463D4B0A900B91E2
:1036C000D058391C02F0C9FB02F088FC02F06AF8FD
:1036D000EB230C900D91391C4746DB00F85802F0A3
:1036E000BCFB02F07BFC02F05DF8049A059B0290A3
:1036F00003912800310001F0E5FE01F099FF264B0F
:10370000984200DA180080231B02984200DB23480D
:103710000A9A0B9B310087B2280001F0D3FE01F01A
:1037200087FF1D4B984200DA180080231B02984245
:1037300000DB1A4800040C9A0D9B31000743280057
:1037400001F0C0FE01F074FF134B984200DA18003C
:1037500080231B0298422DDB10482BE0120400004E
:10376000EC05000064040000720400000C06000078
:1037700014060000AC06000084040000920400005F
:103780001C0600002405000032050000540600005D
:103790005C0600002C0700000080FFFFFF7F000098
:1037A000340700003C070000440700004C070000FD
:1037B0005407000083B22A00029803999946330007
:1037C00001F080FE01F034FFA54B984200DA1800AA
:1037D00080231B02984200DBA2484D4600040543AB
:1037E000109A1E971F951AAB23CB23C223CB23C25B
:1037F00089239D4A9B00A518E550149B07271800B4
:10380000994609F0FFF88A2300269B00E050083310
:10381000E754964B4846E654954BE55009F0F2F8CC
:10382000A723DB00E050934B4546E754924BE6500C
:103830005B46986BD96B01F057FF5B461B6C81466A
:10384000049018009A4601F0DBFE8C4B0290039125
:10385000E858494602F001FB02F0C0FB01F0A2FF6C
:10386000E223DB0006000F00E858494602F0F5FAB3
:1038700002F0B4FB01F096FF814B0E900F91E858D7
:10388000494602F0EAFA02F0A9FB01F08BFFE323BC
:10389000DB000A900B91E858494602F0DEFA02F08C
:1038A0009DFB01F07FFF029A039B0C900D9130006D
:1038B000390001F007FE01F0BBFE694B060098429B
:1038C00000DA1E0080231B029E4200DB654E029A36
:1038D000039B0E980F9901F0F5FD01F0A9FE604BD6
:1038E000B6B2984200DA180080231B02984200DB2F
:1038F0005C480004029A039B06430A980B9901F066
:10390000E1FD01F095FE564B984200DA1800802345
:103910001B02984200DB5348029A039B85B20C9825
:103920000D9901F0CFFD01F083FE4D4B984200DA76
:10393000180080231B02984200DB4A48000405431C
:10394000069A1696179516AB03CB03C25B46986C86
:10395000D96C01F0C9FE5B461B6D071C1800994627
:10396000454601F04DFE474B02900391E858391C43
:1039700002F073FA02F032FB01F014FFE423424636
:10398000DB000E000500391CD05802F066FA02F088
:1039900025FB01F007FF42463B4B0C900D91D058A0
:1039A000391C02F05AFA02F019FB01F0FBFEE52384
:1039B0004246DB000A900B91D058391C02F04DFAB8
:1039C00002F00CFB01F0EEFE029A039B06900791B9
:1039D0003100280001F076FD01F02AFE204B0600A0
:1039E000984200DA1E0080231B029E4200DB1D4E1F
:1039F000029A039B0C980D9901F064FD01F018FEEA
:103A0000174BB6B2984200DA180080231B02984286
:103A100000DB14480004029A039B06430A980B99A2
:103A200001F050FD01F004FE0D4B984200DA180041
:103A300080231B02984200DB0A48029A039B85B24E
:103A40000698079901F03EFD01F0F2FD044B984203
:103A500000DA180080231B02984217DB014815E0AA
:103A60000080FFFFFF7F0000DC0600003202000044
:103A7000340500003C050000640600000C0700004F
:103A8000140700001C070000240700000004054381
:103A9000099A1995189618AB03CB03C220008C2203
:103AA00059465200B03002F09DFB5B469869D969D7
:103AB00001F01AFE87239B00E0505B461A6A8823B8
:103AC0009B00E2505B46986DD96D01F00DFE972387
:103AD0009B00E0505B461A6E98239B00E2505B46C9
:103AE000986ED96E01F000FEB7239B00E0505B4654
:103AF0001A6FB8239B00E2505B46986FD96F01F0B4
:103B0000F3FDEF239B00E0505A468023D258F02368
:103B1000159D9B00E2502868696801F0E5FD8F2340
:103B2000AA685D469B00E05098350433E25028684F
:103B3000696801F0D9FDAF23AA689B00E050043307
:103B4000E2502869696901F0CFFDE723AA699B006B
:103B5000129DE0500433E2502868696801F0C4FD0A
:103B60009F23AA685D469B00E050C8350433E250AD
:103B70002868696801F0B8FDBF23AA689B00E0507F
:103B80000433E2502869696901F0AEFDF723AA69A0
:103B90009B00139DE0500433E2502868696801F0EF
:103BA000A3FDA723AA685D469B00E050F8350433C7
:103BB000E2502868696801F097FDC723AA689B0056
:103BC000E0500433E2502869696901F08DFDFF235C
:103BD000AA699B00E0500433E250049A0E4BE25075
:103BE00052460433E2504A460C4BE7500433E2504D
:103BF0005B46986AD96A01F077FD094BE0505B4655
:103C00001A6BA4232000DB00E25049B0F0BCBB4695
:103C1000B246A946A046F0BD5C0400007C0400004A
:103C20001C05000070B5244C0500A54446A8FDF70E
:103C30004DFA224C224B210026000093214A224BB0
:103C4000683602920393214B214A5831049205931E
:103C500006A8102202F0C6FA310010220AA802F0CB
:103C6000C1FA310010220EA802F0BCFA78341022FA
:103C7000184912A802F0B6FA2100302216A802F064
:103C8000B1FA2100302222A802F0ACFA124C302204
:103C900021002EA802F0A6FA210030223AA802F054
:103CA000A1FA28000022694646ABFFF7CDF82800AC
:103CB0000A4B9D4470BDC04658F7FFFFC0BB0110C2
:103CC000070907040F4001F5FFFF2F3FFFFFFF3EED
:103CD000C6401071A8BB011068BC0110A808000004
:103CE0008023DB051868000F7047C0460FB400B58D
:103CF000084883B004F036F9049B002B07D005A9CF
:103D00001800019103F002FF034804F02BF9012091
:103D100003F014FFC4A30110D4A3011070B5EFF396
:103D2000108C72B60D4D2B68002BFCD0BFF35F8F4B
:103D30000724CB08C618C05C01230C40A3401C001C
:103D40000440034207D118433070BFF35F8F2C60EB
:103D50008CF3108870BD1000FFF7C8FF2C0100D055
:103D6000F8B54746CE46884680B5EFF3108C72B65C
:103D70001C4D2C68002CFCD0BFF35F8F9A4222D8D8
:103D800007210126894602E00132934218D34D46AD
:103D900037001540AF40D4080119045D2742F3D124
:103DA00010003C430C70BFF35F8F00220D4B1A6074
:103DB0008CF3108800280EDBC0BCB946B046F8BDB5
:103DC00001204042EFE7BFF35F8F00232B608CF3AD
:103DD0001088012040424346002BEDD00898FFF7A1
:103DE00085FFC0462C0100D0044A1078431CDBB28A
:103DF000172B00D9102313707047C0466C1E00208B
:103E000010B5064B064C82B00100009318221F2308
:103E10002000FFF7A5FF02B010BDC046D8A30110D7
:103E20001C5C00200021044B044ABFF35F8F02C3D7
:103E30009342FAD17047C046000100D0800100D003
:103E4000054B064A1360064A136053609360D360C3
:103E500013615361936170478080808000E400E0CB
:103E600004E400E01F2318401E3B8340002905D0D6
:103E7000C021044A49005350136070478022014911
:103E80008B50FAE700E100E001228240034B1B68FF
:103E900013405A1E9341D8B27047C04600E100E07B
:103EA00001238340014A13607047C04600E200E0EE
:103EB000084B10309B688000C358002B07D0064A7F
:103EC00000209B1A2F229A424041C0B27047002026
:103ED000FCE7C04600ED00E0701E002070B50D004C
:103EE000EFF3108672B60F4A1368002BFCD0BFF3B5
:103EF0005F8F0D4B10309B6884001B590B4A934217
:103F000003D09D4201D000F093FF074B9B681D51E9
:103F1000BFF35F8FBFF35F8F0022024B1A6086F3FF
:103F2000108870BD240100D000ED00E0CD0100102C
:103F3000F0B557464E46DE464546E0B585B006002C
:103F400000911700EFF3108B72B66A4A1368002BCA
:103F5000FCD0BFF35F8F0025674B5D579A46002D5D
:103F600000DAA9E06B00654C01935B199B00984651
:103F7000A146C1444B4652469B7910361370604BA4
:103F8000B6009B6899590B1B2F2B33D95D4B994277
:103F900000D0ACE0019B42469C465B4B6544AD00C3
:103FA00063535A4B0232A218043B9B1A1B05584A12
:103FB0005B0D651913436B80564B0121AB80FF23CA
:103FC000AB71009BEF71AB604B460B4319004C4B40
:103FD0009B689951BFF35F8FBFF35F8F0022454B02
:103FE0001A608BF3108805B0F0BCBB46B246A946F8
:103FF000A046F0BD01200A008243D3798C46BB4223
:1040000031D84546130044491B1B5B415943090DF8
:104010003D4B63533D4B02356519043B5B1B1B0550
:104020003B4D5B0D2B43AA464D466B800425AC46A9
:104030005546E044131F44441B1B1B055B0D1D43E9
:104040004B46997100999D8099604946DF71334BC9
:1040500001431360BBE75800C01880002018C179E5
:10406000B9422FD902000623D356002BF3DA02936C
:104070002B4B61460393131D9A4604235B429C46D7
:10408000E14450464B461B1A1B055B0D9C46204BDA
:10409000957198466346404603439380019B5A19A5
:1040A0009200039BA418A380029B1C4AA371009B4F
:1040B0002260E771A3608AE700F0BAFE002553464C
:1040C0005D574FE7908802934005131D9A460315EC
:1040D00061469C464046D444634604302018181A72
:1040E000E0230005400D1B0218430390C5E700F0D4
:1040F0009FFE4FE7240100D0F8600020701E0020D2
:1041000000ED00E0CD01001000A1FFFFA01E002087
:1041100000E0FFFF01BDFFFFAAAA000001488047A1
:1041200001BD000070B501240443EFF30581EFF3F6
:10413000108C72B6214A1368002BFCD0BFF35F8F3E
:104140001F4B05001F4AED1A6D416A43120D1E4DAB
:104150008900AE6852B27658A6421CD00621595644
:1041600091421CD012215956914222D01E215956FB
:10417000914220D02A2159560324914210D0134B4A
:1041800019781A708171BFF35F8F00220B4B1A6090
:104190008CF3108870BDAB680D4C5C50EFE70024C9
:1041A0006100091989005B18FF21997109499980FB
:1041B000E5E70124F4E70224F2E7C046240100D039
:1041C000701E0020AAAA000000ED00E0F8600020A8
:1041D000CD01001001BDFFFF10B5084B084C82B0A7
:1041E00001000093002205232000FFF7B9FD0028FD
:1041F00001DB1F23181A02B010BDC046F4A3011042
:10420000FC600020024B9C466144890001607047BD
:104210004000003470B5114C114DAC420FD2FF2656
:104220002368002B0CD0FFF7DFFD01002000FFF713
:10423000E9FFA680BFF35F8F0834AC42F0D370BDB6
:10424000FFF7D2FD01002000FFF7DCFF2671BFF36E
:104250005F8F0834AC42E3D3F1E7C0460C26002060
:104260001C26002010B50400FFF7BEFD0100200051
:10427000FFF7C8FFFF232371BFF35F8F10BDC04658
:1042800010B504000120FFF7BBFD034BC3189B00D2
:104290002360BFF35F8F10BD40000034034B9C468A
:1042A000614489000160BFF35F8F704740000034B4
:1042B0000A4B1968EFF3108072B60A68002AFCD026
:1042C000BFF35F8F1B68BFF35F8F00221A6080F31C
:1042D000108840BF002000217047C046D4600020F5
:1042E000F0B5DE4657464E464546E0B587B0EFF39B
:1042F00005820323012513409D409900B34AB44B26
:1043000054581D60B34B8846A946049329E0A388FE
:104310001BB2002B00DBA5E0A379002B00D0E6E068
:104320000823E05E002800DA0FE1430062691B18F1
:10433000DB00D3189E68DD68731C00D111E1A64B29
:10434000190041449A6A0B69B01A9B1A984200D22C
:104350000E61A14800F030FB8D4200DDF5E000D198
:104360002BE14B469C4843630823E55E002DCEDBE2
:1043700062696B0092465B19DB009A4453469E6863
:10438000DF6800F019FB8F42C1DC00D10BE1002F88
:1043900000DAF0E05246534652691B699346049A8C
:1043A000934200D1E1E052460821605E5288000449
:1043B000594610439847029003910299039A0B00C3
:1043C0001000134300D1D6E013000A00B61A9F4133
:1043D000002806DB804800F0EFFA029E039F3618A3
:1043E0004F4153469E60DF6000229A5E002A8EDBBA
:1043F000530099186069C900411801938B68C96816
:104400009B46B94200DD82E702D1B34200D97EE784
:1044100008239C46A444059565462281A446019B39
:104420002C0006E053009918C90041188D68C9682E
:10443000AB469B18DB00C318B94206DC00D1C0E0D4
:104440001C000023E25E002AECDA230064469C464E
:1044500053461A806346059D1D80A3881BB2002B1E
:1044600000DA59E72269EFF3108172B61368002B66
:10447000FCD0BFF35F8F0123A7885B42A3803FB2CC
:104480002369BFF35F8F00221A6081F31088002F29
:1044900000DA41E72300083322009A4666697B0070
:1044A000DB19DB00F318996850468C460824115F2D
:1044B000DD68002910DB019306E0AB424DD00023FC
:1044C000E15E2000002906DB4C006418E40034198A
:1044D000E368AB42F1DD019B078000201F5E19807D
:1044E000002FDCDA1400A379002B00D118E7002399
:1044F000A37126000823E15E08364B1C25D0080076
:10450000A246656902E03E004B1C1AD04B005B18C6
:10451000DB00EF180A008C46E95E7B881BB2002B9B
:10452000F1DA01235B42DC17BB60FC60824205D0FC
:10453000534631801B893B8053461A8160464B1C91
:10454000E4D15446002800DBEFE640BF07B0F0BCE2
:10455000BB46B246A946A046F0BDA3686345AED9A6
:10456000B9E76B1C00D0EAE6F3E65B4658461B69E8
:10457000984700281BD153461B8822692381EFF3FB
:10458000108372B611680029FCD0BFF35F8F5146CB
:1045900062880A8022696580BFF35F8F0021116005
:1045A00083F31088B3E6864200D8F0E6AFE65B46B8
:1045B0001A685B6802920393FFE6864200D8D0E651
:1045C000C3E7B34500D83BE73FE7C046B8600020EB
:1045D0003C700540E14200100040054070B52E4C93
:1045E0002569002D04D00A212C48FFF70BFE70BD71
:1045F0002B4E0321300000F0D5F9E660FFF7F4FB05
:10460000284B03229C46D02322701B061B680121E5
:104610006370254B6044A3600F238000206102205B
:10462000638063694942A18019800231198647314C
:104630001D83585218315A5275325C3999521832CA
:10464000013199521832013199521832013199527F
:10465000083518329D520231183299521832013100
:104660009952183201319952183201319952183247
:10467000013199521832013199520C4B0C49DC60CE
:1046800001303562FFF72AFC01210320FFF7EAFB26
:10469000084B1D60A7E7C046B81E0020D46000206C
:1046A0000040054040000034FFFF1000B8600020CB
:1046B000E14200103860054000487047B81E0020F5
:1046C000F8B51F0008AB1B7804001600002B08D1BA
:1046D00000F07AF932003B00121A8B41002B00DA0D
:1046E00052E02269EFF3108072B61368002BFCD001
:1046F000BFF35F8F0223E15E63694A005218D20064
:104700009B182269002936DB1D886580BFF35F8F07
:104710000025156080F31088069A9E60DF601A619C
:10472000079A5A615A8801325204520C101C002A0E
:104730001FD082B25880080410432669EFF3108717
:1047400072B63268002AFCD0BFF35F8FA2881A804D
:10475000A1802369BFF35F8F00221A6087F310885E
:104760000A4923788C4601329A40E36863441A6010
:10477000F8BD0120DDE7BFF35F8F0023136080F3F6
:10478000108801204042F3E70020F1E73C200000C0
:1047900070B501000469EFF3108C72B62068002830
:1047A000FCD0BFF35F8F02200D5E4C69680040199A
:1047B000C00024180869002D36DB26884E80BFF320
:1047C0005F8F002606608CF31088E360638804988E
:1047D000013320615B0405985B0CA26060611A1CC8
:1047E000002B1FD093B22804628018430A69EFF3AC
:1047F000108C72B61368002BFCD0BFF35F8F8B88D0
:1048000023808D800B69BFF35F8F00221A608CF3C9
:1048100010880B7801329A40CB6808498C46634473
:104820001A6070BD0122DDE7BFF35F8F00230360D4
:104830008CF3108801204042F3E7C0463C20000082
:1048400010B543890A1493421ADD53009B1842693C
:10485000DB00D3180469EFF3108C72B62268002ACB
:10486000FCD0BFF35F8F5A88090494B2090C8A42C6
:1048700008D00369BFF35F8F00221A608CF31088A1
:10488000002010BD8022120214435C8001230269C3
:104890008371BFF35F8F002111608CF3108804498E
:1048A00002788C469340C268012062441360E8E7B6
:1048B0003C20000040787047F0B5CE46474680B5B2
:1048C00004000D0083B0EFF3058399460F00002B21
:1048D00042D1314EA0463378F06804339B00816AA0
:1048E0001B58601A5B1A984212D320BF2B49002034
:1048F0004B6AAB4207D38A6A5B1B591E8B41414608
:104900008A424041184303B0C0BCB946B046F0BD2E
:1049100000F05AF822002B00121A8B41002B28DBE2
:104920004B4601931E4B2200009330002B00FFF7F3
:104930002FFF011E1DDD194B5A6AAA422AD39B6A1A
:104940009C4225D83000FFF77BFF144A0020536AB1
:10495000BB42D8D3926ACFE7104900204B6AAB42E2
:10496000D1D38A6A5B1B591E8B41A2424041184336
:10497000C9E70A4A0020536ABB42C4D3002041461B
:10498000926A5B1B8A4240415A1E93411843BAE720
:10499000AA42D7D120BFD5E7B81E0020004005406D
:1049A000B142001010B5024A0248FFF7B7F910BD36
:1049B00010A40110205C00200300416A0A00986ADC
:1049C000596A8A42FAD17047034B596A0A00986AB9
:1049D000596A9142FAD170470040054070B5040011
:1049E0000D00174A536A1900966A536A8B42FAD12E
:1049F0003000190024184D41AB4216D813D0104B8B
:104A00002A005B6A9D4203D90D494B6A9342FCD34D
:104A1000934207D10A4A02E0516A994202D1916A4F
:104A2000A142F9D370BDA642E9D9054B5B6A1C00CF
:104A30005A1CEFD0012201246442E5175242E3E7F9
:104A400000400540F8B5DE464E4657464546E0B5BF
:104A50008B4605000A991800160000F0EFFA0A9B31
:104A60006C001F02324B64199C46A40064446368C6
:104A700081469F4200D967602B1FDBB29846012B0D
:104A800030D9C02380229B01E31812011A60294B00
:104A9000AD0059599A4600291BD17301E0262268BE
:104AA00053401E40802342465B01E3181E60012AEA
:104AB00030D9802380229B01E31812011A605346EB
:104AC0004A4667605A51F0BCBB46B246A946A0466A
:104AD000F8BD586900F0B2FA013043001B18033BDF
:104AE000FDD2DAE75B46012BCBD1C02303229B0129
:104AF000E3181A60023AA3681A42FCD07301E02658
:104B00002268AD0053401E4080230A4A5B01924652
:104B1000E3181E605A462168514003220A401A6079
:104B200001225B469A40A3681A42FCD0C1E7C04606
:104B300000800040245C0020F0B546464F46D64633
:104B4000C0B51F00344B44009C462418A4006444A4
:104B5000636888461600FF2B02D880235B006360E1
:104B6000031FDBB29A46012B30D9C02380229B0160
:104B7000E31812011A60294B8500595999460029FA
:104B80001BD17301E026226853401E408023524609
:104B90005B01E3181E60012A30D9802380229B012B
:104BA000E31812011A6080235B0063604B465F517B
:104BB000E0BCBA46B146A846F0BD586900F03EFADE
:104BC000013043001B18033BFDD2DAE74346012BBB
:104BD000CBD1C02303229B01E3181A60023AA368D9
:104BE0001A42FCD07301E0262268850053401E4023
:104BF00080230A4A5B019146E3181E604246216801
:104C0000514003220A401A60012342469340A268A1
:104C10001342FCD0C1E7C04600800040245C002065
:104C2000014B8000C0587047245C0020F8B5040098
:104C300021481E0017000D0000F000FA01003800A6
:104C400000F0FCF9069B36041B031E432368002B6F
:104C500020DB1A4B1A49E3185A1E93418022920115
:104C600094465B421B0B174A1B0363441360164AAE
:104C700013601F000A689743FBD1144B2560E218AC
:104C80002123A06013602368002BFCDA0823E66070
:104C90001360F8BD3F2322681340AB42D9D1A3680B
:104CA0001B051B0D8342D4D1EE22E368D2021340D0
:104CB000B342CED1EDE7C046001BB7000040FDBFB8
:104CC00008C0004000E0004000F000400430000058
:104CD00010B580241C4BE4051C6000281AD0012369
:104CE0001A4C18431A4BDC611A4C44401C6259623E
:104CF00098628021144BC90519601748174908604C
:104D0000E021C9041960002A07D18022144B120641
:104D10001A6010BD0E4BD861EBE753019B1A9B0044
:104D20009A18802312015B049A4209D213000D499C
:104D30000B60074B5A608022094BD2051A60E8E7E6
:104D4000094B1A00F3E7C04600B00540D3C007B0D6
:104D5000008005402D3FF84FFCFF01000820014076
:104D600000A0054090600020FFFFFF008023024A62
:104D70009B000B43D362704700800540002310B5B1
:104D80000100988A1B8B984710BDC046162310B5AA
:104D90000100188802331B88984710BDF8B54746B4
:104DA000CE4680B50F1E18D0142399460433040054
:104DB0000025012698464B461888434621681B88E3
:104DC000984701C4431E984101350640AF42F2D1D5
:104DD0003000C0BCB946B046F8BD0126F8E7C04671
:104DE000002370B504000D00988A05491B8B984775
:104DF00003000020002C01DB0130A040290098476F
:104E000055420000AA23064A1B0113602F230549BF
:104E1000D360054B19605368002BFCDA7047C0461D
:104E20000040024000B0FA00006002407047C046F7
:104E300010B50148FEF75AFF34A4011070B5074DB4
:104E4000074EB54209D20024013E761BB60808CDB4
:104E5000984723000134B342F9D170BD88A10110F5
:104E6000C4A10110054B064A06491A60064A074BC1
:104E70001A6010000B689843FBD1704700E00040B7
:104E8000BFCDFBFE08C00040FE7F3C0000F00040AC
:104E9000044BDB6C002B03D18022034BD2021A603F
:104EA0007047C046000011504C201150044A054B79
:104EB0001A60054A1368DB018033FBD17047C04696
:104EC000FFFFFF0100F0004008C000404022034BFC
:104ED0009A675A671A67DA667047C04600F0014061
:104EE00010B5FEF79FFF10BD70B5044D044CA968C6
:104EF000C022200001F076F9AC6070BD00ED00E04A
:104F000000000020002310B5294C82B0A367FFF7F2
:104F100079FF0122274B1A60636C012BFCD103221D
:104F2000254B1A60224A936B012BFCD1013300936D
:104F30000121224A22480433FFF778FE052301218C
:104F40000093204A2048FFF771FE0022022104202E
:104F50001E4BFFF7F1FD0022012105201C4BFFF73E
:104F6000EBFD0022002107201A4BFFF7E5FD002290
:104F700000210820174BFFF7DFFD8023DB000093A3
:104F8000002200210920134BFFF75CFD0022104B8B
:104F900000210620FFF7D0FD0420FFF741FE0E4957
:104FA00000F04CF801000020FFF7E0FE02B010BD59
:104FB000008000403CB0004030B00040002F6859F5
:104FC00000800240008C864700C00240001BB700F2
:104FD00040597307006CDC0240420F000148042175
:104FE000014B1847D01E00209D4D0010124A936FB0
:104FF0009B0815D29066D166002905D0FFE7FFE730
:10500000FFE7516F106F704704B580210906C21782
:105010005140002800D0C84315F016F8002104BD07
:10502000F0B5146E556E576F166FFFF7E3FF1466F9
:10503000556657671667F0BD000000D0114A936FA0
:105040009B0813D210665166002905D0FFE7FFE7E1
:10505000FFE7516F106F704704B5002801D00020A2
:10506000C04314F0F1FF002104BDC046F0B5146E3A
:10507000556E576F166FFFF7E5FF14665566576755
:105080001667F0BD000000D094464A4A926F92081D
:10509000624601D228E0C046F0B5464E346E756EC9
:1050A000776F366F00F020F89446424A14665566D2
:1050B000576716676246F0BD94463E4A926F920863
:1050C000624601D254E0C046F0B53A4E346E756E79
:1050D000776F366F00F04CF89446364A1466556682
:1050E000576716676246F0BD002B24DB11D00029FC
:1050F0003EDA00B5C943404200D1013100F038F832
:10510000C943404200D10131DB43524200D1013357
:1051100000BD002AEBD1002801D1002905D00020D4
:10512000C90FC90701D1C043410800B514F054FFAD
:105130000022002300BD00B500290ADBDB435242F8
:1051400000D1013300F014F8C943404200D10131CD
:1051500000BDC943404200D10131DB43524200D17E
:10516000013300F005F8DB43524200D1013300BDAA
:10517000002923D1002B18D1002A0CD0BC460D4F9A
:1051800038667A6600210023FFE7FFE7FFE77A6FC2
:10519000386F67467047002801D00748010000B506
:1051A00014F01AFF0022002300BD02000B000020B3
:1051B00000217047000000D0FFFFFFFF002B00D050
:1051C000BFE0130C28D1002AE7D080B4114F396614
:1051D0007A66FFE7FFE730B4040C7B6F396F1B047E
:1051E00023433B667A66FFE7FFE7FFE7C04684B2EA
:1051F0007B6F3D6F1B0423433B667A66FFE7FFE747
:10520000C04600232C042D0C7A6F386F00196941B9
:10521000B0BC7047000000D0F0B594460025140ED5
:1052200001D112020835140F01D112010435940F77
:1052300001D192000235D40F01D152000135D40BB7
:105240000134254F7C66254C3C660E0C93B2FFE77B
:10525000FFE7FFE73C6F6643360C7703BE467343B8
:10526000DF0B5B04C01AB941130C7343DB18C91A76
:10527000CE086643360CB64493B273431F0F1B012E
:10528000C01AB941130C73431F0B1B05C01AB94157
:10529000860D8F023E436643360C092D24DB520AED
:1052A0007243801A7703460A6643360C16235B1B4B
:1052B000DE40DF40BF1964466643821B70460435FA
:1052C00006330100D940A840C01900D30131A242E1
:1052D00006D20023F0BD0000000000D0FFFFFFFF5A
:1052E000121B0130F3D3F1E709277F1BFE40644610
:1052F000A2B27243801A00D20139220C7243130CFD
:105300001204821A99410B007046043513370100CC
:10531000F940A840801900D30131002B02D1A242EC
:105320000AD2F0BD013000D30131121BFAD2013B89
:10533000F8D1A24200D2F0BD013000D30131121BDE
:10534000F7E7F0B51C0C00D080E00CB400251C0A77
:1053500004D11B02160E3343120208351C0B04D174
:105360001B01160F3343120104359C0B04D19B0023
:10537000960F334392000235DC0B02D192185B4149
:1053800001351C00971864410134464F7C66464C39
:105390003C660E0CFFE7FFE7FFE7C0463C6F664345
:1053A000360C7703BE4697B27743C01B00D2013953
:1053B000C01B00D201399FB27743C91BC91B170C10
:1053C00077437E04FF0B801BB941CE086643360C41
:1053D0000C2D33DBB644120B1F053A431B0B97B25F
:1053E0007743C01B00D201399FB27743C91B170C0A
:1053F00077433E043F0C801BB941860D8F023E432C
:10540000664329277F1BFE400C3D7746AF40BF19FE
:1054100030BCA2B2ABB272437343801A9941220CE2
:105420007243130C1204801A994102000B000137D9
:10543000001BA941F9D2781E0021F0BD0C277F1B6B
:10544000FE4077467F0BAF40FF19E0E700245D1C6C
:1054500007D0144F7D663966FFE7FFE7FFE7FFE7F8
:105460003C6F95B29EB265436643401BB141150C3B
:105470001E0C6543664336042F0C3E432D04401B2F
:10548000B141994204D202000B0020000021F0BD7E
:1054900001D19042F7D3801A994101349942F2D355
:1054A000F6E70000000000D0FFFFFFFF484041404A
:1054B000484018B41B4B5B68FC46019308BD04DFF1
:1054C0007358001018B4174B1B68FC46019308BDB5
:1054D00000DF7D5800109446134A926F920809D25B
:1054E000624618B40F4BDB68FC46019308BD0CDF25
:1054F000355B00100C4AF0B5146E556E576F166F81
:105500006246FFF7EEFF084A14665566576716674E
:10551000F0BD18B4034B9B68FC46019308BD08DF3F
:10552000D9590010A8270020000000D0FFB5504036
:105530004240504059404B40594000E0FFB5154FA4
:105540004C00640D03D0BC4204D10C0314D80020DD
:10555000090D09055C00640D03D0BC4204D11C0395
:105560000AD800221B0D1B0501264B4009D44B40D5
:1055700003D58B4200D18242FFBD9942FCD19042BB
:10558000FFBD0B43DB1803431343F5D0C943491850
:10559000FFBD0000FF07000000B5FFF7CFFF01D0FF
:1055A000002000BD012000BD00B5FFF7C7FF80410E
:1055B00000BDC04600B5FFF7C1FF01D9002000BD06
:1055C000012000BD00B5FFF7B1FF01D9002000BDEB
:1055D000012000BD00B5FFF7A9FF804100BD0120FB
:1055E00040054A00121804D85A00121801D80020A9
:1055F00070470120704700000021002805D1704746
:10560000C1174840401AFAD0C90713B5064B1B68AA
:1056100098470CBC441CA2401005120B0349091BFF
:1056200009051943114310BDD06000201F0400007C
:1056300010B54C00620D8023D218DB00D21A5B0536
:105640007E2A10DD9E3A13DACC1709034908194364
:105650005242D140640001341532202A05DAD0408C
:105660000843604310BD002010BD0846604310BDD4
:10567000C80FC018013810BD18B4044B5B6AFC4653
:10568000019308BD24DFE55C00100000A82700207E
:10569000C94211D300B549004908002200F018F8AA
:1056A000002904D4002240428A41114600BD8021D5
:1056B0000906002000BD000018B4044BDB6EFC4658
:1056C000019308BD6CDFF35C00100000A8270020E8
:1056D00018B4044B9B6FFC46019308BD78DF0F5D47
:1056E00000100000A827002018B4044BDB6FFC4614
:1056F000019308BD7CDF7D5D00100000A82700201D
:10570000132370B51D78012D19D014DD1F48FFF744
:105710003DFB06001E48FFF739FB1E4C802231007E
:10572000200000F05FFD022D2DD01B48FFF726FB67
:105730001A4B186070BD1A4B164CA364F5E7184B52
:10574000144C23606360A360E36023616361A36121
:10575000E36123626362A362E36223636363A3631F
:10576000E36323646364A364E36423656365A365FF
:10577000E36523666366A366E36623676367A367DF
:10578000E367A364D1E7064BA364CEE7534400006C
:1057900053460000A82700204C330000D0600020B2
:1057A00041580010244A4B0094465B0D6344F0B509
:1057B00004000D005A1C21DB5A1C35D0342B1CDA96
:1057C0003326F61A3700203F1CD40121B9400B00C4
:1057D0000121B1400A0012196B41002F1EDB022487
:1057E000BC4021000224B4402000160000254442A1
:1057F0008D4126402B4030001900F0BDCB0F00201A
:10580000D907FAE720210120891BC8400121B140B6
:1058100003000A0012196B41002FE0DA2024022550
:10582000A41BE5402900DDE7CB0F044ADB071A4340
:1058300000201100E1E7C04601FCFFFF0000F03F3F
:1058400007B5604601880A0A0230DF2AFAD1C9B2D8
:10585000820804D3028840880004104300E00068F6
:10586000014A5050039007BDA82700200FB403BC85
:105870000CBCF0B50124E407634000E0F0B50C0D6A
:10588000CF0F661E3605891B640503D3C94340420A
:1058900000D30131640D03D0661CF60A07D0E41B67
:1058A00000207F00791C89078912803C24031D0D8C
:1058B000DF0F6E1E36059B1B6D0503D3DB43524283
:1058C00000D301336D0D03D06E1CF60A07D0ED1B1B
:1058D00000227F007B1C9B079B12803D2D032F1B0A
:1058E000661B58D4A446202E46DA20371400BC404C
:1058F0001D00BD40F24033412A4380185941CB0F6F
:1059000005D0C943C0430022644250415141624620
:105910004D0D28D10D0D07D100281FD0241940416D
:105920004941013A0D0DF9D0640006D3013000D38E
:105930000131002C01D140084000013A0BD4941CE5
:10594000E40A04D112051144DB071944F0BDD9075C
:10595000204B194300E0D9070020F0BD0029DDD11C
:10596000002CDBD1F0BD0132C6074008CD0728432B
:105970004908002EE1D0D9E73C2E29DA203E4037F5
:105980001400BC4000D00124F24014431A00BB4074
:105990001C43D317ACE7AC46202F08DA20360400AE
:1059A000B4400D00B540F84039412843A5E73C2FED
:1059B0000CDA203F40360400B44000D00124F84007
:1059C00004430800B1400C43C117EAE71000190076
:1059D000002494E70000F07FF0B50C0D661E36053C
:1059E000891BE60A6405640D02D0651CED0A04D02B
:1059F000002001210905803C2403A4461C0D671EDC
:105A00003F05DB1BE70A6405640D02D0651CED0A47
:105A100004D0002201231B05803C2403774064440A
:105A200097B484B296B27443070C7E43150C6F434F
:105A300080B26843361802D3012000043F183004B6
:105A4000350C00197D41844688B29AB250430C0C43
:105A500062431F0C7C438EB27E43921902D301260F
:105A60003604A4191604170C3618674101BC81B21C
:105A70009AB25143040C62431B0C5C4380B25843FE
:105A8000121802D30120000424181004130C40182B
:105A900063412D185E410020474106BC88B293B295
:105AA00058430C0C6343120C544389B251435B18A6
:105AB00002D301210904641819041A0C091862415F
:105AC0006D1856410020474118BCF902720D114370
:105AD000F0026A0D1043ED020A0D03D16D19404129
