:020000041000EA
:1000000000B5324B212058609868022188439860DF
:10001000D860186158612E4B002199600221596106
:100020000121F02299502B49196001219960352056
:1000300000F044F80222904214D00621196600F024
:1000400034F8196E01211966002018661A6600F04E
:100050002CF8196E196E196E052000F02FF8012189
:100060000842F9D1002199601B49196000215960AB
:100070001A491B48016001219960EB211966A021F2
:10008000196600F012F800219960164914480160C1
:100090000121996001BC002800D000471248134993
:1000A000086003C880F30888084703B5996A0420EC
:1000B0000142FBD001200142F8D103BD02B5186610
:1000C0001866FFF7F2FF186E186E02BD00000240BE
:1000D000000000180000070000035F00212200005C
:1000E000F4000018222000A00001001008ED00E03C
:1000F00000000000000000000000000074B24E7A12
:1001000000200420F7010010C3010010C5010010F9
:10011000C1010010C1010010C1010010C101001097
:10012000C1010010C1010010C1010010C701001081
:10013000C1010010C1010010C9010010CB01001065
:10014000CD010010CD010010CD010010CD01001037
:10015000CD010010CD010010CD010010CD01001027
:10016000CD010010CD010010CD010010CD01001017
:10017000CD010010CD010010CD010010CD01001007
:10018000CD010010CD010010CD010010CD010010F7
:10019000CD010010CD010010CD010010CD010010E7
:1001A000CD010010CD010010CD010010CD010010D7
:1001B000CD010010CD010010CD010010CD010010C7
:1001C00000BE00BE00BE00BE00BE00BEEFF3058054
:1001D000103800BEF2EB887130B7021050B7021031
:1001E0003802001090A31AE71E481F49086006C88D
:1001F00081F3088810471D480068002801D019487D
:10020000F3E70DA40ECC002902D000F012F8F9E7B4
:100210001749184A002000E001C19142FCD116495B
:100220008847164988471649884700BEFDE701C937
:1002300001C29A42FBD3704750B70210C0000020A1
:100240001C260020ACDC021000000420000004206A
:10025000ACDC02100010042000100420000000009C
:10026000704700000000000008ED00E0000000D032
:100270001C260020345B0020C5810010C909001035
:1002800085810010F8B5C046044B10B5002B03D093
:100290000349044800E000BF10BDC0460000000054
:1002A000C85A002030FE01107047C04603002029C4
:1002B0003DD08E2252008258002A38D08069814277
:1002C00037D0012A33D0586B814239D0022A2ED040
:1002D000186D814236D0032A29D0D86E814233D09E
:1002E000042A24D08820185881422FD0052A1ED0F5
:1002F000A420185881422BD0062A18D0C0201858A4
:10030000814227D0072A12D0DC201858814223D0FE
:10031000082A0CD0F820185881421FD0092A06D08C
:100320008A2252009A5800208A4219D07047002031
:10033000FCE70022D000801A800004301818F5E78E
:100340000122F7E70222F5E70322F3E70422F1E7AF
:100350000522EFE70622EDE70722EBE70822E9E7AF
:100360000922E7E7B822520082580300002A45D04C
:10037000902040001858814242D0012A3ED092205D
:1003800040001858814240D0022A37D094204000C3
:10039000185881423BD0032A30D09620400018588C
:1003A000814236D0042A29D0982040001858814232
:1003B00031D0052A22D09A204000185881422CD0F2
:1003C000062A1BD09C2040001858814227D0072ABB
:1003D00014D09E2040001858814222D0082A0DD007
:1003E000A0204000185881421DD0092A06D0A22220
:1003F00052009A5800208A4217D070470020FCE72C
:10040000002252329200D058F7E70122F9E7022287
:10041000F7E70322F5E70422F3E70522F1E70622D6
:10042000EFE70722EDE70822EBE70922E9E7C046FC
:1004300030B5037F04000D0083B0022B09D02C22BD
:1004400000932E4902232E480CF098FA01222D4BDE
:100450001A7063691A68012A0AD001230092274999
:100460002D2229480CF08AFA0122264B1A70636962
:100470005B68012B09D02E220093204901232348D9
:100480000CF07CFA01221F4B1A70A37F9D4209D009
:100490002F22009319492B001D480CF06FFA0122FE
:1004A000184B1A70A369042B09D03022009313490A
:1004B000042318480CF062FA0122124B1A702369C7
:1004C000002B11D00F2214001C40134201D103B0A5
:1004D00030BD0023233209490F4800940CF04EFA36
:1004E0000122084B1A70F2E7312204490B480CF044
:1004F00045FA0122034B1A702369E3E730FE01102D
:1005000094FE0110215B0020CCFE011000FF0110C1
:1005100038FF011078FF0110E8FF0110BCFF011047
:1005200010B5037F040082B0092B09D03922009353
:100530001F4909231F480CF021FA01221E4B1A7093
:1005400063691A68012A0AD00123009218493A22E5
:100550001A480CF013FA0122174B1A7063695B6892
:10056000012B09D03B2200931149012314480CF0C0
:1005700005FA0122104B1A70A369012B09D03C2205
:1005800000930B4901230F480CF0F8F901220A4BA4
:100590001A702369002B01D002B010BD3D2204491E
:1005A00009480CF0EBF90122034B1A70F4E7C0463E
:1005B00030FE011070000210215B0020CCFE011003
:1005C00000FF0110A8000210BCFF011030B5037A33
:1005D000040085B0022B09D0412200933049022348
:1005E00030480CF0CBF901222F4B1A7063681A685F
:1005F000012A0AD001230092294942222B480CF0FB
:10060000BDF90122284B1A7063685B68012B09D081
:10061000432200932249012325480CF0AFF901221F
:10062000214B1A70200003A90AF074FD002816D18E
:10063000039B042B09D047220093194904231D482A
:100640000CF09CF90122184B1A702368002B1DD066
:100650000F2214001C4013420DD105B030BD164DC1
:100660000023452200900E4928000CF087F9012252
:100670000D4B1A70DCE700233A3209490F48009409
:100680000CF07CF90122084B1A70E6E74822044975
:100690000B480CF073F90122034B1A702368D7E75B
:1006A00030FE011094FE0110215B0020CCFE0110F1
:1006B00000FF011050010210EC000210E8FF0110D1
:1006C000BCFF011030B5037A040085B0092B09D0B6
:1006D0004F2200932849092328480CF04FF90122A2
:1006E000274B1A7063681A68012A0AD00123009206
:1006F0002149502223480CF041F90122204B1A7065
:1007000063685B68012B09D0512200931A490123C9
:100710001D480CF033F90122194B1A70200003A96F
:100720000AF0F8FC002811D1039B012B09D05522B7
:1007300000931149012315480CF020F90122104BB8
:100740001A702368002B0DD005B030BD104D00236A
:1007500053220090084928000CF010F90122084BA0
:100760001A70E1E7562204490A480CF007F9012201
:10077000034B1A70E8E7C04630FE0110700002100B
:10078000215B0020CCFE011000FF0110940102103B
:10079000EC000210BCFF01108E235B0070B5C55841
:1007A00004000E00002D61D08369202B60D0012D44
:1007B0005CD0636B202B62D0022D57D0236D202B91
:1007C00065D0032D52D0E36E202B27D0042D4DD0C1
:1007D0008823E358202B2ED0052D47D0A423E3589F
:1007E000202B31D0062D41D0C023E358202B34D00C
:1007F000072D3BD0DC23E358202B51D0082D35D0DA
:10080000F823E358202B54D0092D2FD08A235B00E6
:10081000E3580025202B55D0280070BD3100206FF3
:100820001CF086FF0028D1D10323DD00ED1AAD00B6
:1008300004356519F0E76C333100E0581CF078FF9F
:100840000028C9D10423F0E788333100E0581CF0B8
:100850006FFF0028C6D10523E7E7A4333100E05835
:100860001CF066FF0028C3D10623DEE70025D3E78E
:10087000C0691CF05DFF002899D10023D5E7310045
:10088000A06B1CF055FF002896D10123CDE7310065
:10089000606D1CF04DFF002800D092E70223C4E7F2
:1008A000C0333100E0581CF043FF0028A6D10723D5
:1008B000BBE7DC333100E0581CF03AFF0028A3D13D
:1008C0000823B2E7F833E05831001CF031FF092368
:1008D0000028A1D1A9E7C04630B5037F040083B04A
:1008E000022B09D02C2200932E4902232E480CF013
:1008F00045F801222D4B1A7063691A68012A0AD043
:100900000123009227492D2229480CF037F80122B3
:10091000264B1A7063695B68012B09D02E22009365
:100920002049012323480CF029F801221F4B1A709B
:10093000A37F002B09D0012500232F2219491E482F
:1009400000950CF01BF8194B1D70A369042B09D0FE
:10095000302200931349042318480CF00FF80122A9
:10096000124B1A702369002B11D00F2214001C4067
:10097000134201D103B030BD00232332094910488E
:1009800000940BF0FBFF0122084B1A70F2E73122B2
:1009900004490C480BF0F2FF0122044B1A70236942
:1009A000E3E7C04630FE011094FE0110215B0020F9
:1009B000CCFE011000FF011038FF011078FF01107C
:1009C000E8FF0110BCFF0110F0B5DE4657464E4669
:1009D0004546E0B5E94CA5440BF0E2FFE84BE94A97
:1009E0000493E94B0F929A46E84A0592E84A03922B
:1009F000E84A0892E84A0992E84A0A92E84A0B92C1
:100A0000E84A0692E84A0C9221AA9346E74A0D92D8
:100A10000024049B0F981C6053461C600BF0AEFF33
:100A2000059A8E231470039A802114700EAA94469E
:100A30005B0163441800C9000AF0BCFA00210400FD
:100A400064200EF095FB05000EF0D0F80300002C9A
:100A500001D103F0BFFD201D7EAA01920093002268
:100A60002B0021000BF0BCFA002801D003F089F81C
:100A7000EE220EAB52009B181B78022B0BD0CC4EF3
:100A8000273A0093FF3A02233100CA480BF076FF61
:100A90000122039B1A70839B1A68012A0BD0C44E53
:100AA000012300923100B722C3480BF067FF0122F7
:100AB000039B1A70839B5B68642B0AD0BC4EB822E0
:100AC000009331006423BD480BF058FF0122039BC3
:100AD0001A70C822849B520093420AD0B44E0093ED
:100AE00031001300B648D73A0BF048FF0122039BB0
:100AF0001A70829B002B08D0AD4EBA223100B1484B
:100B00000BF03CFF0122039B1A70DE220EABFF327A
:100B10009B181B78022B0BD0A54E233A0093FF3A6B
:100B200002233100A8480BF029FF0122039B1A7011
:100B3000236820001B6898470122059B1A70039ABE
:100B4000049B11781B680122002901D10022013386
:100B5000049908980B6053461B689B185246136013
:100B60000BF00CFF0023059A80211370039AC90033
:100B700013700EAA8E2394465B01634418000AF09A
:100B800019FA0021040064200EF0F2FA05000EF0BC
:100B90002DF80300002C01D103F08BF8201D7EAA54
:100BA0000192009301222B0021000BF019FA00287A
:100BB00001D002F0D8FFEE220EAB52009B181B783A
:100BC000022B0BD07A4E0B3A0093FF3A02233100EE
:100BD0007E480BF0D3FE0122039B1A70839B1A6898
:100BE000012A0BD0724E012300923100D3227848A3
:100BF0000BF0C4FE0122039B1A70839B5B68642B7D
:100C00000AD06B4ED42200933100642371480BF05C
:100C1000B5FE0122039B1A70C822849B52009342A6
:100C20000AD0634E0093310013006B48BB3A0BF0BF
:100C3000A5FE0122039B1A70829B002B08D05C4EFC
:100C4000D722310065480BF099FE0122039B1A70F0
:100C5000DE220EABFF329B181B78022B0BD0544EBA
:100C6000063A0093FF3A022331005D480BF086FEFE
:100C70000122039B1A70236820001B6898470122F9
:100C8000059B1A70039A049B11781B6801220029A6
:100C900001D100220133049909980B6053461B6867
:100CA0009B18524613600BF069FE0023059A8021C1
:100CB0001370039AC90013700EAA8E2394465B0129
:100CC000634418000AF076F9040064200EF0B4FAC8
:100CD00005000DF08BFF0300002C01D102F0EFFFA7
:100CE000201D7EAA0192009300222B0021000BF010
:100CF00077F9002801D002F028FFEE220EAB520057
:100D00009B181B78022B0AD0294E0093ED3A022340
:100D1000310028480BF032FE0122039B1A70839B9E
:100D20001A68012A0BD0224E012300923100F022D2
:100D300021480BF023FE0122039B1A70839B5B6802
:100D4000642B0AD01A4EF1220093310064231B4811
:100D50000BF014FE0122039B1A70C822849B5200E0
:100D600093423FD0124E00933100130014489E3A34
:100D70000BF004FE0122039B1A7033E004BEFFFF58
:100D8000742A0020D8010210702A0020225B002063
:100D9000215B002048040210DC0602100407021048
:100DA000240702100C3C021058080210000902101F
:100DB00030FE0110AC020210F00202102C030210EF
:100DC00070030210C0030210F80302102405021081
:100DD0006C050210B0050210F80502104C06021056
:100DE00088060210829B002B08D0F34EF3223100BC
:100DF000F2480BF0C3FD0122039B1A70DE220EABFA
:100E0000FF329B181B78022B0AD0EB4E0093E93A75
:100E100002233100EA480BF0B1FD0122039B1A7056
:100E2000236820001B6898470122059B1A70039ACB
:100E3000049B11781B680122002901D10022013393
:100E400004990A980B6053461B689B18524613601E
:100E50000BF094FD0023059A80211370039AC900BA
:100E600013700EAA8E2394465B01634418000AF0A7
:100E7000A1F8040064200EF057FC05000DF0B6FE4A
:100E80000300002C01D102F017FF201D7EAA019261
:100E9000009300222B0021000BF0A2F8002801D0C3
:100EA00002F044FEEE220EAB52009B181B78022B80
:100EB0000AD0C14E0093D23A02233100C1480BF050
:100EC0005DFD0122039B1A70839B1A68012A0CD0D6
:100ED00000920C22B84E0123FF323100BA480BF0C9
:100EE0004DFD0122039B1A70839B5B68642B0BD022
:100EF0008622B14E0093520064233100B3480BF0B8
:100F00003DFD0122039B1A70C822849B520093422C
:100F100001D102F0CEF9009313000E22A64EFF324B
:100F20003100AB480BF02AFD0122039B1A70829B13
:100F3000002B01D103F042FB8722310052009F4871
:100F40000BF01CFD0123039A1370059A1370012204
:100F5000049B1B68049900240B6053461B680B9884
:100F60009B18524613600BF009FD059B1C70039BF8
:100F70001C700EF0D5FF069BE0227E938E2352005C
:100F80000EA989185B00CC500EA954338A180500AD
:100F9000D4507EA80CF0BAF8002801D002F020FE50
:100FA0000EA88E23844680215B0163440022180032
:100FB000C9000BF01FFB041E01D102F0EAFF29005B
:100FC00020000BF0B9FB002801D102F0F4FF29004A
:100FD00020000BF0B1FB002801D102F0B1F98E2204
:100FE000754E520031007B480BF0C8FC0123039A78
:100FF0001370059A13700122049B1B680499002446
:101000000B6053461B680C989B18524613600BF0FC
:10101000B5FC059B1C70039B1C700EF081FF069BAA
:10102000E0217E938E23490005000EA840185B0046
:10103000C4500EA841185433CC507EA821940CF013
:1010400065F8002801D002F0DAFD0EA88E23844650
:1010500080215B01634400221800C9000BF0CAFA2A
:10106000041E01D102F0B3FF5B46002229002000DC
:101070000BF0B8FB01280CD02E224F4E564F012307
:101080000090FF32310038000BF078FC0122039B06
:101090001A70290020000BF04FFB002801D102F04C
:1010A0006CFF290020000BF047FB002801D102F063
:1010B00056F93422404EFF32310046480BF05EFCB8
:1010C0000123039A1370059A13700122049B1B6875
:1010D000049900250B6053461B680D989B185246D7
:1010E00013600BF04BFC059B1D70039B1D700EF0F5
:1010F00017FF069BE0217E938E23490004000EA873
:1011000040185B00C5500EA841185433CD507EA83E
:1011100021950BF0FBFF002801D002F0AAFD0EA8DC
:101120008E23844682215B01634400221800C9009B
:101130000BF060FA051E01D102F013FF2100280018
:101140000BF0FAFA071E01D102F0FFFE5B463A00EF
:10115000210028000BF046FB031E01D002F07BFDAE
:101160000421302009F05AFF04210600402009F034
:1011700055FF10218146012009F050FF80460020D4
:101180000BF0F8F943464E4436185B004344B04632
:10119000280098440BF0CCFB0300404520D0424689
:1011A0000092A522044E520031000C480BF0E6FBE1
:1011B0000122039B1A7013E030FE0110C0030210DD
:1011C000F8030210AC020210F00202102C0302100D
:1011D00070030210140802107C080210D0090210DB
:1011E00020000BF0A9FE030004280BD04E22D24EA3
:1011F0000093FF3204233100D0480BF0BFFB0122E3
:10120000039B1A703B1DB94600262F0007931D0053
:101210000FE03B6800961B684A462100984638005C
:101220000023C047FFF758FB2868FFF7CFF90136C6
:1012300008352368E31A1A88082A01D803F0DCF974
:101240001A89002A01D103F0D7F9A218116852585F
:101250009642DED3079A0026150017E03B680096F9
:101260001B684A462100984638000123C047FFF713
:1012700057F9286801360C30FFF724FA236808353F
:10128000E31A1A88082A01D803F0B6F91A89002A45
:1012900001D103F0B1F9A21811685258B242DDD859
:1012A000079A0026150017E03B6800961B684A461F
:1012B0002100984638000223C047FFF70DFB28683D
:1012C00001361830FFF782F923680835E31A1A88C7
:1012D000082A01D803F090F91A89002A01D103F0F5
:1012E0008BF9A21811685258B242DDD8079A00262D
:1012F000C846150017E03B6800961B68424621006F
:10130000994638000323C847FFF7E6FA28680136F4
:101310002430FFF75BF923680835E31A1A88082A96
:1013200001D803F069F91B89002B01D103F064F99E
:10133000E3181A689B58B342DDD847467C68226898
:10134000E368934201D102F0BEFFA369934201D149
:1013500002F0ACFFE2689A4201D102F0EAFD636A52
:101360002268934201D102F0D7FDE2689A4201D18E
:1013700002F0C5FDA2699A4201D102F0AFFD01223F
:10138000039B1978059B1A70049B1B68002901D1E7
:1013900000220133049900250B6053461B686848FE
:1013A0009B18524613600BF0E9FA059B1D70039BD6
:1013B0001D700EF0B5FD5B46069A04001A608E2380
:1013C0005A465B00D55054335846D55018950BF00B
:1013D0009DFE002801D002F02FFC00230EA90093EF
:1013E0008E2280238C46DB005201190062447EA8C5
:1013F0000BF040F9051E01D102F064FD2100280028
:101400000BF09AF9071E01D102F050FD18AB3A001B
:10141000210028000BF0E6F9031E01D002F0FEFBCC
:1014200020000BF089FD030004280BD07C22424EE3
:101430000093FF320423310040480BF09FFA012251
:10144000039B1A703B1DB94600262F0007931D0011
:101450000FE03B6800961B684A462100984638001A
:101460000023C047FFF738FA2868FFF7AFF80136C6
:1014700008352368E31A1A88082A01D803F0BCF853
:101480001A89002A01D103F0B7F8A218116852583E
:101490009642DED3079A0026150017E03B680096B7
:1014A0001B684A462100984638000123C047FFF7D1
:1014B00037F8286801360C30FFF704F9236808353F
:1014C000E31A1A88082A01D803F096F81A89002A24
:1014D00001D103F091F8A21811685258B242DDD838
:1014E000079A0026150017E03B6800961B684A46DD
:1014F0002100984638000223C047FFF7EDF928681D
:1015000001361830FFF762F823680835E31A1A88A5
:10151000082A01D803F070F81A89002A01D103F0D3
:101520006BF8A21811685258B242DDD8079A00260B
:10153000C84615001EE0C04630FE0110200A021009
:10154000180C02103B6800961B6842462100994621
:1015500038000323C847FFF7BFF928680136243055
:10156000FFF734F823680835E31A1A88082A01D8E7
:1015700003F042F81B89002B01D103F03DF8E3187A
:101580001A689B58B342DDD847467C682268E368F6
:10159000934201D102F07DFCA369934201D102F094
:1015A0006BFCE2689A4201D102F05AFC636A22683D
:1015B000934201D102F047FCE2689A4201D102F065
:1015C00035FCA2699A4201D102F01FFC0122039B63
:1015D0001978059B1A70049B1B68002901D1002211
:1015E0000133049900250B6053461B687F489B1804
:1015F000524613600BF0C2F9059B1D70039B1D70D2
:101600000EF08EFC069BE0217E938E2349000400A1
:101610000EA840185B00C5500EA841185433CD5099
:101620007EA818950BF072FD002801D002F06FFA29
:10163000584609F01DFE0EA88E23844680215B01CA
:1016400063445A461800C9000AF0B4FF051E01D1D0
:1016500002F0CFFB210028000BF06EF8071E01D12D
:1016600002F0BBFB18AB3A00210028000BF0BAF8DF
:10167000031E01D002F03DFA0421302009F0CEFC17
:1016800004210600402009F0C9FC102181460120F8
:1016900009F0C4FC804600200AF06CFF01200AF02B
:1016A00069FF43464E4436185B004344B046280069
:1016B00098440BF03DF9030040450BD042460092A0
:1016C000AA224B4EFF3231004A480BF057F9012253
:1016D000039B1A7020000BF02FFC030004280BD092
:1016E000D622434E009352000423310042480BF0AF
:1016F00045F90122039B1A703B1DB94600262F00B5
:1017000007931D000FE03B6800961B684A462100C6
:10171000984638000023C047FFF7DEF82868FEF738
:1017200055FF013608352368E31A1A88082A01D8BC
:1017300002F062FF1A89002A01D102F05DFFA218AF
:10174000116852589642DED3079A0026150017E01A
:101750003B6800961B684A462100984638000123E2
:10176000C047FEF7DDFE286801360C30FEF7AAFF01
:1017700023680835E31A1A88082A01D802F03CFFCA
:101780001A89002A01D102F037FFA21811685258B5
:10179000B242DDD8079A0026150017E03B68009694
:1017A0001B684A462100984638000223C047FFF7CD
:1017B00093F8286801361830FEF708FF23680835CB
:1017C000E31A1A88082A01D802F016FF1A89002A9B
:1017D00001D102F011FFA21811685258B242DDD8AF
:1017E000079A0026C846150020E0C0464C0C02109F
:1017F00030FE0110D0090210200A02103B6800964A
:101800001B6842462100994638000323C847FFF76A
:1018100063F8286801362430FEF7D8FE23680835BF
:10182000E31A1A88082A01D802F0E6FE1B89002B69
:1018300001D102F0E1FEE3181A689B58B342DDD8EB
:1018400047467C682268E368934201D102F0B8FA07
:10185000A369934201D102F067FAE2689A4201D18A
:1018600002F072FA636A2268934201D102F07CFAB4
:10187000E2689A4201D102F087FAA2699A4201D144
:1018800002F092FA584609F0A9FC0122059B1A7051
:10189000039A049B11781B680122002901D10022C0
:1018A00001330499F1480B6053461B689B1852465C
:1018B00013600BF063F80022059BE0211A70039B74
:1018C00049001A70069B0EA87E938E2340185B0079
:1018D000C2500EA841185433CA507EA80BF016FC13
:1018E000002801D002F0F6F80EA88E23844680214D
:1018F0005B0163440022180049010AF07BFE041ECC
:1019000001D102F051FD0023219310F053FC01009E
:10191000050020000AF010FF071E01D102F038FD7B
:101920005B463A00290020000AF05CFF002801D045
:1019300002F0C1F820000AF0FBFF050010F03AFCAD
:101940000100070020000AF0F7FE8046002801D1C0
:1019500002F036FD5B464246390020000AF042FFA5
:10196000002801D002F098F820000AF0E1FF6D0095
:10197000A84201D902F07FF80121039B1A78059B48
:101980001970049B1B68002A01D002F092FD00220E
:1019900001330499B6480B6053461B689B185246A6
:1019A00013600AF0EBFF0022059B06991A70039B57
:1019B00058461A705B4619608E2359465B00CA5020
:1019C0005433CA500BF0A2FB002801D002F044F8B7
:1019D00000230EA900938E2280238C465B015201C6
:1019E000190062447EA80AF045FE041E01D102F0EF
:1019F000FFFC0023189310F0DDFB01000500200020
:101A00000AF09AFE071E01D102F0E6FC3A00290016
:101A1000200018AB0AF0E6FE002801D002F00EF814
:101A200020000AF085FF050010F0C4FB010007004C
:101A300020000AF081FE8046002801D102F0E4FC7B
:101A400042463900200018AB0AF0CCFE002801D035
:101A500001F0E6FF20000AF06BFF6D00A84201D9FB
:101A600001F0CEFF0121039B1A78059B1970049B9E
:101A70001B68002A01D002F016FD002201330499F0
:101A800000240B6053461B687A489B18524613602B
:101A90000AF074FF059B1C70039B1C7010F07EF90C
:101AA000069BE0217E938E23490007000EA8401874
:101AB0005B00C4500EA841185433CC507EA8189433
:101AC0000BF024FB002801D001F0E8FD0EA88E23C6
:101AD000844680215B0163440022180049010AF01A
:101AE00089FD051E01D102F006FC390028000AF02C
:101AF00023FE041E01D102F0F3FB2200390028006E
:101B000018AB0AF06FFE002801D001F0B9FD606843
:101B10005946056809F0FEFA002801D001F0A2FD3F
:101B2000219B302B0AD0544E544A0093310030236D
:101B300053480AF023FF0122039B1A706368DA6896
:101B4000521B602A0CD000928E224B4E60239200D2
:101B500031004C480AF012FF0122039B1A7063689F
:101B60009A69521B302A0BD0434E30230092310029
:101B7000454A46480AF002FF0122039B1A70636837
:101B80005B6A5A1BAB4201D001F05AFD0120039B56
:101B90001978059B1870049B1B68002901D002F07E
:101BA00091FC0133049900250B6053461B683848AB
:101BB0009B18524613600AF0E1FE059B1D70039BC3
:101BC0001D7010F0F7FA069BE0217E938E234900EA
:101BD00004000EA840185B00C5500EA841185433ED
:101BE000CD507EA821950BF091FA002801D001F08C
:101BF00019FD0EA88E23844680215B0163440022D8
:101C0000180009010AF0F6FC051E01D102F040FCA3
:101C1000210028000AF090FD071E01D102F02CFCE3
:101C20005B463A00210028000AF0DCFD031E01D0CB
:101C300001F0CBFE20000BF07FF903000A280AD048
:101C40000D4E144A009331000A2313480AF096FE01
:101C50000122039B1A703E1DB146002307961E0009
:101C60004B46B9462F001D0028E0C046840C0210E8
:101C7000600E0210980E021030FE011036020000B5
:101C8000440F0210880F02103D020000FC0F0210EA
:101C9000E41002105E020000141102103B6800966E
:101CA0001B684A462100984638000023C047FEF7CB
:101CB00013FE2868FEF78AFC013608352368E31A0C
:101CC0001A88082A01D802F097FC1A89002A01D143
:101CD00002F092FCA218116852589642DED3079E79
:101CE0003D0000224F46B14616004A46B9462F0035
:101CF000150018E03B6800961B684A46984621008C
:101D000001233800C0470121FEF792FB2868013605
:101D10000C30FEF75BFC23680835E31A1A88082AA2
:101D200001D802F069FC1A89002A01D102F064FC92
:101D3000A21811685258B242DCD8079E3D0000221A
:101D40004F46B14616004A46B9462F00150017E027
:101D50003B6800961B684A462100984638000223DB
:101D6000C047FEF7DDFB286801361830FEF7AAFCF5
:101D700023680835E31A1A88082A01D802F03CFCC7
:101D80001A89002A01D102F037FCA21811685258B2
:101D9000B242DDD8079E3D0000224F46B1461600F4
:101DA0004A46B9462F00150017E03B6800961B68AD
:101DB0004A462100984638000323C047FEF78CFDB1
:101DC000286801362430FEF701FC23680835E31A41
:101DD0001A88082A01D802F00FFC1A89002A01D1BA
:101DE00002F00AFCA21811685258B242DDD8079ED0
:101DF0003D0000224F46B14616004A46B9462F0024
:101E0000150018E03B6800961B684A46984621007A
:101E100004233800C0470121FEF70AFB2868013679
:101E20003030FEF7D3FB23680835E31A1A88082AF6
:101E300001D802F0E1FB1A89002A01D102F0DCFB93
:101E4000A21811685258B242DCD8079E3D00002209
:101E50004F46B14616004A46B9462F00150017E016
:101E60003B6800961B684A462100984638000523C7
:101E7000C047FEF755FB286801363C30FEF722FCD0
:101E800023680835E31A1A88082A01D802F0B4FB3F
:101E90001A89002A01D102F0AFFBA218116852582A
:101EA000B242DDD8079E3D0000224F46B1461600E3
:101EB0004A46B9462F00150017E03B6800961B689C
:101EC0004A462100984638000623C047FEF704FD25
:101ED000286801364830FEF779FB23680835E31A95
:101EE0001A88082A01D802F087FB1A89002A01D132
:101EF00002F082FBA21811685258B242DDD8079E48
:101F00003D0000224F46B14616004A46B9462F0012
:101F1000150018E03B6800961B684A469846210069
:101F200007233800C0470121FEF782FA28680136EE
:101F30005430FEF74BFB23680835E31A1A88082A49
:101F400001D802F059FB1A89002A01D102F054FB92
:101F5000A21811685258B242DCD8079E3D000022F8
:101F60004F46B14616004A46B9462F00150017E005
:101F70003B6800961B684A462100984638000823B3
:101F8000C047FEF7CDFA286801366030FEF79AFBAD
:101F900023680835E31A1A88082A01D802F02CFBB6
:101FA0001A89002A01D102F027FBA21811685258A1
:101FB000B242DDD80022C8461500079E17E03B68F4
:101FC00000951B6842462100994638000923C847FE
:101FD000FEF782FC306801356C30FEF7F7FA2368B3
:101FE0000836E31A1A88082A01D802F005FB1B8973
:101FF000002B01D102F000FBE3181A689B58AB429A
:10200000DDD847467B68002598461E003B004746C2
:10201000984609E0012D05D0FA6833689A4201D14B
:1020200001F014F901350C3620000AF085FF8542D5
:10203000F0D347467B68002598461E003B00474684
:10204000984609E0042D05D03A6B33689A4201D1D5
:1020500001F0F2F801350C3620000AF06DFF8542E0
:10206000F0D347467F6800253E0009E0072D05D0E4
:102070007A6D33689A4201D101F0F2F801350C36DD
:1020800020000AF059FF8542F0D30122059B1A7007
:10209000039A049B11781B680122002901D10022B8
:1020A00001330499EF480B6053461B689B18524656
:1020B00013600AF063FC0022059BE0211A70039B69
:1020C00049001A70069B0EA87E938E2340185B0071
:1020D000C2500EA841185433CA507EA80BF016F80F
:1020E000002801D001F07EFC032214925A460121FF
:1020F00010AC146011AC946012AC5160D1601461EA
:10210000516113AA90465A464446042394615C46A2
:102110000020D161D44A1A93053B22621B931C9381
:102120001D931E9314AA03336362A262E1625A46AE
:10213000040019901891109011911290139300902F
:10214000032318A9043010F02DF88E2307000EA8E1
:10215000844680215B0163440022180049011594E4
:102160000AF048FA390005000AF0E6FA041E01D127
:1021700002F060F922003900280015AB0AF032FBAA
:10218000002801D001F077FB16AB60681900994672
:10219000056808F0BFFF002801D001F05EFB169B28
:1021A000302B0AD0B14EB24A009331003023B148EF
:1021B0000AF0E4FB0122039B1A706368DA68521B81
:1021C000602A0BD0A94E602300923100AA4AAB4886
:1021D0000AF0D4FB0122039B1A7063689A69521BB0
:1021E000302A0BD0A14E302300923100A44AA548DA
:1021F0000AF0C4FB0122039B1A7063685B6A5A1BD6
:10220000AB4201D001F016FB0120039B1978059B1E
:102210001870049B1B68002901D002F047F90133B4
:10222000049999480B6053461B689B1852461360EB
:102230000AF0A4FB0022059BE0211A70039B4900D1
:102240001A70069B0EA87E938E2340185B00C25026
:102250000EA841185433CA507EA80AF057FF002830
:1022600001D001F0D8FA894B1A00079318AB13CAB2
:1022700013C313CA13C3126810A81A60022313935E
:102280001493013315935B460122186058461300DE
:102290004260119212925A4611A8906012A81061E1
:1022A00040460021906114A8106215A8D3605361C4
:1022B000D36153620C0010919062D36204200091AC
:1022C000023318A90FF06EFF8E2307000EA8844674
:1022D00080215B01634400221800490116940AF032
:1022E00089F9390005000AF027FA041E01D102F02D
:1022F00043F84B462200390028000AF073FA002800
:1023000001D001F07AFA63681D68DA68521B302A3E
:102310000BD0564E3023009231005D4A5D480AF0E2
:102320002DFB0122039B1A7063689A69511BAA4214
:1023300001D001F054FA5B6A5B1B302B01D000F036
:10234000DDFF0121039B1A78059B1970049B1B6814
:10235000002A01D002F041F90022013304994E48CD
:102360000B6053461B689B18524613600AF006FB2D
:102370000022059BE0211A70039B49001A70069BFE
:102380000EA87E938E2340185B00C2500EA8411801
:102390005433CA507EA80AF0B9FE002801D001F0DB
:1023A000E0F9079B18AA1C3313CB13C213CB13C23B
:1023B0001B684946136000220123169217930332CB
:1023C000022314925A4612930AC213935B4612AA2E
:1023D0009A6041465A4601230024116114A9D36032
:1023E00053619161D36118A90094013304200FF067
:1023F000D9FE8E2307000EA8844680215B0163442A
:1024000000221800490115940AF0F4F8390005007B
:102410000AF092F9041E01D101F0A3FF2200390055
:10242000280015AB0AF0DEF9002801D001F0C9F947
:1024300063681D68DA68511BAA4201D001F0B2F945
:102440009A69521B302A2BD0084E3023009231005B
:10245000124A0C480AF092FA0122039B1A70636830
:102460001EE0C046B4110210FC3B021030FE011009
:10247000C5020000440F0210C6020000880F0210BF
:10248000C9020000FC0F0210DC110210203C0210F7
:10249000FA020000F8110210541302103303000076
:1024A0005B6A5A1BAB4201D001F06AF90120039B21
:1024B0001978059B1870049B1B68002901D001F056
:1024C000FEFF01330499F6480B6053461B689B18C6
:1024D000524613600AF052FA0022059BE0211A705E
:1024E000039B49001A70069B0EA87E938E2340180A
:1024F0005B00C2500EA841185433CA507EA80AF09F
:1025000005FE002801D001F0F8F8079B18AA38331F
:1025100013CB13C213CB13C203CB03C2002201237C
:102520004946169217935A4602231160414653605A
:102530009160594601220024CA604A61D94A14A810
:1025400008618A61CB615A46009418A9052013934B
:1025500014930FF027FE8E2307000EA884468021D7
:102560005B01634400221800490115940AF042F807
:10257000390005000AF0E0F8041E01D101F055FD14
:1025800022003900280015AB0AF02CF9002801D0F0
:1025900001F0A5F863681D68DA68521B302A0CD078
:1025A0000092DB22C04E302392003100BF480AF077
:1025B000E5F90122039B1A7063689A69521B602A2D
:1025C0000BD0B94E602300923100B94AB9480AF0E5
:1025D000D5F90122039B1A7063681A6B521B302ACB
:1025E0000BD0B14E302300923100B34AB3480AF009
:1025F000C5F90122039B1A7063685B6A5A1BAB42E0
:1026000001D001F05AF80120039B1978059B18703E
:10261000049B1B68002901D001F057FF0133049986
:10262000A7480B6053461B689B18524613600AF07C
:10263000A5F90023059A0EA81370039A8446137017
:10264000A04B59781A78090211439A78DC78120461
:102650000A4324061443E4188E23C0215B0163441B
:1026600000221800890109F0C5FF051E01D101F003
:10267000D0FC00222B6800921E6821000123280054
:10268000B047071E01D101F0B9FC7B68002B01D1D6
:1026900001F0A9FCBB7F002B01D000F081FE0022DD
:1026A0002B68009221001E6828000223B047041EF8
:1026B00001D101F094FD6368002B01D101F09EFD72
:1026C000A37F002B01D000F059FEA74201D800F0F3
:1026D00072FE0121039B1A78059B1970049B1B68ED
:1026E000002A01D001F07FFF0022013304997648CF
:1026F0000B6053461B689B18524613600AF03EF964
:102700000023059A1370039A13700DF009FC8E23B1
:1027100005000EA884465B01634400229021180046
:1027200009F068FF041E01D101F073FD0022236847
:1027300000921E68290001232000B047002801D123
:1027400000F0EFFD584E614A310061480AF016F979
:102750000123039A1370059A13700122049B1B68CE
:1027600004995C480B6053461B689B1852461360E3
:102770000AF004F90023059A1370039A13700DF000
:10278000CFFB8E2305000EA8844680215B016344A5
:1027900000221800C90009F02DFF041E01D101F02C
:1027A00013FD0022236800925E68290001232000A7
:1027B000B047002801D101F0F6FC0122039B1978F3
:1027C000059B1A70049B1B68002901D1002201336C
:1027D000049941480B6053461B689B18524613608E
:1027E0000AF0CCF80023059A1370039A13700DF0C9
:1027F00097FB8E2305000EA8844680215B0163446D
:1028000000221800C90009F0F5FE041E01D101F0F4
:10281000BFFC0022236800925E682900012320008B
:10282000B047071E01D101F087FC00222368009207
:102830005E68290002232000B047002801D101F082
:102840005AFE874201D301F052FE0121039B1A7800
:10285000059B1970049B1B68002A01D001F03BFE08
:10286000013304991D480B6053461B689B18524660
:1028700013600AF083F80023059A1370039A13700B
:102880000DF04EFB8E2307000EA8844680215B01CD
:10289000634400221800C90009F0ACFE041E1FE0CA
:1028A000F4130210F43B021030FE0110F811021074
:1028B0006F03000018140210720300008C14021041
:1028C00000150210BC3C021098160210AA0300006A
:1028D000C8160210EC160210181702106417021026
:1028E000002C01D101F0ECFB0022236800925D680E
:1028F000390001232000A847051E01D101F0B6FBD5
:1029000000222368009239005E6820000223B0474D
:10291000071E01D101F0FCFD854201D301F0E9FD64
:10292000236820009B6829009847236820009B6942
:102930009847002801D000F009FF236820009B6819
:1029400039009847236820009B699847002801D1E7
:1029500000F0ECFE0121039B1A78059B1970049B83
:102960001B68002A01D001F0B3FD00220133049955
:10297000F8480B6053461B689B185246136009F0D9
:10298000FDFF0023059A0EA81370039A8446137066
:102990008E2380215B01634400221800C90009F0E6
:1029A00029FE041E01D101F056FB236820009B691B
:1029B0009847002801D100F0AEFE236810220A21BA
:1029C0002000DB689847051E01D101F039FB236820
:1029D00020009B699847002801D000F018FE23686A
:1029E00020001B6929009847236820009B699847AD
:1029F000002801D100F0FBFD0121039B1A78059B03
:102A00001970049B1B68002A01D001F055FD0022BB
:102A100001330499D0480B6053461B689B185246FB
:102A2000136009F0ABFF0023059A1370039A13702B
:102A30000DF076FA8E2307000EA8844680215B01F4
:102A4000634400221800C90009F0D4FD041E01D11E
:102A500001F07CFC0022236800925D6839000123AC
:102A60002000A847051E01D101F050FC2368010099
:102A70009B6820009847236820005B6998470022E4
:102A8000236800925E68390002232000B0470028C6
:102A900001D101F032FD854201D001F0F9F80121A8
:102AA000039B1A78059B1970049B1B68002A01D0B0
:102AB00001F09FFD002201330499A8480B605346A2
:102AC0001B689B185246136009F058FF0022059BB3
:102AD000E0211A70039B49001A70069B0EA87E9392
:102AE0008E2340185B00C2500EA841185433CA50C0
:102AF0007EA80AF00BFB002801D000F06AFD079BBE
:102B000018AA583313CB13C213CB13C203CB03C27F
:102B1000042259461592924A03230A6042464B60AA
:102B20001393149301238A605A46CB6014A9116150
:102B300015A953619161D36118A900930520013350
:102B40000FF030FB0023070016930EA88E23844657
:102B500080215B01634400221800490109F04AFD0D
:102B60003900050009F0E8FD041E01D101F072FBF7
:102B70004B4622003900280009F034FE002801D01D
:102B800000F019FD63681D68DA68511BAA4201D084
:102B900000F003FD9A69511BAA4201D000F0EFFC3E
:102BA0005A6A521B302A0BD06E4E302300923100ED
:102BB0006D4A6E4809F0E2FE0122039B1A706368B9
:102BC0001B6B5A1BAB4201D000F0C7FC0120039BDA
:102BD0001978059B1870049B1B68002901D001F02F
:102BE00083FC0133049962480B6053461B689B18B1
:102BF0005246136009F0C2FE0022059BE0211A70C4
:102C0000039B49001A70069B0EA87E938E234018E2
:102C10005B00C2500EA841185433CA507EA80AF077
:102C200075FA002801D000F08AFC079B18AA7833B7
:102C300013CB13C213CB13C213CB13C204231393AE
:102C40001493013315935B46012211A9196012A94F
:102C5000996059465A60DA60464B00240B610323A1
:102C60004B615B464146996114A911941292DA6155
:102C7000196215A95A629962DA6218A903230092AF
:102C800006205A460FF08EFA8E2307000EA88446BF
:102C900080215B016344002218004901169409F069
:102CA000A9FC3900050009F047FD041E01D101F01F
:102CB000DCFA4B4622003900280009F093FD002879
:102CC00001D000F02EFC63681D68DA68511BAA422F
:102CD00001D000F018FC9A69511BAA4201D000F003
:102CE00004FC5A6A511BAA4201D000F0F0FB1A6B97
:102CF000521B302A0BD01B4E3023009231001E4A4B
:102D00001E4809F03BFE0122039B1A706368DB6BCF
:102D10005A1BAB4200D0C9E30120039B1978059BE5
:102D20001870049B1B68002901D001F0D7FB013308
:102D3000049913480B6053461B689B185246136056
:102D400009F01CFE0022059BE0211A70039B49003C
:102D50001A7017E01C1802106C180210BC18021030
:102D6000E83B021030FE011052040000E012021095
:102D700060190210DC3B0210970400008C14021052
:102D80000C1A0210069B0EA87E938E2340185B003F
:102D9000C2500EA841185433CA507EA80AF0B6F9A2
:102DA000002800D03FE30EF0F3F800230700219342
:102DB0000EA88E23844680215B0163440022180004
:102DC000490109F017FC3900050009F0B5FC041EA3
:102DD00001D101F060FA5B4622003900280009F0B9
:102DE00001FD002801D000F0EDFE63689D691A68BE
:102DF000521B402A00D14AE2824E40233100009209
:102E00008148824A09F0BAFD0122039B1A70636867
:102E1000DA68511BAA4200D03FE29A69511BAA42CC
:102E20000AD000237A4A00917A48310009F0A6FDC1
:102E30000122039B1A7063685B6A5A1BAB4201D084
:102E400000F0ADFE0120039B1978059B1870049BD0
:102E50001B68002901D001F044FB013304996E483E
:102E60000B6053461B689B185246136009F086FDA1
:102E70000022059BE0211A70039B49001A70069BF3
:102E80000EA87E938E2340185B00C2500EA84118F6
:102E90005433CA507EA80AF039F9002800D0B5E2B0
:102EA0000CF04AFE0023070021930EA88E238446CF
:102EB00080215B01634400221800490109F09AFB5C
:102EC0003900050009F038FC041E01D101F0D8F9E1
:102ED0005B4622003900280009F084FC002800D05D
:102EE00087E26368DD681B685B1B402B00D1C1E192
:102EF000444E4A4A009331004023434809F03EFDC6
:102F00000123039F3B706368DB685A1BAB4209D007
:102F100000929C22002331004148D20009F02EFD8E
:102F200001233B700122059B1A70049B1B680499C6
:102F300000250B6053461B683A489B1852461360A5
:102F400009F01CFD059B1D70039B1D700CF0E8FF34
:102F50005A4603231360C5335360883B936038336C
:102F6000D3605946040018A808F000FD069BE02233
:102F70007E938E2352000EA989185B00CD500EA9B6
:102F800054338A18D5507EA816950AF0BFF8002849
:102F900000D020E20EA88E23844680215B0163448A
:102FA000180018AAC90009F005FB071E01D101F09D
:102FB00046F92100380009F0BFFB8046002801D106
:102FC00001F032F94B4642462100380009F00AFC74
:102FD000002801D000F0EBFC200009F0ADFF042830
:102FE0000BD0084E104D0423104A009031002800E9
:102FF00009F0C4FC0122039B1A70434600251E1DE4
:1030000027E0C04630FE0110301A0210B60400005E
:10301000BC0400006C120210A41A0210DD040000AF
:1030200080130210D01A0210200A021017050000A7
:103030003B6800951B6842462100994638000123F1
:10304000C847FDF76DFA306801350C30FDF73AFBE3
:1030500008362368E31A1A88082A01D801F0CCFA46
:103060001B89002B01D101F0C7FAE3181A689B589D
:103070009D42DDD343460EAA5D688E2394465B01D4
:1030800063441800102107F0BBFF03002A68C8330F
:1030900004009A4208D0EA4EEA4A3100EA4809F0B0
:1030A0006DFC0122039B1A702300AA6940339A42E7
:1030B00008D0E34EE54A3100E54809F05FFC012203
:1030C000039B1A706B6A7834A34208D0DC4EE14A45
:1030D0003100E14809F052FC0122039B1A7018A844
:1030E00008F016FC0122059B1A70039A049B1178C4
:1030F0001B680122002901D1002201330499002418
:103100000B6053461B68D5489B185246136009F064
:1031100035FC059B1C70039B1C700DF069FA8E2317
:1031200005000EA8844680215B016344002218003C
:103130004901189409F05EFA041E01D101F091F9D9
:103140002900200009F0F8FA071E01D101F07DF9ED
:103150003A002900200018AB09F044FB002801D0F8
:1031600000F017FC200009F0E3FB8E2380460EA838
:10317000844680215B01634400221800490109F064
:1031800039FA2900200009F0D7FA071E01D101F011
:1031900046F901235B42219300225B460021200077
:1031A00009F054FB031E00D0E7E301235B427E934A
:1031B00000227EAB0021200009F048FB031E00D056
:1031C000CFE30021200009F081FB031E00D0BCE307
:1031D0003A002900200018AB09F004FB002800D0B9
:1031E000A6E3200009F0A4FB424608320300904207
:1031F00073D10121059A039B11701B78049A116801
:10320000002B01D001F0ECF900220131049B94481D
:10321000196053461B68D21853461A60521809F0B9
:10322000ADFB53461B68002B01D001F0CEF98D4851
:1032300009F0A4FBFDF7ECFB792281498A4809F0EB
:103240009DFB0122039B1A70FEF704FF79227C4943
:10325000854809F093FB0122039B1A70FEF7E2FEFA
:1032600079227749804809F089FB0122039B1A7073
:10327000FEF704FF0122039B1978059B1A70049B3B
:103280001B68002900D052E6002201334FE6DA68BD
:10329000511BAA4200D1CFE5694E0023734A009129
:1032A0007348310009F06AFB0122039B1A706368BE
:1032B000B3E5829B002B01D001F02CF90121039B87
:1032C0001A78059B1970049B1B68002A01D001F035
:1032D0008DF900220133FDF73DFE594E654C31005A
:1032E00000922000644A09F049FB0123039A1370FD
:1032F000059A1370049B0122196887E7C022504E7B
:1033000000939200302331005C4809F037FB012321
:10331000039A1370059A1370049B01221B68FFF730
:103320001DF80121039B1A78059B1970049B1B68EB
:10333000002A01D001F03CF900220133FFF710FA16
:103340000121039B1A78059B1970049B1B68002AB6
:1033500001D001F0E2F800220133FDF74FFE012118
:10336000039B1A78059B1970049B1B68002A01D0E7
:1033700001F021F900220133FDF7AAFE304E404A48
:103380003100404809F0FAFA0122039B1A70A74263
:1033900012D90122059B1A70049B1B68FFF7A6F93E
:1033A000274E394A3100394809F0E8FA0122039BD7
:1033B0001A70FFF774F9224E354A3100354809F08A
:1033C000DDFA0123039A1370059A1370049B0122FE
:1033D0001B68FFF78BF9A122194E2F4D0023009097
:1033E000D2003100280009F0C9FA0122039B1A70AB
:1033F000D0E5134E294D0023294A009031002800C2
:1034000009F0BCFA0122039B1A706AE50C4E224CAB
:103410000023244A00903100200009F0AFFA012275
:10342000039B1A703CE5064E1B4C00231E4A00907D
:103430003100200009F0A2FA0122039B1A70B2E4C5
:1034400030FE011022050000101B021024050000B0
:103450007C1B021026050000E81B0210541C021001
:103460005C1E0210701E02105C110210B9040000F4
:1034700080130210F01D021067050000E012021018
:103480008E0300004016021087030000B0150210E2
:1034900092030000741602104C070210500902102B
:1034A000D6040000C7040000A1040000F94E002368
:1034B00000923100F84AF94809F060FA0123039AB2
:1034C0001370059A1370049B01221B6830E4F14EBF
:1034D0000023F34A0091F348310009F04FFA01222A
:1034E000039B1A706368FFF702FCEA4E0023EE4A62
:1034F0000091EE48310009F041FA0122039B1A7055
:103500006368FFF7EEFBE34E0023E94A0091E948C8
:10351000310009F033FA0122039B1A706368FFF748
:10352000DAFBDC4EE44D0023E44A00903100280031
:1035300009F024FA0122039B1A70FFF7C4FBD54E51
:10354000DF4C0023DF4A00903100200009F016FA1A
:103550000122039B1A70FFF768FBCE4E00230092F6
:103560003100D94AD94809F009FA0123039A1370A6
:10357000059A1370049B01221B68FFF733FBC54EAD
:103580000023D34A0091C948310009F0F7F901221C
:10359000039B1A706368FFF703FBBE4E0023CD4AFE
:1035A0000091C448310009F0E9F90122039B1A7027
:1035B0006368FFF7EFFAB74EBF4D0023C64A00908D
:1035C0003100280009F0DAF90122039B1A70FFF795
:1035D000D9FAB04EBA4C0023C04A00903100200006
:1035E00009F0CCF90122039B1A70FFF788FAA94E63
:1035F000BB4A3100BB4809F0C1F90123039A13709B
:10360000059A1370049B01221B68FFF702FAA14E72
:10361000B54A3100B54809F0B1F90122039B1A708F
:10362000FFF7DDF99B4EA64D0023B14A0090310013
:10363000280009F0A3F90122039B1A70FEF7D9FABA
:10364000944E002300923100AA4A964809F096F958
:103650000123039A1370059A1370049B01221B68BF
:10366000FEF7A0FA8B4EA44F0023A44A009031002D
:10367000380009F083F90122039B1A70FEF750FA13
:10368000844E8D4D00239E4A00903100280009F0A1
:1036900075F90122039B1A70FEF739FA87227D4ED5
:1036A000874C0023009092003100200009F066F959
:1036B0000122039B1A70FEF709FA764E002300924E
:1036C0003100904A774809F059F90123039A1370A1
:1036D000059A1370049B01221B68FEF7A0FF6D4E34
:1036E000754D0023884A00903100280009F046F902
:1036F0000122039B1A70FEF74DFF664E704C0023AB
:10370000824A00903100200009F038F90122039B21
:103710001A70FEF7FAFE5F4E7D4A3100714809F0DB
:103720002DF90122039B1A70FFF747F9594E794A88
:1037300031006C4809F022F90123039A1370059AAD
:103740001370049B01221B68FFF711F9514E724A56
:103750003100664809F012F90122039B1A70FFF745
:10376000ECF8C2224B4E564C0023009092003100E0
:10377000200009F003F90122039B1A70FEF711FEE5
:10378000444E002300923100644A464809F0F6F89E
:103790000123039A1370059A1370049B01221B687E
:1037A000FEF790FECC223B4E0023009192003100A8
:1037B000404809F0E3F80122039B1A706368FEF7A2
:1037C0003FFE344E3C4D0023554A00903100280006
:1037D00009F0D4F80122039B1A70FEF729FE2D4E42
:1037E0000023504A00913148310009F0C7F8012206
:1037F000039B1A706368FEF79EFD264E2E4D002334
:10380000494A00903100280009F0B8F80122039BD2
:103810001A70FEF778FDB5221E4E294C0023009049
:1038200092003100200009F0A9F80122039B1A70D0
:10383000FEF719FD0092B322164E002392003100CC
:10384000184809F09BF80123039A1370059A137026
:10385000049B01221B68FEF7E3FC0E4E264F00235B
:10386000324A00903100380009F088F80122039BA9
:103870001A70FEF794FCAD22064E0F4D0023009007
:1038800092003100280009F079F80122039B1A7098
:10389000FEF77AFC30FE01109A040000981902101D
:1038A0009404000070100210910400006C120210C9
:1038B0008E040000801302105009021085040000DD
:1038C0004C0702105D04000055040000EC180210C3
:1038D0004F0400004C040000430400001E040000DC
:1038E000FD030000DC170210FB0300009C17021010
:1038F0004F02000041020000C40E0210330200001B
:103900002602000075030000630300003F0300006F
:10391000F7030000EE030000EA0300003603000096
:1039200027030000FD020000F1020000C2020000B7
:10393000E44EE54D0023E54A00903100280009F0EF
:103940001DF80122039B1A704BE4DE4EE04A0093FF
:1039500031000023DF4809F011F80122039B1A709F
:1039600036E4D84EDC4A009331000023DB4809F0EE
:1039700005F80122039B1A7023E4D24ED84A009323
:1039800031000023D74808F0F9FF0122039B1A7089
:103990000BE4CC4ECC4F0023D34A009031003800CA
:1039A00008F0ECFF0122039B1A70FFF7DBFBC54E0A
:1039B000C54D0023CD4A00903100280008F0DEFFFD
:1039C0000122039B1A70FFF707FBBE4EC84A009303
:1039D00031000023BC4808F0D1FF0122039B1A707C
:1039E000FEF728F9B74EC34C0023C34A00903100BC
:1039F000200008F0C3FF0122039B1A70FEF774FB3E
:103A0000B04EBE4A3100BE4808F0B8FF0123039A09
:103A10001370059A1370049B01221B68FEF72FF8A0
:103A2000A84EB84F0023B84A00903100380008F083
:103A3000A5FF0122039B1A70FEF70CF8A14EB34DAF
:103A40000023B34A00903100280008F097FF0122BC
:103A5000039B1A70FDF7E4FFF9229A4EA54C002350
:103A6000009052003100200008F088FF0122039BE3
:103A70001A70FDF7ADFFEC22924EFF323100A048E4
:103A800008F07CFF0123039A1370059A1370049BBE
:103A900001221B68FDF77DFFE6228A4E994F002325
:103AA0000090FF323100380008F068FF0122039BCC
:103AB0001A70FDF759FFDC22824E944D00230090CE
:103AC000FF323100280008F059FF0122039B1A70D1
:103AD000FDF730FFCA227B4E864C00230090FF3258
:103AE0003100200008F04AFF0122039B1A70FDF705
:103AF000FBFEA422734E0093FF3200233100724874
:103B000008F03CFF0122039B1A70FDF7B5FDCC22A3
:103B10006C4E784D0023009052003100280008F0D0
:103B20002DFF0122039B1A70FDF782FD0622654ED0
:103B3000784C00230090FF323100200008F01EFF77
:103B40000122039B1A70FDF7ADF95E4E714D002303
:103B5000EA2200903100280008F010FF0122039BA8
:103B60001A70FDF7CAF8574E6B4D0023CE22009015
:103B70003100280008F002FF0122039B1A70FDF7B4
:103B80001AF8504E634D0023B122009031002800F6
:103B900008F0F4FE0122039B1A70FCF769FF009203
:103BA0009822484E0023D20031005C4808F0E6FE1F
:103BB0000123039A1370059A1370049B01221B685A
:103BC000FFF74CF93F4E404D0023554A009031001D
:103BD000280008F0D3FE0122039B1A70FFF705F9B5
:103BE0008A22384E434C00230090520031002000BE
:103BF00008F0C4FE0122039B1A70FDF7D1F92422BC
:103C0000304E3C4C00230090FF323100200008F081
:103C1000B5FE0122039B1A70FDF717FABB22294E4D
:103C20000093520000233100274808F0A7FE01222C
:103C3000039B1A70FDF7F4FBB522224E2D4D002395
:103C4000009052003100280008F098FE0122039BEA
:103C50001A70FDF7C2FBA2221A4E009352000023F5
:103C60003100194808F08AFE0122039B1A70FDF703
:103C700077FA9D22134E1F4D002300905200310011
:103C8000280008F07BFE0122039B1A70FDF747FA1B
:103C90000C4E83222348D200310008F06FFE01232E
:103CA000039A1370059A1370049B01221B68FEF798
:103CB00003FF0020FCF773FF0020FDF7E7F800206A
:103CC000FDF70FF830FE0110500902105F050000EB
:103CD0005C0500008C1D021059050000081D021033
:103CE00055050000841C021042050000120500006A
:103CF000590200004C0702108F020000150200005C
:103D0000180E0210940D02100F020000DC0C0210BD
:103D100005020000FC010210700402107010021075
:103D2000AF04000098180210BA22EB4EFF323100A7
:103D3000EA4808F023FE0122039B1A70A369E26897
:103D40009A4201D0FDF78EFDDD22E34E5200310094
:103D5000E34808F013FE0122039B1A70636A22688D
:103D6000934201D0FDF784FDBC22DB4EFF323100CF
:103D7000DC4808F003FE0122039B1A70636AE268C4
:103D80009A4201D0FDF779FDDE22D34E5200310078
:103D9000D54808F0F3FD0122039B1A70636AA269FB
:103DA0009A4201D0FDF76EFDBE22CB4EFF323100AC
:103DB000CE4808F0E3FD0122039B1A70FDF762FD77
:103DC000DC22C54E52003100C94808F0D7FD01225F
:103DD000039B1A702268FDF73BFDD122BE4E5200B4
:103DE0003100C44808F0CAFD0122039B1A70FDF798
:103DF00039FCA022B84EFF323100BF4808F0BEFDAA
:103E00000122039B1A70FDF725FCC622B24E520018
:103E10003100B64808F0B2FD0123039A1370059AE9
:103E20001370049B01221B68FDF7DBFB8C22AA4E5A
:103E3000FF323100AC4808F0A1FD0122039B1A704B
:103E4000636AFDF7BEFBC522A34E52003100A548B0
:103E500008F094FD0122039B1A70636AFDF7ACFB26
:103E60008A229D4EFF3231009D4808F087FD0122D5
:103E7000039B1A70FDF79AFBC422974E5200310043
:103E8000964808F07BFD0122039B1A70A369FDF799
:103E900088FB8822904EFF323100954808F06EFD75
:103EA0000122039B1A702268FDF776FB76228A4E68
:103EB000FF3231008F4808F061FD0122039B1A7028
:103EC000FDF7A4FAB922844E520031008A4808F066
:103ED00055FD0122039B1A70FDF790FAAF227E4E2A
:103EE00052003100814808F049FD0123039A137004
:103EF000059A1370049B01221B68FDF74BFA5E22A2
:103F0000754EFF323100784808F038FD0122039BDE
:103F10001A70636AFDF72EFAAE226F4E520031001E
:103F2000704808F02BFD0122039B1A70636AFDF7AD
:103F30001CFA5C22684EFF323100694808F01EFD11
:103F40000122039B1A70FDF70AFA4422624EFF32E7
:103F50003100684808F012FD0122039B1A70FDF73A
:103F6000F5F8A0225C4E52003100634808F006FDCF
:103F70000122039B1A70FDF7E1F89922564E520078
:103F800031005E4808F0FAFC0122039B1A70FDF72D
:103F900088F88D22504E58483100520008F0EEFC4F
:103FA0000122039B290020001A7008F0C5FB00289D
:103FB00001D0FDF70CF81C22474EFF3231004F486C
:103FC00008F0DCFC0122039B1A70FDF700F8952233
:103FD000414E52003100484808F0D0FC0122039BBA
:103FE0001A70FDF741F83C4E454A3100454808F04B
:103FF000C5FC0122039B1A70FEF74CFB364E424A69
:104000003100424808F0BAFC0122039B1A70FEF707
:104010003CFBE022304E920031003D4808F0AEFCFF
:104020000122039B1A70FEF724FB2B4E394A310004
:10403000304808F0A3FC0122039B1A70FEF7A0FA97
:10404000254E354A3100354808F098FC0122039B83
:104050001A70FEF7BCFC204E314A31002C4808F0A3
:104060008DFC0122039B1A70FEF79FFC1A4E274815
:1040700031002C4A08F082FC0122039B39001A709F
:10408000236800955B6800220E930E9F0223200098
:10409000B847071E01D0FEF743FC234A31002348EE
:1040A00008F06CFC01220027039B1A70204A3100A3
:1040B000204808F063FC0122039B1A70FEF730FCD5
:1040C000F622054E92003100114808F057FC0122FB
:1040D000039B1A70FEF708FC30FE0110B00A0210B4
:1040E000F80A0210400B0210880B0210D00B0210CD
:1040F000680A021020090210A8070210D007021057
:104100008603000078150210850300005415021084
:104110002C15021062030000FA0300004818021078
:10412000F6030000DD030000E2030000E4150210C6
:10413000E603000040170210F94EFA483100FA4A2F
:1041400008F01CFC0122039B29001A7023680097C9
:104150005F68002202232000B847002801D0FEF744
:1041600074FBF24A3100F24808F008FC0122039B7C
:104170001A70F04A3100F04808F000FC0123039A5D
:104180001370059A1370049B01221B68FEF769FBEC
:10419000E34EEA4A3100EA4808F0F0FB0122039BB3
:1041A0001A70FEF736FBEE22DD4E92003100DD483C
:1041B00008F0E4FB0123039A1370059A1370049B23
:1041C00001221B68FEF704FBD54EDE4A3100DC48B5
:1041D00008F0D4FB0122039B1A70FEF7E2FAE322F7
:1041E000CF4E92003100D24808F0C8FB0122039B59
:1041F0001A706368002B01D0FEF762FAC84ED24AEB
:104200003100D24808F0BAFB0122039B1A70FEF776
:1042100057FAC34ECE4A3100C94808F0AFFB01221D
:10422000039B1A70FEF782FABD4ECA4A3100CA4893
:1042300008F0A4FB0122039B1A70FEF7C3FEB84EE0
:10424000C64A3100BE4808F099FB0122039B1A7050
:10425000FEF7AFFEB24EC24A3100BF4808F08EFBF7
:104260000122039B1A70FEF783FCAD4EBD4A31005C
:10427000B94808F083FB0122039B1A70FEF719FD71
:10428000A74EB94A3100B44808F078FB0122039BDD
:104290001A70FEF71DFEA24EB44A3100AE4808F077
:1042A0006DFB0122039B1A70FEF795FDAD229C4E1B
:1042B00052003100AE4808F061FB0122039B1A70E6
:1042C000A369FDF747F85A22954EFF323100A948FD
:1042D00008F054FB0122039B1A702268FDF735F8A1
:1042E0008F4EA54A31009C4808F048FB0122039BF1
:1042F0001A70FDF702FC8A4EA04A3100A04808F06F
:104300003DFB0122039B1A70FDF7EFFB844E8548AD
:1043100031009C4A08F032FB0122039B00211A70F5
:10432000236820009B689847236820005B699847B2
:10433000236800955D680022022339002000A84709
:10434000002800D0A5E47A488F4AA5E4744E8F4A2D
:1043500031007B4808F012FB0122039B1A70FEF724
:1043600079FB6F4E8A4A31007B4808F007FB012237
:10437000039B1A70FEF752F8BC22694E920031007E
:10438000754808F0FBFA0122039B1A70FDF7B1FF94
:10439000ED22634E520031007E4808F0EFFA012210
:1043A000039B1A70FDF7BCFAD2225D4EFF3231003A
:1043B000734808F0E3FA0122039B1A70FDF7A3FA91
:1043C000F222574E52003100734808F0D7FA01220A
:1043D000039B1A70FDF7BEFA8122514E9200310004
:1043E0006C4808F0CBFA0122039B1A70FDF70EFB14
:1043F000FE224B4E52003100614808F0BFFA012204
:10440000039B1A70FDF7F5FA454E644A3100624885
:1044100008F0B4FA0122039B1A70FDF711FB404E1D
:104420005F4A31004C4808F0A9FA0122039B1A7038
:10443000FEF7AFFE3A4E5B4A3100474808F09EFA5D
:104440000122039B1A70FDF795FEA822344ED2007C
:104450003100414808F092FA0122039B1A70FEF7DE
:1044600077FE2F4E504A3100454808F087FA012266
:10447000039B1A70FEF764FE9622294E92003100CB
:10448000354808F07BFA0122039B1A70FDF7C8FB40
:10449000234E464A31003A4808F070FA0122039B45
:1044A0001A70FDF7B5FB0122FDF7E9FA0122FDF7CD
:1044B000B7FE0122FDF76DFA0122FEF7AAFA0122EA
:1044C000FEF700F80122FDF76DFB0122FEF7A7F8C9
:1044D0000122FEF74CFA0122FEF7C3F90122FEF792
:1044E00027FC0122FEF7BAFC0122FEF77BFB0C4EF3
:1044F0003FE60B4EDAE50A4E33E6094E224A31001A
:104500000B4808F03BFA0122039B1A70FFF7C1FB2E
:10451000034EC2E5024EFCF70FFD0122FCF76EFDD3
:1045200030FE011054150210C6030000CB0300003A
:10453000E4150210CF03000040170210C103000071
:104540002C150210B30300008D03000008160210A2
:10455000A503000011050000200902100E0500004F
:104560004204000084040000D5040000AE040000F2
:10457000B00A0210680A02102502000022020000A0
:10458000A80702100B040000140400000604000039
:1045900026030000A80C0210600D02100E0200009D
:1045A0004D050000B30200003D050000550200006B
:1045B0000122FEF7D5F80122FCF78AFD0122059BB6
:1045C0001A70049B1B68FCF7C5FC0D4808F0D6F96F
:1045D000FCF71EFA0020FCF73FFA0122FDF7BEFEB1
:1045E0000122FEF713FE0122FEF780F80122FCF7FC
:1045F000B1FC0122FEF760FA00231B68FFDEC04613
:10460000881E02108023DB051868000F7047C04623
:104610000FB400B5084883B003F070FF049B002B73
:1046200007D005A91800019103F03CFD034803F0F1
:1046300065FF012003F04EFDA41E02106C24021041
:1046400070B5EFF3108C72B60D4D2B68002BFCD0BB
:10465000BFF35F8F0724CB08C618C05C01230C4052
:10466000A3401C000440034207D118433070BFF33D
:104670005F8F2C608CF3108870BD1000FFF7C8FFAF
:104680002C0100D0F8B54746CE46884680B5EFF3FA
:10469000108C72B61C4D2C68002CFCD0BFF35F8FC1
:1046A0009A4222D807210126894602E0013293422C
:1046B00018D34D4637001540AF40D4080119045DAA
:1046C0002742F3D110003C430C70BFF35F8F0022F0
:1046D0000D4B1A608CF3108800280EDBC0BCB94665
:1046E000B046F8BD01204042EFE7BFF35F8F0023E3
:1046F0002B608CF31088012040424346002BEDD004
:104700000898FFF785FFC0462C0100D0044A1078B6
:10471000431CDBB2172B00D9102313707047C0461F
:104720006C1E002010B5064B064C82B001000093B1
:1047300018221F232000FFF7A5FF02B010BDC046BE
:10474000B41E02104C5600200021044B044ABFF353
:104750005F8F02C39342FAD17047C046000100D078
:10476000800100D0054B064A1360064A136053606F
:104770009360D36013615361936170478080808040
:1047800000E400E004E400E01F2318401E3B8340E7
:10479000002905D0C021044A4900535013607047D6
:1047A000802201498B50FAE700E100E001228240BB
:1047B000034B1B6813405A1E9341D8B27047C04642
:1047C00000E100E001238340014A13607047C046C6
:1047D00000E200E0084B10309B688000C358002BBB
:1047E00007D0064A00209B1A2F229A424041C0B2AD
:1047F00070470020FCE7C04600ED00E0701E00207E
:1048000070B50D00EFF3108672B60F4A1368002BD7
:10481000FCD0BFF35F8F0D4B10309B6884001B5999
:104820000B4A934203D09D4201D000F093FF074B07
:104830009B681D51BFF35F8FBFF35F8F0022024B58
:104840001A6086F3108870BD240100D000ED00E0EE
:10485000CD010010F0B557464E46DE464546E0B560
:1048600085B0060000911700EFF3108B72B66A4A0C
:104870001368002BFCD0BFF35F8F0025674B5D579B
:104880009A46002D00DAA9E06B00654C01935B1994
:104890009B009846A146C1444B4652469B79103630
:1048A0001370604BB6009B6899590B1B2F2B33D9A3
:1048B0005D4B994200D0ACE0019B42469C465B4B6D
:1048C0006544AD0063535A4B0232A218043B9B1A55
:1048D0001B05584A5B0D651913436B80564B01212C
:1048E000AB80FF23AB71009BEF71AB604B460B437A
:1048F00019004C4B9B689951BFF35F8FBFF35F8FDB
:104900000022454B1A608BF3108805B0F0BCBB4603
:10491000B246A946A046F0BD01200A008243D379E1
:104920008C46BB4231D84546130044491B1B5B41B2
:104930005943090D3D4B63533D4B02356519043B0B
:104940005B1B1B053B4D5B0D2B43AA464D466B8005
:104950000425AC465546E044131F44441B1B1B056D
:104960005B0D1D434B46997100999D8099604946A6
:10497000DF71334B01431360BBE75800C018800060
:104980002018C179B9422FD902000623D356002B33
:10499000F3DA02932B4B61460393131D9A460423CB
:1049A0005B429C46E14450464B461B1A1B055B0D7F
:1049B0009C46204B9571984663464046034393803E
:1049C000019B5A199200039BA418A380029B1C4AC6
:1049D000A371009B2260E771A3608AE700F0BAFE32
:1049E000002553465D574FE7908802934005131DFD
:1049F0009A46031561469C464046D44463460430BB
:104A00002018181AE0230005400D1B0218430390DC
:104A1000C5E700F09FFE4FE7240100D02C5B00208B
:104A2000701E002000ED00E0CD01001000A1FFFF8E
:104A3000A01E002000E0FFFF01BDFFFFAAAA0000AA
:104A40000148804701BD000070B501240443EFF325
:104A50000581EFF3108C72B6214A1368002BFCD04D
:104A6000BFF35F8F1F4B05001F4AED1A6D416A436C
:104A7000120D1E4D8900AE6852B27658A6421CD067
:104A80000621595691421CD012215956914222D0EA
:104A90001E215956914220D02A2159560324914271
:104AA00010D0134B19781A708171BFF35F8F0022F9
:104AB0000B4B1A608CF3108870BDAB680D4C5C50CA
:104AC000EFE700246100091989005B18FF21997143
:104AD00009499980E5E70124F4E70224F2E7C0469A
:104AE000240100D0701E0020AAAA000000ED00E002
:104AF0002C5B0020CD01001001BDFFFF10B5084B5D
:104B0000084C82B001000093002205232000FFF72B
:104B1000B9FD002801DB1F23181A02B010BDC046E2
:104B2000D01E0210305B0020024B9C46614489007D
:104B3000016070474000003470B5114C114DAC421B
:104B40000FD2FF262368002B0CD0FFF7DFFD0100FA
:104B50002000FFF7E9FFA680BFF35F8F0834AC4267
:104B6000F0D370BDFFF7D2FD01002000FFF7DCFF9E
:104B70002671BFF35F8F0834AC42E3D3F1E7C04640
:104B80000C2600201C26002010B50400FFF7BEFDF7
:104B900001002000FFF7C8FFFF232371BFF35F8FE1
:104BA00010BDC04610B504000120FFF7BBFD034B4C
:104BB000C3189B002360BFF35F8F10BD400000341B
:104BC000034B9C46614489000160BFF35F8F7047CF
:104BD000400000340A4B1968EFF3108072B60A687F
:104BE000002AFCD0BFF35F8F1B68BFF35F8F0022EA
:104BF0001A6080F3108840BF002000217047C04633
:104C0000045B0020F0B5DE4657464E464546E0B50B
:104C100087B0EFF305820323012513409D409900DF
:104C2000B34AB44B54581D60B34B8846A94604930D
:104C300029E0A3881BB2002B00DBA5E0A379002BA1
:104C400000D0E6E00823E05E002800DA0FE1430030
:104C500062691B18DB00D3189E68DD68731C00D1E5
:104C600011E1A64B190041449A6A0B69B01A9B1ACC
:104C7000984200D20E61A14800F030FB8D4200DD69
:104C8000F5E000D12BE14B469C4843630823E55EE9
:104C9000002DCEDB62696B0092465B19DB009A4403
:104CA00053469E68DF6800F019FB8F42C1DC00D1DB
:104CB0000BE1002F00DAF0E05246534652691B69BF
:104CC0009346049A934200D1E1E052460821605E87
:104CD0005288000459461043984702900391029964
:104CE000039A0B001000134300D1D6E013000A0012
:104CF000B61A9F41002806DB804800F0EFFA029EBA
:104D0000039F36184F4153469E60DF6000229A5E33
:104D1000002A8EDB530099186069C900411801937D
:104D20008B68C9689B46B94200DD82E702D1B34275
:104D300000D97EE708239C46A44405956546228158
:104D4000A446019B2C0006E053009918C9004118A5
:104D50008D68C968AB469B18DB00C318B94206DCF6
:104D600000D1C0E01C000023E25E002AECDA230040
:104D700064469C4653461A806346059D1D80A38861
:104D80001BB2002B00DA59E72269EFF3108172B6EB
:104D90001368002BFCD0BFF35F8F0123A7885B4211
:104DA000A3803FB22369BFF35F8F00221A6081F3B3
:104DB0001088002F00DA41E72300083322009A46CA
:104DC00066697B00DB19DB00F318996850468C4656
:104DD0000824115FDD68002910DB019306E0AB4277
:104DE0004DD00023E15E2000002906DB4C00641852
:104DF000E4003419E368AB42F1DD019B0780002039
:104E00001F5E1980002FDCDA1400A379002B00D17B
:104E100018E70023A37126000823E15E08364B1C27
:104E200025D00800A246656902E03E004B1C1AD05E
:104E30004B005B18DB00EF180A008C46E95E7B88AC
:104E40001BB2002BF1DA01235B42DC17BB60FC6074
:104E5000824205D0534631801B893B8053461A81DC
:104E600060464B1CE4D15446002800DBEFE640BF0F
:104E700007B0F0BCBB46B246A946A046F0BDA36849
:104E80006345AED9B9E76B1C00D0EAE6F3E65B46B2
:104E900058461B69984700281BD153461B88226936
:104EA0002381EFF3108372B611680029FCD0BFF3A1
:104EB0005F8F514662880A8022696580BFF35F8FE9
:104EC0000021116083F31088B3E6864200D8F0E633
:104ED000AFE65B461A685B6802920393FFE6864280
:104EE00000D8D0E6C3E7B34500D83BE73FE7C0466C
:104EF000E85A00203C700540054C00100040054079
:104F000070B52E4C2569002D04D00A212C48FFF7DE
:104F10000BFE70BD2B4E0321300000F0D5F9E6608A
:104F2000FFF7F4FB284B03229C46D02322701B067C
:104F30001B6801216370254B6044A3600F23800030
:104F400020610220638063694942A1801980023197
:104F5000198647311D83585218315A5275325C39BF
:104F6000995218320131995218320131995218323E
:104F700001319952083518329D5202311832995236
:104F800018320131995218320131995218320131D7
:104F900099521832013199521832013199520C4B01
:104FA0000C49DC6001303562FFF72AFC0121032047
:104FB000FFF7EAFB084B1D60A7E7C046B81E0020BC
:104FC000045B00200040054040000034FFFF10005B
:104FD000E85A0020054C0010386005400048704732
:104FE000B81E0020F8B51F0008AB1B78040016009F
:104FF000002B08D100F07AF932003B00121A8B41E5
:10500000002B00DA52E02269EFF3108072B61368C9
:10501000002BFCD0BFF35F8F0223E15E63694A007F
:105020005218D2009B182269002936DB1D88658042
:10503000BFF35F8F0025156080F31088069A9E608D
:10504000DF601A61079A5A615A8801325204520C81
:10505000101C002A1FD082B2588008041043266911
:10506000EFF3108772B63268002AFCD0BFF35F8F6F
:10507000A2881A80A1802369BFF35F8F00221A6083
:1050800087F310880A4923788C4601329A40E368F6
:1050900063441A60F8BD0120DDE7BFF35F8F002392
:1050A000136080F3108801204042F3E70020F1E70D
:1050B0003C20000070B501000469EFF3108C72B65B
:1050C00020680028FCD0BFF35F8F02200D5E4C6982
:1050D00068004019C00024180869002D36DB2688B6
:1050E0004E80BFF35F8F002606608CF31088E3606C
:1050F00063880498013320615B0405985B0CA2600F
:1051000060611A1C002B1FD093B2280462801843E0
:105110000A69EFF3108C72B61368002BFCD0BFF352
:105120005F8F8B8823808D800B69BFF35F8F002298
:105130001A608CF310880B7801329A40CB680849CA
:105140008C4663441A6070BD0122DDE7BFF35F8FB8
:10515000002303608CF3108801204042F3E7C0462F
:105160003C20000010B543890A1493421ADD530015
:105170009B184269DB00D3180469EFF3108C72B6F8
:105180002268002AFCD0BFF35F8F5A88090494B2CA
:10519000090C8A4208D00369BFF35F8F00221A60AE
:1051A0008CF31088002010BD8022120214435C8012
:1051B000012302698371BFF35F8F002111608CF3BB
:1051C0001088044902788C469340C26801206244EA
:1051D0001360E8E73C20000040787047F0B5CE4609
:1051E000474680B504000D0083B0EFF30583994670
:1051F0000F00002B42D1314EA0463378F0680433C3
:105200009B00816A1B58601A5B1A984212D320BF18
:105210002B4900204B6AAB4207D38A6A5B1B591E9D
:105220008B4141468A424041184303B0C0BCB94655
:10523000B046F0BD00F05AF822002B00121A8B4144
:10524000002B28DB4B4601931E4B220000933000BD
:105250002B00FFF72FFF011E1DDD194B5A6AAA42D2
:105260002AD39B6A9C4225D83000FFF77BFF144A63
:105270000020536ABB42D8D3926ACFE7104900207E
:105280004B6AAB42D1D38A6A5B1B591E8B41A24247
:1052900040411843C9E70A4A0020536ABB42C4D3BD
:1052A00000204146926A5B1B8A4240415A1E93414C
:1052B0001843BAE7AA42D7D120BFD5E7B81E0020CD
:1052C00000400540D54B001010B5024A0248FFF7D8
:1052D000B7F910BDEC1E0210505600200300416AC1
:1052E0000A00986A596A8A42FAD17047034B596A90
:1052F0000A00986A596A9142FAD170470040054005
:1053000070B504000D00174A536A1900966A536A73
:105310008B42FAD13000190024184D41AB4216D807
:1053200013D0104B2A005B6A9D4203D90D494B6A8A
:105330009342FCD3934207D10A4A02E0516A994250
:1053400002D1916AA142F9D370BDA642E9D9054BB9
:105350005B6A1C005A1CEFD0012201246442E5174D
:105360005242E3E700400540F8B5DE464E46574658
:105370004546E0B58B4605000A991800160000F076
:10538000EFFA0A9B6C001F02324B64199C46A40082
:105390006444636881469F4200D967602B1FDBB27B
:1053A0009846012B30D9C02380229B01E3181201BB
:1053B0001A60294BAD0059599A4600291BD1730137
:1053C000E026226853401E40802342465B01E318DA
:1053D0001E60012A30D9802380229B01E31812012C
:1053E0001A6053464A4667605A51F0BCBB46B24603
:1053F000A946A046F8BD586900F0B2FA0130430052
:105400001B18033BFDD2DAE75B46012BCBD1C0234F
:1054100003229B01E3181A60023AA3681A42FCD0E7
:105420007301E0262268AD0053401E4080230A4AE3
:105430005B019246E3181E605A46216851400322E0
:105440000A401A6001225B469A40A3681A42FCD0C7
:10545000C1E7C0460080004054560020F0B54646E3
:105460004F46D646C0B51F00344B44009C46241816
:10547000A4006444636888461600FF2B02D880238A
:105480005B006360031FDBB29A46012B30D9C02357
:1054900080229B01E31812011A60294B850059599B
:1054A000994600291BD17301E026226853401E4013
:1054B000802352465B01E3181E60012A30D9802305
:1054C00080229B01E31812011A6080235B00636055
:1054D0004B465F51E0BCBA46B146A846F0BD58699C
:1054E00000F03EFA013043001B18033BFDD2DAE71F
:1054F0004346012BCBD1C02303229B01E3181A6042
:10550000023AA3681A42FCD07301E02622688500A3
:1055100053401E4080230A4A5B019146E3181E60F7
:1055200042462168514003220A401A600123424644
:105530009340A2681342FCD0C1E7C04600800040FF
:1055400054560020014B8000C0587047545600202C
:10555000F8B5040021481E0017000D0000F000FA05
:105560000100380000F0FCF9069B36041B031E43C3
:105570002368002B20DB1A4B1A49E3185A1E93416B
:105580008022920194465B421B0B174A1B03634423
:105590001360164A13601F000A689743FBD1144B2F
:1055A0002560E2182123A06013602368002BFCDA39
:1055B0000823E6601360F8BD3F2322681340AB4226
:1055C000D9D1A3681B051B0D8342D4D1EE22E36819
:1055D000D2021340B342CED1EDE7C046001BB70064
:1055E0000040FDBF08C0004000E0004000F0004067
:1055F0000430000010B580241C4BE4051C6000281A
:105600001AD001231A4C18431A4BDC611A4C44403F
:105610001C62596298628021144BC90519601748B1
:1056200017490860E021C9041960002A07D18022C7
:10563000144B12061A6010BD0E4BD861EBE75301F4
:105640009B1A9B009A18802312015B049A4209D28C
:1056500013000D490B60074B5A608022094BD2059D
:105660001A60E8E7094B1A00F3E7C04600B00540AE
:10567000D3C007B0008005402D3FF84FFCFF01006C
:105680000820014000A00540C05A0020FFFFFF0095
:105690008023024A9B000B43D36270470080054081
:1056A000002310B50100988A1B8B984710BDC04697
:1056B000162310B50100188802331B88984710BDC7
:1056C000F8B54746CE4680B50F1E18D0142399462C
:1056D000043304000025012698464B4618884346AB
:1056E00021681B88984701C4431E98410135064034
:1056F000AF42F2D13000C0BCB946B046F8BD012679
:10570000F8E7C046002370B504000D00988A0549EB
:105710001B8B984703000020002C01DB0130A040C8
:105720002900984755420000AA23064A1B0113602E
:105730002F230549D360054B19605368002BFCDA11
:105740007047C0460040024000B0FA0000600240CE
:105750007047C04610B50148FEF75AFF101F0210EF
:1057600070B5074D074EB54209D20024013E761BA5
:10577000B60808CD984723000134B342F9D170BD73
:10578000E0FD01101CFE0110054B064A06491A6097
:10579000064A074B1A6010000B689843FBD170470C
:1057A00000E00040BFCDFBFE08C00040FE7F3C0093
:1057B00000F00040044BDB6C002B03D18022034B34
:1057C000D2021A607047C046000011504C201150A0
:1057D000044A054B1A60054A1368DB018033FBD18C
:1057E0007047C046FFFFFF0100F0004008C00040C6
:1057F0004022034B9A675A671A67DA667047C046B9
:1058000000F0014010B5FEF79FFF10BD70B5044DCC
:10581000044CA968C022200000F0B0FFAC6070BD4D
:1058200000ED00E000000020002310B5294C82B0FC
:10583000A367FFF779FF0122274B1A60636C012BE6
:10584000FCD10322254B1A60224A936B012BFCD119
:10585000013300930121224A22480433FFF778FEE6
:10586000052301210093204A2048FFF771FE002202
:10587000022104201E4BFFF7F1FD0022012105202B
:105880001C4BFFF7EBFD0022002107201A4BFFF70E
:10589000E5FD002200210820174BFFF7DFFD8023E4
:1058A000DB000093002200210920134BFFF75CFD71
:1058B0000022104B00210620FFF7D0FD0420FFF747
:1058C00041FE0E4900F04CF801000020FFF7E0FE19
:1058D00002B010BD008000403CB0004030B000403D
:1058E000002F685900800240008C864700C00240AB
:1058F000001BB70040597307006CDC0240420F00E8
:1059000001480421014B1847D01E0020C156001049
:10591000124A936F9B0815D29066D166002905D074
:10592000FFE7FFE7FFE7516F106F704704B5802175
:105930000906C2175140002800D0C8431AF0A8F940
:10594000002104BDF0B5146E556E576F166FFFF74A
:10595000E3FF1466556657671667F0BD000000D078
:10596000114A936F9B0813D210665166002905D027
:10597000FFE7FFE7FFE7516F106F704704B500289E
:1059800001D00020C0431AF083F9002104BDC046B5
:10599000F0B5146E556E576F166FFFF7E5FF14667E
:1059A000556657671667F0BD000000D094464A4A16
:1059B000926F9208624601D228E0C046F0B5464E8A
:1059C000346E756E776F366F00F020F89446424A59
:1059D00014665566576716676246F0BD94463E4AA0
:1059E000926F9208624601D254E0C046F0B53A4E3A
:1059F000346E756E776F366F00F04CF89446364A09
:105A000014665566576716676246F0BD002B24DBA7
:105A100011D000293EDA00B5C943404200D101311E
:105A200000F038F8C943404200D10131DB43524213
:105A300000D1013300BD002AEBD1002801D100299B
:105A400005D00020C90FC90701D1C043410800B5E6
:105A50001AF0EEF80022002300BD00B500290ADB91
:105A6000DB43524200D1013300F014F8C9434042F5
:105A700000D1013100BDC943404200D10131DB43B7
:105A8000524200D1013300F005F8DB43524200D10D
:105A9000013300BD002923D1002B18D1002A0CD0DE
:105AA000BC460D4F38667A6600210023FFE7FFE70A
:105AB000FFE77A6F386F67467047002801D00748C4
:105AC000010000B51AF0B4F80022002300BD020066
:105AD0000B00002000217047000000D0FFFFFFFFF7
