:020000041000EA
:1000000000B5324B212058609868022188439860DF
:10001000D860186158612E4B002199600221596106
:100020000121F02299502B49196001219960352056
:1000300000F044F80222904214D00621196600F024
:1000400034F8196E01211966002018661A6600F04E
:100050002CF8196E196E196E052000F02FF8012189
:100060000842F9D1002199601B49196000215960AB
:100070001A491B48016001219960EB211966A021F2
:10008000196600F012F800219960164914480160C1
:100090000121996001BC002800D000471248134993
:1000A000086003C880F30888084703B5996A0420EC
:1000B0000142FBD001200142F8D103BD02B5186610
:1000C0001866FFF7F2FF186E186E02BD00000240BE
:1000D000000000180000070000035F00212200005C
:1000E000F4000018222000A00001001008ED00E03C
:1000F00000000000000000000000000074B24E7A12
:1001000000200420F7010010C3010010C5010010F9
:10011000C1010010C1010010C1010010C101001097
:10012000C1010010C1010010C1010010C701001081
:10013000C1010010C1010010C9010010CB01001065
:10014000CD010010CD010010CD010010CD01001037
:10015000CD010010CD010010CD010010CD01001027
:10016000CD010010CD010010CD010010CD01001017
:10017000CD010010CD010010CD010010CD01001007
:10018000CD010010CD010010CD010010CD010010F7
:10019000CD010010CD010010CD010010CD010010E7
:1001A000CD010010CD010010CD010010CD010010D7
:1001B000CD010010CD010010CD010010CD010010C7
:1001C00000BE00BE00BE00BE00BE00BEEFF3058054
:1001D000103800BEF2EB887198A60110B8A6011085
:1001E0003802001090A31AE71E481F49086006C88D
:1001F00081F3088810471D480068002801D019487D
:10020000F3E70DA40ECC002902D000F012F8F9E7B4
:100210001749184A002000E001C19142FCD116495B
:100220008847164988471649884700BEFDE701C937
:1002300001C29A42FBD37047B8A60110C00000204B
:100240006C26002064CC0110000004200000042073
:1002500064CC0110001004200010042000000000F5
:10026000704700000000000008ED00E0000000D032
:100270006C26002050610020D15C0010C5060010E3
:10028000915C0010F8B5C046044B10B5002B03D0AC
:100290000349044800E000BF10BDC0460000000054
:1002A000E8600020506C0110F0B5DE4657464E461F
:1002B0004546E0B5EFB01400799A059392467A9AD4
:1002C0008B4691460AF086FC804620000AF082FCAC
:1002D000070078980AF07EFC42460600002117923B
:1002E00014A8082203F0CAFF5A46002516920222DB
:1002F00012AC40469346A2831295A57765600AF03A
:10030000F3FB8046207F08F05BFA42465043002111
:100310000822A0611CA8676303F0B0FF3E23E554E8
:10032000059B380023635B462562A38765620AF05C
:10033000DBFB3C230700E05C08F042FA7843002135
:100340000822A06324A8666503F098FF5E23E554A5
:100350004B4623655C235A4698463000E25225649A
:1003600065640AF0C1FB43460700E05C08F028FA28
:100370007843A06530000AF0B7FB804608A8030068
:10038000444E86CE86C30AF025FC070006A803006B
:10039000320042CA42C30AF01DFC06000BA809F055
:1003A000B1FB22000BA90323039502950196009748
:1003B0002AA808F035FA002200212AA808F07EFABF
:1003C00000284AD12AA808F0CDFA002855D1434682
:1003D000002B32DD304B00240593304B9B4604E06C
:1003E000AE4231D10134A04527D05246A300D658A1
:1003F0004A46D558701BAE42F2DD03F05DFE284937
:1004000003F054FE0028EDD0300003F00BFA352342
:1004100003935B46060028000F00029303F002FAE4
:1004200032003B000090019105980AF04BFB01223D
:100430001C4B01341A70A045D7D16FB0F0BCBB463D
:10044000B246A946A046F0BDA81B03F035FE1449EC
:1004500003F02CFE0028C5D0D6E7134C0023312230
:1004600000900E4920000AF02DFB01220D4B2AA816
:100470001A7008F077FA0028A9D00C4C0023322219
:100480000090064920000AF01DFB0122054B1A705E
:100490009DE7C046308001103C6D0110506C01108A
:1004A000ACC5273741610020C46C0110046D0110F8
:1004B000F0B5DE4657464E464546E0B5EFB014006F
:1004C0001F008B467A9E0AF085FB824620000AF0C8
:1004D00081FB814678980AF07DFB524680460021D8
:1004E000179214A8082203F0C9FE5A460025169256
:1004F000012212AC50469346A2831295A5776560FF
:100500000AF0F2FA8246207F08F05AF95246504328
:100510004A460021A06162631CA8082203F0AEFED7
:100520003E23E5545B4648462763A3872562656200
:100530000AF0DAFA3C238146E05C08F041F94B46C8
:100540005843434600210822A06324A8636503F0B2
:1005500095FE5E235A46E554023B9A464046E252D7
:100560002564656426650AF0BFFA53468146E05C5F
:1005700008F026F94B465843A06540460AF0B4FA05
:1005800008AB9C466746484B814607CB07C7604689
:1005900098460AF01FFB824606A80300424682CA1C
:1005A00082C30AF017FB80460BA809F0ABFA43465A
:1005B00001935346220000930BA903230395029550
:1005C0002AA808F02DF9002200212AA808F076F9BF
:1005D00000284DD12AA808F0C5F9002858D14B466B
:1005E000002B3EDD314B00259846314B9B460AE0FF
:1005F000201C03F004FD2F4903F058FD002817D1FB
:100600000135A9452DD0799AAB00F758D458391C3B
:10061000201C03F04BFD391C0028E9D1201C03F0FD
:1006200037FD0028ECD1211C381C03F0E8FCE2E780
:10063000201C03F063FD352303935B460490059172
:10064000381C029303F05AFD049A059B0090019117
:1006500040460AF037FA0122174B01351A70A945B6
:10066000D1D16FB0F0BCBB46B246A946A046F0BDA2
:10067000124C0023312200900D4920000AF022FA8A
:1006800001220D4B2AA81A7008F06CF90028A6D098
:100690000B4C002332220090054920000AF012FA88
:1006A0000122054B1A709AE7308001103C6D011051
:1006B000506C0110ACC5273741610020C46C01109B
:1006C000046D0110F0B5DE46574645464E46E0B58E
:1006D000F34CA5440AF06EFAF24B64AF0993F24B67
:1006E0001193F24B1F93F24B0893F24B0493F24B8E
:1006F0000793F24B1E93F24B1593F24B1293F24B6E
:100700001793F24B1893F24B1993F24B1693F24B4B
:100710001A93F24B1B93F24B0593F24B1393F24B4C
:100720001493F24B0693F24B1C93F24B1D93F24B36
:100730002093F24B21930023984643464246099E5C
:100740001F983360119B1A600AF0BCF94246079D5E
:10075000089B41461A702B00049A143311707CAA2E
:1007600013CB13C203CB03C22B0051AA283313CBE4
:1007700013C21B6813602B0057AA383313CB13C264
:100780001B6813602B005DAD483313CB13C51B688A
:100790005DA92B6001917CA9009157A90B007CA950
:1007A0000A000297100051A9FFF782FE0121089B61
:1007B000049A1970117833680122002901D10022AE
:1007C000013309991E980B6011990B689B180B60F7
:1007D0000AF078F94246089B079D1A70049B1A702C
:1007E0002B0057AA583313CB13C213CB13C22B00C1
:1007F000703313CB13C213CB13C23A00159B0833CB
:1008000013CB13C213CB13C2129C0E947CAB2200E9
:100810002000029300945DAB019757A9FFF748FEB3
:10082000B74B1434A342F1D10122089B1A70049AE9
:10083000099B11781B680122002901D10022013394
:10084000099917980B6011990B689B180B600AF0B7
:1008500039F94246089B159D1A70049B1A700123B2
:10086000579358932B005DAA203313CB13C213CB9D
:1008700013C2A44B3A0051932B00383313CB13C24D
:1008800013CB13C2129C7CAB20000293009451AB9B
:10089000019757AA5DA9FFF70BFE994B1434A342A9
:1008A000F1D10122089B1A70049A099B11781B68E8
:1008B0000122002901D1002201331199099E1898C3
:1008C00033600B687CAD9B180B600AF0FBF8424666
:1008D0004146089B1A70049A1170079914310B0055
:1008E00013CB13C52A0003CB03C2159D51AA2B00BD
:1008F000503313CB13C21B6813602B0057AA60330D
:1009000013CB13C21B6813602B005DAD703313CB88
:1009100013C51B685DA92B6001917CA9009157A9A3
:100920000B007CA90A000297100051A9FFF7BCFC3C
:100930000121089B049A197011783368012200295B
:1009400001D100220133099919980B6011990B68A4
:100950009B180B600AF0B6F84246089B169D1A7069
:10096000049B1A702A0057AB13CA13C313CA13C3CC
:100970002B005DAA183313CB13C213CB13C22B0069
:100980003A00303313CB13C213CB13C2129C7CAB8F
:1009900022002000029300945DAB019757A9FFF756
:1009A00083FC574B1434A342F1D10122089B1A70E7
:1009B000049A099B11781B680122002901D10022A9
:1009C000013309991A980B6011990B689B180B60F9
:1009D0000AF078F84246089B169D1A70049B1A701C
:1009E0000123579358932B005DAA483313CB13C2AE
:1009F00013CB13C2032351932B003A00603313CB64
:100A000013C213CB13C2129C7CAB20000293009440
:100A100051AB019757AA5DA9FFF746FC384B143438
:100A2000A342F1D10122089B1A70049A099B117804
:100A30001B680122002901D10022013309991B986A
:100A40000B6011990B689B180B600AF03BF842464B
:100A5000089B079D1A70049B1A702B0057AA143329
:100A600013CB13C203CB03C22B0040AA283313CBF2
:100A700013C21B6813602B0044AA383313CB13C274
:100A80001B6813602B004BAA483313CB13C21B689F
:100A90001D4C136019231D4A34931B4B57A837E094
:100AA000FCFCFFFFFC290020F8290020706D0110DC
:100AB000426100204161002030800110986D0110DA
:100AC000B08001106C1E0020C46D0110F06D01108B
:100AD0001C6E0110308101104C6E01107C6E0110F3
:100AE000506C0110C46C0110046D0110A86E01104F
:100AF000E86E0110186F01102C6F0110446F011087
:100B0000BC1E0020CDCCCC3D1010803F181818180A
:100B1000369237933F2338939E4B9E4A3A933B94A9
:100B200080235B423C939C4B3E923F930AF052F8E9
:100B3000824657A80AF04EF8834657A80AF04AF8AA
:100B40000A9009F0D1FF8146504609F0CDFF0028F8
:100B500024DD40AC800022AD261806E08020404213
:100B6000043428700135A64218D08C49206803F05F
:100B70004CFA03F0C3FA02F01BFF894B002202F08B
:100B8000B3FD02F067FE03008033E7DB7F28E7DD7B
:100B90007F20043428700135A642E6D1534608224E
:100BA00000217B6166A803F069FB43463B607B60E4
:100BB000BB7722AB3B6109235046BB8309F094FF0E
:100BC0000400387F07F0FCFD744B6043BB601923C1
:100BD000FB60183B3B604346B8617B60584609F0B8
:100BE00083FF002824DD44AC800023AD261806E0F6
:100BF00080204042043428700135A64218D067494D
:100C0000206803F002FA03F079FA02F0D1FE654B96
:100C1000002202F069FD02F01DFE03008033E7DBD5
:100C20007F28E7DD7F20043428700135A642E6D115
:100C30005B46002108227B636EA803F01FFB43463E
:100C400042463B627B623E230924FA5423AB3B635A
:100C5000BC87584609F048FF3C230500F85C07F0C4
:100C6000AFFD4E4B0126BB623F23FB624346684308
:100C70007B620A9B00210822B8637B653E6276A8EE
:100C800003F0FCFA42465E235C253A647A64FA5427
:100C900025AA3A650A987C5309F026FF0400785D7E
:100CA00007F08EFD404B6043BB6480235B42FB64D6
:100CB0004346079AB8657B643E6431AB13CA13C3DD
:100CC00031A809F087FF022304002EA82F932E9647
:100CD00009F080FF05005DA808F014FF43463A00C4
:100CE000039302935DA90323019500947CA807F068
:100CF00097FD002200217CA807F0E0FD002801D02C
:100D000001F0EEF87CA807F02DFE002801D001F0DC
:100D1000DBF84B46002B66DD51AB9B464B469E00F5
:100D20005B461C0025AD5E4400202856013580300E
:100D300003F0C2F91C4903F07CF901C4A642F3D1C7
:100D40004BAB9A4600255E460EE0584603F057F935
:100D5000124903F0ABF9002828D104239C46013541
:100D6000E2440436A9453ED0534634681B68211C32
:100D7000181C9B4603F09AF9211C0028E5D158461F
:100D800003F086F90028E8D15946201C03F037F912
:100D9000DEE7C046101010101010603F8180003C4C
:100DA0000000394000804F408180003B584603F0EE
:100DB000A5F98A230393059B0A900B91201C0293AB
:100DC00003F09CF90A9A0B9B00900191069809F098
:100DD00079FE0122049B01351A7004239C460436D7
:100DE000E244A945C0D14346DC4A3493DC4B57A8C2
:100DF000369237934346DB4A3893DB4B3A923B9328
:100E00004346DA4A3C93DA4B3E923F9309F0E2FEC6
:100E1000834657A809F0DEFE0C9057A809F0DAFEC9
:100E20000F9009F061FE0A90584609F05DFE002817
:100E300021DDD04B40AC9A4680231B0299468000AE
:100E400027AD2618CC49206803F0DFF803F056F9E7
:100E500002F0AEFD0022002302F046FC02F0FAFC94
:100E6000504500DAC348484500DBC44804342880B4
:100E70000235A642E6D15B46082200217B6166A8C6
:100E800003F0FCF943463B607B60BB7727AB3B61DB
:100E900007235846BB8309F027FE0400387F07F07C
:100EA0008FFCB54B6043BB604346FB6001233B6056
:100EB0004346B8617B600C9809F016FE002821DDDE
:100EC000AC4B44AC9A4680231B029946800029AD66
:100ED0002618AB49206803F098F803F00FF902F0E8
:100EE00067FD0022002302F0FFFB02F0B3FC504537
:100EF00000DAA048484500DBA048043428800235C9
:100F0000A642E6D10C9D002108227D636EA803F065
:100F1000B5F9434642463B627B623E230724FA54BE
:100F200029AB28003B63BC8709F0DEFD3C230500AC
:100F3000F85C07F045FC924B0126BB6243466843D0
:100F4000FB627B620F9B00210822B8637B653E62D7
:100F500076A803F093F942465E235C253A647A64EE
:100F6000FA542BAA3A650F987C5309F0BDFD040092
:100F7000785D07F025FC834B6043BB644346079ACA
:100F8000B865FB647B643E6431AB13CA13C331A8FC
:100F900009F020FE022304002EA82F932E9609F0BC
:100FA00019FE05005DA808F0ADFD43463A00039325
:100FB00002935DA90323019500947CA807F030FCFF
:100FC000002200217CA807F079FC002801D000F065
:100FD0006FFF7CA807F0C6FC002801D000F05CFF82
:100FE0000A9B002B5ADD51AB9B462BACA4465D46B9
:100FF0000A9B5E0066440023E05E03F05DF86149F1
:1010000003F017F8023401C5A642F4D14BAB9A465F
:101010000A9B002599460FE0201C02F0F0FFE52115
:10102000890503F043F800281BD104239C460135B1
:10103000E244E344A94531D053461C685B461E6830
:10104000201C311C03F032F8311C0028E4D1201C94
:1010500003F01EF80028E8D1211C301C02F0CFFF5D
:10106000DDE7201C03F04AF88A230393059B0A90CE
:101070000B91301C029303F041F80A9A0B9B0090ED
:101080000191069809F01EFD0122049B01351A709A
:1010900004239C46E244E344A945CDD10122089BA8
:1010A0001A70049A099B11781B680122002901D14A
:1010B0000022013309991C980B6011990B689B1849
:1010C0000B6009F0FFFC4246089B079D1A70049BC9
:1010D0001A702B0044AA583313CB13C213CB13C27C
:1010E0002B004BAA703313CB13C213CB13C2159B27
:1010F000083313CB13C213CB13C2129B0A930A23D8
:10110000214A3893214B224C3A923B9301235B4274
:101110003C93204B204A3E933F9480230A9C5B42A1
:1011200040931E4B20004292439309F053FD8246A8
:10113000200009F04FFD0C90200009F04BFD834684
:1011400009F0D2FC8146504609F0CEFC002847DD6C
:1011500044AC800023AD261829E0C046674DB3A6F5
:101160005933033FC00060003000083F800040005A
:101170002000F03E0080FFFFCD9A1938FF7F00006D
:101180008001403800018037F1F0F0F050B78D3F1A
:101190001010803F10101010121212121212A23FE3
:1011A00080204042043428700135A64218D08B4973
:1011B000206802F02AFF02F0A1FF02F0F9FB884B41
:1011C000002202F091FA02F045FB03008033E7DBD6
:1011D0007F28E7DD7F20043428700135A642E6D160
:1011E0005346082200217B6166A803F047F8434676
:1011F0003B607B60BB7723AB3B6109235046BB83DD
:1012000009F072FC0400387F07F0DAFA734B604390
:10121000BB600A23FB60093B3B604346B8617B60CF
:101220000C9809F061FC002824DD4BAC800025AD52
:10123000061906E080204042043428700135A64299
:1012400018D06849206802F0E0FE02F057FF02F073
:10125000AFFB654B002202F03EFA02F0FBFA0300FE
:101260008033E7DB7F28E7DD7F20043428700135F9
:10127000A642E6D10C9D002108227D636EA802F0F3
:10128000FDFF434642463B627B623E230924FA54FB
:1012900025AB28003B63BC8709F026FC3C230500F6
:1012A000F85C07F08DFA4F4B0126BB6201235B42CD
:1012B000FB6243467B625B46684300210822B863B9
:1012C0007B653E6276A802F0D9FF434642463B6406
:1012D0007B645E235C25FA5427AB3B6558467C5300
:1012E00009F002FC0400785D07F06AFA3F4B6043A6
:1012F000BB6480235B42FB644346079AB8657B640A
:101300003E6434AB13CA13C334A809F063FC022350
:10131000040031A83293319609F05CFC05005DA809
:1013200008F0F0FB43463A00039302935DA90323C0
:10133000019500947CA807F073FA002200217CA894
:1013400007F0BCFA002801D000F09AFD7CA807F055
:1013500009FB002801D000F087FD4B46002B66DD1D
:1013600057AB9B464B469E005B461C0027AD5E4438
:10137000002028560135803002F09EFE1B4902F005
:1013800058FE01C4A642F3D151AB9A4600255E46F1
:101390000EE0584602F033FE154902F087FE0028A1
:1013A00028D104239C460135E2440436A9453ED0A9
:1013B000534634681B68211C181C9B4602F076FEBD
:1013C000211C0028E5D1584602F062FE0028E8D131
:1013D0005946201C02F013FEDEE7C04688BA6D3C79
:1013E000000024408180003C0000F03F9190103DBF
:1013F0009190903D584602F081FE8A230393059B0D
:101400000C900D91201C029302F078FE0C9A0D9B1B
:1014100000900191069809F055FB0122049B0135CB
:101420001A7004239C460436E244A945C0D10A9BA5
:10143000E14A14330A939A4200D060E6129B0C935F
:101440004346DE4A3893DE4B0C9C3A923B9343462C
:10145000DA4A3C93DB4B20003E923F934346DA4A04
:101460004093DA4B4292439309F0B4FB8346200049
:1014700009F0B0FB0F90200009F0ACFB109009F0D0
:1014800033FB0A90584609F02FFB002821DDD04B92
:1014900044AC9A4680231B02994680002BAD261847
:1014A000CC49206802F0B1FD02F028FE02F080FA7B
:1014B0000022002302F018F902F0CCF9504500DABE
:1014C000C348484500DBC448043428800235A6429E
:1014D000E6D15B46082200217B6166A802F0CEFEC1
:1014E00043463B607B60BB772BAB3B610723584691
:1014F000BB8309F0F9FA0400387F07F061F9B54BB6
:101500006043BB604346FB6001233B604346B861D8
:101510007B600F9809F0E8FA002821DDAC4B4BAC5A
:101520009A4680231B02994680002EAD0619AB49CE
:10153000206802F06AFD02F0E1FD02F039FA0022B3
:10154000002302F0D1F802F085F9504500DAA048F6
:10155000484500DBA048043428800235A642E6D185
:101560000F9D002108227D636EA802F087FE43468E
:1015700042463B627B623E230724FA542EAB28008E
:101580003B63BC8709F0B0FA3C230500F85C07F028
:1015900017F9924B0126BB6243466843FB627B62AC
:1015A000109B00210822B8637B653E6276A802F09A
:1015B00065FE42465E235C253A647A64FA5431AA99
:1015C0003A6510987C5309F08FFA0400785D07F0B3
:1015D000F7F8834B6043BB644346079AB865FB64E6
:1015E0007B643E6434AB13CA13C334A809F0F2FA27
:1015F0000223040029A82A93299609F0EBFA050092
:101600005DA808F07FFA43463A00039302935DA970
:101610000323019500947CA807F002F90022002121
:101620007CA807F04BF9002801D000F011FC7CA841
:1016300007F098F9002800D0E9E30A9B002B59DD58
:1016400057AB9B4631ACA4465D460A9B5E006644A0
:101650000023E05E02F030FD614902F0EAFC023452
:1016600001C5A642F4D151AB9A460A9B0025994682
:101670000EE0201C02F0C3FC5A4902F017FD0028BE
:101680001BD104239C460135E244E344A94531D0F3
:1016900053461C685B461E68201C311C02F006FD88
:1016A000311C0028E5D1201C02F0F2FC0028E8D112
:1016B000211C301C02F0A3FCDEE7201C02F01EFD02
:1016C0008A230393059B0A900B91301C029302F02E
:1016D00015FD0A9A0B9B00900191069809F0F2F90A
:1016E0000122049B01351A7004239C46E244E34422
:1016F000A945CDD10C9B304A14330C939A4200D0AB
:101700009EE60122089B1A70049A099B11781B68B7
:101710000122002901D100220133099917980B6099
:1017200011990B689B180B6009F0CCF94246089B95
:10173000159D1A70049B1A70012329932A932B007C
:101740004BAA203313CB13C213CB13C2264B2293C5
:101750002B00383313CB13C213CB13C2129B0A9343
:10176000592380215B42214A3C93214B0A9C3E92A3
:101770003F93204A204B4942200042924393469295
:1017800047934091449109F025FA29AB824618000D
:1017900009F020FA0C90200009F01CFA834609F0A9
:1017A000A3F98146504609F09FF9002846DD4BAC6D
:1017B000800023AD061928E0BC1E002080004000F8
:1017C0002000103F2000003F900048002400323FDE
:1017D0000080FFFF00018038FF7F0000000100381B
:1017E000200190390000103ACDCCCC3D838282821A
:1017F000AEE1743F101010101010703F8020404276
:10180000043428700135A64218D08E49206802F0B1
:10181000FCFB02F073FC02F0CBF88B4B002201F0D2
:101820005AFF02F017F803008033E7DB7F28E7DD7B
:101830007F20043428700135A642E6D153460822A1
:1018400000217B6166A802F019FD43463B607B6086
:10185000BB7723AB3B6109235046BB8309F044F9B6
:101860000400387F06F0ACFF764B6043BB60592321
:101870005B42FB605A333B604346B8617B600C9827
:1018800009F032F900282DDD99231EAA13770128CB
:1018900028D094467C3B63441D00800022AB23ACDF
:1018A0001E1806E080204042043428700135A6420C
:1018B00018D06649206802F0A8FB02F01FFC02F075
:1018C00077F8634B002201F006FF01F0C3FF03002D
:1018D0008033E7DB7F28E7DD7F2004342870013583
:1018E000A642E6D10C9C002108227C636EA802F07F
:1018F000C5FC434642463B627B623E230925FA54BF
:1019000025AB20003B63BD8709F0EEF83C230400C3
:10191000F85C06F055FF41468023796259466043E2
:101920005B424A4CFB6281330822BC62B8633B6273
:10193000796576A8002102F0A1FC41465E235C2671
:1019400039647964F95427A939655846BD5309F0BB
:10195000CBF80500B85D06F033FF802268434346AC
:1019600001255242FA64079AB865BC643D647B6401
:1019700038AB13CA13C338A809F02CF902230400AA
:1019800034A83593349509F025F905005DA808F0D1
:10199000B9F843463A00039302935DA903230195E6
:1019A00000947CA806F03CFF002200217CA806F0F1
:1019B00085FF002800D014E27CA806F0D3FF0028A1
:1019C00000D003E24B46002B63DD57AB9B464B46F2
:1019D0009E005B461C0027AD5E4400202856013562
:1019E000803002F069FB194902F023FB01C4A642D2
:1019F000F3D151AB9A4600255E460EE0584602F000
:101A0000FEFA144902F052FB002825D104239C461B
:101A10000135E2440436A9453BD0534634681B687F
:101A2000211C181C9B4602F041FB211C0028E5D11B
:101A3000584602F02DFB0028E8D15946201C02F040
:101A4000DEFADEE7740DA73B004056408180803B04
:101A5000000060408180003C584602F04FFB8A2322
:101A60000393059B0C900D91201C029302F046FB02
:101A70000C9A0D9B00900191069809F023F8012221
:101A8000049B01351A7004239C460436E244A945A0
:101A9000C3D10A9BE44A14330A939A4200D05FE60A
:101AA0004346E24A3C93E24B41463E923F934346D3
:101AB0000E9CE04A4093E04B2000429243934692B2
:101AC0004793449109F086F829AB8346180009F042
:101AD00081F80C90200009F07DF80F9009F004F8CF
:101AE0000A90584609F000F8002821DDD34B4BAC92
:101AF0009A4680231B02994680002EAD0619D049D4
:101B0000206802F082FA02F0F9FA01F051FF002297
:101B1000002301F0E9FD01F09DFE504500DAC748C1
:101B2000484500DBC748043428800235B442E6D17A
:101B30005B46082200217B6166A802F09FFB4346BA
:101B40003B607B60BB772EAB3B6107235846BB8372
:101B500008F0CAFF0400387F06F032FEB84B60433D
:101B6000BB604346FB6001233B604346B8617B603A
:101B70000C9808F0B9FF00282DDD4C21B24B1EAAAD
:101B800052181380012826D01EAA4E23944663447F
:101B90001D00800022AB1E18A84B23AC9A46802360
:101BA0001B029946A949206802F02FFA02F0A6FA12
:101BB00001F0FEFE0022002301F096FD01F04AFE36
:101BC000504500DA9D48484500DB9E480434288093
:101BD0000235A642E6D10C9C002108227C636EA847
:101BE00002F04CFB434642463B627B623E230725A4
:101BF000FA5431AB20003B63BD8708F075FF3C23EE
:101C00000400F85C06F0DCFD43464246FB6201231B
:101C100060437A628D4C0F9ABC620021B8633B62CC
:101C20007A6576A8082202F029FB41465E235C26ED
:101C300039647964F95434A939650F98BD5308F0B3
:101C400053FF0500B85D06F0BBFD42466843012521
:101C5000FA647A64079AB865BC643D6438AB13CA09
:101C600013C338A808F0B6FF022304002BA82C9356
:101C70002B9508F0AFFF05005DA807F043FF434632
:101C80003A00039302935DA90323019500947CA875
:101C900006F0C6FD002200217CA806F00FFE0028F9
:101CA00000D0A9E07CA806F05DFE002800D082E00C
:101CB0000A9B002B5ADD57AB9B4634ACA4465D46CD
:101CC0000A9B5E0066440023E05E02F0F5F95F497E
:101CD00002F0AFF9023401C5A642F4D151AB9A46E5
:101CE0000A9B002599460FE0201C02F088F9E221AA
:101CF000890502F0DBF900281BD104239C4601353D
:101D0000E244E344A94531D053461C685B461E6853
:101D1000201C311C02F0CAF9311C0028E4D1201C1F
:101D200002F0B6F90028E8D1211C301C02F067F956
:101D3000DDE7201C02F0E2F98A230393059B0A9059
:101D40000B91301C029302F0D9F90A9A0B9B009078
:101D50000191069808F0B6FE0122049B01351A7025
:101D600004239C46E244E344A945CDD10E9B2E4A70
:101D700014330E939A4200D092E60122089B1A7007
:101D8000099B1968049B1B78002B01D100220131AB
:101D9000119C099B1D9819602368D2182260521863
:101DA00008F090FE2368002B00D0A5E0209808F0F2
:101DB00089FEFEF7C2FC0023842200900599149846
:101DC00008F080FE0122049B1A7071E70023842230
:101DD00000900599149808F075FE0122049B1A7072
:101DE000F0E50023832200900599139808F06AFE1D
:101DF0000122049B1A70DFE50023832200900599DD
:101E0000139808F05FFE0122049B1A704AE7002332
:101E1000842200900599149808F054FE0122049B36
:101E20001A70FFF70AFCC046BC1E0020F3A679D347
:101E3000BC99013F800040002000003F0080FFFF70
:101E4000E7CD0C38FF7F0000CD0C0000000100380A
:101E50000023832200900599139808F033FE012295
:101E6000049B1A70FFF7E3FB00238422009005997E
:101E7000149808F027FE0122049B1A70FFF76DFAF0
:101E80000023832200900599139808F01BFE01227D
:101E9000049B1A70FFF75AFA0023842200900599D8
:101EA000149808F00FFE0122049B1A70FFF798F8AF
:101EB0000023832200900599139808F003FE012265
:101EC000049B1A70FFF785F800238422009005997F
:101ED000149808F0F7FD0122049B1A70FEF719FF11
:101EE0000023832200900599139808F0EBFD01224E
:101EF000049B1A70FEF706FF219808F0E3FDFEF739
:101F00001CFCC0468023DB051868000F7047C046E4
:101F10000FB400B5084883B004F076F8049B002B9A
:101F200007D005A91800019103F042FE034804F010
:101F30006BF8012003F054FE606F0110706F011008
:101F400070B5EFF3108C72B60D4D2B68002BFCD0E2
:101F5000BFF35F8F0724CB08C618C05C01230C4079
:101F6000A3401C000440034207D118433070BFF364
:101F70005F8F2C608CF3108870BD1000FFF7C8FFD6
:101F80002C0100D0F8B54746CE46884680B5EFF321
:101F9000108C72B61C4D2C68002CFCD0BFF35F8FE8
:101FA0009A4222D807210126894602E00132934253
:101FB00018D34D4637001540AF40D4080119045DD1
:101FC0002742F3D110003C430C70BFF35F8F002217
:101FD0000D4B1A608CF3108800280EDBC0BCB9468C
:101FE000B046F8BD01204042EFE7BFF35F8F00230A
:101FF0002B608CF31088012040424346002BEDD02B
:102000000898FFF785FFC0462C0100D0044A1078DD
:10201000431CDBB2172B00D9102313707047C04646
:10202000BC1E002010B5064B064C82B00100009388
:1020300018221F232000FFF7A5FF02B010BDC046E5
:10204000746F01106C5C00200021044B044ABFF344
:102050005F8F02C39342FAD17047C046000100D09F
:10206000800100D0054B064A1360064A1360536096
:102070009360D36013615361936170478080808067
:1020800000E400E004E400E01F2318401E3B83400E
:10209000002905D0C021044A4900535013607047FD
:1020A000802201498B50FAE700E100E001228240E2
:1020B000034B1B6813405A1E9341D8B27047C04669
:1020C00000E100E001238340014A13607047C046ED
:1020D00000E200E0084B10309B688000C358002BE2
:1020E00007D0064A00209B1A2F229A424041C0B2D4
:1020F00070470020FCE7C04600ED00E0C01E002055
:1021000070B50D00EFF3108672B60F4A1368002BFE
:10211000FCD0BFF35F8F0D4B10309B6884001B59C0
:102120000B4A934203D09D4201D000F093FF074B2E
:102130009B681D51BFF35F8FBFF35F8F0022024B7F
:102140001A6086F3108870BD240100D000ED00E015
:10215000CD010010F0B557464E46DE464546E0B587
:1021600085B0060000911700EFF3108B72B66A4A33
:102170001368002BFCD0BFF35F8F0025674B5D57C2
:102180009A46002D00DAA9E06B00654C01935B19BB
:102190009B009846A146C1444B4652469B79103657
:1021A0001370604BB6009B6899590B1B2F2B33D9CA
:1021B0005D4B994200D0ACE0019B42469C465B4B94
:1021C0006544AD0063535A4B0232A218043B9B1A7C
:1021D0001B05584A5B0D651913436B80564B012153
:1021E000AB80FF23AB71009BEF71AB604B460B43A1
:1021F00019004C4B9B689951BFF35F8FBFF35F8F02
:102200000022454B1A608BF3108805B0F0BCBB462A
:10221000B246A946A046F0BD01200A008243D37908
:102220008C46BB4231D84546130044491B1B5B41D9
:102230005943090D3D4B63533D4B02356519043B32
:102240005B1B1B053B4D5B0D2B43AA464D466B802C
:102250000425AC465546E044131F44441B1B1B0594
:102260005B0D1D434B46997100999D8099604946CD
:10227000DF71334B01431360BBE75800C018800087
:102280002018C179B9422FD902000623D356002B5A
:10229000F3DA02932B4B61460393131D9A460423F2
:1022A0005B429C46E14450464B461B1A1B055B0DA6
:1022B0009C46204B95719846634640460343938065
:1022C000019B5A199200039BA418A380029B1C4AED
:1022D000A371009B2260E771A3608AE700F0BAFE59
:1022E000002553465D574FE7908802934005131D24
:1022F0009A46031561469C464046D44463460430E2
:102300002018181AE0230005400D1B021843039003
:10231000C5E700F09FFE4FE7240100D04861002090
:10232000C01E002000ED00E0CD01001000A1FFFF65
:10233000F01E002000E0FFFF01BDFFFFAAAA000081
:102340000148804701BD000070B501240443EFF34C
:102350000581EFF3108C72B6214A1368002BFCD074
:10236000BFF35F8F1F4B05001F4AED1A6D416A4393
:10237000120D1E4D8900AE6852B27658A6421CD08E
:102380000621595691421CD012215956914222D011
:102390001E215956914220D02A2159560324914298
:1023A00010D0134B19781A708171BFF35F8F002220
:1023B0000B4B1A608CF3108870BDAB680D4C5C50F1
:1023C000EFE700246100091989005B18FF2199716A
:1023D00009499980E5E70124F4E70224F2E7C046C1
:1023E000240100D0C01E0020AAAA000000ED00E0D9
:1023F00048610020CD01001001BDFFFF10B5084B62
:10240000084C82B001000093002205232000FFF752
:10241000B9FD002801DB1F23181A02B010BDC04609
:10242000906F01104C610020024B9C466144890072
:10243000016070474000003470B5114C114DAC4242
:102440000FD2FF262368002B0CD0FFF7DFFD010021
:102450002000FFF7E9FFA680BFF35F8F0834AC428E
:10246000F0D370BDFFF7D2FD01002000FFF7DCFFC5
:102470002671BFF35F8F0834AC42E3D3F1E7C04667
:102480005C2600206C26002010B50400FFF7BEFD7E
:1024900001002000FFF7C8FFFF232371BFF35F8F08
:1024A00010BDC04610B504000120FFF7BBFD034B73
:1024B000C3189B002360BFF35F8F10BD4000003442
:1024C000034B9C46614489000160BFF35F8F7047F6
:1024D000400000340A4B1968EFF3108072B60A68A6
:1024E000002AFCD0BFF35F8F1B68BFF35F8F002211
:1024F0001A6080F3108840BF002000217047C0465A
:1025000024610020F0B5DE4657464E464546E0B50C
:1025100087B0EFF305820323012513409D40990006
:10252000B34AB44B54581D60B34B8846A946049334
:1025300029E0A3881BB2002B00DBA5E0A379002BC8
:1025400000D0E6E00823E05E002800DA0FE1430057
:1025500062691B18DB00D3189E68DD68731C00D10C
:1025600011E1A64B190041449A6A0B69B01A9B1AF3
:10257000984200D20E61A14800F030FB8D4200DD90
:10258000F5E000D12BE14B469C4843630823E55E10
:10259000002DCEDB62696B0092465B19DB009A442A
:1025A00053469E68DF6800F019FB8F42C1DC00D102
:1025B0000BE1002F00DAF0E05246534652691B69E6
:1025C0009346049A934200D1E1E052460821605EAE
:1025D000528800045946104398470290039102998B
:1025E000039A0B001000134300D1D6E013000A0039
:1025F000B61A9F41002806DB804800F0EFFA029EE1
:10260000039F36184F4153469E60DF6000229A5E5A
:10261000002A8EDB530099186069C90041180193A4
:102620008B68C9689B46B94200DD82E702D1B3429C
:1026300000D97EE708239C46A4440595654622817F
:10264000A446019B2C0006E053009918C9004118CC
:102650008D68C968AB469B18DB00C318B94206DC1D
:1026600000D1C0E01C000023E25E002AECDA230067
:1026700064469C4653461A806346059D1D80A38888
:102680001BB2002B00DA59E72269EFF3108172B612
:102690001368002BFCD0BFF35F8F0123A7885B4238
:1026A000A3803FB22369BFF35F8F00221A6081F3DA
:1026B0001088002F00DA41E72300083322009A46F1
:1026C00066697B00DB19DB00F318996850468C467D
:1026D0000824115FDD68002910DB019306E0AB429E
:1026E0004DD00023E15E2000002906DB4C00641879
:1026F000E4003419E368AB42F1DD019B0780002060
:102700001F5E1980002FDCDA1400A379002B00D1A2
:1027100018E70023A37126000823E15E08364B1C4E
:1027200025D00800A246656902E03E004B1C1AD085
:102730004B005B18DB00EF180A008C46E95E7B88D3
:102740001BB2002BF1DA01235B42DC17BB60FC609B
:10275000824205D0534631801B893B8053461A8103
:1027600060464B1CE4D15446002800DBEFE640BF36
:1027700007B0F0BCBB46B246A946A046F0BDA36870
:102780006345AED9B9E76B1C00D0EAE6F3E65B46D9
:1027900058461B69984700281BD153461B8822695D
:1027A0002381EFF3108372B611680029FCD0BFF3C8
:1027B0005F8F514662880A8022696580BFF35F8F10
:1027C0000021116083F31088B3E6864200D8F0E65A
:1027D000AFE65B461A685B6802920393FFE68642A7
:1027E00000D8D0E6C3E7B34500D83BE73FE7C04693
:1027F000086100203C7005400525001000400540A0
:1028000070B52E4C2569002D04D00A212C48FFF705
:102810000BFE70BD2B4E0321300000F0D5F9E660B1
:10282000FFF7F4FB284B03229C46D02322701B06A3
:102830001B6801216370254B6044A3600F23800057
:1028400020610220638063694942A18019800231BE
:10285000198647311D83585218315A5275325C39E6
:102860009952183201319952183201319952183265
:1028700001319952083518329D520231183299525D
:1028800018320131995218320131995218320131FE
:1028900099521832013199521832013199520C4B28
:1028A0000C49DC6001303562FFF72AFC012103206E
:1028B000FFF7EAFB084B1D60A7E7C046081F002092
:1028C000246100200040054040000034FFFF10005C
:1028D0000861002005250010386005400048704759
:1028E000081F0020F8B51F0008AB1B780400160075
:1028F000002B08D100F07AF932003B00121A8B410C
:10290000002B00DA52E02269EFF3108072B61368F0
:10291000002BFCD0BFF35F8F0223E15E63694A00A6
:102920005218D2009B182269002936DB1D88658069
:10293000BFF35F8F0025156080F31088069A9E60B4
:10294000DF601A61079A5A615A8801325204520CA8
:10295000101C002A1FD082B2588008041043266938
:10296000EFF3108772B63268002AFCD0BFF35F8F96
:10297000A2881A80A1802369BFF35F8F00221A60AA
:1029800087F310880A4923788C4601329A40E3681D
:1029900063441A60F8BD0120DDE7BFF35F8F0023B9
:1029A000136080F3108801204042F3E70020F1E734
:1029B0003C20000070B501000469EFF3108C72B682
:1029C00020680028FCD0BFF35F8F02200D5E4C69A9
:1029D00068004019C00024180869002D36DB2688DD
:1029E0004E80BFF35F8F002606608CF31088E36093
:1029F00063880498013320615B0405985B0CA26036
:102A000060611A1C002B1FD093B228046280184307
:102A10000A69EFF3108C72B61368002BFCD0BFF379
:102A20005F8F8B8823808D800B69BFF35F8F0022BF
:102A30001A608CF310880B7801329A40CB680849F1
:102A40008C4663441A6070BD0122DDE7BFF35F8FDF
:102A5000002303608CF3108801204042F3E7C04656
:102A60003C20000010B543890A1493421ADD53003C
:102A70009B184269DB00D3180469EFF3108C72B61F
:102A80002268002AFCD0BFF35F8F5A88090494B2F1
:102A9000090C8A4208D00369BFF35F8F00221A60D5
:102AA0008CF31088002010BD8022120214435C8039
:102AB000012302698371BFF35F8F002111608CF3E2
:102AC0001088044902788C469340C2680120624411
:102AD0001360E8E73C20000040787047F0B5CE4630
:102AE000474680B504000D0083B0EFF30583994697
:102AF0000F00002B42D1314EA0463378F0680433EA
:102B00009B00816A1B58601A5B1A984212D320BF3F
:102B10002B4900204B6AAB4207D38A6A5B1B591EC4
:102B20008B4141468A424041184303B0C0BCB9467C
:102B3000B046F0BD00F05AF822002B00121A8B416B
:102B4000002B28DB4B4601931E4B220000933000E4
:102B50002B00FFF72FFF011E1DDD194B5A6AAA42F9
:102B60002AD39B6A9C4225D83000FFF77BFF144A8A
:102B70000020536ABB42D8D3926ACFE710490020A5
:102B80004B6AAB42D1D38A6A5B1B591E8B41A2426E
:102B900040411843C9E70A4A0020536ABB42C4D3E4
:102BA00000204146926A5B1B8A4240415A1E934173
:102BB0001843BAE7AA42D7D120BFD5E7081F0020A3
:102BC00000400540D524001010B5024A0248FFF726
:102BD000B7F910BDAC6F0110705C00200300416AB2
:102BE0000A00986A596A8A42FAD17047034B596AB7
:102BF0000A00986A596A9142FAD17047004005402C
:102C000070B504000D00174A536A1900966A536A9A
:102C10008B42FAD13000190024184D41AB4216D82E
:102C200013D0104B2A005B6A9D4203D90D494B6AB1
:102C30009342FCD3934207D10A4A02E0516A994277
:102C400002D1916AA142F9D370BDA642E9D9054BE0
:102C50005B6A1C005A1CEFD0012201246442E51774
:102C60005242E3E700400540F8B5DE464E4657467F
:102C70004546E0B58B4605000A991800160000F09D
:102C8000EFFA0A9B6C001F02324B64199C46A400A9
:102C90006444636881469F4200D967602B1FDBB2A2
:102CA0009846012B30D9C02380229B01E3181201E2
:102CB0001A60294BAD0059599A4600291BD173015E
:102CC000E026226853401E40802342465B01E31801
:102CD0001E60012A30D9802380229B01E318120153
:102CE0001A6053464A4667605A51F0BCBB46B2462A
:102CF000A946A046F8BD586900F0B2FA0130430079
:102D00001B18033BFDD2DAE75B46012BCBD1C02376
:102D100003229B01E3181A60023AA3681A42FCD00E
:102D20007301E0262268AD0053401E4080230A4A0A
:102D30005B019246E3181E605A4621685140032207
:102D40000A401A6001225B469A40A3681A42FCD0EE
:102D5000C1E7C04600800040745C0020F0B54646E4
:102D60004F46D646C0B51F00344B44009C4624183D
:102D7000A4006444636888461600FF2B02D88023B1
:102D80005B006360031FDBB29A46012B30D9C0237E
:102D900080229B01E31812011A60294B85005959C2
:102DA000994600291BD17301E026226853401E403A
:102DB000802352465B01E3181E60012A30D980232C
:102DC00080229B01E31812011A6080235B0063607C
:102DD0004B465F51E0BCBA46B146A846F0BD5869C3
:102DE00000F03EFA013043001B18033BFDD2DAE746
:102DF0004346012BCBD1C02303229B01E3181A6069
:102E0000023AA3681A42FCD07301E02622688500CA
:102E100053401E4080230A4A5B019146E3181E601E
:102E200042462168514003220A401A60012342466B
:102E30009340A2681342FCD0C1E7C0460080004026
:102E4000745C0020014B8000C0587047745C002007
:102E5000F8B5040021481E0017000D0000F000FA2C
:102E60000100380000F0FCF9069B36041B031E43EA
:102E70002368002B20DB1A4B1A49E3185A1E934192
:102E80008022920194465B421B0B174A1B0363444A
:102E90001360164A13601F000A689743FBD1144B56
:102EA0002560E2182123A06013602368002BFCDA60
:102EB0000823E6601360F8BD3F2322681340AB424D
:102EC000D9D1A3681B051B0D8342D4D1EE22E36840
:102ED000D2021340B342CED1EDE7C046001BB7008B
:102EE0000040FDBF08C0004000E0004000F000408E
:102EF0000430000010B580241C4BE4051C60002841
:102F00001AD001231A4C18431A4BDC611A4C444066
:102F10001C62596298628021144BC90519601748D8
:102F200017490860E021C9041960002A07D18022EE
:102F3000144B12061A6010BD0E4BD861EBE753011B
:102F40009B1A9B009A18802312015B049A4209D2B3
:102F500013000D490B60074B5A608022094BD205C4
:102F60001A60E8E7094B1A00F3E7C04600B00540D5
:102F7000D3C007B0008005402D3FF84FFCFF010093
:102F80000820014000A00540E0600020FFFFFF0096
:102F90008023024A9B000B43D362704700800540A8
:102FA000002310B50100988A1B8B984710BDC046BE
:102FB000162310B50100188802331B88984710BDEE
:102FC000F8B54746CE4680B50F1E18D01423994653
:102FD000043304000025012698464B4618884346D2
:102FE00021681B88984701C4431E9841013506405B
:102FF000AF42F2D13000C0BCB946B046F8BD0126A0
:10300000F8E7C046002370B504000D00988A054912
:103010001B8B984703000020002C01DB0130A040EF
:103020002900984755420000AA23064A1B01136055
:103030002F230549D360054B19605368002BFCDA38
:103040007047C0460040024000B0FA0000600240F5
:103050007047C04610B50148FEF75AFFD06F011007
:1030600070B5074D074EB54209D20024013E761BCC
:10307000B60808CD984723000134B342F9D170BD9A
:10308000006C01103C6C0110054B064A06491A60A1
:10309000064A074B1A6010000B689843FBD1704733
:1030A00000E00040BFCDFBFE08C00040FE7F3C00BA
:1030B00000F00040044BDB6C002B03D18022034B5B
:1030C000D2021A607047C046000011504C201150C7
:1030D000044A054B1A60054A1368DB018033FBD1B3
:1030E0007047C046FFFFFF0100F0004008C00040ED
:1030F0004022034B9A675A671A67DA667047C046E0
:1031000000F0014010B5FEF79FFF10BD70B5044DF3
:10311000044CA968C022200001F0B6F8AC6070BD74
:1031200000ED00E000000020002310B5294C82B023
:10313000A367FFF779FF0122274B1A60636C012B0D
:10314000FCD10322254B1A60224A936B012BFCD140
:10315000013300930121224A22480433FFF778FE0D
:10316000052301210093204A2048FFF771FE002229
:10317000022104201E4BFFF7F1FD00220121052052
:103180001C4BFFF7EBFD0022002107201A4BFFF735
:10319000E5FD002200210820174BFFF7DFFD80230B
:1031A000DB000093002200210920134BFFF75CFD98
:1031B0000022104B00210620FFF7D0FD0420FFF76E
:1031C00041FE0E4900F04CF801000020FFF7E0FE40
:1031D00002B010BD008000403CB0004030B0004064
:1031E000002F685900800240008C864700C00240D2
:1031F000001BB70040597307006CDC0240420F000F
:1032000001480421014B1847201F0020C12F001046
:10321000124A936F9B0815D29066D166002905D09B
:10322000FFE7FFE7FFE7516F106F704704B580219C
:103230000906C2175140002800D0C84313F048FCCB
:10324000002104BDF0B5146E556E576F166FFFF771
:10325000E3FF1466556657671667F0BD000000D09F
:10326000114A936F9B0813D210665166002905D04E
:10327000FFE7FFE7FFE7516F106F704704B50028C5
:1032800001D00020C04313F023FC002104BDC04640
:10329000F0B5146E556E576F166FFFF7E5FF1466A5
:1032A000556657671667F0BD000000D094464A4A3D
:1032B000926F9208624601D228E0C046F0B5464EB1
:1032C000346E756E776F366F00F020F89446424A80
:1032D00014665566576716676246F0BD94463E4AC7
:1032E000926F9208624601D254E0C046F0B53A4E61
:1032F000346E756E776F366F00F04CF89446364A30
:1033000014665566576716676246F0BD002B24DBCE
:1033100011D000293EDA00B5C943404200D1013145
:1033200000F038F8C943404200D10131DB4352423A
:1033300000D1013300BD002AEBD1002801D10029C2
:1033400005D00020C90FC90701D1C043410800B50D
:1033500013F08EFB0022002300BD00B500290ADB1C
:10336000DB43524200D1013300F014F8C94340421C
:1033700000D1013100BDC943404200D10131DB43DE
:10338000524200D1013300F005F8DB43524200D134
:10339000013300BD002923D1002B18D1002A0CD005
:1033A000BC460D4F38667A6600210023FFE7FFE731
:1033B000FFE77A6F386F67467047002801D00748EB
:1033C000010000B513F054FB0022002300BD0200F1
:1033D0000B00002000217047000000D0FFFFFFFF1E
:1033E000002B00D0BFE0130C28D1002AE7D080B416
:1033F000114F39667A66FFE7FFE730B4040C7B6F44
:10340000396F1B0423433B667A66FFE7FFE7FFE75C
:10341000C04684B27B6F3D6F1B0423433B667A66D4
:10342000FFE7FFE7C04600232C042D0C7A6F386FAE
:1034300000196941B0BC7047000000D0F0B5944657
:103440000025140E01D112020835140F01D112010A
:103450000435940F01D192000235D40F01D15200EE
:103460000135D40B0134254F7C66254C3C660E0C8F
:1034700093B2FFE7FFE7FFE73C6F6643360C770345
:10348000BE467343DF0B5B04C01AB941130C734390
:10349000DB18C91ACE086643360CB64493B27343A0
:1034A0001F0F1B01C01AB941130C73431F0B1B05DF
:1034B000C01AB941860D8F023E436643360C092D72
:1034C00024DB520A7243801A7703460A6643360C9D
:1034D00016235B1BDE40DF40BF1964466643821B38
:1034E0007046043506330100D940A840C01900D306
:1034F0000131A24206D20023F0BD0000000000D03E
:10350000FFFFFFFF121B0130F3D3F1E709277F1BF9
:10351000FE406446A2B27243801A00D20139220CE6
:103520007243130C1204821A99410B007046043541
:1035300013370100F940A840801900D30131002B56
:1035400002D1A2420AD2F0BD013000D30131121BD8
:10355000FAD2013BF8D1A24200D2F0BD013000D333
:103560000131121BF7E7F0B51C0C00D080E00CB461
:1035700000251C0A04D11B02160E33431202083523
:103580001C0B04D11B01160F3343120104359C0B95
:1035900004D19B00960F334392000235DC0B02D11D
:1035A00092185B4101351C00971864410134464F65
:1035B0007C66464C3C660E0CFFE7FFE7FFE7C04623
:1035C0003C6F6643360C7703BE4697B27743C01B09
:1035D00000D20139C01B00D201399FB27743C91B09
:1035E000C91B170C77437E04FF0B801BB941CE0823
:1035F0006643360C0C2D33DBB644120B1F053A43E1
:103600001B0B97B27743C01B00D201399FB277439F
:10361000C91B170C77433E043F0C801BB941860D34
:103620008F023E43664329277F1BFE400C3D7746B1
:10363000AF40BF1930BCA2B2ABB272437343801A21
:103640009941220C7243130C1204801A9941020012
:103650000B000137001BA941F9D2781E0021F0BDF3
:103660000C277F1BFE4077467F0BAF40FF19E0E73A
:1036700000245D1C07D0144F7D663966FFE7FFE725
:10368000FFE7FFE73C6F95B29EB265436643401B80
:10369000B141150C1E0C6543664336042F0C3E43A6
:1036A0002D04401BB141994204D202000B002000BE
:1036B0000021F0BD01D19042F7D3801A9941013425
:1036C0009942F2D3F6E70000000000D0FFFFFFFFB1
:1036D00048404140484018B41B4B5B68FC4601938E
:1036E00008BD04DF7F3A001018B4174B1B68FC4676
:1036F000019308BD00DF893A00109446134A926F87
:10370000920809D2624618B40F4BDB68FC4601935D
:1037100008BD0CDF413D00100C4AF0B5146E556E2B
:10372000576F166F6246FFF7EEFF084A146655663C
:1037300057671667F0BD18B4034B9B68FC460193AE
:1037400008BD08DFE53B0010F8270020000000D08E
:10375000FFB550404240504059404B40594000E076
:10376000FFB5154F4C00640D03D0BC4204D10C03CF
:1037700014D80020090D09055C00640D03D0BC427B
:1037800004D11C030AD800221B0D1B0501264B4047
:1037900009D44B4003D58B4200D18242FFBD9942F0
:1037A000FCD19042FFBD0B43DB1803431343F5D01C
:1037B000C9434918FFBD0000FF07000000B5FFF72F
:1037C000CFFF01D0002000BD012000BD00B5FFF7F4
:1037D000C7FF804100BDC04600B5FFF7C1FF01D95A
:1037E000002000BD012000BD00B5FFF7B1FF01D9E9
:1037F000002000BD012000BD00B5FFF7A9FF8041FA
:1038000000BD012040054A00121804D85A001218C1
:1038100001D80020704701207047000000210028D7
:1038200005D17047C1174840401AFAD0C90713B5EF
:10383000064B1B6898470CBC441CA2401005120B99
:103840000349091B09051943114310BD20610020DC
:103850001F04000010B54C00620D8023D218DB005D
:10386000D21A5B057E2A10DD9E3A13DACC170903C3
:10387000490819435242D140640001341532202ACC
:1038800005DAD0400843604310BD002010BD084653
:10389000604310BDC80FC018013810BD18B4044BE8
:1038A0005B6AFC46019308BD24DFF13E0010000076
:1038B000F8270020C94211D300B549004908002269
:1038C00000F018F8002904D4002240428A41114631
:1038D00000BD80210906002000BD000018B4044B83
:1038E000DB6EFC46019308BD6CDFFF3E001000005C
:1038F000F827002018B4044B9B6FFC46019308BDC9
:1039000078DF1B3F00100000F8270020132370B55C
:103910001D78012D19D014DD1F48FFF749FB060063
:103920001E48FFF745FB1E4C80223100200000F0AE
:10393000ABFC022D2DD01B48FFF732FB1A4B186051
:1039400070BD1A4B164CA364F5E7184B144C23605A
:103950006360A360E36023616361A361E361236249
:103960006362A362E36223636363A363E363236429
:103970006364A364E36423656365A365E365236609
:103980006366A366E36623676367A367E367A3646D
:10399000D1E7064BA364CEE7534400005346000032
:1039A000F82700204C330000206100204D3A001021
:1039B000244A4B0094465B0D6344F0B504000D00AF
:1039C0005A1C21DB5A1C35D0342B1CDA3326F61A4C
:1039D0003700203F1CD40121B9400B000121B14028
:1039E0000A0012196B41002F1EDB0224BC4021008B
:1039F0000224B44020001600002544428D41264098
:103A00002B4030001900F0BDCB0F0020D907FAE79A
:103A100020210120891BC8400121B14003000A0078
:103A200012196B41002FE0DA20240225A41BE54087
:103A30002900DDE7CB0F044ADB071A430020110001
:103A4000E1E7C04601FCFFFF0000F03F07B560461C
:103A500001880A0A0230DF2AFAD1C9B2820804D3E7
:103A6000028840880004104300E00068014A50507A
:103A7000039007BDF82700200FB403BC0CBCF0B5C1
:103A80000124E407634000E0F0B50C0DCF0F661E83
:103A90003605891B640503D3C943404200D3013175
:103AA000640D03D0661CF60A07D0E41B00207F00DB
:103AB000791C89078912803C24031D0DDF0F6E1EBF
:103AC00036059B1B6D0503D3DB43524200D3013304
:103AD0006D0D03D06E1CF60A07D0ED1B00227F008F
:103AE0007B1C9B079B12803D2D032F1B661B58D40C
:103AF000A446202E46DA20371400BC401D00BD40ED
:103B0000F24033412A4380185941CB0F05D0C943B5
:103B1000C043002264425041514162464D0D28D1BC
:103B20000D0D07D100281FD0241940414941013A09
:103B30000D0DF9D0640006D3013000D30131002C03
:103B400001D140084000013A0BD4941CE40A04D18E
:103B500012051144DB071944F0BDD907204B194366
:103B600000E0D9070020F0BD0029DDD1002CDBD119
:103B7000F0BD0132C6074008CD0728434908002E92
:103B8000E1D0D9E73C2E29DA203E40371400BC4072
:103B900000D00124F24014431A00BB401C43D31749
:103BA000ACE7AC46202F08DA20360400B4400D0004
:103BB000B540F84039412843A5E73C2F0CDA203FB7
:103BC00040360400B44000D00124F840044308000B
:103BD000B1400C43C117EAE710001900002494E734
:103BE0000000F07FF0B50C0D661E3605891BE60A55
:103BF0006405640D02D0651CED0A04D0002001218B
:103C00000905803C2403A4461C0D671E3F05DB1BF1
:103C1000E70A6405640D02D0651CED0A04D0002299
:103C200001231B05803C24037740644497B484B28D
:103C300096B27443070C7E43150C6F4380B2684301
:103C4000361802D3012000043F183004350C001947
:103C50007D41844688B29AB250430C0C62431F0CDB
:103C60007C438EB27E43921902D301263604A419F6
:103C70001604170C3618674101BC81B29AB2514341
:103C8000040C62431B0C5C4380B25843121802D3ED
:103C90000120000424181004130C401863412D184F
:103CA0005E410020474106BC88B293B258430C0CD9
:103CB0006343120C544389B251435B1802D3012170
:103CC0000904641819041A0C091862416D18564148
:103CD0000020474118BCF902720D1143F0026A0D31
:103CE0001043ED020A0D03D16D1940414941013BDA
:103CF000124E9B1B7600B3420ED26D0007D30130EB
:103D0000002671416646354301D1400840001B053D
:103D1000C918E4072144F0BD0BDA013306D10130A4
:103D200004D101314F0D01D04908F2E7E10700202D
:103D3000F0BD013631050020EBE70000FF03000075
:103D4000F0B51C0D671E3F05DB1BE70A6405640D1B
:103D500002D0661CF60A04D0002201231B05803C19
:103D60002403D0252D060026F6432E661E096E6616
:103D7000CE0FF619B44649004F0D02D07E1CF60A4C
:103D800003D000200021403F3F033E1BB600B44457
:103D9000013F7F05C91B49082E6F013676089C023A
:103DA000950D25437543ED137543AD1301356D1026
:103DB000F603761B0CB4CC02450D2C43A2B2B3B271
:103DC0005A43270C7B43350C6F43A4B26C431B1939
:103DD00002D3012424043F191C041D0CA4187D41A6
:103DE00024196D41009A91B2ACB26143170C7C4327
:103DF0002B0C5F4392B25A43A41802D3012212043F
:103E0000BF182204230C52187B41019C6C431B19E0
:103E1000520ED9010A434401A01A81B2B2B25143F1
:103E200003145A43360C734387B27743D617D2191B
:103E300000277E4136049B191704160C7F185E413B
:103E40007316ED18F301002680337541A90F06D1D2
:103E50006400690AE8055B0A184309D22FE00422CE
:103E6000944480337541A90AA8059B0A184326D3B8
:103E7000404149412404009A019B0D005543641BB5
:103E80004343E41A95B286B27543170C7E43030C84
:103E90005F4392B25A43B61802D301221204BF18EC
:103EA0003204330C52197B4152429C41002C02D403
:103EB0000022013051414008CA071043490802B0AE
:103EC0006246D7079210084BD218084B9A4203D289
:103ED00012058918C919F0BD0020002A01DC39003B
:103EE000F0BD01331905F5E7FD030000FE070000F2
:103EF000002200B5203200F010F8080000BD0022BA
:103F000000B500F00CF8CA179A4200D100BDD843A2
:103F10000121C907414000BD00220B150AD410B58C
:103F2000944600F031F81414013400DA0021CB1764
:103F3000144C20470020002170476244343A0CD4CE
:103F40000C2A07DA04009140904052422032D440BB
:103F5000214310BDD843D94310BD203207D40C46AD
:103F60009440524220321141D040204310BD0800FD
:103F7000C917203203D452422032104110BD18001C
:103F8000190010BD3B3F00100A0DCC0F531E1B053E
:103F9000C91A520503D3C943404200D30131520D1F
:103FA00003D0531CDB0A07D0121B00206400611CE5
:103FB00089078912803A1203014BD21A7047000018
:103FC000FF03000051434343C9188C46110C83B2D0
:103FD0004B4310B4040C614392B280B2504362432D
:103FE0001C041B0C001910BC59411304120CC018FE
:103FF00051416144704700004840414048400E4BE9
:104000005B6818470C4B1B6818470C4A936F9B085A
:1040100002D2094BDB681847F0B5146E556E576F26
:10402000166FFFF7F6FF054A146655665767166761
:10403000F0BD014B9B681847F8280020000000D015
:1040400007B548404140484001E0C04607B542003E
:10405000120E03D0FF2A03D1420218D8C00DC005AA
:104060004A00120E03D0FF2A03D14A020FD8C90D0D
:10407000C9050122414005D4414001D5814207BD17
:10408000884207BD0143491801D0C043001807BD4D
:1040900000B5FFF7DBFF01D0002000BD012000BD0F
:1040A00000B5FFF7D3FF804100BDC04600B5FFF764
:1040B000C7FF804100BD0000C10FC90700D54042C5
:1040C000002817D0F44603B40B4B1B68984706BC76
:1040D00081409E384042803107D20B0607D049000C
:1040E000490AC0051043084360470130F8E7490A10
:1040F0008902F5E77047000020610020034BDB6F69
:10410000FC4618477CDFA14100100000F828002081
:10411000132310B512481C78FEF74AFF0100012C4A
:104120000AD003DD80220F4800F0AEF80E48FEF7FB
:1041300037FF0E4B186010BD0A4C5422200000F0CF
:10414000A3F80B4B6365A365E36523666366A3660B
:10415000E36623676367A367E3672362E361E5E7D9
:1041600053460000F82800204C3300002061002056
:104170007541001007B5604601880A0A0230DF2A3F
:10418000FAD1C9B2820804D30288408800041043DF
:1041900000E00068014A5050039007BDF828002055
:1041A000C30FDB0741000A0E07D0FF2A08D0090918
:1041B000054A8918194340077047190000207047C5
:1041C0000249C918FAE70000000000380000F07F3B
:1041D00070B504000A4E300012F0FAFC20000CF01A
:1041E0005FFA0500300012F03BFC002D05D0054BB6
:1041F0002C199C4201D8280070BD0348FDF788FEA9
:104200005C26002000000420DC6F011070B5050062
:104210000C000B4E300012F0DBFC280021000CF0EB
:1042200049FD0500300012F01BFC002D05D0054BA8
:104230002C199C4201D8280070BD0348FDF768FE88
:104240005C26002000000420DC6F011070B5040023
:10425000054D280012F0BCFC20000CF02BFA2800C1
:1042600012F0FEFB70BDC0465C2600200148042110
:10427000014B1847301F0020C12F0010014B1B6855
:1042800018470000301F0020014B5B6818470000F2
:10429000301F002010B5FFF79BFF10BD10B5FFF7D2
:1042A000D5FF10BD10B5FFF7D1FF10BD9A4200D267
:1042B000885470477047C046F8B55746DE464E46AC
:1042C0004546E0B599460A9B07009A460D9B8846ED
:1042D00093460B9C9B073BD10C9B9C423DD21E1BE3
:1042E0000B9415000C005E442A004B46013521005A
:1042F0002020B847B542F7D1A0460B9C002C20D017
:10430000454636195346321B013C185D29004B4681
:10431000B847002CF6D12B00350098460D9B9B0723
:104320000FD55B46EC1A0C9BA3420AD94646984629
:104330002A004B46310020200134B847013544455E
:10434000F6D32800F0BCBB46B246A946A046F8BD4D
:1043500016001500002CD3D1E0E716001500002C44
:10436000CED1EEE7F0B54546DE4657464E46E0B5BF
:1043700085B09C4610AB1B78149F934698460F9CC3
:10438000129E139DBB074CD4002D42D1B44248D29B
:1043900001233B4099460E9B013B9A46302304E0A3
:1043A000524601341355A64201D9202CF8D14B4670
:1043B000002B00D183E00E9B013B99463023A542A0
:1043C00005D82EE04A4601341355AC4229D0202CA2
:1043D000F8D1FB060CD57B0554D4A64263D0A54288
:1043E00061D0119B102B50D0022B57D0202C32D1F2
:1043F000202301930E9B5A46009303976346029530
:10440000FFF75AFF05B0F0BCBB46B246A946A0462E
:10441000F0BD01233B40994601233B422AD1B442DF
:10442000B9D3FB061CD57B05DBD4002CD5D1119B61
:10443000102B5BD0119B022B6BD0302301240E9AE2
:1044400013704346002B10D17B073ED52B260E9AC6
:10445000631C1655CDE72300013430260E9AD6543E
:10446000202CC5D04346002BEED02D260E9A631C7F
:104470001655BEE74346002B2FD0013DB44200D273
:1044800089E798E7119B102BB2D1BB0637D5202CBA
:10449000AED058230E9A13550134A7E7202CA7D08D
:1044A0002300013407E0631E012CC0D0119A102AAA
:1044B00031D0022AD1D162260E9AD65496E7FB0655
:1044C000CED57B0500D488E78BE723003E0790D547
:1044D00020260E9A013316558BE70C233B405A1EBB
:1044E0009341ED1AB44200D255E764E7BB060ED4FF
:1044F00078230E9A0224137030235370A1E7202CE6
:1045000000D175E778230E9A135501346EE75823CE
:10451000EFE76033EDE70E9AA61E91464E44BA06C9
:1045200002D55822327098E77822327095E7C0465B
:1045300010B5002800D110BD01F01CFDFBE7C046FE
:10454000F0B55746DE464E464546E0B595B0834643
:104550000F00924698461E9A1F9B10001900209E3D
:10456000FFF74FF9002800D0EAE11E981F990122B9
:10457000C54B5242FFF72AF9002800D014E11E98DB
:104580001F990122C14B5242FFF736F9002800D093
:10459000E9E01E981F990022BD4BFFF72DF9002876
:1045A00000D0C8E01E981F990022BA4BFFF70EF901
:1045B000002800D0BFE01E981F9900220023FFF7BB
:1045C00005F9002800D0E4E000230B93229B5B0553
:1045D00000D406260024302307E0172106AA013460
:1045E00052181355013E202C01D0092EF5D81E98E3
:1045F0001F99FFF72FF9A84BF2009B181A685B6808
:10460000050008920993FFF70DF902000B001E98B0
:104610001F99FFF760F8089A099BFFF78CF806903E
:104620000791FFF73BF98146FFF7F8F802000B000E
:1046300006980799FFF74FF80022984B06900791CC
:10464000FFF7DAF8002800D10DE101239C46E14490
:104650004846FFF7E3F802000B0008980999FFF7B6
:10466000BBF8002802D0002399460135002E00D166
:10467000D9E006954D46B94614E006AA944617239C
:104680000A216344280001341F19FEF7E9FD303187
:10469000397028000A21013EFEF7E2FD092D00D8FD
:1046A00017E10500202CE8D14F46069D20240CAED2
:1046B00006AA17239446634499465B46B34606937D
:1046C0000FE04B4628000A210134E618FEF7A0FD52
:1046D0003031280031700A21FEF79AFD051E00D105
:1046E000E4E0202CEDD1069B5E469B460323229AF4
:1046F0001340012B18D1219B002B15D00B9B002BB5
:1047000000D1FDE0219B013B2193202B0CD93023CC
:10471000219A07E0172006A9013409180B55944285
:1047200000D3CCE0202CF5D1229B01940393219B54
:104730000096029322E0229B52460493219B39006B
:10474000039358461E9B1F9C029600930194434678
:1047500000F04AF90400200015B0F0BCBB46B24698
:10476000A946A046F0BD229B5B070FD403224C4B09
:104770002299019203912199009302914346524656
:1047800039005846FFF798FD0400E4E70422454B42
:10479000EEE71E9A1F9B00200021FEF79CFF0123DD
:1047A0001E901F910B9311E7229B54469B0711D13A
:1047B000219B042B0ED9219B55469C465E46043C0A
:1047C00064442A004346013539002020B047A54201
:1047D000F7D1B346344D26002B1F99465B46A346BE
:1047E0001C003200E87843463900013DA0470136FD
:1047F0004D45F6D123005C469B46229B04349B0723
:10480000A9D55346219AE31A9A42A4D95E461500C7
:104810002200434639002020B04753460134E31AB2
:104820009D42F5D897E72800FEF7FCFF02000B0039
:104830001E981F99FEF74FFF0022184B0690079114
:10484000FEF7C4FF0CAE002800D031E706980799A8
:104850000022124BFEF7D0FF002800D028E70123EA
:1048600001359D4324E70022069807990B4BFEF77C
:10487000ADFF002800D0F9E64B46002B5CD10123A8
:104880009C46E144F2E6C046FFFFEFFFFFFFEF7FEB
:1048900065CDCD4165CDCDC1A08301100000E03FC5
:1048A000487001104070011050700110069B5E4668
:1048B0009B460323229A1340012B00D181E0202C38
:1048C00000D131E70B9B002B27D02D23335501342A
:1048D0002AE74F46069D202C00D1E7E63022331907
:1048E00007E0172006A9013409180A55202C00D129
:1048F000DCE6A342F5D12E220CAE0134F254D7E609
:104900000C23229A134257D0219B013B2193A342AF
:1049100000D9FCE6202C00D106E7229B5B0703D5DB
:104920002B2333550134FFE6229B1B0700D4FBE603
:10493000202333550134F7E6DB0700D496E69EE7E3
:10494000229B55469B0711D1219B032B0ED9219BFE
:1049500054469C465E46033D65442200434601346E
:1049600039002020B047AC42F7D1B346B9465F4684
:104970001C4EEC1C2A00B078434649460135B84726
:10498000013EAC42F6D1229BBB464F469B0700D46A
:10499000E1E65346219AE31A9A4200D8DBE65E46E6
:1049A00015002200434639002020B0475346013409
:1049B000E31AAB42F5D3CEE6219BA34200D9A6E68B
:1049C000B2E6219B002B00D179E70B9B002B97D0FF
:1049D000219B013B21939C4200D298E6202C00D0E1
:1049E00073E7A1E64C700110F0B5DE4657464E461F
:1049F0004546E0B599B081468B4692469846229A44
:104A0000239B10001900FEF7FCFE002800D0CAE02E
:104A1000229823990122824B5242FEF7EDFE002894
:104A200000D0C0E02298239901227E4B5242FEF72B
:104A3000CDFE002800D0B6E0229823990022002362
:104A4000FEF7C4FE002800D0C9E1229B239C0893F6
:104A50000994089809998023269ADB001A400D9240
:104A60008022269C1201144022000B94269C0700F1
:104A70000E001C4200D0ADE00B00034300D0D5E097
:104A8000002A00D00AE222000633249302231340B6
:104A90000C930223134200D002E2259B042B00D288
:104AA0000FE2043B0B93002304250A930022229873
:104AB00023990023FEF78AFE002800D003E25A4B18
:104AC000269A134004930B9B0393249B0293089B09
:104AD000099C009301945946434652464846FFF7C5
:104AE0002FFD02002020269B1F27034059424B41E7
:104AF0005B421840531C0893594643464530C8470B
:104B00000A9AD317D4185C40D30F0A936B1E0B93E9
:104B100008AB9C460025674401E0202D0FD0200003
:104B20000A21FEF79DFB01357E19303131702000DE
:104B30000A21FEF795FB26000400092EEDD8052377
:104B400006930B9B59460593002304930A33039362
:104B50000A9B4846029310AB0093089A434601957E
:104B6000FFF700FC0C9B002B2DD05346C41A259B4D
:104B7000A34228D94D465F4681461E005346390060
:104B80001A19202043460134A847A642F6D85346B6
:104B900048462599C21A01320023914200D386E18A
:104BA000013018180FE0269B0493259B0393249B48
:104BB0000293229B239C00930194434652465946FC
:104BC0004846FFF7BDFC19B0F0BCBB46B246A9464B
:104BD000A046F0BD01432BD10B9B2200002B00D13E
:104BE00054E700230A93249B0A9A0024934200DD91
:104BF00085E12298239900220023FEF7E7FD002893
:104C000000D035E1269B084A02941A408023DB003D
:104C100013430493259B0393089B099CCBE7C04651
:104C2000FFFFEF7FFFFFEFFFFFF7FFFF0623249358
:104C3000B44B70009C46400D6044FEF7F3FDB24A51
:104C4000B24BFEF778FDB24AB24BFEF74DFD36038C
:104C5000B14B360B334304000D003800190000221D
:104C6000AE4BFEF738FDAE4AAE4BFEF764FD0200D8
:104C70000B0020002900FEF737FDFEF7EBFD0A9040
:104C8000FEF7D0FDA84AA94B04000D00FEF753FD26
:104C90000022A74BFEF728FDFEF7DCFDA54A060023
:104CA000A54B20002900FEF746FD040030000D0052
:104CB0000C96FEF7B7FDA14AA14BFEF73CFD0200A2
:104CC0000B0020002900FEF706FD02000B00060085
:104CD0000F00FEF730FD320004000D003B003000F5
:104CE0003900FEF701FD00220E900F91954B200038
:104CF0002900FEF702FD0022934BFEF7F5FC0200AF
:104D00000B0020002900FEF7F8FC00228F4BFEF775
:104D1000EBFC02000B0020002900FEF7EEFC0D006A
:104D20008021040032003B000020C905FEF7D3FCBF
:104D300002000B0020002900FEF7D6FC02000B0049
:104D40000E980F99FEF7D9FC0022734BFEF7CCFCAE
:104D50007F4B0C9C9C46644400222305FEF7EBFC31
:104D600006000F0002000B0008980999FEF72EFDBF
:104D700000280AD00A9B3000013B39000A93002228
:104D8000714BFEF7BAFC06000F000A9A330063323B
:104D90003900C62A12D802222698042510400B9A00
:104DA0000C90002A25D1259B042B05D9002800D082
:104DB000A1E0259B043B0B93042541E002222698A9
:104DC00010400B9A0C90002A12D1259B052B76D906
:104DD000002872D1259B0525053B0B9334E08022EA
:104DE00012069446229B0893239B6344099330E662
:104DF00005250B4300D1F6E608980999554A564B0C
:104E0000FEF7F2FC002808D0089809990022534BBD
:104E1000FEF7DCFC002800D0E5E6249B002B1CD02C
:104E20000D9B002B19D0249B013B2493259BAB4267
:104E300004D90C9B002B5AD002230C9300230B9314
:104E40000A9B002B00D131E60898099932003B00FB
:104E5000FEF753FC0890099128E6259BAB42EDD95B
:104E60000C9B002B43D000230B9302330C93E7E7FA
:104E70008020269B3A4A00061A40802384460294EA
:104E8000089C099D2900DB0013430493259B614482
:104E9000220003930B00009201938EE60524A8E6FE
:104EA00000230B930A93023304250C93FEE553462B
:104EB0008C46013B63441B1A72E602230C930525C2
:104EC000C2E70423EDE58020089E099F0006390013
:104ED0008446269A224B6144134004930B9B320074
:104EE0000393249B02930B0000920193F3E5259B0F
:104EF0005B1B0B93A4E7022304250C93A0E79C1AE9
:104F0000013C76E601FCFFFFFB799F501344D33F41
:104F1000B3C8608B288AC63F0000F03F0000F83F0E
:104F200061436F63A787D23F71A379094F930A400A
:104F30000000E03F1655B5BBB16B0240EF39FAFEF9
:104F4000422EE63F00002C400000244000001840A4
:104F5000FF0300002D431CEBE2361A3F80842E41F4
:104F6000FFF7FFFFF0B5DE4657464E464546E0B533
:104F7000A5B01E002E9B92460C93CD4ACD4B804689
:104F80008B461A60002900D1EAE100233078994667
:104F9000002800D1ECE1C84B4C460B93C74B45466B
:104FA00057460E930AE0631C984622003B00594680
:104FB000A84744463078002800D187E001362528EC
:104FC000F1D108239A46043B9946023B9846013B9F
:104FD00000229C460D943078711C0300203BDBB20C
:104FE000102B03D80B9C9B00E3589F460300303BDB
:104FF00089460D9C092B3AD9002398462A2800D1CE
:10500000C1E000239A462E284BD00300683BDBB258
:10501000122B1ED80E999B00CB589F4663460E005C
:105020001A43D8E743460E001A43D4E74B460E0016
:105030001A43D0E710230E001A43CCE753460E0064
:105040001A43C8E780235B001A43FF3B9C467078F5
:10505000E1444E4667284FD82428A4D90300253BB5
:10506000DBB2422B9FD896499B00CB589F4600232A
:1050700094461E0000E00131B3009B195B001E182E
:105080000878303E0300303B092BF4D901236246F7
:1050900089469C460023B0469A460E00E1442E28DD
:1050A000B3D13021802049428C46C0000243707841
:1050B0004B4684446146092900D86CE12A2800D176
:1050C0007AE101239C464E46E1449EE7A146A8466C
:1050D000BA46CA4503D801235B4253449946534616
:1050E0004A4659460020C047200025B0F0BCBB46C8
:1050F000B246A946A046F0BD0300693BDBB20D9362
:105100000F2B00D94FE7012199408C466D49894604
:1051100061464B4619400F91634649460B4200D009
:1051200028E10D9B0A2B3AD0072B00D03BE70C9BC4
:10513000190008C98846002B00D14BE12120024309
:10514000914614A98C461F220F2162448C46514679
:105150000D950C91A24615000F9902E020290CD064
:10516000130064461C4020003730092C00D8073853
:10517000013168541A090F2BF0D80C9B54460D9D31
:105180009A460F9133E10C9B02CB8846002947DBFE
:105190000C9301239C4670784E46E14431E70C9B0A
:1051A00002CB14935346002B00D138E19C4608787B
:1051B0000B000C908C44002801D100F098FC89462B
:1051C0006146944603E05A780133002A01D08B42AD
:1051D000F9D1494662465B1A0C900F93530500D5EE
:1051E00020E10223180010400D90134200D1CBE3C0
:1051F0000D930B1BB1469A465E460C9822003B006D
:105200003100A84753460134185D0028F6D1B34653
:105210004E460D9B002B00D0C7E1149B0C93C9E6B2
:105220000C9301239C4628384942024388467078F3
:105230004E46E144E5E670786C2800D17FE180239A
:105240005B001A43FF3B9C46E14402E780239B003E
:105250001A4301239C467078E144FAE67078682886
:1052600000D173E180231A437F3B9C46E144F0E682
:10527000672800D103E1472800D15AE1452800D131
:105280005AE10492072142460C9B0392073352468F
:105290008B43190002920CC92800009201930C91D3
:1052A00022003B005946FFF79FFB040082E6C04600
:1052B000654F0010DC60002004820110488201105C
:1052C0009482011041900000462800D1DBE0049256
:1052D000072142460C9B0392073352468B43190029
:1052E00002920CC92800009201930C9122003B000D
:1052F0005946FFF725F904005CE6631C9846220036
:105300003B0059462520A847444653E60C9B0433EE
:105310000D93631C9946920700D422E10C9B220056
:10532000187859463B00A84743464444012B00D80F
:1053300085E23300B8462E005F4625004C4699466C
:1053400022004346013439002020B047AC42F7D157
:105350002C00BB46350047464E460D9B0C9329E674
:10536000DB4B3078984600239946002800D012E69F
:105370000024AEE66F2800D188E000D80BE31023AC
:10538000782800D1CFE09A430A239C4600230F934C
:105390000A330D9380E05646B10089194900013364
:1053A0000E181878303E010030390929F4D9B24678
:1053B0001E000133994628E60C9B023602CB8A4632
:1053C000C9435046C917084082460C933078731C75
:1053D00099461AE61023100098431133184381466A
:1053E00080201300C0000340024200D1A9E64B46D2
:1053F0000693082305935346049310230393002335
:1054000002930F9B220001931CAB009359463B0073
:105410002800FEF7A7FF434604000C93CAE50123CA
:105420005B42C3E60F9B534501D953460F930223BA
:10543000180010400D90134200D1B7E10D93D146F2
:105440000B1B9A463300A1442E0022004D460C98B7
:10545000B9465F469B4608E04B463900541CB047AE
:105460005346185D002877D022009542F4D15B4660
:10547000BB464F46A94635004C461E00C9E6802370
:105480001B011A43FDE620231A4320E708239C460C
:1054900000230F9308330D9380231100DB00194084
:1054A0001A4200D116E10D239A4310008023020016
:1054B0009B001A401492184200D0C2E180230200DF
:1054C0005B001A4091460C9A04320F92184200D0A9
:1054D000B7E2430600D59FE1030600D419E30C9B15
:1054E0001B880993002B00D0FCE11033984300295E
:1054F00000D1F7E1002399464346059353460493B0
:105500000D9B069003930023D2E0582808D0622810
:1055100067D102239C4600230F9302330D93BBE710
:1055200020231A43103B9C4600230F9310330D9306
:10553000B2E780231B011A4320231A43A1E6C023AC
:105540009B001A43F31C9946B07882E5C0231A43A6
:10555000F31C9946B0787CE535005E46BB464F4665
:1055600057E64346012B00D863E1631E43449A4645
:105570003300B9462E005F4655469B46A2462200A0
:105580004B46013439002020B047AC42F7D13500FA
:105590005E46BB464F46A14654460C9B4A46187889
:1055A00059463B004444A847D7E6A1460F9B98457F
:1055B00000D832E64444E41A3300B8462E005F4671
:1055C00025004C46994622004346013439002020EC
:1055D000B047AC42F7D12C00BB46350047464E469B
:1055E0001BE680231000DB0018401A4200D10FE1B7
:1055F000112118008A430D920D9A802311009B00FF
:1056000019408C461A4269D1802311005B00194071
:1056100089460C9904310F911A4200D0CAE1130057
:105620005B0600D5F0E013001B0600D459E20C9B8A
:1056300000229B5ED9175A184A4092B2D90F0C919A
:10564000002B00D1F9E1100014AA944642461F2312
:10565000149252466344A84616944D460400B94637
:10566000B2461F00159201E0202D0FD020000A2124
:10567000FDF7F6FD01357E193031317020000A2129
:10568000FDF7EEFD26000400092EEDD8149B4F46D1
:10569000A94645469846159B56469A46169C0D9B2C
:1056A000069343460593534604930A2303930C9BA6
:1056B00002934B4601931CAB2200009359463B00DA
:1056C0002800FEF74FFE0F9B04000C9372E4C046C7
:1056D000B54200100C239A431000E7E607220C9B0A
:1056E00007339343013294469C4462460C920CCBA0
:1056F000D90F0F911100194300D191E0D9171391DF
:10570000129151401091139959401191109811998B
:10571000129A139B801A99411090119114AA002398
:10572000944642469946149252461F336344A84613
:10573000B24616944E46109C119DB94615921F0014
:1057400001E0202E10D0200029000A220023FDF7BE
:10575000C5FD013630322B00BA550D002200040081
:10576000002BEED1092AECD8149B109411954546D4
:105770009846159B4F46B14656469A46169C0D9B39
:10578000069343460593534604930A2303930F9BC2
:1057900002934B4601931CAB2200009359463B00F9
:1057A0002800FEF7DFFD0400FFF704FC0F9B98457F
:1057B00000D8C1E18023DB000D9343460F9A1B19EB
:1057C0009B1A994633002E004D46B9465F469B46CC
:1057D0000C9122004B46013439002020B047AC42E6
:1057E000F7D143460C9901330F930B7835000C9396
:1057F0005E46BB464F46002B00D10EE50D9B002BAD
:1058000000D1F6E4002319E60C9B1B781A0015E77B
:1058100010239A430D92EFE60C9B1B78099361E6E7
:10582000002399460028AAD1002200231092119348
:1058300074E70C9B2200187859463B00A8474C4659
:105840008BE50C9AFA3BFF3B07329A4301339946AA
:1058500091444B460C931368526815921A4306D133
:105860001032904300220992002900D081E0612289
:10587000810600D54122D2B20A9214AA91460A9A10
:1058800000210A3A149242461792524618925A46FA
:105890000991B3461F311E000F9B4944BA46199423
:1058A0001A950024674698468946159D16901B92C6
:1058B0000AE03032D2B24B4601341A55A8454AD0DC
:1058C000202C4AD006000D003A00002330002900A9
:1058D000FDF704FDD2B2092AEBD9149B9C46624421
:1058E000D2B2E8E76123820600D54123DBB20A3B4E
:1058F0000C93434614A91F228C46159353466244C9
:10590000A046B2464C461797A9461700099D0D9E22
:105910001490169308E03033DBB201343B55B542A6
:105920000ED3202C0CD0050031002800FDF798FC88
:10593000CBB20929EFD90C9A94466344DBB2ECE769
:10594000159B4D46A14644469846169B56461498CC
:105950009A46179FD0E5B742B2D9179B574698464B
:10596000189B5E469A461B9B09949B461698199C69
:105970001A9D43460593534604930D9B069003934B
:1059800000230293099B05E70F9B984500D914E774
:1059900001330F932DE41023110099430D916928D1
:1059A00000D0BAE080231000DB0018401A4200D17A
:1059B00022E61DE60C9B1B68DA0F1100002B00D1BC
:1059C0008CE0DA179818504014AA914642461F23DB
:1059D000149252464B44A046A946169704006546C9
:1059E000B2461F000C91159201E0202D0FD020002F
:1059F0000A21FDF735FC01357E1930313170200068
:105A00000A21FDF72DFC26000400092EEDD8149B79
:105A1000444698460C9BAC461900159B56464D468D
:105A20009A46169F0D9B0291069343460593534653
:105A300004930A23039363463CE6002800D02EE635
:105A400002E60C9B1B689946002B03D11033984348
:105A5000002938D16123820600D54123DBB20A3BFD
:105A60000C9343461693534614A91F228C46179352
:105A70002B006244A0464D46B2461897994617003F
:105A8000149C0D9E159008E03033DBB201343B5579
:105A9000B5420ED3202C0CD0050031002800FDF7B4
:105AA000DFFBCBB20929EFD90C9A94466344DBB2F1
:105AB000ECE7169B149444469846179B56464D4671
:105AC0009A461598189F43460593534604930D9B99
:105AD0000690039300230293149BEBE50028A1D1C9
