:020000041000EA
:1000000000B5324B212058609868022188439860DF
:10001000D860186158612E4B002199600221596106
:100020000121F02299502B49196001219960352056
:1000300000F044F80222904214D00621196600F024
:1000400034F8196E01211966002018661A6600F04E
:100050002CF8196E196E196E052000F02FF8012189
:100060000842F9D1002199601B49196000215960AB
:100070001A491B48016001219960EB211966A021F2
:10008000196600F012F800219960164914480160C1
:100090000121996001BC002800D000471248134993
:1000A000086003C880F30888084703B5996A0420EC
:1000B0000142FBD001200142F8D103BD02B5186610
:1000C0001866FFF7F2FF186E186E02BD00000240BE
:1000D000000000180000070000035F00212200005C
:1000E000F4000018222000A00001001008ED00E03C
:1000F00000000000000000000000000074B24E7A12
:1001000000200420F7010010C3010010C5010010F9
:10011000C1010010C1010010C1010010C101001097
:10012000C1010010C1010010C1010010C701001081
:10013000C1010010C1010010C9010010CB01001065
:10014000CD010010CD010010CD010010CD01001037
:10015000CD010010CD010010CD010010CD01001027
:10016000CD010010CD010010CD010010CD01001017
:10017000CD010010CD010010CD010010CD01001007
:10018000CD010010CD010010CD010010CD010010F7
:10019000CD010010CD010010CD010010CD010010E7
:1001A000CD010010CD010010CD010010CD010010D7
:1001B000CD010010CD010010CD010010CD010010C7
:1001C00000BE00BE00BE00BE00BE00BEEFF3058054
:1001D000103800BEF2EB8871C4060310E406031069
:1001E0003802001090A31AE71E481F49086006C88D
:1001F00081F3088810471D480068002801D019487D
:10020000F3E70DA40ECC002902D000F012F8F9E7B4
:100210001749184A002000E001C19142FCD116495B
:100220008847164988471649884700BEFDE701C937
:1002300001C29A42FBD37047E4060310C0000020BD
:10024000F81700201C1E03100000042000000420EA
:100250001C1E0310001004200010042000000000E9
:10026000704700000000000008ED00E0000000D032
:10027000F8170020D8B30020B93B001099080010EF
:10028000793B0010F8B5C046044B10B5002B03D0E5
:100290000349044800E000BF10BDC0460000000054
:1002A00074B3002010E301107047C0467047C04689
:1002B0000300202916D0426F002A13D080698142A2
:1002C00012D0012A0ED0586B814214D0022A09D0D4
:1002D000186D814211D0032A04D0DA6E00208A42C0
:1002E0000DD070470020FCE70022D000801A80006B
:1002F00004301818F5E70122F7E70222F5E7032298
:10030000F3E7C0460300202923D0AC228258002AFC
:100310001FD0806981421ED0012A1AD0586B8142B9
:1003200020D0022A15D0186D81421DD0032A10D08A
:10033000D86E81421AD0042A0BD0882018588142E6
:1003400016D0052A05D0A4229A5800208A4211D03E
:1003500070470020FCE70022D000801A80000430A3
:100360001818F5E70122F7E70222F5E70322F3E781
:100370000422F1E70522EFE7E02282580300002A79
:1003800023D0B0201858814221D0012A1DD0B4209A
:100390001858814220D0022A17D0B820185881421C
:1003A0001CD0032A11D0BC201858814218D0042A2E
:1003B0000BD0C0201858814214D0052A05D0C42281
:1003C0009A5800208A420FD070470020FCE7002294
:1003D00032329200D058F7E70122F9E70222F7E71C
:1003E0000322F5E70422F3E70522F1E79822825879
:1003F0000300002A15D0806F814214D0012A10D04A
:10040000D86F814214D0022A0BD080201858814224
:1004100010D0032A05D084229A5800208A420BD09B
:1004200070470020FCE7002222329200D058F7E704
:100430000122F9E70222F7E70322F5E770B5456FDD
:1004400004000E00002D38D08369202B1ED0012D12
:1004500033D0636B202B20D0022D2ED0236D202B88
:1004600023D0032D29D0E36E0025202B01D02800B6
:1004700070BD3100206F1BF0CDFD03230028F6D1A5
:10048000DD00ED1AAD0004356519F0E7C0691BF019
:10049000C1FD0028DBD10023F2E73100A06B1BF087
:1004A000B9FD0028D8D10123EAE73100606D1BF0C7
:1004B000B1FD0028D5D10223E2E70025D7E7C046E9
:1004C000AC2370B5C55804000E00002D56D08369CA
:1004D000202B3CD0012D51D0636B202B3ED0022D20
:1004E0004CD0236D202B41D0032D47D0E36E202B21
:1004F0000ED0042D42D08823E358202B15D0052D93
:100500003CD0A423E3580025202B17D0280070BD31
:100510003100206F1BF07EFD0028EAD10323DD00AF
:10052000ED1AAD0004356519F0E76C333100E05881
:100530001BF070FD0028E2D10423F0E78833E05877
:1005400031001BF067FD05230028DFD1E7E7C06914
:100550001BF060FD0028BDD10023E0E73100A06B57
:100560001BF058FD0028BAD10123D8E73100606D97
:100570001BF050FD0028B7D10223D0E70025C5E7C6
:10058000F0B5C64600B584B006000C000CF012FBB6
:10059000BB4B010018000CF07DFA30000CF0AAFBF8
:1005A00030000CF0A5FB06F00FFD0700A06803F07B
:1005B0005CF9051C380003F058F9B249071C281CE7
:1005C00003F001F9291C03F0E7F8011C381C03F0C3
:1005D00047F9002800D0F6E030000CF089FB0368F2
:1005E000DB6A98470700E06803F03FF9051C380014
:1005F00003F03BF9A349071C281C03F0E4F8291C6D
:1006000003F0CAF8011C381C03F02AF9002800D0B6
:100610002CE130000CF06CFB03689B6B98470700E3
:10062000206903F022F9051C380003F01EF99549F2
:10063000071C281C03F0C7F8291C03F0ADF8011CA7
:10064000381C03F00DF9002800D006E101AD0022AE
:10065000310028000CF012FB23685800C0188000FD
:1006600003F003F9071C686803F0FFF8854980462A
:10067000381C03F0A8F8391C03F08EF8011C404622
:1006800003F0EEF8002800D0DEE00422310028005C
:100690000CF0F4FA606903F0E8F8071C686803F0EE
:1006A000E4F878498046381C03F08DF8391C03F0D3
:1006B00073F8011C404603F0D3F8002800D0BAE0DC
:1006C0000122310028000CF0D9FAA06903F0CDF81E
:1006D000071C686803F0C9F86A498046381C03F0B3
:1006E00072F8391C03F058F8011C404603F0B8F8C2
:1006F000002800D096E00222310028000CF0BEFA5B
:10070000E06903F0B2F8071C686803F0AEF85D49D1
:100710008046381C03F057F8391C03F03DF8011CE3
:10072000404603F09DF8002800D072E0032231001B
:1007300028000CF0A3FA606A03F097F8071C6868B9
:1007400003F093F84F498046381C03F03CF8391CFD
:1007500003F022F8011C404603F082F800284FD134
:100760000522310028000CF089FA66687601300015
:1007700003F07BF8071C686803F077F84149051C13
:10078000381C03F020F8391C03F006F8011C281C63
:1007900003F066F8002828D1226A636920699B1853
:1007A0002268C01A53009B189B00C01A801B03F0DC
:1007B0005CF88A21C90503F053F800280CD104B075
:1007C00080BCB846F0BD92222F4930480CF062F947
:1007D00001222F4B1A70FFE6D8222B492D480CF02E
:1007E00059F901222A4B1A70E9E792222649274833
:1007F0000CF050F90122264B66681A707601CBE79F
:100800009222214921480CF045F90122204B1A700F
:10081000A6E792221C491D480CF03CF901221C4B12
:100820001A7083E79222184918480CF033F9012214
:10083000174B1A705FE79222134914480CF02AF9FB
:100840000122134B1A703BE792220F490F480CF01C
:1008500021F901220E4B1A7017E792220A490B4820
:100860000CF018F901220A4B1A70EFE692220649A1
:1008700006480CF00FF90122054B1A70C9E6C04674
:1008800010E301108FC2F53C3CE30110B0E301100E
:10089000CDB30020F8E30110F0B5DE4645465746DB
:1008A0004E46E0B5EE4C0026A5440CF053FCED4B53
:1008B00031AD9B46EC4B63AC9846EC4B2293EC4B32
:1008C0000993EC4B0393EC4B2393EC4B0493EC4BCD
:1008D0000593EC4B0693EC4B0793EC4B0A93EC4BD4
:1008E0000893EC4B1A93EC4B0B93EC4B1393EC4BA0
:1008F0001493EC4B1B93EC4B1593EC4B1C93EC4B70
:100900000C93EC4B0D93EC4B0E93EC4B0F93EC4B89
:100910001693EC4B1D93EC4B1793EC4B1E93EC4B47
:100920001893EC4B1F93EC4B2093EC4B1993EC4B2F
:100930002193EC4B1093EC4B1193EC4B1293EC4B3B
:100940002493EC4B2593AC239A465B461E604346AA
:1009500022981E600CF09EF8099B6E671E70039B28
:1009600020001E70239B2B609823EE5008F03CF96A
:100970006A6F002A01D100F0A3FDAB69092B00D1F9
:10098000CDE3012A01D100F0FFFB6B6B092B00D1F5
:10099000C5E3022A00D1F7E32B6D092B00D1BEE39A
:1009A000032A00D1F0E3EB6E092B00D1B7E3092154
:1009B00004980CF06FF8042105980CF06BF80123F3
:1009C000E22208991A9800960CF064F80122039B21
:1009D00020001A7009F0FEFE6A6F002A01D100F0B3
:1009E000FEFBAB69722B00D191E3012A00D19EE39B
:1009F0006B6B722B00D18AE3022A00D197E32B6D37
:100A0000722B00D183E3032A00D190E3EB6E722BAB
:100A100000D17CE3722104980CF03CF80421059885
:100A20000CF038F80123E5220899139800960CF091
:100A300031F80122039B20001A7008F0CBFA6A6F8C
:100A4000002A00D19DE3AB69192B00D157E3012A9D
:100A500001D100F0A1FC6B6B192B00D14FE3022AEE
:100A600001D100F099FC2B6D192B00D147E3032A2B
:100A700001D100F091FCEB6E192B00D13FE319215D
:100A800004980CF007F8042105980CF003F80123F2
:100A9000E62208991B9800960BF0FCFF0122039BAD
:100AA00020001A7008F076FF6A6F002A01D100F06A
:100AB0009EFCAB691B2B00D119E3012A01D100F088
:100AC00043FC6B6B1B2B00D111E3022A01D100F018
:100AD0003BFC2B6D1B2B00D109E3032A01D100F055
:100AE00033FCEB6E1B2B00D101E31B2104980BF0B0
:100AF000D1FF042105980BF0CDFF0123E8220899CE
:100B00001C9800960BF0C6FF0122039B1A700C99EB
:100B10000D984B780A781B0213438A788946120491
:100B20001A43CB78B0211B061343C90199440CF03A
:100B30005DF8494603002A002000019600960BF05C
:100B400067F8C42399464A46E36E2000A3500BF091
:100B50003BFA36220F23269227930CF02BF8664B94
:100B60009C46A82360449B00299328900CF022F80F
:100B7000624B26A99C46A0239B012B9394232E9382
:100B8000D2239B002F9380232C93403B2D934B46E5
:100B900060442A90E058FFF7F3FC20000BF092F835
:100BA0000122099B1A705B46039A1B681178012287
:100BB000002901D10022013359460B6043461B68CE
:100BC0000E989B18424613600BF064FF099B2800A7
:100BD0001E70039B1E700F9B23605346E650E0235C
:100BE000E65007F027FA5346E258002A01D100F0F8
:100BF0005FFCA369032B00D171E2012A01D100F04F
:100C000028FC636B032B00D169E2022A01D100F0BA
:100C100020FC236D032B00D161E2032A01D100F0F7
:100C200018FCE36E032B00D159E2042A01D100F035
:100C300010FC8823E358032B00D150E2052A01D190
:100C400000F007FCA423E358032B00D147E2032163
:100C500004980BF01FFF062105980BF01BFF4FE0D7
:100C60008CFDFFFFC41B0020C01B002054E40110BA
:100C7000CEB30020CDB30020301E02107CE4011062
:100C8000B0E40110C4E40110F4E401100D6A001096
:100C90003CE3011018E50110196C001088E5011003
:100CA000F56C0010CCE501104D6D001034E601101C
:100CB000601E0210CC4B002090E601104C1E02106A
:100CC000B1680010B8E60110516B0010F8E6011091
:100CD0001D6C00103CE7011080E70110096A00104C
:100CE000C8E7011070A50210CC1B00200CE8011011
:100CF00020E8011038E8011088380000E8350000CD
:100D00008522012308991D98520000960BF0C2FE1F
:100D10000122039B28001A7009F05CFD5346E2583B
:100D2000002A00D1C1E3A369722B00D1CFE1012ACF
:100D300000D15FE3636B722B00D1C8E1022A00D1BE
:100D400058E3236D722B00D1C1E1032A00D151E396
:100D5000E36E722B00D1BAE1042A00D14AE3882362
:100D6000E358722B00D1B2E1052A00D142E3A4235B
:100D7000E358722B00D1AAE1722104980BF08AFE8D
:100D8000062105980BF086FE0C2201230899139882
:100D9000FF3200960BF07EFE0122039B28001A70A2
:100DA00007F0F0FF5346E258002A00D14EE3A36952
:100DB000112B00D183E1012A00D196E2636B112B44
:100DC00000D17CE1022A00D18FE2236D112B00D1EA
:100DD00075E1032A00D188E2E36E112B00D16EE1A8
:100DE000042A00D181E28823E358112B00D166E167
:100DF000052A00D179E2A423E358112B00D15EE14A
:100E0000112104980BF046FE062105980BF042FED6
:100E10008622012308991E98520000960BF03AFE94
:100E20000122039B28001A700AF036F95346E25853
:100E3000002A00D185E2A369162B00D137E1012AEF
:100E400000D123E2636B162B00D130E1022A00D1DE
:100E50001CE2236D162B00D129E1032A00D115E2F3
:100E6000E36E162B00D122E1042A00D10EE2882382
:100E7000E358162B00D11AE1052A00D106E2A4237B
:100E8000E358162B00D112E1162104980BF002FE54
:100E9000062105980BF0FEFD0E22012308991F98EC
:100EA000FF3200960BF0F6FD0122039B28001A701A
:100EB00007F084FE5346E258002A00D112E2A369EB
:100EC000092B00D1EBE0012A00D1B0E1636B092BC3
:100ED00000D1E4E0022A00D1A9E1236D092B00D161
:100EE000DDE0032A00D1A2E1E36E092B00D1D6E0B8
:100EF000042A00D19BE18823E358092B00D1CEE0DE
:100F0000052A00D193E1A423E358092B00D1C6E0C0
:100F1000092104980BF0BEFD062105980BF0BAFDDF
:100F20008722012308992098520000960BF0B2FD09
:100F30000122039B28001A7008F0B0FF5346E258C4
:100F4000002A00D19FE1A369062B00D19FE0012A6E
:100F500000D147E1636B062B00D198E0022A00D153
:100F600040E1236D062B00D191E0032A00D139E145
:100F7000E36E062B00D18AE0042A00D132E18823F7
:100F8000E358062B00D182E0052A00D12AE1A423F0
:100F9000E358062B7BD0062104980BF07BFD06213D
:100FA00005980BF077FD10220123FF320899219854
:100FB00000960BF06FFD0122039B1A701099119897
:100FC0004B780A781B0213438A78894612041A4325
:100FD000CB78C0211B061343890199440BF006FE10
:100FE0004946030022002800019600960AF010FEF0
:100FF000C42399464A46EB6E2800AB500AF0E4FF42
:1010000000210C222BA802F013FD0F2207232692A9
:1010100027930BF0CFFDDF4B9C46F22360445B012E
:10102000299328900BF0C6FDE523DB009C46BB23EB
:1010300088229B002E922F9380232C934B46604452
:1010400026A92A90E858FFF79BFA28000AF03AFEF2
:101050000122099B1A705B461968039B1B78002BC1
:1010600001D1002201315B46196043461B6812988A
:10107000D21843461A6052180BF00CFD43461B6809
:10108000002B00D017E224980BF004FD5DE40698D5
:101090000BF000FD062107980BF0FCFC83E7069897
:1010A0000BF0F8FC092107980BF0F4FC38E70698E0
:1010B0000BF0F0FC162107980BF0ECFCECE6069820
:1010C0000BF0E8FC112107980BF0E4FCA0E6069871
:1010D0000BF0E0FC722107980BF0DCFC54E606985C
:1010E0000BF0D8FC032107980BF0D4FC08E6069817
:1010F0000BF0D0FC1B2107980BF0CCFCFDE406980C
:101100000BF0C8FC192107980BF0C4FCBFE406984B
:101110000BF0C0FC722107980BF0BCFC82E406982F
:101120000BF0B8FC092107980BF0B4FC47E4531C02
:101130009C46D3009B1A9B009946A9444B46181D18
:101140000200210089C989C289C989C209684B4640
:101150001160722298219A6163466B676B58180080
:101160001E3080002A501A000B9822329200013360
:10117000A85020006B5007F02DFF6A6F002A00D0A6
:1011800061E401239C4609E1531C9C46D3009B1A51
:101190009B009946A9444B46181D0200210089C9AD
:1011A00089C289C989C209684B4611600922982100
:1011B0009A6163466B676B5818001E3080002A5096
:1011C0001A000A98223292000133A85020006B5076
:1011D00009F000FB6A6F002A01D0FFF702FC01232F
:1011E0009C46A6E7531C9C46D3009B1A9B0099463D
:1011F000A1444B46181D0200290089C989C289C92A
:1012000089C209684B461160062251469A616346BD
:101210006350E021635818002C30800022501A00DF
:101220001998323292000133A0506350C6E6531C25
:101230009C46D3009B1A9B009946A1444B46181D1F
:101240000200290089C989C289C989C209684B4637
:101250001160092251469A6163466350E021635848
:1012600018002C30800022501A000A983232920066
:101270000133A0506350280008F010FE5346E25896
:10128000002A00D05FE601239C46ADE7531C9C4634
:10129000D3009B1A9B009946A1444B46181D02009F
:1012A000290089C989C289C989C209684B46116068
:1012B000162251469A6163466350E0216358180034
:1012C0002C30800022501A001898323292000133DC
:1012D000A0506350280007F071FC5346E258002AE2
:1012E00000D0ECE501239C46A3E7531C9C46D300A9
:1012F0009B1A9B009946A1444B46181D02002900E9
:1013000089C989C289C989C209684B4611601122FD
:1013100051469A6163466350E021635818002C30AF
:10132000800022501A001798323292000133A050E8
:101330006350280009F0B0FE5346E258002A00D05E
:1013400079E501239C46A3E7531C9C46D3009B1AD6
:101350009B009946A9444B46181D0200210089C9EB
:1013600089C289C989C209684B4611601B2298212C
:101370009A6163466B676B5818001E3080002A50D4
:101380001A001598223292000133A8506B50FFF7D3
:10139000BEFBC04668250000531C9C46D3009B1A28
:1013A0009B009946A9444B46181D0200210089C99B
:1013B00089C289C989C209684B46116019229821DE
:1013C0009A6163466B676B5818001E3080002A5084
:1013D0001A001498223292000133A85020006B505A
:1013E00008F0D8FA6A6F002A01D0FFF762FB0123E8
:1013F0009C46ABE7531C9C46D3009B1A9B00994626
:10140000A1444B46181D0200290089C989C289C917
:1014100089C209684B461160722251469A6163463F
:101420006350E021635818002C30800022501A00CD
:101430000B98323292000133A0506350280007F01D
:10144000A1FC5346E258002A00D0B0E401239C4698
:101450004DE7531C9C46D3009B1A9B009946A14420
:101460004B46181D0200290089C989C289C989C251
:1014700009684B461160032251469A6163466350E6
:10148000E021635818002C30800022501A00169872
:10149000323292000133A0506350280009F09AF9CB
:1014A0005346E258002A00D03DE401239C46A3E7BE
:1014B00001239C46CFE725980BF0ECFAFFF745FA9D
:1014C00001239C4662E6C0468023DB051868000FB6
:1014D0007047C0460FB400B5084883B002F008FD5D
:1014E000049B002B07D005A91800019102F0D4FA43
:1014F000034802F0FDFC012002F0E6FA54E8011076
:10150000601A021070B5EFF3108C72B60D4D2B6897
:10151000002BFCD0BFF35F8F0724CB08C618C05C3C
:1015200001230C40A3401C000440034207D1184390
:101530003070BFF35F8F2C608CF3108870BD10008B
:10154000FFF7C8FF2C0100D0F8B54746CE468846C5
:1015500080B5EFF3108C72B61C4D2C68002CFCD0BB
:10156000BFF35F8F9A4222D807210126894602E005
:101570000132934218D34D4637001540AF40D4088E
:101580000119045D2742F3D110003C430C70BFF3F6
:101590005F8F00220D4B1A608CF3108800280EDB41
:1015A000C0BCB946B046F8BD01204042EFE7BFF3EA
:1015B0005F8F00232B608CF310880120404243464C
:1015C000002BEDD00898FFF785FFC0462C0100D016
:1015D000044A1078431CDBB2172B00D91023137078
:1015E0007047C0465010002010B5064B064C82B024
:1015F0000100009318221F232000FFF7A5FF02B06F
:1016000010BDC04664E80110FCAE00200021044B70
:10161000044ABFF35F8F02C39342FAD17047C046BA
:10162000000100D0800100D0054B064A1360064A35
:10163000136053609360D36013615361936170478B
:101640008080808000E400E004E400E01F23184074
:101650001E3B8340002905D0C021044A4900535055
:1016600013607047802201498B50FAE700E100E0E7
:1016700001228240034B1B6813405A1E9341D8B28B
:101680007047C04600E100E001238340014A136037
:101690007047C04600E200E0084B10309B688000B5
:1016A000C358002B07D0064A00209B1A2F229A42CB
:1016B0004041C0B270470020FCE7C04600ED00E0AA
:1016C0005410002070B50D00EFF3108672B60F4A6B
:1016D0001368002BFCD0BFF35F8F0D4B10309B685D
:1016E00084001B590B4A934203D09D4201D000F065
:1016F00093FF074B9B681D51BFF35F8FBFF35F8F55
:101700000022024B1A6086F3108870BD240100D0BD
:1017100000ED00E0CD010010F0B557464E46DE4624
:101720004546E0B585B0060000911700EFF3108B39
:1017300072B66A4A1368002BFCD0BFF35F8F002596
:10174000674B5D579A46002D00DAA9E06B00654CA7
:1017500001935B199B009846A146C1444B465246F3
:101760009B7910361370604BB6009B6899590B1B20
:101770002F2B33D95D4B994200D0ACE0019B424600
:101780009C465B4B6544AD0063535A4B0232A21832
:10179000043B9B1A1B05584A5B0D651913436B806C
:1017A000564B0121AB80FF23AB71009BEF71AB6007
:1017B0004B460B4319004C4B9B689951BFF35F8F0D
:1017C000BFF35F8F0022454B1A608BF3108805B082
:1017D000F0BCBB46B246A946A046F0BD01200A00B7
:1017E0008243D3798C46BB4231D8454613004449E5
:1017F0001B1B5B415943090D3D4B63533D4B023568
:101800006519043B5B1B1B053B4D5B0D2B43AA4637
:101810004D466B800425AC465546E044131F4444B6
:101820001B1B1B055B0D1D434B46997100999D8049
:1018300099604946DF71334B01431360BBE75800A1
:10184000C01880002018C179B9422FD902000623A0
:10185000D356002BF3DA02932B4B61460393131DEF
:101860009A4604235B429C46E14450464B461B1A71
:101870001B055B0D9C46204B957198466346404680
:1018800003439380019B5A199200039BA418A380E1
:10189000029B1C4AA371009B2260E771A3608AE748
:1018A00000F0BAFE002553465D574FE7908802933B
:1018B0004005131D9A46031561469C464046D44494
:1018C000634604302018181AE0230005400D1B025F
:1018D00018430390C5E700F09FFE4FE7240100D0B6
:1018E000D3B300205410002000ED00E0CD01001023
:1018F00000A1FFFF8410002000E0FFFF01BDFFFFFB
:10190000AAAA00000148804701BD000070B501246B
:101910000443EFF30581EFF3108C72B6214A13688C
:10192000002BFCD0BFF35F8F1F4B05001F4AED1A41
:101930006D416A43120D1E4D8900AE6852B2765851
:10194000A6421CD00621595691421CD0122159564C
:10195000914222D01E215956914220D02A21595617
:101960000324914210D0134B19781A708171BFF380
:101970005F8F00220B4B1A608CF3108870BDAB6830
:101980000D4C5C50EFE700246100091989005B18D9
:10199000FF21997109499980E5E70124F4E70224C0
:1019A000F2E7C046240100D054100020AAAA00008B
:1019B00000ED00E0D3B30020CD01001001BDFFFF1A
:1019C00010B5084B084C82B001000093002205239B
:1019D0002000FFF7B9FD002801DB1F23181A02B011
:1019E00010BDC04680E80110D7B30020024B9C46D2
:1019F00061448900016070474000003470B5114CAB
:101A0000114DAC420FD2FF262368002B0CD0FFF7FC
:101A1000DFFD01002000FFF7E9FFA680BFF35F8F25
:101A20000834AC42F0D370BDFFF7D2FD01002000B6
:101A3000FFF7DCFF2671BFF35F8F0834AC42E3D3BE
:101A4000F1E7C046E8170020F817002010B50400A1
:101A5000FFF7BEFD01002000FFF7C8FFFF23237141
:101A6000BFF35F8F10BDC04610B504000120FFF723
:101A7000BBFD034BC3189B002360BFF35F8F10BDFA
:101A800040000034034B9C46614489000160BFF371
:101A90005F8F7047400000340A4B1968EFF31080E5
:101AA00072B60A68002AFCD0BFF35F8F1B68BFF3D1
:101AB0005F8F00221A6080F3108840BF0020002151
:101AC0007047C046B0B30020F0B5DE4657464E46DC
:101AD0004546E0B587B0EFF30582032301251340A7
:101AE0009D409900B34AB44B54581D60B34B88468F
:101AF000A946049329E0A3881BB2002B00DBA5E0D4
:101B0000A379002B00D0E6E00823E05E002800DA8D
:101B10000FE1430062691B18DB00D3189E68DD6883
:101B2000731C00D111E1A64B190041449A6A0B695C
:101B3000B01A9B1A984200D20E61A14800F030FB07
:101B40008D4200DDF5E000D12BE14B469C4843631C
:101B50000823E55E002DCEDB62696B0092465B19BF
:101B6000DB009A4453469E68DF6800F019FB8F4201
:101B7000C1DC00D10BE1002F00DAF0E05246534601
:101B800052691B699346049A934200D1E1E05246A0
:101B90000821605E5288000459461043984702901D
:101BA00003910299039A0B001000134300D1D6E071
:101BB00013000A00B61A9F41002806DB804800F097
:101BC000EFFA029E039F36184F4153469E60DF6036
:101BD00000229A5E002A8EDB530099186069C900C2
:101BE000411801938B68C9689B46B94200DD82E7C2
:101BF00002D1B34200D97EE708239C46A444059550
:101C000065462281A446019B2C0006E053009918EA
:101C1000C90041188D68C968AB469B18DB00C31822
:101C2000B94206DC00D1C0E01C000023E25E002ABD
:101C3000ECDA230064469C4653461A806346059DB1
:101C40001D80A3881BB2002B00DA59E72269EFF34D
:101C5000108172B61368002BFCD0BFF35F8F012395
:101C6000A7885B42A3803FB22369BFF35F8F002246
:101C70001A6081F31088002F00DA41E7230008334F
:101C800022009A4666697B00DB19DB00F31899682D
:101C900050468C460824115FDD68002910DB019353
:101CA00006E0AB424DD00023E15E2000002906DBB8
:101CB0004C006418E4003419E368AB42F1DD019B89
:101CC000078000201F5E1980002FDCDA1400A37942
:101CD000002B00D118E70023A37126000823E15E42
:101CE00008364B1C25D00800A246656902E03E007C
:101CF0004B1C1AD04B005B18DB00EF180A008C4617
:101D0000E95E7B881BB2002BF1DA01235B42DC1712
:101D1000BB60FC60824205D0534631801B893B800A
:101D200053461A8160464B1CE4D15446002800DB20
:101D3000EFE640BF07B0F0BCBB46B246A946A0469E
:101D4000F0BDA3686345AED9B9E76B1C00D0EAE6E5
:101D5000F3E65B4658461B69984700281BD153465B
:101D60001B8822692381EFF3108372B61168002962
:101D7000FCD0BFF35F8F514662880A80226965807C
:101D8000BFF35F8F0021116083F31088B3E68642B2
:101D900000D8F0E6AFE65B461A685B6802920393F0
:101DA000FFE6864200D8D0E6C3E7B34500D83BE75C
:101DB0003FE7C04694B300203C700540C91A0010AC
:101DC0000040054070B52E4C2569002D04D00A2135
:101DD0002C48FFF70BFE70BD2B4E0321300000F0A6
:101DE000D5F9E660FFF7F4FB284B03229C46D0238D
:101DF00022701B061B6801216370254B6044A360A1
:101E00000F23800020610220638063694942A18022
:101E100019800231198647311D83585218315A52A0
:101E200075325C39995218320131995218320131A8
:101E30009952183201319952083518329D520231A7
:101E4000183299521832013199521832013199528F
:101E50001832013199521832013199521832013138
:101E600099520C4B0C49DC6001303562FFF72AFCBB
:101E700001210320FFF7EAFB084B1D60A7E7C046DE
:101E80009C100020B0B3002000400540400000340A
:101E9000FFFF100094B30020C91A001038600540FD
:101EA000004870479C100020F8B51F0008AB1B7855
:101EB00004001600002B08D100F07AF932003B0034
:101EC000121A8B41002B00DA52E02269EFF31080E6
:101ED00072B61368002BFCD0BFF35F8F0223E15E64
:101EE00063694A005218D2009B182269002936DB28
:101EF0001D886580BFF35F8F0025156080F3108813
:101F0000069A9E60DF601A61079A5A615A88013208
:101F10005204520C101C002A1FD082B258800804B0
:101F200010432669EFF3108772B63268002AFCD09E
:101F3000BFF35F8FA2881A80A1802369BFF35F8FF0
:101F400000221A6087F310880A4923788C460132F0
:101F50009A40E36863441A60F8BD0120DDE7BFF3EF
:101F60005F8F0023136080F3108801204042F3E765
:101F70000020F1E73C20000070B501000469EFF398
:101F8000108C72B620680028FCD0BFF35F8F02204F
:101F90000D5E4C6968004019C00024180869002DC6
:101FA00036DB26884E80BFF35F8F002606608CF3F9
:101FB0001088E36063880498013320615B0405980E
:101FC0005B0CA26060611A1C002B1FD093B2280426
:101FD000628018430A69EFF3108C72B61368002B05
:101FE000FCD0BFF35F8F8B8823808D800B69BFF39C
:101FF0005F8F00221A608CF310880B7801329A40B0
:10200000CB6808498C4663441A6070BD0122DDE745
:10201000BFF35F8F002303608CF3108801204042E0
:10202000F3E7C0463C20000010B543890A149342F0
:102030001ADD53009B184269DB00D3180469EFF3E3
:10204000108C72B62268002AFCD0BFF35F8F5A88CA
:10205000090494B2090C8A4208D00369BFF35F8F68
:1020600000221A608CF31088002010BD802212021A
:1020700014435C80012302698371BFF35F8F0021E9
:1020800011608CF31088044902788C469340C26832
:10209000012062441360E8E73C200000407870476C
:1020A000F0B5CE46474680B504000D0083B0EFF38F
:1020B000058399460F00002B42D1314EA04633785C
:1020C000F06804339B00816A1B58601A5B1A9842BF
:1020D00012D320BF2B4900204B6AAB4207D38A6A38
:1020E0005B1B591E8B4141468A424041184303B055
:1020F000C0BCB946B046F0BD00F05AF822002B0033
:10210000121A8B41002B28DB4B4601931E4B2200F9
:10211000009330002B00FFF72FFF011E1DDD194B30
:102120005A6AAA422AD39B6A9C4225D83000FFF7FC
:102130007BFF144A0020536ABB42D8D3926ACFE790
:10214000104900204B6AAB42D1D38A6A5B1B591EEF
:102150008B41A24240411843C9E70A4A0020536A12
:10216000BB42C4D300204146926A5B1B8A42404175
:102170005A1E93411843BAE7AA42D7D120BFD5E7E8
:102180009C10002000400540991A001010B5024A2A
:102190000248FFF7B7F910BD9CE8011000AF00201E
:1021A0000300416A0A00986A596A8A42FAD1704764
:1021B000034B596A0A00986A596A9142FAD17047EA
:1021C0000040054070B504000D00174A536A19001D
:1021D000966A536A8B42FAD13000190024184D4197
:1021E000AB4216D813D0104B2A005B6A9D4203D92C
:1021F0000D494B6A9342FCD3934207D10A4A02E04D
:10220000516A994202D1916AA142F9D370BDA642A6
:10221000E9D9054B5B6A1C005A1CEFD0012201244E
:102220006442E5175242E3E700400540F8B5DE4658
:102230004E4657464546E0B58B4605000A991800BC
:10224000160000F009FB0A9B6C001F02324B641958
:102250009C46A4006444636881469F4200D967603D
:102260002B1FDBB29846012B30D9C02380229B0163
:10227000E31812011A60294BAD0059599A460029FA
:102280001BD17301E026226853401E408023424642
:102290005B01E3181E60012A30D9802380229B0154
:1022A000E31812011A6053464A4667605A51F0BC5F
:1022B000BB46B246A946A046F8BD586900F0CCFA24
:1022C000013043001B18033BFDD2DAE75B46012BCC
:1022D000CBD1C02303229B01E3181A60023AA36802
:1022E0001A42FCD07301E0262268AD0053401E4024
:1022F00080230A4A5B019246E3181E605A46216811
:10230000514003220A401A6001225B469A40A368AA
:102310001A42FCD0C1E7C0460080004004AF002054
:10232000F0B546464F46D646C0B51F00344B440074
:102330009C462418A4006444636888461600FF2B5A
:1023400002D880235B006360031FDBB29A46012B37
:1023500030D9C02380229B01E31812011A60294B57
:1023600085005959994600291BD17301E02622683E
:1023700053401E40802352465B01E3181E60012A31
:1023800030D9802380229B01E31812011A60802338
:102390005B0063604B465F51E0BCBA46B146A8465D
:1023A000F0BD586900F058FA013043001B18033B98
:1023B000FDD2DAE74346012BCBD1C02303229B0198
:1023C000E3181A60023AA3681A42FCD07301E026AF
:1023D0002268850053401E4080230A4A5B019146D3
:1023E000E3181E6042462168514003220A401A60E9
:1023F000012342469340A2681342FCD0C1E7C04685
:102400000080004004AF0020014B8000C05870479E
:1024100004AF0020F8B5040021481E0017000D008D
:1024200000F01AFA0100380000F016FA069B360494
:102430001B031E432368002B20DB1A4B1A49E318A9
:102440005A1E93418022920194465B421B0B174A0D
:102450001B0363441360164A13601F000A68974306
:10246000FBD1144B2560E2182123A0601360236880
:10247000002BFCDA0823E6601360F8BD3F232268D6
:102480001340AB42D9D1A3681B051B0D8342D4D1A5
:10249000EE22E368D2021340B342CED1EDE7C0464C
:1024A000001BB7000040FDBF08C0004000E0004036
:1024B00000F000400430000010B580241C4BE405FF
:1024C0001C6000281AD001231A4C18431A4BDC61F7
:1024D0001A4C44401C62596298628021144BC90511
:1024E0001960174817490860E021C9041960002ADB
:1024F00007D18022144B12061A6010BD0E4BD86112
:10250000EBE753019B1A9B009A18802312015B048E
:102510009A4209D213000D490B60074B5A60802282
:10252000094BD2051A60E8E7094B1A00F3E7C046E9
:1025300000B00540D3C007B0008005402D3FF84FE4
:10254000FCFF01000820014000A005406CB3002002
:10255000FFFFFF008023024A9B000B43D3627047BA
:1025600000800540002310B50100988A1B8B984716
:1025700010BDC046162310B50100188802331B8811
:10258000984710BDF8B54746CE4680B50F1E18D007
:1025900014239946043304000025012698464B462F
:1025A0001888434621681B88984701C4431E9841F8
:1025B00001350640AF42F2D13000C0BCB946B0464A
:1025C000F8BD0126F8E7C046002370B504000D00F1
:1025D000988A05491B8B984703000020002C01DBDB
:1025E0000130A0402900984755420000AA23064A1E
:1025F0001B0113602F230549D360054B19605368F5
:10260000002BFCDA7047C0460040024000B0FA00E0
:10261000006002407047C04610B50148FEF75AFFFF
:10262000C0E8011070B5074D074EB54209D200242D
:10263000013E761BB60808CD984723000134B3420B
:10264000F9D170BDC8E2011004E3011070B5074D67
:10265000074EB54209D20024013E761BB60808CDCC
:10266000984723000134B342F9D170BDFCE2011058
:1026700004E30110054B064A06491A60064A074B57
:102680001A6010000B689843FBD1704700E00040CF
:10269000BFCDFBFE08C00040FE7F3C0000F00040C4
:1026A000044BDB6C002B03D18022034BD2021A6057
:1026B0007047C046000011504C201150044A054B91
:1026C0001A60054A1368DB018033FBD17047C046AE
:1026D000FFFFFF0100F0004008C000404022034B14
:1026E0009A675A671A67DA667047C04600F0014079
:1026F00010B5FEF78BFF10BD70B5044D044CA968F2
:10270000C022200001F09AF9AC6070BD00ED00E03D
:1027100000000020002310B5294C82B0A367FFF70A
:1027200065FF0122274B1A60636C012BFCD1032249
:10273000254B1A60224A936B012BFCD10133009385
:102740000121224A22480433FFF764FE05230121B8
:102750000093204A2048FFF75DFE0022022104205A
:102760001E4BFFF7DDFD0022012105201C4BFFF76A
:10277000D7FD0022002107201A4BFFF7D1FD0022D0
:1027800000210820174BFFF7CBFD8023DB000093CF
:10279000002200210920134BFFF748FD0022104BB7
:1027A00000210620FFF7BCFD0420FFF72DFE0E4997
:1027B00000F052F801000020FFF7CCFE02B010BD7F
:1027C000008000403CB0004030B00040002F68590D
:1027D00000800240008C864700C00240001BB7000A
:1027E00040597307006CDC0240420F00014804218D
:1027F000014B1847C010002085250010014B5B6875
:1028000018470000C0100020124A936F9B0815D291
:102810009066D166002905D0FFE7FFE7FFE7516F1B
:10282000106F704704B580210906C2175140002877
:1028300000D0C8431BF000FD002104BDF0B5146EAC
:10284000556E576F166FFFF7E3FF146655665767AF
:102850001667F0BD000000D0114A936F9B0813D299
:1028600010665166002905D0FFE7FFE7FFE7516FCB
:10287000106F704704B5002801D00020C0431BF042
:10288000DBFC002104BDC046F0B5146E556E576FD9
:10289000166FFFF7E5FF1466556657671667F0BDBC
:1028A000000000D094464A4A926F9208624601D2D4
:1028B00028E0C046F0B5464E346E756E776F366FC1
:1028C00000F020F89446424A14665566576716672A
:1028D0006246F0BD94463E4A926F9208624601D22B
:1028E00054E0C046F0B53A4E346E756E776F366F71
:1028F00000F04CF89446364A1466556657671667DA
:102900006246F0BD002B24DB11D000293EDA00B571
:10291000C943404200D1013100F038F8C943404278
:1029200000D10131DB43524200D1013300BD002A06
:10293000EBD1002801D1002905D00020C90FC9071B
:1029400001D1C043410800B51BF06EFC00220023FA
:1029500000BD00B500290ADBDB43524200D1013340
:1029600000F014F8C943404200D1013100BDC94311
:10297000404200D10131DB43524200D1013300F02B
:1029800005F8DB43524200D1013300BD002923D1B9
:10299000002B18D1002A0CD0BC460D4F38667A6641
:1029A00000210023FFE7FFE7FFE77A6F386F6746F4
:1029B0007047002801D00748010000B51BF034FC27
:1029C0000022002300BD02000B0000200021704700
:1029D000000000D0FFFFFFFF002B00D0BFE0130C72
:1029E00028D1002AE7D080B4114F39667A66FFE714
:1029F000FFE730B4040C7B6F396F1B0423433B6645
:102A00007A66FFE7FFE7FFE7C04684B27B6F3D6F62
:102A10001B0423433B667A66FFE7FFE7C0460023BB
:102A20002C042D0C7A6F386F00196941B0BC7047C7
:102A3000000000D0F0B594460025140E01D112021A
:102A40000835140F01D112010435940F01D1920001
:102A50000235D40F01D152000135D40B0134254F7A
:102A60007C66254C3C660E0C93B2FFE7FFE7FFE760
:102A70003C6F6643360C7703BE467343DF0B5B0443
:102A8000C01AB941130C7343DB18C91ACE08664348
:102A9000360CB64493B273431F0F1B01C01AB941E1
:102AA000130C73431F0B1B05C01AB941860D8F020F
:102AB0003E436643360C092D24DB520A7243801ACA
:102AC0007703460A6643360C16235B1BDE40DF4065
:102AD000BF1964466643821B704604350633010005
:102AE000D940A840C01900D30131A24206D2002328
:102AF000F0BD0000000000D0FFFFFFFF121B0130FF
:102B0000F3D3F1E709277F1BFE406446A2B272436C
:102B1000801A00D20139220C7243130C1204821A5B
:102B200099410B007046043513370100F940A84065
:102B3000801900D30131002B02D1A2420AD2F0BD8C
:102B4000013000D30131121BFAD2013BF8D1A2426D
:102B500000D2F0BD013000D30131121BF7E7F0B510
:102B60001C0C00D080E00CB400251C0A04D11B0210
:102B7000160E3343120208351C0B04D11B01160F2D
:102B80003343120104359C0B04D19B00960F334351
:102B900092000235DC0B02D192185B4101351C001A
:102BA000971864410134464F7C66464C3C660E0CD7
:102BB000FFE7FFE7FFE7C0463C6F6643360C77034D
:102BC000BE4697B27743C01B00D20139C01B00D26A
:102BD00001399FB27743C91BC91B170C77437E0489
:102BE000FF0B801BB941CE086643360C0C2D33DB3E
:102BF000B644120B1F053A431B0B97B27743C01B19
:102C000000D201399FB27743C91B170C77433E04AA
:102C10003F0C801BB941860D8F023E436643292736
:102C20007F1BFE400C3D7746AF40BF1930BCA2B2BF
:102C3000ABB272437343801A9941220C7243130C56
:102C40001204801A994102000B000137001BA941B0
:102C5000F9D2781E0021F0BD0C277F1BFE4077467D
:102C60007F0BAF40FF19E0E700245D1C07D0144F35
:102C70007D663966FFE7FFE7FFE7FFE73C6F95B248
:102C80009EB265436643401BB141150C1E0C654363
:102C9000664336042F0C3E432D04401BB14199423C
:102CA00004D202000B0020000021F0BD01D19042AF
:102CB000F7D3801A994101349942F2D3F6E7000024
:102CC000000000D0FFFFFFFF48404140484018B4DB
:102CD0001B4B5B68FC46019308BD04DF33310010D9
:102CE00018B4174B1B68FC46019308BD00DF3D314B
:102CF00000109446134A926F920809D2624618B4A3
:102D00000F4BDB68FC46019308BD0CDFF533001068
:102D10000C4AF0B5146E556E576F166F6246FFF78A
:102D2000EEFF084A1466556657671667F0BD18B47B
:102D3000034B9B68FC46019308BD08DF99320010E5
:102D4000C0190020000000D0FFB550404240504064
:102D500059404B40594000E0FFB5154F4C00640D01
:102D600003D0BC4204D10C0314D80020090D09057E
:102D70005C00640D03D0BC4204D11C030AD80022BD
:102D80001B0D1B0501264B4009D44B4003D58B423C
:102D900000D18242FFBD9942FCD19042FFBD0B435E
:102DA000DB1803431343F5D0C9434918FFBD0000A6
:102DB000FF07000000B5FFF7CFFF01D0002000BDE6
:102DC000012000BD00B5FFF7C7FF804100BDC04630
:102DD00000B5FFF7C1FF01D9002000BD012000BDF3
:102DE00000B5FFF7B1FF804100BD012040054A005A
:102DF000121804D85A00121801D800207047012078
:102E0000704700000021002805D17047C1174840D5
:102E1000401AFAD0C90713B5064B1B6898470CBC7B
:102E2000441CA2401005120B0349091B0905194354
:102E3000114310BDACB300201F04000010B54C00BE
:102E4000620D8023D218DB00D21A5B057E2A10DDCA
:102E50009E3A13DACC170903490819435242D1406C
:102E6000640001341532202A05DAD040084360435B
:102E700010BD002010BD0846604310BDC80FC0182B
:102E8000013810BD18B4044BDB6DFC46019308BD3E
:102E90005CDFA53600100000C0190020C94211D324
:102EA00000B549004908002200F018F8002904D4B0
:102EB000002240428A41114600BD802109060020BF
:102EC00000BD000018B4044BDB6EFC46019308BD46
:102ED0006CDFA53500100000C019002018B4044BA9
:102EE0009B6FFC46019308BD78DFC33500100000DE
:102EF000C019002018B4044BDB6FFC46019308BDD9
:102F00007CDF313600100000C0190020132370B59B
:102F10001D78012D19D014DD1F48FFF72BFB06008B
:102F20001E48FFF727FB1E4C80223100200000F0D6
:102F300085FD022D2DD01B48FFF714FB1A4B18609E
:102F400070BD1A4B164CA364F5E7184B144C236064
:102F50006360A360E36023616361A361E361236253
:102F60006362A362E36223636363A363E363236433
:102F70006364A364E36423656365A365E365236613
:102F80006366A366E36623676367A367E367A36477
:102F9000D1E7064BA364CEE753440000534600003C
:102FA000C01900204C330000ACB3002001310010E8
:102FB000244A4B0094465B0D6344F0B504000D00B9
:102FC0005A1C21DB5A1C35D0342B1CDA3326F61A56
:102FD0003700203F1CD40121B9400B000121B14032
:102FE0000A0012196B41002F1EDB0224BC40210095
:102FF0000224B44020001600002544428D412640A2
:103000002B4030001900F0BDCB0F0020D907FAE7A4
:1030100020210120891BC8400121B14003000A0082
:1030200012196B41002FE0DA20240225A41BE54091
:103030002900DDE7CB0F044ADB071A43002011000B
:10304000E1E7C04601FCFFFF0000F03FF0B50B00D8
:103050004900020085B0490D40D02748091837D4EF
:1030600034261000761A1900002E2FDD3100203989
:1030700038D4012000240025884000940195019057
:103080000121B140009101204042C117009C019DE7
:10309000001969410D0000210400D80F00274642A5
:1030A0008F4102940395029C34402000039C3C40D5
:1030B000210012184B4100980199002746428F4188
:1030C0003400144020003C001C40210005B0F0BD3D
:1030D00000200021002BF9DA0849F7E7DB0F002078
:1030E000D907F3E720210120891B00240025C840CF
:1030F000009401950190C3E701FCFFFF0000F0BFC1
:1031000007B5604601880A0A0230DF2AFAD1C9B23F
:10311000820804D3028840880004104300E000685D
:10312000014A5050039007BDC01900200FB403BCE2
:103130000CBCF0B50124E407634000E0F0B50C0DD1
:10314000CF0F661E3605891B640503D3C943404271
:1031500000D30131640D03D0661CF60A07D0E41BCE
:1031600000207F00791C89078912803C24031D0DF3
:10317000DF0F6E1E36059B1B6D0503D3DB435242EA
:1031800000D301336D0D03D06E1CF60A07D0ED1B82
:1031900000227F007B1C9B079B12803D2D032F1B71
:1031A000661B58D4A446202E46DA20371400BC40B3
:1031B0001D00BD40F24033412A4380185941CB0FD6
:1031C00005D0C943C0430022644250415141624688
:1031D0004D0D28D10D0D07D100281FD024194041D5
:1031E0004941013A0D0DF9D0640006D3013000D3F6
:1031F0000131002C01D140084000013A0BD4941C4D
:10320000E40A04D112051144DB071944F0BDD907C3
:10321000204B194300E0D9070020F0BD0029DDD183
:10322000002CDBD1F0BD0132C6074008CD07284392
:103230004908002EE1D0D9E73C2E29DA203E40375C
:103240001400BC4000D00124F24014431A00BB40DB
:103250001C43D317ACE7AC46202F08DA2036040015
:10326000B4400D00B540F84039412843A5E73C2F54
:103270000CDA203F40360400B44000D00124F8406E
:1032800004430800B1400C43C117EAE710001900DD
:10329000002494E70000F07FF0B50C0D661E3605A3
:1032A000891BE60A6405640D02D0651CED0A04D092
:1032B000002001210905803C2403A4461C0D671E43
:1032C0003F05DB1BE70A6405640D02D0651CED0AAF
:1032D00004D0002201231B05803C24037740644472
:1032E00097B484B296B27443070C7E43150C6F43B7
:1032F00080B26843361802D3012000043F1830041E
:10330000350C00197D41844688B29AB250430C0CAA
:1033100062431F0C7C438EB27E43921902D3012676
:103320003604A4191604170C3618674101BC81B283
:103330009AB25143040C62431B0C5C4380B2584365
:10334000121802D30120000424181004130C401892
:1033500063412D185E410020474106BC88B293B2FC
:1033600058430C0C6343120C544389B251435B180D
:1033700002D301210904641819041A0C09186241C6
:103380006D1856410020474118BCF902720D1143D7
:10339000F0026A0D1043ED020A0D03D16D19404190
:1033A0004941013B124E9B1B7600B3420ED26D0089
:1033B00007D30130002671416646354301D14008EC
:1033C00040001B05C918E4072144F0BD0BDA0133A6
:1033D00006D1013004D101314F0D01D04908F2E787
:1033E000E1070020F0BD013631050020EBE70000C9
:1033F000FF030000F0B51C0D671E3F05DB1BE70A4D
:103400006405640D02D0661CF60A04D00022012374
:103410001B05803C2403D0252D060026F6432E668E
:103420001E096E66CE0FF619B44649004F0D02D044
:103430007E1CF60A03D000200021403F3F033E1BC4
:10344000B600B444013F7F05C91B49082E6F013601
:1034500076089C02950D25437543ED137543AD1316
:1034600001356D10F603761B0CB4CC02450D2C43D0
:10347000A2B2B3B25A43270C7B43350C6F43A4B2BC
:103480006C431B1902D3012424043F191C041D0C96
:10349000A4187D4124196D41009A91B2ACB26143E8
:1034A000170C7C432B0C5F4392B25A43A41802D3EF
:1034B00001221204BF182204230C52187B41019CE4
:1034C0006C431B19520ED9010A434401A01A81B260
:1034D000B2B2514303145A43360C734387B2774355
:1034E000D617D21900277E4136049B191704160CF3
:1034F0007F185E417316ED18F30100268033754185
:10350000A90F06D16400690AE8055B0A184309D2CD
:103510002FE00422944480337541A90AA8059B0A30
:10352000184326D3404149412404009A019B0D00D1
:103530005543641B4343E41A95B286B27543170C96
:103540007E43030C5F4392B25A43B61802D3012262
:103550001204BF183204330C52197B4152429C4171
:10356000002C02D40022013051414008CA07104308
:10357000490802B06246D7079210084BD218084B90
:103580009A4203D212058918C919F0BD0020002AF9
:1035900001DC3900F0BD01331905F5E7FD0300003A
:1035A000FE070000002200B500F00DF8CA179A428D
:1035B00000D100BDD8430121C907414000BD000032
:1035C00000220B150AD410B5944600F0A7F8141485
:1035D000013400DA0021CB17144C204700200021D1
:1035E00070476244343A0CD40C2A07DA0400914044
:1035F000904052422032D440214310BDD843D94399
:1036000010BD203207D40C46944052422032114162
:10361000D040204310BD0800C917203203D45242C5
:103620002032104110BD1800190010BDE335001004
:103630004A00520D144BD21A13DDFF2A1EDAD205AE
:10364000CB0FDB071A43C300400F0903490A0843A5
:1036500010435B0001D301D0013070474308FBD217
:10366000704702D0C80FC00770470A031213013217
:10367000F8D1420F072AF5D1012200E0FF22C80F3E
:1036800000028018C00570478003000000210A0076
:10369000002104E000210A00C11704E000220023F9
:1036A00006E0C0460022CB1758405940C01A994145
:1036B00030B5184CA21A002903D1010010D0002007
:1036C000203A4C1512D104D2013A001849414C0D50
:1036D000FAD3114CA24204D212058918DB07C9188B
:1036E00030BDD243520D00200021F5E703D4013A4A
:1036F00000184941FBD50B324405C00A4D0528434B
:10370000C90A640003D0002460416141E1E7E0D3CD
:103710004408F8E732040000FE0700000A0DCC0F51
:10372000531E1B05C91A520503D3C943404200D397
:103730000131520D03D0531CDB0A07D0121B0020AD
:103740006400611C89078912803A1203014BD21A66
:1037500070470000FF03000051434343C9188C46E3
:10376000110C83B24B4310B4040C614392B280B28B
:10377000504362431C041B0C001910BC5941130434
:10378000120CC0185141614470470000484041404C
:1037900048400E4B5B6818470C4B1B6818470C4A97
:1037A000936F9B0802D2094BDB681847F0B5146E83
:1037B000556E576F166FFFF7F6FF054A146655668C
:1037C00057671667F0BD014B9B681847C01A002069
:1037D000000000D007B548404140484001E0C046E5
:1037E00007B54200120E03D0FF2A03D1420218D8B7
:1037F000C00DC0054A00120E03D0FF2A03D14A02B1
:103800000FD8C90DC9050122414005D4414001D559
:10381000814207BD884207BD0143491801D0C0431A
:10382000001807BD00B5FFF7DBFF01D0002000BD89
:10383000012000BD00B5FFF7D3FF804100BDC046A9
:1038400000B5FFF7CDFF01D9002000BD012000BD6C
:1038500000B5FFF7BFFF01D9002000BD012000BD6A
:1038600000B5FFF7B7FF804100BD491A002807D116
:1038700008467047C10FC90700D54042002817D03D
:10388000F44603B40B4B1B68984706BC81409E3836
:103890004042803107D20B0607D04900490AC005D3
:1038A0001043084360470130F8E7490A8902F5E709
:1038B00070470000ACB3002041000A0E80231B06B5
:1038C0007E2A0BDD9E3A0BDAC117400240081843EE
:1038D0005242D040490001314843704700207047B0
:1038E000C00FC01801387047C0420DD300B540006A
:1038F0004008002100F012F8002801D4404200BD29
:103900008020000600BD0000034BDB69FC46184721
:103910001CDFD93900100000C01A0020014B5B6A7F
:1039200018470000C01A0020034BDB6FFC46184705
:103930007CDFF13900100000C01A0020014BDB6C65
:1039400018470000C01A0020132310B512481C7835
:10395000FEF710FE0100012C0AD003DD80220F4883
:1039600000F06CF80E48FEF7FDFD0E4B186010BD20
:103970000A4C5422200000F061F80B4B6365A365EC
:10398000E36523666366A366E36623676367A367ED
:10399000E3672362E361E5E753460000C01A0020B5
:1039A0004C330000ACB30020AD39001007B56046C1
:1039B00001880A0A0230DF2AFAD1C9B2820804D388
:1039C000028840880004104300E00068014A50501B
:1039D000039007BDC01A00200021C215803280323A
:1039E00001D0024A1047002070470000CD2A000095
:1039F000C30FDB0741000A0E07D0FF2A08D00909D0
:103A0000054A89181943400770471900002070477C
:103A10000249C918FAE70000000000380000F07FF2
:103A200001480421014B1847D010002085250010C3
:103A3000014B1B6818470000D0100020014B5B6849
:103A400018470000D010002010B5002800D110BD8C
:103A500000F004FAFBE7C0460FB430B50C4985B05E
:103A600008AA08CA0D680392002D0CD0009201220A
:103A7000084C5242200002A9A847012005B030BCE2
:103A800008BC04B01847180000F032FA0020F5E72F
:103A900068B30020493A001010B5094A03001468C1
:103AA00084B0002C08D0012200910648524203A99C
:103AB000A047012004B010BD00F01AFA0020F9E779
:103AC00068B30020493A001000BEFDE7094A030030
:103AD0001068002805D00849C3188B4207D8136026
:103AE000704706480449C31810608B42F7D901207B
:103AF0004042F5E764AF002000000420D8B3002066
:103B000000207047012040427047C046030010B5B6
:103B100008001100002B05D1044B1A685B6800F007
:103B20003FF910BD01204042FBE7C046D0F802102B
:103B30000300013B10B508001400012B06D8012337
:103B40000022210000F0AEF8200010BD012040420C
:103B5000FBE7C046012040427047C046012040427A
:103B60007047C046012040427047C0460300022211
:103B700000209A424041704710B5FFF7A5FFC046AC
:103B800030B50D0083B01900002A0BD0074B084C4C
:103B90000192009302002B002000FFF75DFF01203F
:103BA000FFF792FF034B1A00F1E7C0461CE9011032
:103BB0002CE9011090EA011070B5FEF733FD074DB6
:103BC000074EB54209D20024013E761BB60808CD47
:103BD000984723000134B342F9D170BD04E30110CA
:103BE00010E30110030010B5080011001B6898478E
:103BF00010BDC046F0B5C64600B5437D07000C00B9
:103C00001600002B46D0002A17DD0B780A2B24D093
:103C100000239846012E13D001252900635C01354D
:103C20000A2B26D0B542F8D1464509DCA419013C3F
:103C300023780D3B5A4253413B7580BCB846F0BDDA
:103C40004346E018A419F11A013C3B6898472378D1
:103C50000D3B5A4253413B75EFE7037D002BD7D113
:103C600002210F483B689847012EDFD00123984678
:103C7000D2E7631E5B5C0D2BD4D0884504DA434643
:103C8000C91AE0183B689847022105483B68A846D6
:103C90009847C7E70368110020009847CDE7C04662
:103CA0002CF90210F0B54546DE464E465746E0B5C3
:103CB00083B091461C0080460D00FEF779FA002380
:103CC000304A12184B41002B02DA01222E4B52428D
:103CD0002E4908008A461AF0CFFA07006B1C03D160
:103CE000404618F019FA0500002C27D0284E294B21
:103CF0001C68002C18D04B46002B21D1264B99462E
:103D000002E02469002C0FD02368002BF9D04B4629
:103D10001B68002B01D09C42F3D120002A004146B1
:103D2000B0472469002CEFD1002F26D1280003B022
:103D3000F0BCBB46B246A946A046F0BD174ED6E73A
:103D4000154B99460A239B4602E02469002CEBD0D0
:103D50002368002BF9D04B461B68002B01D0A342EF
:103D6000F3D12A0041462000B0476B465A46200056
:103D7000DA71D91D0122B047E7E750461AF044FA3C
:103D8000D4E7C04640420F00FFFFFF7FF01700203E
:103D9000F53B001054AF002060AF0020E53B001061
:103DA000F8B557464E464546DE4698461A4BE0B5AE
:103DB0009B461A4B07000E0091469A46184D5B46EB
:103DC0001C68002C03D115E02469002C12D02B684C
:103DD000002B01D0A342F7D1A368002BF4D031000F
:103DE000380098470028EFDDF0BCBB46B246A94634
:103DF000A046F8BD53465B6A984508D85246926A79
:103E00004A4502D302204042EEE79845FAD101200C
:103E10000021FEF7D7F9D2E754AF0020004005405B
:103E200060AF00200A4A1368002B05D10CE01A008D
:103E30001B691032002B07D08342F8D1002902D130
:103E400018691060196170470029FCD01060FAE70A
:103E500054AF002010B500F07FFA10BDF0B5CE468B
:103E6000474680B583B06B460600DD1D2870FEF71F
:103E70009FF90023194A12184B41002B02DA012244
:103E8000174B52421749080088461AF0F5F9164BAD
:103E900081461C68002C14D0144F02E02469002CC9
:103EA0000FD02368002BF9D03B68002B01D09C4237
:103EB000F4D1200001222900FFF79CFE2469002C88
:103EC000EFD14B46002B05D1300003B0C0BCB94642
:103ED000B046F0BD40461AF097F9F5E740420F00B2
:103EE000FFFFFF7FF017002054AF002060AF0020DD
:103EF00070B5040018F010F901230100050001223B
:103F00002000FFF7CFFE084B1C68002C06D063682A
:103F1000002B05D098472469002CF8D1280070BDEB
:103F20002469002CF3D1F9E754AF00207047C04654
:103F30000022014B1A707047D4B300204B79002047
:103F4000FF2B0BD18B79002B08D1CB79012B05D11D
:103F5000082A03D9024B8A7809301A707047C04684
:103F6000D4B300200120704710B5012913D11249A4
:103F70005379107909781B0203430020994200D03D
:103F800010BD5378012B08D0022BF9D164220021F7
:103F90000020FEF791FA0120F2E7D37891781B0216
:103FA0001943480ADB0501D4012040427F238A05DA
:103FB000D20F1940FEF708FBD4B300200048704729
:103FC000F8F9021070B5050014000120012909D18B
:103FD00053780020012B05D1637912791B0213431A
:103FE000072B00D070BD21002800024A9F3301F04A
:103FF00041FAF7E750F902100123037000487047B7
:1040000030F902104B780A781B0213438A7810B5F6
:1040100012041A43CB781B0613439622D200934214
:1040200000D010BD0022012011004042FEF7CCFA62
:10403000024B1860024B19607047C046F4AE002076
:10404000F8AE002010B5024B1878FDF71DFB10BD2F
:10405000D5B30020154B70B51A68002A22D0EFF3B3
:10406000108172B610680028FCD0BFF35F8F00206B
:104070000F4A596010701B68BFF35F8F186081F39F
:104080001088002400250B4E3078FDF7F1FA002847
:1040900004D1002400252900200070BD3078FDF7F0
:1040A000F3FAF8E7FA240025A400ECE78CB300202B
:1040B000D6B30020D5B3002070B5040000200E0058
:1040C00001F0EEFA002834D0002001F001FB0028B6
:1040D0002FD0FEF76DF80023174A12184B41002B22
:1040E00016DB164D28001AF0C7F8002821D0002052
:1040F00001F0D6FA00280FD101200021404200F043
:10410000EDFC0324644228001AF07EF8200070BD04
:1041100001220B4B5242E4E7002001F0D9FA0028BB
:10412000EAD021003200002001F0DEFA041EEAD1BC
:10413000E7E703246442E9E740420F00B4B30020FC
:10414000FFFFFF7F10B5FEF733F800230D4A12186A
:104150004B41002B02DA01220B4B52420B4C200048
:104160001AF08AF800280CD001200021404200F00B
:10417000B5FC002001F006FB0028F5D120001AF064
:1041800043F810BD40420F00FFFFFF7FB4B3002093
:10419000F8B5DE46574680B505000C00FEF708F876
:1041A0000023364A12184B41002B02DA0122344B0D
:1041B0005242344908008A461AF05EF8002803D1BA
:1041C000C0BCBB46B246F8BD002001F069FA002829
:1041D0004AD00026002C43DD2B4B9B4614E0A91946
:1041E000002001F00BFB070001200021404200F0FD
:1041F00075FC002001F0C6FAFDF7DAFF224BF61934
:1042000018605960B4422BDD002001F017FBA71B9A
:104210000200B84200DD3A00002AE0D1012000216E
:10422000404200F05BFC002001F0ACFA002001F0FD
:1042300037FA002814D0002001F000FB0028E1D15B
:10424000FDF7B6FF5B460F001A685B6800218446E5
:104250000E4812184B419F4202D8D3D19445D1D970
:10426000504619F0D1FFABE700200021064B186043
:104270005960504619F0C8FFA2E7C04640420F00FF
:10428000FFFFFF7FB4B30020B819002020A1070072
:1042900030B52A4C85B00021200019F0D5FF002848
:1042A0001CD1274B1A68002A16D0EFF3108172B682
:1042B00010680028FCD0BFF35F8F012421485960AB
:1042C00002781B68D2B20470BFF35F8F00201860C1
:1042D00081F31088002A17D005B030BD01200021DD
:1042E000404200F0FBFB002001F0F2F90500200045
:1042F00019F08AFF002DEFD0134B1B68002BEBD079
:10430000124A10689847E7E7FDF7CAFD0400FDF779
:104310004FFFFA220023920012184B41002B02DAC1
:1043200001220B4B524201210291002101910949C6
:1043300020000091FDF7B8FDCEE7C046B4B30020E1
:104340008CB30020D6B30020F4AE0020F8AE0020DD
:10435000FFFFFF7F55400010D02310B51B0684B02F
:104360001C68FDF79DFDFDF799FEA04202D00020DC
:1043700004B010BD284B1B7801F060FD274803688E
:10438000002B45D00120FDF71BFBFF23244C2549C2
:1043900020701840FDF796F920780121FDF756F9B5
:1043A0000520FDF779F9002824D1082200211E48B4
:1043B000FFF73EFBFDF774FD0400FDF7F9FEFA225E
:1043C0000023920012184B41002B02DA0122174BF6
:1043D00052420121029100210191154920000091D2
:1043E000FDF762FD0028C2DB12480121FFF71AFD2C
:1043F0000120BDE70120FDF7F7F80B4B0100180085
:10440000FDF740FB002205200B49FDF785F9EBE79E
:10441000FDF71CFBB6E7C046E0060310B4B300206E
:10442000D5B30020914200108CB30020FFFFFF7F26
:1044300055400010E0100020454000100048704733
:1044400094FA02100048704740FA021010B50400B8
:1044500017480378002B20D0002C06D1154B1648A6
:104460004380063BFF3B038010BD052C1DD8134B3A
:10447000A400E05812490123013804E001330A8006
:104480000231142B0DD0C25C002AF7D1C022DBB25E
:104490005B00920008481343E5E7112100F01AF889
:1044A000DAE7CA2304489B00DDE70020DCE7C046CA
:1044B000BCB30020090400002CAF002028FA021031
:1044C0002EAF002010B5024800F0D8F810BDC0464D
:1044D000A4B3002030B54B1E012900D1A7E0664AE5
:1044E00011780D092C0030349F2900D9A2E0047006
:1044F000012B00D1BEE00F21147821400C00303494
:10450000092900D998E04470022B00D1B2E0547818
:104510002509290030319F2C00D990E08170032BB0
:1045200000D1A7E00F2121400C003034092900D927
:1045300087E0C470042B00D19CE094782509290001
:1045400030319F2C00D97FE00171052B00D191E023
:104550000F2121400C003034092900D976E0447144
:10456000062B00D186E0D4782509290030319F2C14
:1045700000D96EE08171072B00D17BE00F21214033
:104580000C003034092966D8C471082B00D171E0C1
:1045900014792509290030319F2C5FD80172092B2D
:1045A00068D00F2121400C003034092958D84472BA
:1045B0000A2B5FD054792509290030319F2C52D81D
:1045C00081720B2B56D00F2121400C003034092969
:1045D0004BD8C4720C2B4DD0947925092900303169
:1045E0009F2C00D9073101730D2B43D00F2121409F
:1045F0000C003034092901D937310C0044730E2BDB
:1046000038D0D1790C09220030329F2900D90732E5
:1046100082730F2B2ED00F220A4011003731092A46
:1046200001D830321100C173102B23D01030002379
:10463000037030BD07345AE737310C0063E70731A8
:104640006CE737310C0074E707317DE737310C0038
:1046500085E707318EE737310C0095E707319DE795
:1046600037310C00A3E70731AAE737310C00C472D9
:104670000C2BB1D1C018DAE7A4B3002010B588B074
:1046800004000D2200216846FFF7D2F90D22002117
:1046900004A8FFF7CDF94B236A466846137004A9B6
:1046A0000D2219F0A9FD1521082220006944FFF709
:1046B000C5F908B010BDC046F8B500F03FF90C23AD
:1046C000184DFF22AB6705201749FDF725F8174C59
:1046D000402200212000FFF7ABF9402700230126EC
:1046E0002121134A66702783A260136063545F31EF
:1046F0006184453963540F4A0F496360E26027873C
:10470000A1620B606362E26219F0D6FD80239B0513
:104710002E64EB649023094AEA508022084B52022F
:10472000DA64F8BD000011501105002068AF0020C8
:1047300084001050000110508000105010D0010073
:104740000020115010B501210520FCF77FFF10BD9E
:1047500010B500220021024800F010F910BDC0463B
:1047600088AF0020044B1970002904D080219023C9
:10477000024A8902D1507047D0B300200020115066
:104780000B785B0602D14B78052B00D070478A78F6
:10479000014B1A60FAE7C04600001150F0B5C6465A
:1047A00000B5CC7888780A794B797F21A40701403D
:1047B0001B02C50913434F00A20F1400324E7A1991
:1047C0005201B218907001206840507000205B05C3
:1047D0005B0DD0701383D4768046CA00012D33D090
:1047E0002A488446880162448446B4446046826014
:1047F00040461060002933D0254AC90090466246E1
:10480000414451603F223F339343022C00D15B006F
:1048100020487A1901685201B218D1601E4ACB189B
:10482000036051405A40802388465B019A4228D851
:104830004346A4061C4380237F197F01F619726842
:104840001B062343136011E0144884468801624428
:104850008446B4446046826240461060002909D113
:1048600000236D0175196B600D4BEB60012080BC5E
:10487000B846F0BD084AC9009046624641445162BC
:10488000C0E7FDF7C9FED3E768AF002084001050F1
:104890000400105070B30020000010508000105031
:1048A0000001105010B519F007FD10BD10B57F20A4
:1048B0000C0020404000E409110000191A00034BCD
:1048C0004001C01800F05AF8012010BD68AF002068
:1048D0007F23180000B5084083B00B4204D14B423F
:1048E0004B41084A013393668022C9094000064BB8
:1048F000401840010021C018120119F0D5FC03B086
:1049000000BDC0460020115068AF00207F22130078
:1049100010B50B400A4200D110BDC9095B005B18FD
:1049200004485B01C018002300220349C37019F03A
:10493000BBFCF1E768AF0020FFF7FFFF80220A4BC6
:10494000520410B51A60094B09491A6010000B682F
:104950009843FBD18022002152010648FFF768F8F6
:104960000922054B5A6710BD00E0004000F00040EE
:1049700008C000400000105000001150002310B586
:10498000C3820133828283760161040019F044FC02
:10499000002804D080219023074A8902D1502000AA
:1049A00019F072FC002802D00123237710BD2000EB
:1049B00019F072FCFAE7C046002011507047C0465B
:1049C0007047C04600207047002070477047C046BF
:1049D0007047C0467047C0467047C046024B587883
:1049E000431E9841C0B270470CAA0020024B1878B1
:1049F0004007C00F7047C0460CAA0020F8B54746D4
:104A0000CE4680B52A4F06003B78FF2B04D001200C
:104A1000C0BCB946B046F8BD002154222548FFF776
:104A200007F80022244C254B20001A70FDF70EF8E1
:104A3000234B1C60234C2000143CFDF715F820008C
:104A400001F0E4FD204B214D1C60214B002B04D0D4
:104A50002800FFF7D1FA1F4B18601F490024894630
:104A60001C49002388462A7810E043461B686201EF
:104A70009B18002B12D05B68002B0FD098472A7828
:104A80000134E4B2511C2300A14209DBA242ECD85C
:104A90009B1A5B014B445B68002BEFD10020B7E70A
:104AA00030003E70FFF708FE3000FFF74BFEAEE728
:104AB000141100200CAA0020C4A90020D1B30020AA
:104AC00060AA00200C11002064AA0020CFB30020AF
:104AD000F93F0010E0A6002050FB0210F0B5DE46C2
:104AE00057464E464546E0B5C84B91B002931B78F9
:104AF000FF2B00D13EE1C64BC64E9B465F46C64BE0
:104B00000DAC0193C54B009335686A69EFF31081D2
:104B100072B61368002BFCD0BFF35F8FA961280029
:104B2000210001F0A3FB6A69AB69BFF35F8F00212D
:104B3000116083F31088002800D11BE16378082BF3
:104B4000E2D89B00FB589F466368002BDCD0A0682E
:104B50009847D9E77F222179AF4D0A405300EB18DF
:104B60009846C809804440460123303005799D436A
:104B70000571057903339D430571002A00D100E1D9
:104B80004346A74A1B7D1278934200D3EFE0A54A23
:104B90005B011568ED18002D00D1EBE0A368627988
:104BA0002078AD69A847AFE79F4A1378002B00D162
:104BB000E0E01378013BDBB213701378002BA3D134
:104BC0000122954D01212B78042013432B703423AF
:104BD000EA5C8A43EA54EA5C8243EA540133EA5CC1
:104BE0008A43EA54EA5C8243EA54237800209B46D5
:104BF00000F09EFC602223791A40602A00D1EFE089
:104C0000402A00D1F5E0DB06DB0E012B00D113E1D9
:104C1000022B00D1C7E0002B00D0E1E0202A00D118
:104C20001CE2002A00D0DBE06379092B00D9D7E031
:104C30007E4A9B00D3589F46774D2B78DB0700D4E4
:104C400062E7FFF7C9FE5FE7019BDB78DB0700D473
:104C50005AE76068FFF7B4FE56E76F4D2B78DB0725
:104C600000D451E728780007C00FFFF7B3FE4BE7E9
:104C700023786A4999468B46694B6A4998468A4621
:104C800039001A7847460023B04600254E4689462B
:104C900010E053461B686A019B18002B00D176E098
:104CA000DB68300098473A780135EDB2511C2B0093
:104CB0008D4244DC9542ECD39B1A5B015B44EFE7E9
:104CC000237858499946564B8A4698463100BB4648
:104CD0004E461A7800250023474689460FE0534682
:104CE0001B686A019B18002B55D0DB683000984781
:104CF0003A780135EDB2511C2B008D4207DC95420C
:104D0000EDD39B1A009A5B0194466344EDE7019D45
:104D1000542200212800FEF78BFE1022FF21444878
:104D2000FEF786FE28002022FF2114304E465F4603
:104D3000FEF77EFE00F0F2FBFFF74AFEE4E6364D9A
:104D4000542200212800FEF773FE1022FF21281DA7
:104D5000FEF76EFE28002022FF21143046464F4603
:104D6000FEF766FE00F0DAFB2379AB70CCE6501C50
:104D7000984213DA11B0F0BCBB46B246A946A04631
:104D8000F0BDA3686279207800F0E6FBBCE64646F9
:104D90004F46214DE6E74E465F46CBE71F4D9B1A37
:104DA0005B015D19FAE67023217A0B4218D1C8091C
:104DB00082460F330B405B0098461948EB1853446A
:104DC0001B7D00789946834266D216485B010068D5
:104DD00081469944002A00D15FE14B46002B68D1FF
:104DE00020780021FFF774FD80212078FFF770FD07
:104DF0008AE6104800F09CFB012158460EAAFFF7F6
:104E0000E1F8002800D07FE6EAE7C0461411002050
:104E1000A8FA021064AA00200CAA002050FB02107D
:104E2000CFB30020E0A60020D1B30020CCFA0210BE
:104E300010AA0020C53F0010237A0F2BD0D8CF4AEC
:104E4000EB181B791578AB423ED3691C9942C7DB3E
:104E50005D1BCB4B6D01ED18686900F069FB01210A
:104E600058466B690EAA9847002800D04CE660228D
:104E7000150023791D401A42B2D163790A3B012BF8
:104E8000AED800F055FB63790A2B00D199E1584662
:104E90000EA900F0D9FA37E6431C4B4500DAF7E0DB
:104EA0004B461B1A5B019946B5488144002A00D144
:104EB000F3E04B46586900F03BFB4B460121584656
:104EC0005B690EAA98479CE7AE4A5B011568ED182E
:104ED000002DC1D184E7A37999466B789945D6D046
:104EE0006B78002B00D033E14B466B70002B00D168
:104EF0002BE148460138C0B2FFF7A4FA002800D1E0
:104F00007EE143780793022B00D079E10122C17939
:104F1000B1468B11491113400A40302112015B0147
:104F200013432A78A8468A4313432B7009239A46D1
:104F300082445646BA46C37882781B021343C3188C
:104F400005938E4B04938E4B08938E4B09938E4B97
:104F50000A93059BB34200D855E1737801220B2BCD
:104F600003D13378F278F6187378042B00D044E13B
:104F7000059B00279B1B9BB20693049B0B921D78FD
:104F8000002303931BE0099A7B011568ED18002D9F
:104F900000D132E1310058462B69069A9847844681
:104FA000082803D9069A824200D313E1049B0137F3
:104FB0001D78FFB26B1C03979F4200DD1DE1BD42CF
:104FC000E1D8039B5D1B089B6D019C466544E1E7AE
:104FD0006B780CAA02321370584601230EA900F018
:104FE00049FA91E5E3881A0AD8B20F2A00D9F7E600
:104FF00066499300CB589F460EA800F09FFA58468A
:10500000A179FFF7A5FB02222B7813432B707BE5D8
:10501000E388012B00D0E3E608222B78584693431F
:105020000EA92B7000F010FA6EE5022029780CAB67
:105030009A1C8B068908DB0F01400B4313805846EE
:1050400002230EA900F016FA5EE5E388012B00D0DA
:10505000C6E608222B7813432B7018E7237A0F2B10
:1050600000D9BDE6EB181D79444B1B789D4228D230
:10507000444B6D011B685D19002D00D1B0E66869D5
:1050800000F056FA012158466B690EAA9847B8E617
:10509000002A00D0A4E6002399466279022013007A
:1050A00003928343012B15D0002A00D098E62B00F1
:1050B0004344534430331B790CAA9B07DB0F023265
:1050C000BCE75A1CAA4200DA8AE6ED1A2C4B6D01A5
:1050D000ED18D4E7E388002B12D1029B1878039BCC
:1050E000012B23D0FFF7F4FB43460221EB18534476
:1050F00030331A790A4301211A711A790A431A7155
:105100004B46002B00D1FFE4586900F011FA4B46E2
:1051100001215B690EAA58469847002000F008FA62
:105120003523EB5CDB0700D5EEE4B0E6FFF7EEFBE2
:1051300043460221EB18534430331A798A431A71DB
:105140001A7903998A431A71DAE7FFF741FC9EE660
:1051500000215846FFF706FB5846FFF7A3FBAB7844
:10516000074903930491054B064998461A7805911F
:10517000002329001D008A461BE0C046CFB3002053
:1051800050FB0210E0A6002020AA0020F4FA021032
:10519000059B6A011B689B18002B4DD0DB685846A5
:1051A000984743461A780135EDB2511C2B008D42C9
:1051B0002EDC9542ECD39B1A049A5B01944663441F
:1051C000ECE70CAB9A1C584601230EA9157000F0B1
:1051D00051F999E40B9A012A4FD0002A3CD00023C0
:1051E000B07804E00133DBB20F71934234D2C118BE
:1051F000C9B241440D79FF2DF4D04E46454657467D
:1052000000236B70ECE54E465746FFF7DFFB3EE6AA
:105210005546542200212800FEF70AFC1022FF21E7
:10522000281DFEF705FC28002022FF211430FEF780
:10523000FFFB039BAB7057E65546FAE7FEF7BEFE51
:10524000021E00D1CCE5D37891781B020B4358465F
:105250000EA900F00FF9D4E565463B002A003100A5
:105260000A9800F073FEAC46049B039A1B786644D0
:105270000133934200DB6CE6BFE7174B2969994283
:10528000ADD1079AABE7FFF79DFB021E00D1A7E562
:10529000584613780EA900F0EDF8B2E52189FFF722
:1052A000D5F8021EF4D19BE5022A0FD0FFF78CFB44
:1052B000021EC8D194E5FFF7C1F8021E00D18FE5A8
:1052C000122358460EA900F0D5F89AE5FFF7BAF870
:1052D000021EB8D184E5C0464D590010F8B55746B6
:1052E0004E46DE4645460C00E0B516001F00002A7B
:1052F0003CD0702398461E4B00259B461D4B9A467A
:105300001AE05B461B78200099465346997800F0D6
:10531000DFFD00281CD021004846FFF73FFA002897
:1053200016D0A378DA09012A19D00A9A0135137028
:105330002378E418AE4219DD6378052B08D1E378B1
:105340009B079B0FBB4203D14246A3781A42D8D099
:105350000020F0BCBB46B246A946A046F8BD0B9A59
:10536000013513702378E418AE42E5DC0120F0E744
:10537000141100200CAA0020702270B58B780C004C
:105380001A4201D0002070BD064B20001D78064B4C
:10539000997800F09DFD0028F4D021002800FFF747
:1053A000FDF9F0E7141100200CAA00200B007F206B
:1053B00010B51840DB0934334000044AC018044BD0
:1053C0001168C01800F040FD10BDC04660AA002062
:1053D0000CAA00200B007F2010B51840DB093433E5
:1053E0004000044AC018044B1168C01800F054FD76
:1053F00010BDC04660AA00200CAA002070B57F2412
:105400000F480C4064000419CD0964193034207928
:10541000C00701D5002070BD012625790948354314
:1054200000782571FFF742FA0028F4D10122237990
:10543000934323712379033293432371EAE7C046F0
:105440000CAA00201411002070B5094C0600082297
:1054500020000D00FEF7F2FA00238021E360A36034
:105460002B783000994300220023FFF7C7FF70BD5F
:10547000B0A90020F8B5CE4647469046254E80B5E7
:105480008146082230000D001F00FEF7D7FA434680
:10549000B3600023F381EC79AB7924021C43231C15
:1054A000BC4200D93B1C9FB2B381002C0DD0002F11
:1054B00017D04246002A2BD0402F1BD89FB23378FA
:1054C0007F2B1CD80021144A0FE080212B7800226A
:1054D000994348460023FFF791FFC0BCB946B04648
:1054E000F8BD7F230022317899433B004846FFF7FF
:1054F00085FFF2E740239FB233787F2BE2D9064C39
:105500003A0041462000FEF799FA80212200ECE79C
:105510000020E2E7B0A90020CCA9002010B5142299
:1055200000210248FEF784FA10BDC046B0A9002051
:10553000014B18617047C046B0A9002010B5054C5A
:10554000010008222000FEF779FA0023A360E3603F
:1055500010BDC046B0A9002070B5384C1D0023789E
:105560000600DA09C9098A4210D00020002D00D0B7
:1055700070BD21003000FFF703F92369002B03D031
:1055800022000321300098470120F1E77F2B06D845
:10559000A068002834D02A002949FEF74FFAE28992
:1055A000A1685219E38892B24919E281A16093423D
:1055B00014D03F2D12D9A389981A051C80B2402817
:1055C0002AD82078ADB27F2828D800219A4232D03C
:1055D0001B4A2B003000FFF711FFC9E72369002B9E
:1055E00005D0220002213000984700280AD08021EF
:1055F00023780022994330000023FFF7FFFEB7E72E
:105600000020B5E700213000FFF762F9300080216B
:10561000FFF75EF90120ABE74025D2E79A4207D0B9
:10562000074C2A002000FEF709FA80212200D0E76B
:1056300080210022CDE70022CBE7C046B0A90020A0
:10564000CCA9002070B50400FFF7C8F9002800D1EC
:1056500070BDFFF7CBF90028FAD1E378002BF7D023
:1056600025001035280000F0EBFD3F28F0D9002080
:10567000E178FFF79BFE0028EAD0280000F0E0FD6B
:10568000E1783F2807D992239B00E21800204023AD
:10569000FFF7B4FEDCE70020FFF79CFED8E7C0462A
:1056A00010B50400FFF79AF9002801D1002010BDC1
:1056B000FFF79CF90028F9D1B22292006243034B14
:1056C00001309B181B791840F1E7C046E8A600207E
:1056D000B2239B00434310B50248181800F092FD16
:1056E00010BDC046F8A60020F0B5B226B60046436D
:1056F000224B3500C646984680231035040000B57D
:1057000045445B029A4200D31D4A280092B200F041
:10571000FBFD0700FFF762F9002803D1380080BCC9
:10572000B846F0BDFFF762F90028F7D1B2239B001D
:105730005C434444E378002BF0D0280000F080FD67
:105740003F28EBD90020E178FFF730FE0028E5D0B4
:10575000280000F075FDE1783F280AD992239B00CC
:105760009C4666443200402342440020FFF746FE38
:10577000D4E70020FFF72EFED0E7C046E8A60020C1
:10578000FFFF0000F8B50400FFF728F9002801D159
:105790000020F8BDFFF72AF90028F9D1B2239B00B9
:1057A0005C432600144D24367619300000F02AFDA3
:1057B0000028EDD02F190020B978FFF7F7FD002859
:1057C000E6D0A2239B009C46644465192900402230
:1057D000300000F099FDB978041E08D003002A00BB
:1057E0000020FFF70BFE0028D2D02000D1E70020D8
:1057F000FFF7F0FDCCE7C046E8A6002070B5B22464
:10580000A40044430B4B0500E41880235B029A423A
:1058100000D3094A200092B200F03CFE06002000AE
:1058200000F0F0FC3F2801D8300070BD2800FFF7E1
:10583000A9FFF9E70CA70020FFFF0000B2239B009F
:10584000434310B50248181800F0FAFC10BDC046DA
:105850000CA70020B222F0B500251B4C83B000211C
:1058600020009200FEF7E4F8184B21001D70FF2382
:105870006371E1235B02A360200008238022A373ED
:1058800038310095073B5200103000F085FC2100B4
:105890000123200080223931FF315200009324304F
:1058A00000F07AFC8E239B00E7183800FCF7CEF856
:1058B00090239B00E6183000FCF7C8F8E5612762EA
:1058C0002663656303B0F0BDE8A60020E4A60020CF
:1058D0000A4A116B136A00290CD0002B07D0002351
:1058E000D361536313630023136201207047536332
:1058F0001363FAE7002BF8D0D161F4E7E8A60020A3
:1059000070B50F4C052200212000FEF791F80D4DD7
:105910002B78DA0707D50C4C9B070CD5012120000A
:1059200000F094FE70BD2000103000F06FFE2B7868
:10593000054C9B07F2D4200000F068FEEEE7C0465D
:10594000E8A60020E4A600200CA70020F0B5C6467B
:1059500000B54B79060082B0022B1CD18B79022B4B
:1059600019D1244FBB78002B15D18B7809253B70BA
:105970000C780C196378242B07D012E02378E418F4
:105980005D196378ADB2242B0BD1AA42F6D2380050
:10599000FFF758FE00E00025280002B080BCB846A2
:1059A000F0BD1A00052B17D0042AF0D163790A2B19
:1059B000EDD12378210098460F4B3000019301333D
:1059C000009341440223023AFFF788FC0028E2D00A
:1059D0000E354544ADB2DAE721003000FFF7CCFCCC
:1059E0000028D8D0A3787B7023785D19E4186278FA
:1059F000ADB2D9E7E8A60020EAA60020F8B56023FA
:105A000014001278050013400020202B12D12F4AD9
:105A10006379277916781B023B439E420AD163784B
:105A2000222B1AD007D8202B3CD0212B02D10129C0
:105A300030D00120F8BD232BFCD1012940D003290F
:105A4000F7D1234B002BF4D0E178A3780902002092
:105A5000194300E000BF0120ECE7012930D0032901
:105A6000E7D101252E00A378E478023924021C43F3
:105A70001471264024321000714000F0E7FD154BF0
:105A8000002BD6D06208002031002A4000E000BF81
:105A90000120CFE70723210028000F4AFFF7EAFC87
:105AA0000120C7E70129F5D00329C2D10B4B002BF8
:105AB000BFD0083200201100FEF7A4FA0120B9E798
:105AC00021002800FFF7C0FC0120B3E7E8A6002072
:105AD0000000000000000000F0A6002005400010BB
