:020000041000EA
:1000000000B5324B212058609868022188439860DF
:10001000D860186158612E4B002199600221596106
:100020000121F02299502B49196001219960352056
:1000300000F044F80222904214D00621196600F024
:1000400034F8196E01211966002018661A6600F04E
:100050002CF8196E196E196E052000F02FF8012189
:100060000842F9D1002199601B49196000215960AB
:100070001A491B48016001219960EB211966A021F2
:10008000196600F012F800219960164914480160C1
:100090000121996001BC002800D000471248134993
:1000A000086003C880F30888084703B5996A0420EC
:1000B0000142FBD001200142F8D103BD02B5186610
:1000C0001866FFF7F2FF186E186E02BD00000240BE
:1000D000000000180000070000035F00212200005C
:1000E000F4000018222000A00001001008ED00E03C
:1000F00000000000000000000000000074B24E7A12
:1001000000200420F7010010C3010010C5010010F9
:10011000C1010010C1010010C1010010C101001097
:10012000C1010010C1010010C1010010C701001081
:10013000C1010010C1010010C9010010CB01001065
:10014000CD010010CD010010CD010010CD01001037
:10015000CD010010CD010010CD010010CD01001027
:10016000CD010010CD010010CD010010CD01001017
:10017000CD010010CD010010CD010010CD01001007
:10018000CD010010CD010010CD010010CD010010F7
:10019000CD010010CD010010CD010010CD010010E7
:1001A000CD010010CD010010CD010010CD010010D7
:1001B000CD010010CD010010CD010010CD010010C7
:1001C00000BE00BE00BE00BE00BE00BEEFF3058054
:1001D000103800BEF2EB8871C0A40110E0A4011039
:1001E0003802001090A31AE71E481F49086006C88D
:1001F00081F3088810471D480068002801D019487D
:10020000F3E70DA40ECC002902D000F012F8F9E7B4
:100210001749184A002000E001C19142FCD116495B
:100220008847164988471649884700BEFDE701C937
:1002300001C29A42FBD37047E0A40110C000002025
:100240001C2600203CCA01100000042000000420ED
:100250003CCA01100010042000100420000000001F
:10026000704700000000000008ED00E0000000D032
:100270001C260020006100205D600010AD08001009
:100280001D600010F8B5C046044B10B5002B03D01C
:100290000349044800E000BF10BDC0460000000054
:1002A0009860002070690110F0B5DE46454657465B
:1002B0004E462C4CE0B590462200D7B01E0007AB4E
:1002C0009C460F00824623CA23C3126860461A6008
:1002D0000AF0E6FB814605A80300103406CC06C3ED
:1002E0000AF0DEFB04000BA80AF0F4FA00230393E3
:1002F00002934B46524600930BA90423019412A883
:1003000008F04AFC0022002112A808F093FC051E08
:1003100007D0280057B0F0BCBB46B246A946A0465D
:10032000F0BD12A808F0DAFC051EF2D10024002E60
:10033000EFDD0D4B9B460D4B9A460D4B99464246C1
:100340003B571257934208D00092594655225046C7
:100350000AF01EFB01234A4613700134B442EED169
:10036000D7E7C046907E011070690110C469011082
:10037000F1600020F0B5DE46454657464E46E0B5F2
:10038000D5B01E0006AB9C46294C90462300624621
:1003900018330F00824623CB23C260460AF080FB4D
:1003A000814604A80300243406CC06C30AF078FB77
:1003B000040009A80AF078FA0023039302934B463D
:1003C0005246009309A90323019410A808F0E4FB06
:1003D0000022002110A808F02DFC051E07D02800DF
:1003E00055B0F0BCBB46B246A946A046F0BD10A829
:1003F00008F074FC051EF2D10024002EEFDD0D4B39
:100400009B460D4B9A460D4B994642463B57125719
:10041000934208D000925946352250460AF0B8FA65
:1004200001234A4613700134B442EED1D7E7C046E7
:10043000907E011070690110C4690110F160002004
:10044000F0B5DE4657464E464546E0B5EDB01400E1
:100450008B469A460AF024FB814620000AF020FBD6
:10046000804676980AF01CFB06000AF0A3FA4B4679
:1004700008220021070012A8159304F0C5F85B4676
:1004800000251493012310AC48469B46A383109586
:10049000A57765600AF08EFA8146207F08F04CFB54
:1004A0004B465843434608220021A0611AA86363C3
:1004B00004F0AAF83E23E554534623630223404642
:1004C000A387256265620AF075FA3C238046E05CEA
:1004D00008F032FB4346584300210822A06322A8BB
:1004E000666504F091F85E23E554789B5A462365CF
:1004F0005C2398463000E252256465640AF05AFA9B
:1005000043460600E05C08F017FB01223D23E2545D
:1005100006AB9C46624670433D4BA0659946183336
:1005200043CB43C260460AF0BBFA4B46804604A860
:100530000200243342CB42C20AF0B2FA060009A8F4
:100540000AF0B2F943462200009309A90323039558
:100550000295019628A808F01FFB0022002128A878
:1005600008F068FB002811D02A4C00236E2200906E
:10057000294920000AF00CFA0122284B1A706DB0AC
:10058000F0BCBB46B246A946A046F0BD28A808F07C
:10059000A5FB0028E8D1002FF1DD1F4B0024994670
:1005A0001F4B98460CE0311C281C03F016FFD0218D
:1005B000890503F063FF002817D10134A742DED07C
:1005C000779AA300D558789A281CD658311C03F086
:1005D00055FF0028E7D1291C301C03F0FEFED02176
:1005E000890503F04BFF0028E7D0301C03F04CFFD7
:1005F00002900391281C03F047FF352200900191DF
:10060000494640460AF0C4F90122044B1A70D4E767
:10061000907E0110346A011070690110F1600020B1
:10062000FC690110F0B5DE464E4645465746E0B53A
:100630001D00994BA9B00C00039205930AF030FA03
:10064000060028000AF02CFA944B06AA804603CB39
:1006500003C206A80AF024FA814633980AF020FA69
:1006600082460AF0A7F9834630000AF0A3F9002871
:1006700020DD8000039D271806E0802040420434DE
:1006800028700135A74215D0206803F0FDFE03F065
:1006900089FB0023002203F04DFA03F001FB030065
:1006A0008033EADB7F28EADD7F20043428700135BF
:1006B000A742E9D1082200210AA80D9603F0A4FF61
:1006C000039B00250C93092308AC3000A3830895F5
:1006D000A57765600AF06EF90600207F08F02CFA15
:1006E000FE239B05A3600123089343467043082221
:1006F0000021A06112A8E5606560636303F084FFD8
:100700003E23E554329B4046236302232562656203
:10071000A3870AF04FF93C230500E05C08F00CFACF
:100720006843A06348460AF045F902AA0B239446A1
:1007300063449846002829DD54234246137001285B
:1007400024D005AE800006AD871906E08020404227
:10075000043530700136AF4218D02868011C03F010
:100760003FFE03F091FE03F01DFB0023002203F087
:10077000E1F903F095FA03008033E7DB7F28E7DD3A
:100780007F20043530700136AF42E6D14B46082257
:1007900000211AA80025636503F036FF5E23E554A7
:1007A00043465C272365092348469846E35325645E
:1007B00065640AF0FFF80600E05D08F0BDF9FC276B
:1007C00053467043012600210822A065BF0522A8D8
:1007D0006367A764E5642664656403F015FF7E2300
:1007E000E554369B424623677C2350469946E252A5
:1007F000256665660AF0DEF84B468046E05C08F048
:100800009BF943465843FE239B05A3663D23E654CC
:100810005B46A067E56626666566A764002B21DD5A
:10082000349D9F00359EEF1906E08020404204353C
:1008300030700136BD4215D0286803F025FE03F064
:10084000B1FA0023002203F075F903F029FA03003E
:100850008033EADB7F28EADD7F2004353070013603
:10086000BD42E9D15B462000369A3599FFF71CFD61
:1008700001280AD00A4C0123D22200900949200005
:100880000AF086F80122084B1A7029B0F0BCBB466A
:10089000B246A946A046F0BD00002842BC7E011029
:1008A000B46A011070690110F1600020F0B557467C
:1008B000DE464E464546E0B5F54C0027A5440AF015
:1008C000DFF8F44B0993F44B0B93F44B2593F44B63
:1008D0000893F44B0793F44B0A93F44B0C93A0AB9F
:1008E0009946F1AB9A46F24B1793F24B1893F24BA1
:1008F0000D93F24B2193F24B2293F24B1993F24B4F
:100900001293F24B1A93F24B0E93F24B1B93F24B52
:100910001C93F24B1693F24B1D93F24B1E93F24B2A
:100920001393F24B1F93F24B2093F24B2393F24B12
:100930002493099E0B9B25981F6037600AF028F8C6
:100940000A9D089B079A1F702B001770343358AA12
:1009500013CB13C203CB03C22B0050AA483313CBD3
:1009600013C21B6813602B002A00583349AD13CB08
:1009700013C5130088AD643313CB13C52A0013CB02
:1009800013C203CB03C20C9970AD0B1D13CB13C55F
:100990002A0003CB03C260220021484603F034FE44
:1009A00080234946DB058B62D44BFE204B638123B9
:1009B0008005DB0548628B635146029149460191EF
:1009C00070A9009188A90B0049A90A0058A850A94C
:1009D000FFF736FD0121089B079A197011783368DB
:1009E0000122002901D10022013309990B980B60E3
:1009F000036858AD9B180360179809F0C9FF0C9E57
:100A0000089B079A1F7033001770183313CB13C558
:100A10002A0003CB03C20A98B94C5830030049940A
:100A200050AA23CB23C2330088AA2C3323CB23C262
:100A300023CB23C24C3603CB03C2330070AE23CB8F
:100A400023C6320003CB03C2A22200215200484633
:100A500003F0DAFDA0234846C450504602904846B1
:100A6000019070A8009088A8030050A8020049A82F
:100A7000010058A8FFF7E4FC0120089B0999079A98
:100A800018700B6811780122002901D1002201336E
:100A9000099918980B600B990B689B180B6009F06B
:100AA00077FF089B0A9D1F70079B44AA1F702B00AD
:100AB000343313CB13C203CB03C22B003BAA4833FE
:100AC00013CB13C21B6813602B0037AA583313CB08
:100AD00013C22B000A95643358AA13CB13C213CB4D
:100AE00013C203CB03C20C9E49AA331D13CB13C2FE
:100AF00003CB03C231006022603170A803F08AFD8D
:100B00007F4B44A8279309F0CBFF804637A809F014
:100B1000C7FF0122060030A83092319209F0C0FFD1
:100B2000050049A809F0BCFF040009F043FF434653
:100B3000494608224B610F9000218346A2A803F08A
:100B400063FD494601223BAB0B618A8340460F603F
:100B50004F608F7709F02EFF49468046087F07F0E7
:100B6000EBFF414648434946082288614E63AAA8E4
:100B7000002103F049FD49463E230F624F62CF54E6
:100B800058AB0B63022330008B8709F013FF3C2323
:100B900049460600C85C07F0CFFF494670434D65E3
:100BA000886308220021B2A803F02EFD49465E2387
:100BB00027AE01220F644F64CF540E655C262800D7
:100BC0008A5309F0F7FE49460500885D07F0B4FF37
:100BD00049466843082288654C67BAA8002103F09B
:100BE00013FD49467E237C250F664F665B3ECF543E
:100BF00088AB0B6720004E5309F0DCFE4A46040028
:100C0000505D07F099FF4A466043494690673D238F
:100C10000122CA540A9A3FAB13CA13C312681A605E
:100C20003FAB180009F03CFF0323349333AB0400BF
:100C30001800339609F034FF050050AB180009F096
:100C400049FE4A4650A9042350460397029701954E
:100C5000009407F0A1FF00220021504607F0EAFFB0
:100C6000002801D001F034FB504608F037F8002886
:100C700001D001F02DFB002398465B4670AE88AD95
:100C8000002B00DC7EE0B3464646A8464CE0C0465A
:100C9000F4FAFFFFAC290020A8290020406B0110C6
:100CA000F2600020F1600020907E0110107F0110A2
:100CB000546B0110686B011070690110FC69011020
:100CC000806B0110046C0110186C0110A46C0110F1
:100CD000C4690110B86C0110CC6C0110B46A011029
:100CE000E46C0110FC6C0110146D0110546D0110C6
:100CF000946D0110A86D0110C06D011000004040FE
:100D000000002842291C201C03F067FBD021890524
:100D100003F0B4FB00281BD104239C460F9B013633
:100D2000E344E044B3422DD05B461C6843461D6853
:100D3000201C291C03F0A2FB0028E3D1211C281C45
:100D400003F04BFBD021890503F098FB0028E3D08A
:100D5000281C03F099FB02900391201C03F094FBE4
:100D60005522009001910D99219809F011FE012260
:100D7000079B01361A7004239C460F9BE344E04412
:100D8000B342D1D10121079B1A78089B1970099BA6
:100D90001B68002A01D001F0CFFA00220133099923
:100DA00019980B600B990B689B180B6009F0F0FD0C
:100DB000089B0A9D1F70079B49AA1F702B003433A4
:100DC00013CB13C203CB03C22B0044AA483313CB6B
:100DD00013C21B6813602B003FAA5833643513CB32
:100DE00013C22B0088AA13CB13C213CB13C203CB9D
:100DF00003C20C9B50AA043313CB13C203CB03C210
:100E000000216022484603F0FFFBFE224B4692057C
:100E10005A6280234A46DB0593625A4B49A85363C2
:100E20008123DB05936309F03BFE83463FA809F06D
:100E300037FE109050A809F033FE0F9009F0BAFD6C
:100E40008046584609F0B6FD002821DD44AC8000FC
:100E50003BAD061906E0802040420434287001357D
:100E6000A64215D0206803F00FFB02F09BFF002381
:100E7000002202F05FFE02F013FF03008033EADB82
:100E80007F28EADD7F20043428700135A642E9D1AD
:100E900053465A4600215A61F3A8082203F0B4FBD6
:100EA000092453463BAA1A619C831F605F609F77A9
:100EB000584609F07FFD53460500187F07F03CFEB9
:100EC000534668439861FE2352460126109D9B05B8
:100ED000936055630021D76016605760FBA8082215
:100EE00003F092FB52463E2117625762575488A97D
:100EF000116302212800918709F05CFD3C235246D2
:100F00000500D05C07F018FE5246514668439063D6
:100F10000F9AFFA84A6510300822002103F074FBE5
:100F200051465E2358AD0F644F64CF540D655C2568
:100F30000F984C5309F03EFD52460400505D07F0F7
:100F4000FBFDFE2352469B0593643D236043D7641B
:100F5000906516645764D6544346002B31DDA022B9
:100F600020AB52009B181F704346012B29D042230F
:100F700020AA9446FF3363441D0043469E00A1AC63
:100F80004E4408E000004040802040420434287075
:100F90000135A64215D0206803F076FA02F002FF70
:100FA0000023002202F0C6FD02F07AFE0300803327
:100FB000EADB7F28EADD7F20043428700135A64271
:100FC000E9D14346504658AA70A9FFF7D3F9002843
:100FD00001D001F06CF90121079B1A78089B197068
:100FE000099B1B68002A01D001F0A3F900220133FC
:100FF00009991A980B600B990B689B180B6009F004
:10100000C7FC089B0A9D1F70079B3FAA1F702B00FF
:10101000343313CB13C203CB03C22B003BAA483398
:1010200013CB13C21B6813602B0033AA58336435EB
:1010300013CB13C22B0050AA13CB13C213CB13C272
:1010400003CB03C20C9B44AA043313CB13C203CBC0
:1010500003C26022002188A803F0D6FAFE239B0574
:1010600091938023DB059293C54B3FA895938123F1
:10107000DB05969309F014FD33AB040011901800C2
:1010800009F00EFD44AB1490180009F009FD109012
:1010900009F090FC0F90200009F08CFC00281EDD68
:1010A000B84B3BACA04680269B4680002EAD8044CA
:1010B0003602206803F0E8F902F074FE00220023F3
:1010C00002F038FD02F0ECFD584500DAAD48B042C0
:1010D00000DBAD48043428800235A045E9D14B46F9
:1010E000119D00215D610822A2A803F08DFA07245A
:1010F0004B462EAA1A619C8328001F605F609F7771
:1011000009F058FC4B460500187F07F015FD4B46CB
:1011100068439861FE234A460126149D9B0593600F
:1011200055630021D76016605760AAA8082203F013
:101130006BFA4A463E2117625762575450A9116311
:1011400002212800918709F035FC3C234A4605001E
:10115000D05C07F0F1FC4A46494668439063109A18
:10116000B2A84A650822002103F04EFA49465E23E0
:1011700058AD0F644F64CF540D655C2510984C53E7
:1011800009F018FC4A460400505D07F0D5FCFE2328
:101190004A469B0593643D236043D764906516647B
:1011A0005764D6540F9B002B2BDDA02220AB52009E
:1011B0009B181F800F9B012B23D020A98C46023245
:1011C0006244150088AA93469B009B4480231B021F
:1011D00098466C4E89AC206803F056F902F0E2FDA7
:1011E0000022002302F0A6FC02F05AFDB04200DA11
:1011F0006448404500DB6448043428800235A34538
:10120000E9D10A9B37AA183313CB13C237A809F0C8
:1012100047FC01230400309330A80133319309F0D7
:101220003FFC050049A809F03FFB4A4649A90323B2
:101230005046039702970195009407F0ADFC0022F9
:101240000021504607F0F6FC002801D001F051F8CB
:10125000504607F043FD002801D001F04AF80F9BEB
:10126000002B17DD70ACA4465E0058AD664400222A
:10127000A35E00216A5E934208D000920D99352248
:101280000E9809F085FB0122079B1A700234023583
:10129000A642ECD10121079B1A78089B1970099B83
:1012A0001B68002A01D001F03AF8002201330999A5
:1012B0001B980B600B990B689B180B6009F068FB7F
:1012C000089B0A9D1F70079B3FAA1F702B00343399
:1012D00013CB13C203CB03C22B0037AA483313CB63
:1012E00013C21B6813602B0030AA5833643513CB2C
:1012F00013C22B0050AA13CB13C213CB13C203CBC0
:1013000003C20C9B44AA043313CB13C203CB03C206
:101310006022002158A803F077F9FE239B05619312
:101320008023DB056293164B3FA865938123DB0581
:10133000669309F0B5FB834630A809F0B1FB109025
:1013400044A809F0ADFB0F9009F034FB80465846E5
:1013500009F030FB002819DD37AC80003BAD0619E1
:1013600001CC03F091F802F01DFD0022002302F0F1
:10137000E1FB02F095FC01C5A642F1D106E0C046B2
:10138000000040400080FFFFFF7F00004B465A46B0
:1013900000215A61A2A8082203F036F902254B4623
:1013A0003BAA1A619D831F605F609F77584609F0D2
:1013B00001FB4B460400187F07F0BEFB4B46604321
:1013C0009861FE234A460126109C9B059360546356
:1013D0000021D76016605760AAA8082203F014F90C
:1013E0004A463E2117625762575450A911639587A8
:1013F000200009F0DFFA3C234A460400D05C07F0E5
:101400009BFB4A464946604390630F9AB2A84A65DF
:101410000822002103F0F8F849465E2370AC0F64FF
:101420004F64CF540C655C240F980D5309F0C2FA39
:101430004A460500105D07F07FFBFE234A469B05E8
:1014400093643D236843D764906516645764D6540B
:101450004346002B19DD8897012B16D00024D34E6C
:101460004644B60058AB1B19586803F00DF802F05B
:1014700099FC88AB1D190022002302F05BFB02F0EF
:101480000FFC04346860A642ECD10A9B33AA1833DF
:1014900013CB13C233A809F003FB012304002E93DE
:1014A0002EA801332F9309F0FBFA050049A809F093
:1014B000FBF94A4649A90323504603970297019531
:1014C000009407F069FB00220021504607F0B2FBB0
:1014D000002801D000F0DAFE504607F0FFFB00289C
:1014E00001D000F0D3FE4346002488AE70AD002B3F
:1014F00011DD33682A68934208D000920D99352295
:101500000E9809F045FA0122079B1A70013404363F
:101510000435A045EDD10121079B1A78089B19706D
:10152000099B1B68002A01D000F009FF002201334B
:1015300009991C980B600B990B689B180B6009F0BC
:1015400027FA089B0A9D1F70079B49AA1F702B0052
:10155000343313CB13C203CB03C22B0044AA48334A
:1015600013CB13C21B6813602B003FAA643558339A
:1015700013CB13C22B0088AA13CB13C213CB13C2F5
:1015800003CB03C20C9D50AA2B1D13CB13C203CB5C
:1015900003C2290060226031484603F03BF8844BC7
:1015A00049A8289309F07CFA80463FA809F078FA08
:1015B000012311903BA83B933C9309F071FA8346B9
:1015C00050A809F06DFA109009F0F4F90F90404618
:1015D00009F0F0F9002821DD44AC800037AD061990
:1015E00006E080204042043428700135A64215D020
:1015F000206802F049FF02F0D5FB0023002202F030
:1016000099FA02F04DFB03008033EADB7F28EADD24
:101610007F20043428700135A642E9D15346424662
:1016200000215A61F3A8082202F0EEFF534637AAC0
:101630001A611F6052465F609F770923404693837B
:1016400009F0B8F953460400187F07F075FAFE2236
:10165000534692059A6001226043119C00219861D3
:101660001A605C63DF605F600732FBA802F0CCFFAA
:1016700053463E221F625F629F5488AA1A63022269
:1016800020009A8709F096F93C2352460400D05C6A
:1016900007F052FA534660439863584609F08AF9B6
:1016A00000282DDD4C212A2320AA5218137001286E
:1016B00026D020AA9446233363441D00800028AB23
:1016C00029AC1E1806E08020404204342870013501
:1016D000A64215D0206802F0D7FE02F063FB00237B
:1016E000002202F027FA02F0DBFA03008033EADB83
:1016F0007F28EADD7F20043428700135A642E9D135
:1017000053465A46FFA800215A651030082202F0BD
:101710007BFF534652461F645F645E235C25D754AB
:101720000924534633AA1A6558465C5309F042F916
:1017300053460600585D07F0FFF97043FE265346F6
:1017400001225146B60598651A649E64DF645F64A1
:10175000109BFFA807324B673030002102F054FF86
:1017600051467E2358AD0F664F66CF540D677C25DA
:1017700010984C5309F01EF953460400585D07F0C9
:10178000DBF95346012260439E669867DF661A665E
:101790005F6651463D23CA540F9B8E64002B26DDA5
:1017A0009E004C4670AD4E440BE0C046FFFFFF3F2D
:1017B0000000284280204042043428700135A642AF
:1017C00015D0206802F060FE02F0ECFA002300223F
:1017D00002F0B0F902F064FA03008033EADB7F28FC
:1017E000EADD7F20043428700135A642E9D1504655
:1017F0000F9B58AA70A9FEF757FD002801D100F0F1
:10180000D3FC0023D22200900D99169809F0C0F85D
:101810000123079A1370089A13700122099B1B6811
:1018200009991D980B600B990B689B180B6009F0C8
:10183000AFF8089B0A9D1F70079B3FAA1F702B00E3
:10184000343313CB13C203CB03C22B0037AA483364
:1018500013CB13C21B6813602B0033AA64355833B3
:1018600013CB13C22B0050AA13CB13C213CB13C23A
:1018700003CB03C20C9D44AA2B1D13CB13C203CB75
:1018800003C229006022603188A802F0C3FEDC4B4D
:101890003FA8299309F004F933AB04001490180011
:1018A00009F0FEF801232E932F932EAB159018000C
:1018B00009F0F6F844AB1090180009F0F1F8119017
:1018C00009F078F80F90200009F074F800281EDD68
:1018D000CC4B37ACA04680269B4680002CAD804484
:1018E0003602206802F0D0FD02F05CFA00220023EC
:1018F00002F020F902F0D4F9584500DAC148B042AC
:1019000000DBC1480434288002354445E9D14B4608
:10191000149C00215C610822A2A802F075FE4B46CF
:101920002CAA1A611F604A465F609F770723200038
:10193000938309F03FF84B460400187F07F0FCF84A
:10194000FE224B4692059A6001226043159C0021BD
:1019500098611A605C63DF605F600732AAA802F0DA
:1019600053FE4B463E221F625F629F5450AA1A6389
:10197000022220009A8709F01DF83C234A46040001
:10198000D05C07F0D9F84B4660439863109809F093
:1019900011F8002826DD2A2320AA1385012821D04A
:1019A000944663441D0029AB9B4680231B02984646
:1019B0008000944E2AAC8344206802F065FD02F05A
:1019C000F1F90022002302F0B5F802F069F9B04203
:1019D00000DA8C48404500DB8B480434288002350F
:1019E000A345E9D14B46109E00215E650822B2A8AE
:1019F00002F00AFE4B464A461F645F645E235C2584
:101A0000D75407244B462AAA1A6530005C5308F0C5
:101A1000D1FF4B460600585D07F08EF87043FE2656
:101A20004B4601224946B60598651A649E64DF64F8
:101A30005F64119B07324B67BAA8002102F0E4FDF6
:101A400049467E2358AD0F664F66CF540D677C25FF
:101A500011984C5308F0AEFF4B460400585D07F058
:101A60006BF84B46012260439E669867DF661A66F4
:101A70005F6649463D23CA540F9B8E64002B1EDDD2
:101A800088ACA0469B0098445E4B80269B4670AD78
:101A90003602206802F0F8FC02F084F900220023EC
:101AA00002F048F802F0FCF8584500DA5548B04218
:101AB00000DB5548043428800235A045E9D10A9A54
:101AC0003BAB13CA13C312683BA81A6008F0E8FFC7
:101AD00001230400309330A80233319308F0E0FF73
:101AE000050049A808F0F6FE4A4649A904235046D5
:101AF000039702970195009407F04EF80022002109
:101B0000504607F097F8002800D192E30023D22234
:101B100000900D99169808F03BFF0123079A137067
:101B2000089A13700122099B1B6809991E980B6083
:101B30000B990B689B180B6008F02AFF089B0A9D05
:101B40001F70079B3FAA1F702B00343313CB13C2A7
:101B500003CB03C22B0033AA483313CB13C21B6839
:101B600013602B0030AA6435583313CB13C22B00FB
:101B700050AA13CB13C213CB13C203CB03C20C9DC9
:101B800044AA2B1D13CB13C203CB03C2290060222E
:101B9000603158A802F03EFD194B3FA82B9308F086
:101BA0007FFF30AB04001090180008F079FF01238C
:101BB0002C932D932CAB8346180008F071FF44AB97
:101BC0000F90180008F06CFF119008F0F3FE8046AB
:101BD000200008F0EFFE002818DD33AC800037ADA0
:101BE000061901CC02F050FC02F0DCF800220023C0
:101BF00001F0A0FF02F054F801C5A642F1D105E0C2
:101C0000000028420080FFFFFF7F00004B46109C31
:101C100000215C610822A2A802F0F6FC02254B46D6
:101C200037AA1A6120001F605F609F779D8308F0CC
:101C3000C1FE4B460400187F06F07EFFFE224B4695
:101C400092059A6001221A605A4660430021986109
:101C50005A63DF6008225F60AAA802F0D5FC4B46F9
:101C60003E221F625F629F5450AA1A639D875846A6
:101C700008F0A0FE3C234A460400D05C06F05CFF5E
:101C80004B46604398630F9808F094FE00281BDDD4
:101C90002A232A93012817D0DA4B00249C4660445B
:101CA00086002BAB1B19586802F0EEFB02F07AF8A5
:101CB0002AAB1D190022002301F03CFF01F0F0FFC8
:101CC00004346860A642ECD14B460F9D00215D654F
:101CD0000822B2A802F098FC4B464A461F645F6493
:101CE0005E23D7544B462AAA1A655C2402234A462F
:101CF0002800135308F05EFE4A460500105D06F00A
:101D00001BFFFE264A466843B60590659664D76475
:101D100049460122119D0A644D6707324F64BAA8F3
:101D2000002102F071FC49467E230F664F6670A8C1
:101D3000CF5420347C3B08670B53280008F03AFE50
:101D40004B460500185D06F0F7FE4B46012268433E
:101D50009E669867DF661A665F6649463D23CA54E9
:101D600043468E64002B12DD58ACA4469E0088AD1D
:101D7000664401CC02F088FB02F014F80022002334
:101D800001F0D8FE01F08CFF01C5A642F1D10A9AFC
:101D90003BAB13CA13C312683BA81A6008F080FE5D
:101DA000012304002E932EA802332F9308F078FE0F
:101DB000050049A808F08EFD4A4649A9042350466B
:101DC000039702970195009406F0E6FE0022002199
:101DD000504606F02FFF002800D1FFE10023D22259
:101DE00000900D99169808F0D3FD0123079A1370FF
:101DF000089A13700122099B1B680B99099E13987E
:101E000033600B689B180B6008F0C2FD0A9D089BAD
:101E1000079A1F702B001770343350AA13CB13C2CC
:101E200003CB03C22B0049AA483313CB13C21B6850
:101E300013602B0044AA6435583313CB13C22B0014
:101E40004D4613CB13C52A0013CB13C203CB03C2D9
:101E50000C9958AD0B1D13CB13C52A0003CB03C23D
:101E600060220021504602F0CFFB1822002170A80A
:101E700002F0CAFB70A9049188A90391514602910E
:101E800058A901914946009144A90B003FA90A00B5
:101E900050A849A9FEF7C6FB0121089B079A1970B3
:101EA000117833680122002901D1002201330B99F6
:101EB000099E139833600B689B180B6008F068FD4F
:101EC0000A9D089B079A1F702B001770343350AA85
:101ED00013CB13C203CB03C22B0049AA483313CB45
:101EE00013C21B6813602B0044AA6435583313CB0C
:101EF00013C22B004D4613CB13C52A0013CB13C2BC
:101F000003CB03C20C9958AD0B1D13CB13C52A008C
:101F100003CB03C260220021504602F075FB182259
:101F2000002170A802F070FB70A9049188A90391A8
:101F30005146029158A901914946009144A90B00CC
:101F40003FA90A0050A849A9FEF76CFB0121089B94
:101F5000079A1970117833680122002901D10022F3
:101F6000013309991F980B600B990B689B180B6044
:101F700008F00EFD089B0A9D1F70079B49AA1F7061
:101F80002B00343313CB13C203CB03C22B0044AA60
:101F9000483313CB13C21B6813602B003FAA643570
:101FA000583313CB13C22B0088AA13CB13C213CB05
:101FB00013C203CB03C20C9D50AA2B1D13CB13C21B
:101FC00003CB03C2290060226031484602F022FBA5
:101FD00049A808F065FD80463FA808F061FD109013
:101FE00050A808F05DFD834608F0E4FC0F904046E1
:101FF00008F0E0FC002824DD44AC80003BAD06196D
:1020000009E0C046FFFFFF3F8020404204342870B3
:102010000135A64215D0206802F036FA01F0C2FE62
:102020000023002201F086FD01F03AFE0300803318
:10203000EADB7F28EADD7F20043428700135A642E0
:10204000E9D15346424600215A61F3A8082202F022
:10205000DBFA092453463BAA1A619C831F605F6028
:102060009F77404608F0A6FC53460500187F06F00F
:1020700063FD534668439861FE2352460126109D36
:102080009B05936055630021D76016605760FBA8DD
:10209000082202F0B9FA52463E211762576257549D
:1020A00088A9116302212800918708F083FC3C2352
:1020B00052460500D05C06F03FFD52465946684343
:1020C0009063FFA8516510300822002102F09CFAAD
:1020D0005C2552465E2358A9176457645846D75466
:1020E0001165545308F066FC52460400505D06F03A
:1020F00023FDFE2352469B0593648123D3643D2335
:102100006043166490655764D6540F9B002B21DD05
:102110009E004C4670AD4E4406E0802040420434A0
:1021200028700135A64215D0206802F0ADF901F003
:1021300039FE864B002201F0FDFC01F0B1FD0300E9
:102140008033EADB7F28EADD7F2004342870013504
:10215000A642E9D150460F9B58AA70A9FEF70AF98A
:1021600001282FD00123AA220D990090129808F07F
:102170000FFC0123079A1370089A1370099B1968C2
:1021800001230B9C099A2098116022689A182260FA
:10219000521808F0FDFB2368002B00D0BAE023980A
:1021A00008F0F6FBFEF7C5FB0121079B1A78089B98
:1021B0001970099B1B68002A00D0B3E0002201338C
:1021C000FFF72EFB089A079B10701B78099A11687D
:1021D000002B00D0A9E000230131D2E7504606F0E1
:1021E0007DFD002800D0F9E54346002488AE70AD9F
:1021F000002B11DD33682A68934208D000920D99B4
:1022000055220E9808F0C4FB0122079B1A70013476
:1022100004360435A045EDD10121079B1A78089BAF
:102220001970099B1B68002A00D080E0002201334E
:10223000E3E5504606F052FD002800D066E40F9B0F
:10224000002B17DD70ACA4465E0058AD664400223A
:10225000A35E00216A5E934208D000920D99552238
:102260000E9808F095FB0122079B1A700234023584
:10227000A642ECD10121079B1A78089B1970099B93
:102280001B68002A5ED1002201334EE40023AA22FB
:1022900000900D99129808F07BFB0123079A1370A8
:1022A000089A1370099B01221B68FFF741F900236C
:1022B000AA2200900D99129808F06AFB0123079A50
:1022C0001370089A1370099B01221B68FEF790FE99
:1022D00000238A2200900D99229808F059FB0123CF
:1022E000079A1370089A1370099B01221B68FEF766
:1022F00056FD0023AA2200900D99129808F048FB81
:102300000123079A1370089A1370099B01221B6816
:10231000FEF7CDFF249808F03BFBFEF70AFB0122F5
:10232000FEF7C5FF0122FFF77BFA012329E701220F
:1023300063E50122FEF75CFE0122FEF730FD01227B
:10234000FFF7F6F80122FFF7F0FBC04600206040DF
:102350008023DB051868000F7047C0460FB400B536
:10236000084883B004F016F8049B002B07D005A999
:102370001800019103F0E2FD034804F00BF801207E
:1023800003F0F4FDDC6D0110EC6D011070B5EFF39E
:10239000108C72B60D4D2B68002BFCD0BFF35F8FF5
:1023A0000724CB08C618C05C01230C40A3401C00C6
:1023B0000440034207D118433070BFF35F8F2C6095
:1023C0008CF3108870BD1000FFF7C8FF2C0100D0FF
:1023D000F8B54746CE46884680B5EFF3108C72B606
:1023E0001C4D2C68002CFCD0BFF35F8F9A4222D882
:1023F00007210126894602E00132934218D34D4657
:1024000037001540AF40D4080119045D2742F3D1CD
:1024100010003C430C70BFF35F8F00220D4B1A601D
:102420008CF3108800280EDBC0BCB946B046F8BD5E
:1024300001204042EFE7BFF35F8F00232B608CF356
:102440001088012040424346002BEDD00898FFF74A
:1024500085FFC0462C0100D0044A1078431CDBB233
:10246000172B00D9102313707047C0466C1E002034
:1024700010B5064B064C82B00100009318221F23B2
:102480002000FFF7A5FF02B010BDC046F06D01109F
:102490001C5C00200021044B044ABFF35F8F02C381
:1024A0009342FAD17047C046000100D0800100D0AD
:1024B000054B064A1360064A136053609360D3606D
:1024C00013615361936170478080808000E400E075
:1024D00004E400E01F2318401E3B8340002905D080
:1024E000C021044A490053501360704780220149BB
:1024F0008B50FAE700E100E001228240034B1B68A9
:1025000013405A1E9341D8B27047C04600E100E024
:1025100001238340014A13607047C04600E200E097
:10252000084B10309B688000C358002B07D0064A28
:1025300000209B1A2F229A424041C0B270470020CF
:10254000FCE7C04600ED00E0701E002070B50D00F5
:10255000EFF3108672B60F4A1368002BFCD0BFF35E
:102560005F8F0D4B10309B6884001B590B4A9342C0
:1025700003D09D4201D000F093FF074B9B681D5193
:10258000BFF35F8FBFF35F8F0022024B1A6086F3A9
:10259000108870BD240100D000ED00E0CD010010D6
:1025A000F0B557464E46DE464546E0B585B00600D6
:1025B00000911700EFF3108B72B66A4A1368002B74
:1025C000FCD0BFF35F8F0025674B5D579A46002D07
:1025D00000DAA9E06B00654C01935B199B009846FB
:1025E000A146C1444B4652469B7910361370604B4E
:1025F000B6009B6899590B1B2F2B33D95D4B994221
:1026000000D0ACE0019B42469C465B4B6544AD006C
:1026100063535A4B0232A218043B9B1A1B05584ABB
:102620005B0D651913436B80564B0121AB80FF2373
:10263000AB71009BEF71AB604B460B4319004C4BE9
:102640009B689951BFF35F8FBFF35F8F0022454BAB
:102650001A608BF3108805B0F0BCBB46B246A946A1
:10266000A046F0BD01200A008243D3798C46BB42CC
:1026700031D84546130044491B1B5B415943090DA2
:102680003D4B63533D4B02356519043B5B1B1B05FA
:102690003B4D5B0D2B43AA464D466B800425AC4653
:1026A0005546E044131F44441B1B1B055B0D1D4393
:1026B0004B46997100999D8099604946DF71334B73
:1026C00001431360BBE75800C01880002018C1798F
:1026D000B9422FD902000623D356002BF3DA029316
:1026E0002B4B61460393131D9A4604235B429C4681
:1026F000E14450464B461B1A1B055B0D9C46204B84
:10270000957198466346404603439380019B5A194E
:102710009200039BA418A380029B1C4AA371009BF8
:102720002260E771A3608AE700F0BAFE00255346F5
:102730005D574FE7908802934005131D9A46031595
:1027400061469C464046D444634604302018181A1B
:10275000E0230005400D1B0218430390C5E700F07D
:102760009FFE4FE7240100D0F8600020701E00207B
:1027700000ED00E0CD01001000A1FFFFA01E002031
:1027800000E0FFFF01BDFFFFAAAA0000014880474B
:1027900001BD000070B501240443EFF30581EFF3A0
:1027A000108C72B6214A1368002BFCD0BFF35F8FE8
:1027B0001F4B05001F4AED1A6D416A43120D1E4D55
:1027C0008900AE6852B27658A6421CD006215956EE
:1027D00091421CD012215956914222D01E215956A5
:1027E000914220D02A2159560324914210D0134BF4
:1027F00019781A708171BFF35F8F00220B4B1A603A
:102800008CF3108870BDAB680D4C5C50EFE7002472
:102810006100091989005B18FF21997109499980A4
:10282000E5E70124F4E70224F2E7C046240100D0E2
:10283000701E0020AAAA000000ED00E0F860002051
:10284000CD01001001BDFFFF10B5084B084C82B050
:1028500001000093002205232000FFF7B9FD0028A6
:1028600001DB1F23181A02B010BDC0460C6E011008
:10287000FC600020024B9C46614489000160704767
:102880004000003470B5114C114DAC420FD2FF2600
:102890002368002B0CD0FFF7DFFD01002000FFF7BD
:1028A000E9FFA680BFF35F8F0834AC42F0D370BD60
:1028B000FFF7D2FD01002000FFF7DCFF2671BFF318
:1028C0005F8F0834AC42E3D3F1E7C0460C2600200A
:1028D0001C26002010B50400FFF7BEFD01002000FB
:1028E000FFF7C8FFFF232371BFF35F8F10BDC04602
:1028F00010B504000120FFF7BBFD034BC3189B007C
:102900002360BFF35F8F10BD40000034034B9C4633
:10291000614489000160BFF35F8F7047400000345D
:102920000A4B1968EFF3108072B60A68002AFCD0CF
:10293000BFF35F8F1B68BFF35F8F00221A6080F3C5
:10294000108840BF002000217047C046D46000209E
:10295000F0B5DE4657464E464546E0B587B0EFF344
:1029600005820323012513409D409900B34AB44BCF
:1029700054581D60B34B8846A946049329E0A388A8
:102980001BB2002B00DBA5E0A379002B00D0E6E012
:102990000823E05E002800DA0FE1430062691B189B
:1029A000DB00D3189E68DD68731C00D111E1A64BD3
:1029B000190041449A6A0B69B01A9B1A984200D2D6
:1029C0000E61A14800F030FB8D4200DDF5E000D142
:1029D0002BE14B469C4843630823E55E002DCEDB8C
:1029E00062696B0092465B19DB009A4453469E680D
:1029F000DF6800F019FB8F42C1DC00D10BE1002F32
:102A000000DAF0E05246534652691B699346049A35
:102A1000934200D1E1E052460821605E52880004F2
:102A2000594610439847029003910299039A0B006C
:102A30001000134300D1D6E013000A00B61A9F41DC
:102A4000002806DB804800F0EFFA029E039F36184C
:102A50004F4153469E60DF6000229A5E002A8EDB63
:102A6000530099186069C900411801938B68C968BF
:102A70009B46B94200DD82E702D1B34200D97EE72E
:102A800008239C46A444059565462281A446019BE3
:102A90002C0006E053009918C90041188D68C968D8
:102AA000AB469B18DB00C318B94206DC00D1C0E07E
:102AB0001C000023E25E002AECDA230064469C46F8
:102AC00053461A806346059D1D80A3881BB2002BC8
:102AD00000DA59E72269EFF3108172B61368002B10
:102AE000FCD0BFF35F8F0123A7885B42A3803FB276
:102AF0002369BFF35F8F00221A6081F31088002FD3
:102B000000DA41E72300083322009A4666697B0019
:102B1000DB19DB00F318996850468C460824115FD6
:102B2000DD68002910DB019306E0AB424DD00023A5
:102B3000E15E2000002906DB4C006418E400341933
:102B4000E368AB42F1DD019B078000201F5E198026
:102B5000002FDCDA1400A379002B00D118E7002342
:102B6000A37126000823E15E08364B1C25D008001F
:102B7000A246656902E03E004B1C1AD04B005B1870
:102B8000DB00EF180A008C46E95E7B881BB2002B45
:102B9000F1DA01235B42DC17BB60FC60824205D0A6
:102BA000534631801B893B8053461A8160464B1C3B
:102BB000E4D15446002800DBEFE640BF07B0F0BC8C
:102BC000BB46B246A946A046F0BDA3686345AED950
:102BD000B9E76B1C00D0EAE6F3E65B4658461B6992
:102BE000984700281BD153461B8822692381EFF3A5
:102BF000108372B611680029FCD0BFF35F8F514675
:102C000062880A8022696580BFF35F8F00211160AE
:102C100083F31088B3E6864200D8F0E6AFE65B4661
:102C20001A685B6802920393FFE6864200D8D0E6FA
:102C3000C3E7B34500D83BE73FE7C046B860002094
:102C40003C700540512900100040054070B52E4CE5
:102C50002569002D04D00A212C48FFF70BFE70BD1A
:102C60002B4E0321300000F0D5F9E660FFF7F4FBAE
:102C7000284B03229C46D02322701B061B6801218F
:102C80006370254B6044A3600F2380002061022005
:102C9000638063694942A1801980023119864731F6
:102CA0001D83585218315A5275325C399952183274
:102CB0000131995218320131995218320131995229
:102CC000083518329D5202311832995218320131AA
:102CD00099521832013199521832013199521832F1
:102CE000013199521832013199520C4B0C49DC6078
:102CF00001303562FFF72AFC01210320FFF7EAFBD0
:102D0000084B1D60A7E7C046B81E0020D460002015
:102D10000040054040000034FFFF1000B860002074
:102D2000512900103860054000487047B81E002047
:102D3000F8B51F0008AB1B7804001600002B08D163
:102D400000F07AF932003B00121A8B41002B00DAB6
:102D500052E02269EFF3108072B61368002BFCD0AA
:102D6000BFF35F8F0223E15E63694A005218D2000D
:102D70009B182269002936DB1D886580BFF35F8FB1
:102D80000025156080F31088069A9E60DF601A6146
:102D9000079A5A615A8801325204520C101C002AB8
:102DA0001FD082B25880080410432669EFF31087C1
:102DB00072B63268002AFCD0BFF35F8FA2881A80F7
:102DC000A1802369BFF35F8F00221A6087F3108808
:102DD0000A4923788C4601329A40E36863441A60BA
:102DE000F8BD0120DDE7BFF35F8F0023136080F3A0
:102DF000108801204042F3E70020F1E73C2000006A
:102E000070B501000469EFF3108C72B620680028D9
:102E1000FCD0BFF35F8F02200D5E4C696800401943
:102E2000C00024180869002D36DB26884E80BFF3C9
:102E30005F8F002606608CF31088E3606388049837
:102E4000013320615B0405985B0CA26060611A1C71
:102E5000002B1FD093B22804628018430A69EFF355
:102E6000108C72B61368002BFCD0BFF35F8F8B8879
:102E700023808D800B69BFF35F8F00221A608CF373
:102E800010880B7801329A40CB6808498C4663441D
:102E90001A6070BD0122DDE7BFF35F8F002303607E
:102EA0008CF3108801204042F3E7C0463C2000002C
:102EB00010B543890A1493421ADD53009B184269E6
:102EC000DB00D3180469EFF3108C72B62268002A75
:102ED000FCD0BFF35F8F5A88090494B2090C8A4270
:102EE00008D00369BFF35F8F00221A608CF310884B
:102EF000002010BD8022120214435C80012302696D
:102F00008371BFF35F8F002111608CF31088044937
:102F100002788C469340C268012062441360E8E75F
:102F20003C20000040787047F0B5CE46474680B55B
:102F300004000D0083B0EFF3058399460F00002BCA
:102F400042D1314EA0463378F06804339B00816A49
:102F50001B58601A5B1A984212D320BF2B490020DD
:102F60004B6AAB4207D38A6A5B1B591E8B414146B1
:102F70008A424041184303B0C0BCB946B046F0BDD8
:102F800000F05AF822002B00121A8B41002B28DB8C
:102F90004B4601931E4B2200009330002B00FFF79D
:102FA0002FFF011E1DDD194B5A6AAA422AD39B6AC4
:102FB0009C4225D83000FFF77BFF144A0020536A5B
:102FC000BB42D8D3926ACFE7104900204B6AAB428C
:102FD000D1D38A6A5B1B591E8B41A24240411843E0
:102FE000C9E70A4A0020536ABB42C4D300204146C5
:102FF000926A5B1B8A4240415A1E93411843BAE7CA
:10300000AA42D7D120BFD5E7B81E00200040054016
:103010002129001010B5024A0248FFF7B7F910BD88
:10302000286E0110205C00200300416A0A00986AA3
:10303000596A8A42FAD17047034B596A0A00986A62
:10304000596A9142FAD170470040054070B50400BA
:103050000D00174A536A1900966A536A8B42FAD1D7
:103060003000190024184D41AB4216D813D0104B34
:103070002A005B6A9D4203D90D494B6A9342FCD3F7
:10308000934207D10A4A02E0516A994202D1916AF9
:10309000A142F9D370BDA642E9D9054B5B6A1C0079
:1030A0005A1CEFD0012201246442E5175242E3E7A3
:1030B00000400540F8B5DE464E4657464546E0B569
:1030C0008B4605000A991800160000F0EFFA0A9BDB
:1030D0006C001F02324B64199C46A4006444636870
:1030E00081469F4200D967602B1FDBB29846012BB7
:1030F00030D9C02380229B01E31812011A60294BAA
:10310000AD0059599A4600291BD17301E026226867
:1031100053401E40802342465B01E3181E60012A93
:1031200030D9802380229B01E31812011A60534694
:103130004A4667605A51F0BCBB46B246A946A04613
:10314000F8BD586900F0B2FA013043001B18033B88
:10315000FDD2DAE75B46012BCBD1C02303229B01D2
:10316000E3181A60023AA3681A42FCD07301E02601
:103170002268AD0053401E4080230A4A5B019246FC
:10318000E3181E605A462168514003220A401A6023
:1031900001225B469A40A3681A42FCD0C1E7C046B0
:1031A00000800040245C0020F0B546464F46D646DD
:1031B000C0B51F00344B44009C462418A40064444E
:1031C000636888461600FF2B02D880235B0063608B
:1031D000031FDBB29A46012B30D9C02380229B010A
:1031E000E31812011A60294B8500595999460029A4
:1031F0001BD17301E026226853401E4080235246B3
:103200005B01E3181E60012A30D9802380229B01D4
:10321000E31812011A6080235B0063604B465F5124
:10322000E0BCBA46B146A846F0BD586900F03EFA87
:10323000013043001B18033BFDD2DAE74346012B64
:10324000CBD1C02303229B01E3181A60023AA36882
:103250001A42FCD07301E0262268850053401E40CC
:1032600080230A4A5B019146E3181E6042462168AA
:10327000514003220A401A60012342469340A2684B
:103280001342FCD0C1E7C04600800040245C00200F
:10329000014B8000C0587047245C0020F8B5040042
:1032A00021481E0017000D0000F000FA0100380050
:1032B00000F0FCF9069B36041B031E432368002B19
:1032C00020DB1A4B1A49E3185A1E934180229201BF
:1032D00094465B421B0B174A1B0363441360164A58
:1032E00013601F000A689743FBD1144B2560E21856
:1032F0002123A06013602368002BFCDA0823E6601A
:103300001360F8BD3F2322681340AB42D9D1A368B4
:103310001B051B0D8342D4D1EE22E368D202134079
:10332000B342CED1EDE7C046001BB7000040FDBF61
:1033300008C0004000E0004000F000400430000001
:1033400010B580241C4BE4051C6000281AD0012312
:103350001A4C18431A4BDC611A4C44401C625962E7
:1033600098628021144BC9051960174817490860F5
:10337000E021C9041960002A07D18022144B1206EB
:103380001A6010BD0E4BD861EBE753019B1A9B00EE
:103390009A18802312015B049A4209D213000D4946
:1033A0000B60074B5A608022094BD2051A60E8E790
:1033B000094B1A00F3E7C04600B00540D3C007B080
:1033C000008005402D3FF84FFCFF01000820014020
:1033D00000A0054090600020FFFFFF008023024A0C
:1033E0009B000B43D362704700800540002310B55B
:1033F0000100988A1B8B984710BDC046162310B554
:103400000100188802331B88984710BDF8B547465D
:10341000CE4680B50F1E18D01423994604330400FD
:103420000025012698464B461888434621681B888C
:10343000984701C4431E984101350640AF42F2D17E
:103440003000C0BCB946B046F8BD0126F8E7C0461A
:10345000002370B504000D00988A05491B8B98471E
:1034600003000020002C01DB0130A0402900984718
:1034700055420000AA23064A1B0113602F23054969
:10348000D360054B19605368002BFCDA7047C046C7
:103490000040024000B0FA00006002407047C046A1
:1034A00010B50148FEF75AFF4C6E011070B5074D7C
:1034B000074EB54209D20024013E761BB60808CD5E
:1034C000984723000134B342F9D170BD206901103F
:1034D0005C690110054B064A06491A60064A074B0B
:1034E0001A6010000B689843FBD1704700E0004061
:1034F000BFCDFBFE08C00040FE7F3C0000F0004056
:10350000044BDB6C002B03D18022034BD2021A60E8
:103510007047C046000011504C201150044A054B22
:103520001A60054A1368DB018033FBD17047C0463F
:10353000FFFFFF0100F0004008C000404022034BA5
:103540009A675A671A67DA667047C04600F001400A
:1035500010B5FEF79FFF10BD70B5044D044CA9686F
:10356000C022200001F056F8AC6070BD00ED00E014
:1035700000000020002310B5294C82B0A367FFF79C
:1035800079FF0122274B1A60636C012BFCD10322C7
:10359000254B1A60224A936B012BFCD10133009317
:1035A0000121224A22480433FFF778FE0523012136
:1035B0000093204A2048FFF771FE002202210420D8
:1035C0001E4BFFF7F1FD0022012105201C4BFFF7E8
:1035D000EBFD0022002107201A4BFFF7E5FD00223A
:1035E00000210820174BFFF7DFFD8023DB0000934D
:1035F000002200210920134BFFF75CFD0022104B35
:1036000000210620FFF7D0FD0420FFF741FE0E4900
:1036100000F04CF801000020FFF7E0FE02B010BD02
:10362000008000403CB0004030B00040002F68599E
:1036300000800240008C864700C00240001BB7009B
:1036400040597307006CDC0240420F00014804211E
:10365000014B1847D01E00200D340010124A936F02
:103660009B0815D29066D166002905D0FFE7FFE7D9
:10367000FFE7516F106F704704B580210906C2172C
:103680005140002800D0C84313F0B2F8002104BD17
:10369000F0B5146E556E576F166FFFF7E3FF1466A3
:1036A000556657671667F0BD000000D0114A936F4A
:1036B0009B0813D210665166002905D0FFE7FFE78B
:1036C000FFE7516F106F704704B5002801D000204C
:1036D000C04313F08DF8002104BDC046F0B5146E50
:1036E000556E576F166FFFF7E5FF146655665767FF
:1036F0001667F0BD000000D094464A4A926F9208C7
:10370000624601D228E0C046F0B5464E346E756E72
:10371000776F366F00F020F89446424A146655667B
:10372000576716676246F0BD94463E4A926F92080C
:10373000624601D254E0C046F0B53A4E346E756E22
:10374000776F366F00F04CF89446364A146655662B
:10375000576716676246F0BD002B24DB11D00029A5
:103760003EDA00B5C943404200D1013100F038F8DB
:10377000C943404200D10131DB43524200D1013301
:1037800000BD002AEBD1002801D1002905D000207E
:10379000C90FC90701D1C043410800B512F0F8FFB5
:1037A0000022002300BD00B500290ADBDB435242A2
:1037B00000D1013300F014F8C943404200D1013177
:1037C00000BDC943404200D10131DB43524200D128
:1037D000013300F005F8DB43524200D1013300BD54
:1037E000002923D1002B18D1002A0CD0BC460D4F44
:1037F00038667A6600210023FFE7FFE7FFE77A6F6C
:10380000386F67467047002801D00748010000B5AF
:1038100012F0BEFF0022002300BD02000B000020BA
:1038200000217047000000D0FFFFFFFF002B00D0F9
:10383000BFE0130C28D1002AE7D080B4114F3966BD
:103840007A66FFE7FFE730B4040C7B6F396F1B0427
:1038500023433B667A66FFE7FFE7FFE7C04684B293
:103860007B6F3D6F1B0423433B667A66FFE7FFE7F0
:10387000C04600232C042D0C7A6F386F0019694163
:10388000B0BC7047000000D0F0B594460025140E7F
:1038900001D112020835140F01D112010435940F21
:1038A00001D192000235D40F01D152000135D40B61
:1038B0000134254F7C66254C3C660E0C93B2FFE725
:1038C000FFE7FFE73C6F6643360C7703BE46734362
:1038D000DF0B5B04C01AB941130C7343DB18C91A20
:1038E000CE086643360CB64493B273431F0F1B01D8
:1038F000C01AB941130C73431F0B1B05C01AB94101
:10390000860D8F023E436643360C092D24DB520A96
:103910007243801A7703460A6643360C16235B1BF4
:10392000DE40DF40BF1964466643821B70460435A3
:1039300006330100D940A840C01900D30131A2428A
:1039400006D20023F0BD0000000000D0FFFFFFFF03
:10395000121B0130F3D3F1E709277F1BFE406446B9
:10396000A2B27243801A00D20139220C7243130CA6
:103970001204821A99410B00704604351337010076
:10398000F940A840801900D30131002B02D1A24296
:103990000AD2F0BD013000D30131121BFAD2013B33
:1039A000F8D1A24200D2F0BD013000D30131121B88
:1039B000F7E7F0B51C0C00D080E00CB400251C0A21
:1039C00004D11B02160E3343120208351C0B04D11E
:1039D0001B01160F3343120104359C0B04D19B00CD
:1039E000960F334392000235DC0B02D192185B41F3
:1039F00001351C00971864410134464F7C66464CE3
:103A00003C660E0CFFE7FFE7FFE7C0463C6F6643EE
:103A1000360C7703BE4697B27743C01B00D20139FC
:103A2000C01B00D201399FB27743C91BC91B170CB9
:103A300077437E04FF0B801BB941CE086643360CEA
:103A40000C2D33DBB644120B1F053A431B0B97B208
:103A50007743C01B00D201399FB27743C91B170CB3
:103A600077433E043F0C801BB941860D8F023E43D5
:103A7000664329277F1BFE400C3D7746AF40BF19A8
:103A800030BCA2B2ABB272437343801A9941220C8C
:103A90007243130C1204801A994102000B00013783
:103AA000001BA941F9D2781E0021F0BD0C277F1B15
:103AB000FE4077467F0BAF40FF19E0E700245D1C16
:103AC00007D0144F7D663966FFE7FFE7FFE7FFE7A2
:103AD0003C6F95B29EB265436643401BB141150CE5
:103AE0001E0C6543664336042F0C3E432D04401BD9
:103AF000B141994204D202000B0020000021F0BD28
:103B000001D19042F7D3801A994101349942F2D3FE
:103B1000F6E70000000000D0FFFFFFFF48404140F3
:103B2000484018B41B4B5B68FC46019308BD04DF9A
:103B3000733E001018B4174B1B68FC46019308BD78
:103B400000DF7D3E00109446134A926F920809D21E
:103B5000624618B40F4BDB68FC46019308BD0CDFCE
:103B6000354100100C4AF0B5146E556E576F166F44
:103B70006246FFF7EEFF084A1466556657671667F8
:103B8000F0BD18B4034B9B68FC46019308BD08DFE9
:103B9000D93F0010A8270020000000D0FFB55040FA
:103BA0004240504059404B40594000E0FFB5154F4E
:103BB0004C00640D03D0BC4204D10C0314D8002087
:103BC000090D09055C00640D03D0BC4204D11C033F
:103BD0000AD800221B0D1B0501264B4009D44B407F
:103BE00003D58B4200D18242FFBD9942FCD1904265
:103BF000FFBD0B43DB1803431343F5D0C9434918FA
:103C0000FFBD0000FF07000000B5FFF7CFFF01D0A8
:103C1000002000BD012000BD00B5FFF7C7FF8041B7
:103C200000BDC04600B5FFF7C1FF01D9002000BDAF
:103C3000012000BD00B5FFF7B1FF01D9002000BD94
:103C4000012000BD00B5FFF7A9FF804100BD0120A4
:103C500040054A00121804D85A00121801D8002052
:103C600070470120704700000021002805D17047EF
:103C7000C1174840401AFAD0C90713B5064B1B6854
:103C800098470CBC441CA2401005120B0349091BA9
:103C900009051943114310BDD06000201F04000026
:103CA00010B54C00620D8023D218DB00D21A5B05E0
:103CB0007E2A10DD9E3A13DACC170903490819430E
:103CC0005242D140640001341532202A05DAD04036
:103CD0000843604310BD002010BD0846604310BD7E
:103CE000C80FC018013810BD18B4044B5B6AFC46FD
:103CF000019308BD24DFE54200100000A827002042
:103D0000132370B51D78012D19D014DD1F48FFF75E
:103D100075FB06001E48FFF771FB1E4C8022310028
:103D2000200000F077FC022D2DD01B48FFF75EFB32
:103D30001A4B186070BD1A4B164CA364F5E7184B6C
:103D4000144C23606360A360E36023616361A3613B
:103D5000E36123626362A362E36223636363A36339
:103D6000E36323646364A364E36423656365A36519
:103D7000E36523666366A366E36623676367A367F9
:103D8000E367A364D1E7064BA364CEE75344000086
:103D900053460000A82700204C330000D0600020CC
:103DA000413E0010244A4B0094465B0D6344F0B53D
:103DB00004000D005A1C21DB5A1C35D0342B1CDAB0
:103DC0003326F61A3700203F1CD40121B9400B00DE
:103DD0000121B1400A0012196B41002F1EDB0224A1
:103DE000BC4021000224B4402000160000254442BB
:103DF0008D4126402B4030001900F0BDCB0F002034
:103E0000D907FAE720210120891BC8400121B140D0
:103E100003000A0012196B41002FE0DA202402256A
:103E2000A41BE5402900DDE7CB0F044ADB071A435A
:103E300000201100E1E7C04601FCFFFF0000F03F59
:103E400007B5604601880A0A0230DF2AFAD1C9B2F2
:103E5000820804D3028840880004104300E0006810
:103E6000014A5050039007BDA82700200FB403BC9F
:103E70000CBCF0B50124E407634000E0F0B50C0D84
:103E8000CF0F661E3605891B640503D3C943404224
:103E900000D30131640D03D0661CF60A07D0E41B81
:103EA00000207F00791C89078912803C24031D0DA6
:103EB000DF0F6E1E36059B1B6D0503D3DB4352429D
:103EC00000D301336D0D03D06E1CF60A07D0ED1B35
:103ED00000227F007B1C9B079B12803D2D032F1B24
:103EE000661B58D4A446202E46DA20371400BC4066
:103EF0001D00BD40F24033412A4380185941CB0F89
:103F000005D0C943C043002264425041514162463A
:103F10004D0D28D10D0D07D100281FD02419404187
:103F20004941013A0D0DF9D0640006D3013000D3A8
:103F30000131002C01D140084000013A0BD4941CFF
:103F4000E40A04D112051144DB071944F0BDD90776
:103F5000204B194300E0D9070020F0BD0029DDD136
:103F6000002CDBD1F0BD0132C6074008CD07284345
:103F70004908002EE1D0D9E73C2E29DA203E40370F
:103F80001400BC4000D00124F24014431A00BB408E
:103F90001C43D317ACE7AC46202F08DA20360400C8
:103FA000B4400D00B540F84039412843A5E73C2F07
:103FB0000CDA203F40360400B44000D00124F84021
:103FC00004430800B1400C43C117EAE71000190090
:103FD000002494E70000F07FF0B50C0D661E360556
:103FE000891BE60A6405640D02D0651CED0A04D045
:103FF000002001210905803C2403A4461C0D671EF6
:104000003F05DB1BE70A6405640D02D0651CED0A61
:1040100004D0002201231B05803C24037740644424
:1040200097B484B296B27443070C7E43150C6F4369
:1040300080B26843361802D3012000043F183004D0
:10404000350C00197D41844688B29AB250430C0C5D
:1040500062431F0C7C438EB27E43921902D3012629
:104060003604A4191604170C3618674101BC81B236
:104070009AB25143040C62431B0C5C4380B2584318
:10408000121802D30120000424181004130C401845
:1040900063412D185E410020474106BC88B293B2AF
:1040A00058430C0C6343120C544389B251435B18C0
:1040B00002D301210904641819041A0C0918624179
:1040C0006D1856410020474118BCF902720D11438A
:1040D000F0026A0D1043ED020A0D03D16D19404143
:1040E0004941013B124E9B1B7600B3420ED26D003C
:1040F00007D30130002671416646354301D140089F
:1041000040001B05C918E4072144F0BD0BDA013358
:1041100006D1013004D101314F0D01D04908F2E739
:10412000E1070020F0BD013631050020EBE700007B
:10413000FF030000F0B51C0D671E3F05DB1BE70AFF
:104140006405640D02D0661CF60A04D00022012327
:104150001B05803C2403D0252D060026F6432E6641
:104160001E096E66CE0FF619B44649004F0D02D0F7
:104170007E1CF60A03D000200021403F3F033E1B77
:10418000B600B444013F7F05C91B49082E6F0136B4
:1041900076089C02950D25437543ED137543AD13C9
:1041A00001356D10F603761B0CB4CC02450D2C4383
:1041B000A2B2B3B25A43270C7B43350C6F43A4B26F
:1041C0006C431B1902D3012424043F191C041D0C49
:1041D000A4187D4124196D41009A91B2ACB261439B
:1041E000170C7C432B0C5F4392B25A43A41802D3A2
:1041F00001221204BF182204230C52187B41019C97
:104200006C431B19520ED9010A434401A01A81B212
:10421000B2B2514303145A43360C734387B2774307
:10422000D617D21900277E4136049B191704160CA5
:104230007F185E417316ED18F30100268033754137
:10424000A90F06D16400690AE8055B0A184309D280
:104250002FE00422944480337541A90AA8059B0AE3
:10426000184326D3404149412404009A019B0D0084
:104270005543641B4343E41A95B286B27543170C49
:104280007E43030C5F4392B25A43B61802D3012215
:104290001204BF183204330C52197B4152429C4124
:1042A000002C02D40022013051414008CA071043BB
:1042B000490802B06246D7079210084BD218084B43
:1042C0009A4203D212058918C919F0BD0020002AAC
:1042D00001DC3900F0BD01331905F5E7FD030000ED
:1042E000FE070000002200B5203200F004F80800AC
:1042F00000BD000000220B150AD410B5944600F052
:1043000031F81414013400DA0021CB17144C204783
:104310000020002170476244343A0CD40C2A07DA9A
:1043200004009140904052422032D440214310BDBD
:10433000D843D94310BD203207D40C469440524292
:1043400020321141D040204310BD0800C91720324F
:1043500003D452422032104110BD1800190010BD84
:10436000174300100A0DCC0F531E1B05C91A520526
:1043700003D3C943404200D30131520D03D0531C33
:10438000DB0A07D0121B00206400611C8907891218
:10439000803A1203014BD21A70470000FF0300005D
:1043A00051434343C9188C46110C83B24B4310B49C
:1043B000040C614392B280B2504362431C041B0C54
:1043C000001910BC59411304120CC018514161442A
:1043D000704700004840414048400E4B5B6818471A
:1043E0000C4B1B6818470C4A936F9B0802D2094B71
:1043F000DB681847F0B5146E556E576F166FFFF7F0
:10440000F6FF054A1466556657671667F0BD014BFF
:104410009B681847A8280020000000D007B5484036
:104420004140484001E0C04607B54200120E03D0AB
:10443000FF2A03D1420218D8C00DC0054A00120E4F
:1044400003D0FF2A03D14A020FD8C90DC9050122A2
:10445000414005D4414001D5814207BD884207BD96
:104460000143491801D0C043001807BD00B5FFF74C
:10447000DBFF01D0002000BD012000BD00B5FFF72B
:10448000CDFF804100BD0000034BDB6FFC461847A9
:104490007CDF2D4500100000A8280020132310B554
:1044A00012481C78FEF7AAFF0100012C0AD003DD98
:1044B00080220F4800F0AEF80E48FEF797FF0E4B33
:1044C000186010BD0A4C5422200000F0A3F80B4BDA
:1044D0006365A365E36523666366A366E366236796
:1044E0006367A367E3672362E361E5E75346000080
:1044F000A82800204C330000D060002001450010A7
:1045000007B5604601880A0A0230DF2AFAD1C9B22B
:10451000820804D3028840880004104300E0006849
:10452000014A5050039007BDA8280020C30FDB07A5
:1045300041000A0E07D0FF2A08D00909054A891848
:104540001943400770471900002070470249C918F5
:10455000FAE70000000000380000F07F70B50400AA
:104560000A4E300012F0CCF920000BF02BFF0500B2
:10457000300012F0FDF8002D05D0054B2C199C429F
:1045800001D8280070BD0348FDF7E8FE0C26002086
:1045900000000420586E011070B505000C000B4E91
:1045A000300012F0ADF9280021000CF015FA0500DA
:1045B000300012F0DDF8002D05D0054B2C199C427F
:1045C00001D8280070BD0348FDF7C8FE0C26002066
:1045D00000000420586E011070B50400054D28003D
:1045E00012F08EF920000BF0F7FE280012F0C0F850
:1045F00070BDC0460C26002001480421014B18471D
:10460000E01E00200D340010014B1B68184700000D
:10461000E01E0020014B5B6818470000E01E0020F0
:1046200010B5FFF79BFF10BD10B5FFF7D5FF10BD0C
:1046300010B5FFF7D1FF10BD9A4200D288547047E1
:104640007047C046F8B55746DE464E464546E0B58B
:1046500099460A9B07009A460D9B884693460B9CF9
:104660009B073BD10C9B9C423DD21E1B0B9415001B
:104670000C005E442A004B46013521002020B8473B
:10468000B542F7D1A0460B9C002C20D045463619E8
:104690005346321B013C185D29004B46B847002C9D
:1046A000F6D12B00350098460D9B9B070FD55B4636
:1046B000EC1A0C9BA3420AD9464698462A004B4660
:1046C000310020200134B84701354445F6D3280095
:1046D000F0BCBB46B246A946A046F8BD1600150080
:1046E000002CD3D1E0E716001500002CCED1EEE768
:1046F000F0B54546DE4657464E46E0B585B09C4689
:1047000010AB1B78149F934698460F9C129E139DE6
:10471000BB074CD4002D42D1B44248D201233B40C8
:1047200099460E9B013B9A46302304E052460134E1
:104730001355A64201D9202CF8D14B46002B00D1AD
:1047400083E00E9B013B99463023A54205D82EE01D
:104750004A4601341355AC4229D0202CF8D1FB062F
:104760000CD57B0554D4A64263D0A54261D0119BE1
:10477000102B50D0022B57D0202C32D12023019364
:104780000E9B5A460093039763460295FFF75AFF24
:1047900005B0F0BCBB46B246A946A046F0BD012319
:1047A0003B40994601233B422AD1B442B9D3FB0690
:1047B0001CD57B05DBD4002CD5D1119B102B5BD0F5
:1047C000119B022B6BD0302301240E9A13704346A9
:1047D000002B10D17B073ED52B260E9A631C165555
:1047E000CDE72300013430260E9AD654202CC5D0B4
:1047F0004346002BEED02D260E9A631C1655BEE7BD
:104800004346002B2FD0013DB44200D289E798E700
:10481000119B102BB2D1BB0637D5202CAED058231C
:104820000E9A13550134A7E7202CA7D0230001349A
:1048300007E0631E012CC0D0119A102A31D0022A41
:10484000D1D162260E9AD65496E7FB06CED57B05CB
:1048500000D488E78BE723003E0790D520260E9AE8
:10486000013316558BE70C233B405A1E9341ED1A3A
:10487000B44200D255E764E7BB060ED478230E9A03
:104880000224137030235370A1E7202C00D175E768
:1048900078230E9A135501346EE75823EFE76033FF
:1048A000EDE70E9AA61E91464E44BA0602D558224E
:1048B000327098E77822327095E7C04610B500282C
:1048C00000D110BD01F01CFDFBE7C046F0B5574616
:1048D000DE464E464546E0B595B083460F0092460B
:1048E00098461E9A1F9B10001900209EFFF7AFF9F3
:1048F000002800D0EAE11E981F990122C54B5242C0
:10490000FFF78AF9002800D014E11E981F990122B0
:10491000C14B5242FFF796F9002800D0E9E01E98FB
:104920001F990022BD4BFFF78DF9002800D0C8E089
:104930001E981F990022BA4BFFF76EF9002800D08D
:10494000BFE01E981F9900220023FFF765F9002899
:1049500000D0E4E000230B93229B5B0500D40626E5
:104960000024302307E0172106AA013452181355FA
:10497000013E202C01D0092EF5D81E981F99FFF773
:104980008FF9A84BF2009B181A685B680500089223
:104990000993FFF76DF902000B001E981F99FFF7AE
:1049A000C0F8089A099BFFF7ECF806900791FFF70B
:1049B0009BF98146FFF758F902000B00069807990A
:1049C000FFF7AFF80022984B06900791FFF73AF9EE
:1049D000002800D10DE101239C46E1444846FFF741
:1049E00043F902000B0008980999FFF71BF900280A
:1049F00002D0002399460135002E00D1D9E006955A
:104A00004D46B94614E006AA944617230A2163448A
:104A1000280001341F19FEF749FE30313970280093
:104A20000A21013EFEF742FE092D00D817E10500DC
:104A3000202CE8D14F46069D20240CAE06AA172351
:104A40009446634499465B46B34606930FE04B4653
:104A500028000A210134E618FEF700FE3031280054
:104A600031700A21FEF7FAFD051E00D1E4E0202C8A
:104A7000EDD1069B5E469B460323229A1340012BF1
:104A800018D1219B002B15D00B9B002B00D1FDE0F2
:104A9000219B013B2193202B0CD93023219A07E045
:104AA000172006A9013409180B55944200D3CCE015
:104AB000202CF5D1229B01940393219B0096029315
:104AC00022E0229B52460493219B390003935846CF
:104AD0001E9B1F9C029600930194434600F04AF9E6
:104AE0000400200015B0F0BCBB46B246A946A04663
:104AF000F0BD229B5B070FD403224C4B22990192FD
:104B00000391219900930291434652463900584639
:104B1000FFF798FD0400E4E70422454BEEE71E9AF8
:104B20001F9B00200021FEF7FCFF01231E901F9118
:104B30000B9311E7229B54469B0711D1219B042B19
:104B40000ED9219B55469C465E46043C64442A008F
:104B50004346013539002020B047A542F7D1B3467E
:104B6000344D26002B1F99465B46A3461C0032009D
:104B7000E87843463900013DA04701364D45F6D15E
:104B800023005C469B46229B04349B07A9D55346D1
:104B9000219AE31A9A42A4D95E46150022004346A0
:104BA00039002020B04753460134E31A9D42F5D81E
:104BB00097E72800FFF75CF802000B001E981F998A
:104BC000FEF7AFFF0022184B06900791FFF724F87D
:104BD0000CAE002800D031E7069807990022124B4E
:104BE000FFF730F8002800D028E7012301359D4366
:104BF00024E70022069807990B4BFFF70DF80028D1
:104C000000D0F9E64B46002B5CD101239C46E144E1
:104C1000F2E6C046FFFFEFFFFFFFEF7F65CDCD411E
:104C200065CDCDC1C88101100000E03FB86E011014
:104C3000B06E0110C06E0110069B5E469B460323BA
:104C4000229A1340012B00D181E0202C00D131E7C2
:104C50000B9B002B27D02D23335501342AE74F46D9
:104C6000069D202C00D1E7E63022331907E01720FB
:104C700006A9013409180A55202C00D1DCE6A3420C
:104C8000F5D12E220CAE0134F254D7E60C23229A31
:104C9000134257D0219B013B2193A34200D9FCE64C
:104CA000202C00D106E7229B5B0703D52B2333552D
:104CB0000134FFE6229B1B0700D4FBE6202333557B
:104CC0000134F7E6DB0700D496E69EE7229B5546C3
:104CD0009B0711D1219B032B0ED9219B54469C4647
:104CE0005E46033D654422004346013439002020DE
:104CF000B047AC42F7D1B346B9465F461C4EEC1CF8
:104D00002A00B078434649460135B847013EAC42D7
:104D1000F6D1229BBB464F469B0700D4E1E65346A3
:104D2000219AE31A9A4200D8DBE65E46150022007B
:104D3000434639002020B04753460134E31AAB42C2
:104D4000F5D3CEE6219BA34200D9A6E6B2E6219B8D
:104D5000002B00D179E70B9B002B97D0219B013BC7
:104D600021939C4200D298E6202C00D073E7A1E664
:104D7000BC6E0110F0B5DE4657464E464546E0B5DE
:104D800099B081468B4692469846229A239B100002
:104D90001900FEF75CFF002800D0CAE02298239992
:104DA0000122824B5242FEF74DFF002800D0C0E0A6
:104DB0002298239901227E4B5242FEF72DFF0028B4
:104DC00000D0B6E02298239900220023FEF724FFAA
:104DD000002800D0C9E1229B239C089309940898DD
:104DE00009998023269ADB001A400D928022269C86
:104DF0001201144022000B94269C07000E001C4256
:104E000000D0ADE00B00034300D0D5E0002A00D075
:104E10000AE2220006332493022313400C93022358
:104E2000134200D002E2259B042B00D20FE2043B88
:104E30000B93002304250A93002222982399002330
:104E4000FEF7EAFE002800D003E25A4B269A1340F0
:104E500004930B9B0393249B0293089B099C009350
:104E600001945946434652464846FFF72FFD02003B
:104E70002020269B1F27034059424B415B4218408C
:104E8000531C0893594643464530C8470A9AD317DE
:104E9000D4185C40D30F0A936B1E0B9308AB9C464F
:104EA0000025674401E0202D0FD020000A21FEF7E5
:104EB000FDFB01357E193031317020000A21FEF7EB
:104EC000F5FB26000400092EEDD8052306930B9B65
:104ED00059460593002304930A3303930A9B4846DB
:104EE000029310AB0093089A43460195FFF700FC2C
:104EF0000C9B002B2DD05346C41A259BA34228D9C6
:104F00004D465F4681461E00534639001A1920203F
:104F100043460134A847A642F6D853464846259949
:104F2000C21A01320023914200D386E101301818E1
:104F30000FE0269B0493259B0393249B0293229BC3
:104F4000239C009301944346524659464846FFF736
:104F5000BDFC19B0F0BCBB46B246A946A046F0BDA8
:104F600001432BD10B9B2200002B00D154E70023DF
:104F70000A93249B0A9A0024934200DD85E122983B
:104F8000239900220023FEF747FE002800D035E1D8
:104F9000269B084A02941A408023DB0013430493A3
:104FA000259B0393089B099CCBE7C046FFFFEF7F3F
:104FB000FFFFEFFFFFF7FFFF06232493B44B7000C2
:104FC0009C46400D6044FEF753FEB24AB24BFEF7DA
:104FD000D8FDB24AB24BFEF7ADFD3603B14B360BEE
:104FE000334304000D00380019000022AE4BFEF7D9
:104FF00098FDAE4AAE4BFEF7C4FD02000B00200048
:105000002900FEF797FDFEF74BFE0A90FEF730FEF3
:10501000A84AA94B04000D00FEF7B3FD0022A74BE0
:10502000FEF788FDFEF73CFEA54A0600A54B2000D2
:105030002900FEF7A6FD040030000D000C96FEF7D7
:1050400017FEA14AA14BFEF79CFD02000B002000B9
:105050002900FEF766FD02000B0006000F00FEF7B8
:1050600090FD320004000D003B0030003900FEF7D7
:1050700061FD00220E900F91954B20002900FEF754
:1050800062FD0022934BFEF755FD02000B0020004D
:105090002900FEF758FD00228F4BFEF74BFD020062
:1050A0000B0020002900FEF74EFD0D0080210400BA
:1050B00032003B000020C905FEF733FD02000B0063
:1050C00020002900FEF736FD02000B000E980F9914
:1050D000FEF739FD0022734BFEF72CFD7F4B0C9C35
:1050E0009C46644400222305FEF74BFD06000F009A
:1050F00002000B0008980999FEF78EFD00280AD0DF
:105100000A9B3000013B39000A930022714BFEF7E5
:105110001AFD06000F000A9A330063323900C62ACE
:1051200012D802222698042510400B9A0C90002ACF
:1051300025D1259B042B05D9002800D0A1E0259B73
:10514000043B0B93042541E00222269810400B9A61
:105150000C90002A12D1259B052B76D9002872D1FC
:10516000259B0525053B0B9334E0802212069446CF
:10517000229B0893239B6344099330E605250B4348
:1051800000D1F6E608980999554A564BFEF752FDAC
:10519000002808D0089809990022534BFEF73CFDDF
:1051A000002800D0E5E6249B002B1CD00D9B002B93
:1051B00019D0249B013B2493259BAB4204D90C9B23
:1051C000002B5AD002230C9300230B930A9B002B35
:1051D00000D131E60898099932003B00FEF7B3FC94
:1051E0000890099128E6259BAB42EDD90C9B002B3A
:1051F00043D000230B9302330C93E7E78020269BD8
:105200003A4A00061A40802384460294089C099D6D
:105210002900DB0013430493259B61442200039380
:105220000B00009201938EE60524A8E600230B9361
:105230000A93023304250C93FEE553468C46013B4A
:1052400063441B1A72E602230C930525C2E704236C
:10525000EDE58020089E099F000639008446269AC5
:10526000224B6144134004930B9B32000393249B15
:1052700002930B0000920193F3E5259B5B1B0B93BC
:10528000A4E7022304250C93A0E79C1A013C76E6D0
:1052900001FCFFFFFB799F501344D33FB3C8608BE1
:1052A000288AC63F0000F03F0000F83F61436F636B
:1052B000A787D23F71A379094F930A400000E03FCE
:1052C0001655B5BBB16B0240EF39FAFE422EE63FF0
:1052D00000002C400000244000001840FF030000A4
:1052E0002D431CEBE2361A3F80842E41FFF7FFFF6F
:1052F000F0B5DE4657464E464546E0B5A5B01E0021
:105300002E9B92460C93CD4ACD4B80468B461A601D
:10531000002900D1EAE1002330789946002800D125
:10532000ECE1C84B4C460B93C74B454657460E9392
:105330000AE0631C984622003B005946A8474446B1
:105340003078002800D187E001362528F1D10823E4
:105350009A46043B9946023B9846013B00229C46F4
:105360000D943078711C0300203BDBB2102B03D866
:105370000B9C9B00E3589F460300303B89460D9CE5
:10538000092B3AD9002398462A2800D1C1E00023EE
:105390009A462E284BD00300683BDBB2122B1ED856
:1053A0000E999B00CB589F4663460E001A43D8E7E0
:1053B00043460E001A43D4E74B460E001A43D0E78B
:1053C00010230E001A43CCE753460E001A43C8E7D9
:1053D00080235B001A43FF3B9C467078E1444E46B5
:1053E00067284FD82428A4D90300253BDBB2422BE1
:1053F0009FD896499B00CB589F46002394461E0099
:1054000000E00131B3009B195B001E180878303EA4
:105410000300303B092BF4D90123624689469C46A0
:105420000023B0469A460E00E1442E28B3D1302125
:10543000802049428C46C000024370784B46844429
:105440006146092900D86CE12A2800D17AE10123BC
:105450009C464E46E1449EE7A146A846BA46CA4548
:1054600003D801235B425344994653464A46594662
:105470000020C047200025B0F0BCBB46B246A9467C
:10548000A046F0BD0300693BDBB20D930F2B00D9A2
:105490004FE7012199408C466D49894661464B464C
:1054A00019400F91634649460B4200D028E10D9BFD
:1054B0000A2B3AD0072B00D03BE70C9B190008C9F8
:1054C0008846002B00D14BE121200243914614A9CC
:1054D0008C461F220F2162448C4651460D950C913B
:1054E000A24615000F9902E020290CD01300644653
:1054F0001C4020003730092C00D80738013168548F
:105500001A090F2BF0D80C9B54460D9D9A460F910B
:1055100033E10C9B02CB8846002947DB0C93012327
:105520009C4670784E46E14431E70C9B02CB1493C5
:105530005346002B00D138E19C4608780B000C90B4
:105540008C44002801D100F098FC894661469446BD
:1055500003E05A780133002A01D08B42F9D1494641
:1055600062465B1A0C900F93530500D520E102238D
:10557000180010400D90134200D1CBE30D930B1B8C
:10558000B1469A465E460C9822003B003100A8477F
:1055900053460134185D0028F6D1B3464E460D9BA4
:1055A000002B00D0C7E1149B0C93C9E60C93012398
:1055B0009C46283849420243884670784E46E1446A
:1055C000E5E670786C2800D17FE180235B001A4308
:1055D000FF3B9C46E14402E780239B001A430123E2
:1055E0009C467078E144FAE67078682800D173E14F
:1055F00080231A437F3B9C46E144F0E6672800D1B4
:1056000003E1472800D15AE1452800D15AE104922C
:10561000072142460C9B0392073352468B431900E5
:1056200002920CC92800009201930C9122003B00C9
:105630005946FFF79FFB040082E6C046F152001076
:105640008C6000202C80011070800110BC80011043
:1056500041900000462800D1DBE004920721424639
:105660000C9B0392073352468B43190002920CC9DC
:105670002800009201930C9122003B005946FFF74D
:1056800025F904005CE6631C984622003B0059465D
:105690002520A847444653E60C9B04330D93631C16
:1056A0009946920700D422E10C9B220018785946B3
:1056B0003B00A84743464444012B00D885E2330011
:1056C000B8462E005F4625004C46994622004346C8
:1056D000013439002020B047AC42F7D12C00BB4642
:1056E000350047464E460D9B0C9329E6DB4B307840
:1056F000984600239946002800D012E60024AEE622
:105700006F2800D188E000D80BE31023782800D15F
:10571000CFE09A430A239C4600230F930A330D934C
:1057200080E05646B1008919490001330E181878F7
:10573000303E010030390929F4D9B2461E00013348
:10574000994628E60C9B023602CB8A46C94350464E
:10575000C917084082460C933078731C99461AE6A4
:105760001023100098431133184381468020130002
:10577000C0000340024200D1A9E64B46069308232D
:1057800005935346049310230393002302930F9B26
:10579000220001931CAB009359463B002800FEF702
:1057A000A7FF434604000C93CAE501235B42C3E60E
:1057B0000F9B534501D953460F9302231800104005
:1057C0000D90134200D1B7E10D93D1460B1B9A46C1
:1057D0003300A1442E0022004D460C98B9465F4686
:1057E0009B4608E04B463900541CB0475346185DB1
:1057F000002877D022009542F4D15B46BB464F4645
:10580000A94635004C461E00C9E680231B011A43F9
:10581000FDE620231A4320E708239C4600230F932C
:1058200008330D9380231100DB0019401A4200D188
:1058300016E10D239A431000802302009B001A40BA
:105840001492184200D0C2E1802302005B001A408B
:1058500091460C9A04320F92184200D0B7E24306E8
:1058600000D59FE1030600D419E30C9B1B88099324
:10587000002B00D0FCE110339843002900D1F7E160
:105880000023994643460593534604930D9B069087
:1058900003930023D2E0582808D0622867D102235E
:1058A0009C4600230F9302330D93BBE720231A433A
:1058B000103B9C4600230F9310330D93B2E78023D7
:1058C0001B011A4320231A43A1E6C0239B001A435D
:1058D000F31C9946B07882E5C0231A43F31C99461D
:1058E000B0787CE535005E46BB464F4657E64346FA
:1058F000012B00D863E1631E43449A463300B94646
:105900002E005F4655469B46A24622004B46013478
:1059100039002020B047AC42F7D135005E46BB4687
:105920004F46A14654460C9B4A46187859463B00C0
:105930004444A847D7E6A1460F9B984500D832E6D5
:105940004444E41A3300B8462E005F4625004C4616
:10595000994622004346013439002020B047AC422A
:10596000F7D12C00BB46350047464E461BE6802348
:105970001000DB0018401A4200D10FE1112118007D
:105980008A430D920D9A802311009B0019408C468A
:105990001A4269D1802311005B00194089460C9995
:1059A00004310F911A4200D0CAE113005B0600D502
:1059B000F0E013001B0600D459E20C9B00229B5E12
:1059C000D9175A184A4092B2D90F0C91002B00D126
:1059D000F9E1100014AA944642461F23149252463D
:1059E0006344A84616944D460400B946B2461F00CB
:1059F000159201E0202D0FD020000A21FDF756FE60
:105A000001357E193031317020000A21FDF74EFE3C
:105A100026000400092EEDD8149B4F46A9464546A2
:105A20009846159B56469A46169C0D9B06934346F0
:105A30000593534604930A2303930C9B02934B460E
:105A400001931CAB2200009359463B002800FEF74F
:105A50004FFE0F9B04000C9372E4C04641460010B9
:105A60000C239A431000E7E607220C9B073393436D
:105A7000013294469C4462460C920CCBD90F0F9194
:105A80001100194300D191E0D9171391129151409F
:105A9000109113995940119110981199129A139BD2
:105AA000801A99411090119114AA002394464246FD
:105AB0009946149252461F336344A846B246169440
:105AC0004E46109C119DB94615921F0001E0202EF4
:105AD00010D0200029000A220023FDF725FE013600
