:020000041000EA
:1000000000B5324B212058609868022188439860DF
:10001000D860186158612E4B002199600221596106
:100020000121F02299502B49196001219960352056
:1000300000F044F80222904214D00621196600F024
:1000400034F8196E01211966002018661A6600F04E
:100050002CF8196E196E196E052000F02FF8012189
:100060000842F9D1002199601B49196000215960AB
:100070001A491B48016001219960EB211966A021F2
:10008000196600F012F800219960164914480160C1
:100090000121996001BC002800D000471248134993
:1000A000086003C880F30888084703B5996A0420EC
:1000B0000142FBD001200142F8D103BD02B5186610
:1000C0001866FFF7F2FF186E186E02BD00000240BE
:1000D000000000180000070000035F00212200005C
:1000E000F4000018222000A00001001008ED00E03C
:1000F00000000000000000000000000074B24E7A12
:1001000000200420F7010010C3010010C5010010F9
:10011000C1010010C1010010C1010010C101001097
:10012000C1010010C1010010C1010010C701001081
:10013000C1010010C1010010C9010010CB01001065
:10014000CD010010CD010010CD010010CD01001037
:10015000CD010010CD010010CD010010CD01001027
:10016000CD010010CD010010CD010010CD01001017
:10017000CD010010CD010010CD010010CD01001007
:10018000CD010010CD010010CD010010CD010010F7
:10019000CD010010CD010010CD010010CD010010E7
:1001A000CD010010CD010010CD010010CD010010D7
:1001B000CD010010CD010010CD010010CD010010C7
:1001C00000BE00BE00BE00BE00BE00BEEFF3058054
:1001D000103800BEF2EB887188790110A8790110FF
:1001E0003802001090A31AE71E481F49086006C88D
:1001F00081F3088810471D480068002801D019487D
:10020000F3E70DA40ECC002902D000F012F8F9E7B4
:100210001749184A002000E001C19142FCD116495B
:100220008847164988471649884700BEFDE701C937
:1002300001C29A42FBD37047A8790110C000002088
:100240001C260020049F0110000004200000042050
:10025000049F011000100420001004200000000082
:10026000704700000000000008ED00E0000000D032
:100270001C2600206C630020754F00101107001031
:10028000354F0010F8B5C046044B10B5002B03D015
:100290000349044800E000BF10BDC0460000000054
:1002A00004630020A0410110F0B5DE464E465746DB
:1002B0004546E0B5834695B008009846924608F05A
:1002C0005DF80500082200210EA803F029F9280096
:1002D00007F0DEFF8146022007F0BAFB00275346F5
:1002E0000CAC0C9723614B466561474D5843022384
:1002F00021002A00A383A0616760A77749C949C28A
:1003000049C949C209C909C2404608F037F88046C0
:10031000002108220EA803F003F9404607F0B8FFB9
:100320008146092007F094FB1E9B0C9723614346EE
:1003300063614B4658430923A38399462B0022004F
:10034000A0616760A777203343CA43C343CA43C34E
:1003500003CA03C31F9808F011F880460822002141
:100360000EA803F0DDF8404607F092FF8246092010
:1003700007F06EFB209B0C97236143466361534655
:1003800058434B46A3832B0067604033A061A77797
:1003900007CC07C307CC07C306CC06C33C23EB5CE2
:1003A000092B09D03322009318490923184807F074
:1003B0005DFF0122174B1A7004AC174F200007F0A5
:1003C000B7FD23003A0013CB13C213CB13C21B6833
:1003D0001248136007F0D2FF0400114807F0CEFF67
:1003E00000230190039302932A0039005846009499
:1003F000033307F0D3FD584615B0F0BCBB46B246F8
:10040000A946A046F0BDC04608510020A0410110F9
:10041000F84101105D630020EC50002044540110AD
:100420003C540110F0B5DE4657464E464546E0B511
:10043000D3B00D001E0091460591834607F09EFF44
:1004400080460021082210A803F06AF8404607F011
:100450001FFF8246042007F0FBFA002743460EAC3C
:100460000E9763615346584304232200A3839B4B9A
:1004700025616760A777A061984623CA23C323CA72
:1004800023C303CA03C3484607F078FF814600210F
:10049000082210A803F044F8484607F0F9FE824607
:1004A000012007F0D5FA4B460E9763615346584337
:1004B0000123A3839A46434622006760A777A06181
:1004C0002661203323CA23C323CA23C303CA03C319
:1004D0005C9807F053FF81460021082210A803F022
:1004E0001FF8484607F0D4FE0500012007F0B0FAD7
:1004F0005D9B0E9723614B4663615346A38343463E
:10050000220068436760A061A777403383CA83C332
:1005100083CA83C303CA03C33C234246D35C012B73
:1005200009D0332200936E4901236E4807F09EFEE6
:1005300001226D4B1A7006AB99466C4F180007F0FC
:10054000F7FC4A463B0023CA23C323CA23C31268CD
:1005500067481A6007F012FF8146664807F00EFFF1
:100560000023039302939A464B464246390001907A
:1005700000932000032307F011FD0022002120003A
:1005800007F05AFD031E00D09CE0200007F0A8FDF4
:10059000031E00D08AE0059D002D2DD05B465B68D0
:1005A0009B465C9B1B685B4500D075E05B46002B5F
:1005B00022DD5C9B00241F1D494B9A464E4B9946F9
:1005C000494B984633005E469B463B682A686868FC
:1005D000D9179A4201D1884208D000925146502240
:1005E000484607F043FE01234246137001340437A6
:1005F0000835A642E9D15E465C9807F0BFFE07F0D9
:1006000047FE002841DD3200354B002499463B4B24
:10061000060098465D9B92469B460CE0391C281CC0
:1006200002F06FFED021890502F0B4FE002817D138
:100630000134A64229D05A46A300D55853461F6814
:10064000281C391C02F0A6FE0028E7D1291C381C02
:1006500002F057FED021890502F09CFE0028E7D069
:10066000381C02F09DFE02900391281C02F098FEB7
:100670005B22009001914946404607F0F7FD0122B8
:10068000194B01341A70A642D5D153B0F0BCBB4609
:10069000B246A946A046F0BD5323114A184919484D
:1006A00007F0E4FD0122104B1A70A5E70022164C5A
:1006B0000092200048320A4907F0D8FD01220A4B77
:1006C0001A7068E75246114F0092380047320449C9
:1006D00007F0CCFD0122044B1A7056E77C52002033
:1006E000A0410110F84101105D630020605200201C
:1006F000445401103C540110C442011048430110FD
:10070000044301103C4301108C4201104C42011083
:10071000F0B5DE4657464E464546E0B5B74C002597
:10072000A54407F01BFEB64AB64B2392B64AB74F14
:100730000892B74A06930A92B64AB74B2092B74A34
:1007400099461192B64A44AC0592B64A1592B64AF9
:100750002192B64A0C92B64A0D92B64A1692B64A01
:100760001792B64A0992B64A1392B64A1492B64AFA
:100770000792B64A1892B64A0B92B64A1992B64AEE
:100780001A92B64A0F92B64A1B92B64A0E92B64ACF
:100790001C92B64A1D92B64A1092B64A1E92B64AAA
:1007A0002292B64A1F92B64A2492B64A04972592DC
:1007B0004B46069F23981D603D6007F057FD049A45
:1007C0000A9E15700122089B329202323100339248
:1007D0003CA815321D7002F0A9FE320081201832AB
:1007E0001300C00530902F9536AA43CB43C21B6837
:1007F0003CA9136036AA009230AA130001942FAAD4
:1008000032A8FFF70FFE0122089B1A70049A3B687A
:1008100011780122002901D1002201330699209884
:100820000B604B461B689B184A46136007F01EFD81
:10083000089B0A9E1D700123049A310015703093A5
:100840001822023336A8319302F070FE32000423DE
:1008500018322F9313002E9532AA83CB83C21B68C4
:1008600030A8136007F08AFD80460021082246A8C0
:1008700002F056FE404607F00BFD8246042007F0CA
:10088000E7F836AA44952261424604236261524643
:10089000119E5043A38322003300A0616560A577B9
:1008A00083CA83C383CA83C303CA03C32EA807F0C2
:1008B00065FD80460822002146A802F031FE404630
:1008C00007F0E6FC8246022007F0C2F82FA9449503
:1008D00021614146616151463300484302212200B3
:1008E000A061A1836560A57720338B4683CA83C34B
:1008F00083CA83C303CA03C332A807F03FFD8046FF
:100900000822002146A802F00BFE404607F0C0FC7A
:100910008246022007F09CF83CA94495216141469B
:100920006161514633004843594622006560A06129
:10093000A183A577403383CA83C383CA83C303CA11
:1009400003C33C23F35C022B09D0332200930599A7
:100950000223159807F08AFC0123049A137026A835
:1009600007F0E6FA219E26AA330083CA83C383CA0E
:1009700083C312681A600C9807F000FD80460D983A
:1009800007F0FCFC42460323310001900092200056
:10099000119A0395029507F001FB00220021200027
:1009A00007F04AFB031E01D000F08EFC200007F088
:1009B00097FB031E01D000F072FC319B9C46329BDA
:1009C000634501D000F043FC33AB9B4636AB984601
:1009D00000239A466346002B6BDD4B461E00049BAA
:1009E00047469946E0465B463A681B687868D917DF
:1009F0009A4249D1884250D046E0C046DCFDFFFF14
:100A000084430110AC2900205E6300205D63002058
:100A100050540110A0430110A8290020F8520020D2
:100A2000A0410110F8410110DC5200204454011093
:100A30003C5401104C4201108C420110C442011080
:100A4000044301103C430110BC430110F843011062
:100A50002445011014440110344401108451002035
:100A600068510020484301105044011064440110B3
:100A700000520020E451002098440110DC44011091
:100A8000F044011008450110009205995022099880
:100A900007F0ECFB4B4601221A7001239C460333FE
:100AA000E2449C460837E344D0459CD14B46B146CE
:100AB000049332A807F062FC07F0EAFB3CAB9A46CD
:100AC000002383469846002818DD049B4746984635
:100AD00053462F9A1B68934208D0009205995B22D7
:100AE000079807F0C3FB434601221A7004239C4673
:100AF0000137E244BB45EBD1434604930122089BF6
:100B00001A70049A069B11781B680122002901D1F2
:100B100000220133069918980B604B461B6836AFCC
:100B20009B184A46136007F0A1FB089B0A9E1D70A4
:100B3000049B1D700123309302333193330028331B
:100B400007CB07C730200B9B22A91B7809180B7015
:100B500033002F9518333CAA83CB83C21B68200037
:100B6000136032AB02933CAB01932EAB009336AAD9
:100B70002FAB30A9FFF798FB00220021200007F0DF
:100B80005BFA031E00D095E3200007F0A9FA031ECC
:100B900000D07AE331993C9B8B4200D04DE33DABD2
:100BA0009B4636AB9A460023984600291EDD4B46ED
:100BB0001E00049B4746994688465B4652461B6882
:100BC0001268934208D0009205995022099807F0C4
:100BD0004DFB4B4601221A7004239C460137E34427
:100BE000E244B845E9D14B46B14604933CA807F02E
:100BF000C5FB07F04DFB32AB9A469846824400286D
:100C000019DD049B474698463021002322AA52183A
:100C10001278FB5652B2934208D0009205995B229B
:100C2000079807F023FB434601221A700137BA45A3
:100C3000EAD1434604930122089B1A70049A069B4A
:100C400011781B680122002901D100220133069985
:100C500019980B604B461B689B184A46136007F0B7
:100C600005FB089B34211D70049B22AA1D700123E3
:100C70003293023333930B9B52181B7830951370C9
:100C80000A9B3CAA183383CB83C21B6820001360E5
:100C900036AB02933CAB01932FAB0022009332A9F9
:100CA00030ABFFF701FB00220021200007F0C4F960
:100CB000031E00D0DFE2200007F012FA031E00D06E
:100CC000CFE23CA807F05AFB07F0E2FA36AB9A46AF
:100CD00098468244002819DD049B474698463421F3
:100CE000002322AA52181278FB5652B2934208D01F
:100CF000009205995B22079807F0B8FA4346012253
:100D00001A700137BA45EAD1434604930122089B81
:100D10001A70049A069B11781B680122002901D1E0
:100D20000022013306991A980B604B461B6832AFBC
:100D30009B184A46136007F099FA089B0A9E1D709B
:100D400001233093023331933300049A2833157012
:100D500007CB07C78123DB052F9333002E9518336C
:100D600036AA83CB83C21B6830A8136007F006FB4A
:100D700080460021082246A802F0D2FB404607F038
:100D800087FA8246022006F063FE32AB4495236167
:100D9000434663615346584302230F9EA3832200B8
:100DA0003300A0616560A57783CA83C383CA83C308
:100DB00003CA03C32EA807F0E1FA804608220021E7
:100DC00046A802F0ADFB404607F062FA82460120D9
:100DD00006F03EFE2FA94495216141460123616141
:100DE0005146A3833300220048436560A061A57784
:100DF000203383CA83C383CA83C303CA03C336A809
:100E000007F0BCFA80460822002146A802F088FBC1
:100E1000404607F03DFA8246012006F019FE3CA943
:100E2000449521614146012361615146A38333000A
:100E3000220048436560A061A577403383CA83C31D
:100E400083CA83C303CA03C33C23F35C012B09D0C9
:100E50003322009305990123159807F007FA01231F
:100E6000049A137026A807F063F81B9E26AA330085
:100E700083CA83C383CA83C312681A600C9807F0BD
:100E80007DFA80460D9807F079FA42460323310037
:100E90000190009220000F9A0395029507F07EF8CA
:100EA00000220021200007F0C7F8031E00D020E236
:100EB000200007F015F9031E00D010E23199369B8F
:100EC0008B4200D09FE137AB9B4632AB9A46002362
:100ED000984600291EDD4B461E00049B4746994656
:100EE00088465B4652461B681268934208D00092BF
:100EF00005995022099807F0B9F94B4601221A705A
:100F000004239C460137E344E244B845E9D14B460B
:100F1000B146049336A807F031FA07F0B9F93CAAB4
:100F2000934600229246002846DD4A46049E8146AA
:100F3000129211E04146381C02F0E3F9D0218905F4
:100F400002F028FA00281BD101239C460333E24417
:100F50009C46E344D1452CD05B461F682F9B381C30
:100F6000191C984602F016FA0028E3D1391C4046B5
:100F700002F0C7F9D021890502F00CFA0028E3D06D
:100F8000404602F00DFA02900391381C02F008FA74
:100F90005B220090019105990E9807F067F90123F3
:100FA0009C4603330122E2449C463270E344D1451F
:100FB000D2D1129B049699460122089B1A70049A7A
:100FC000069B11781B680122002901D10022013300
:100FD000069F1C983B604B461B689B184A46136053
:100FE00007F044F9049A00231570012222600022C0
:100FF0003C923D9381220023089ED205309236AA6E
:1010000035706560019232AA00923CA830AA0100B6
:101010003693200013002FAA2F953295FFF702FA7E
:1010200001223270049A3B6811780122002901D113
:101030000022013306991D980B604B461B689B18D4
:101040004A46136007F012F9089B0A9E1D7001239F
:10105000049A310015703093182202333CA8319362
:1010600002F064FA30200B9A2F95137822AA1218F6
:101070001370330036AA343383CB83C21B6830A885
:10108000136007F07BF980460021082246A802F091
:1010900047FA404607F0FCF88246042006F0D8FCE8
:1010A0003CAB449523614346636153465843042354
:1010B000109EA38322003300A0616560A57783CAD8
:1010C00083C383CA83C303CA03C32FA807F056F997
:1010D00080460822002146A802F022FA404607F086
:1010E000D7F88246092006F0B3FC2EA94495216169
:1010F0004146616151463300484309212200A06105
:10110000A1836560A57720338B4683CA83C383CAD6
:1011100083C303CA03C336A807F030F98046082208
:10112000002146A802F0FCF9404607F0B1F88246DB
:10113000092006F08DFC32A9449521614146616188
:10114000514633004843594622006560A061A1839F
:10115000A577403383CA83C383CA83C303CA03C347
:101160003C23F35C092B09D0332200930599092312
:10117000159807F07BF80123049A137026A806F04F
:10118000D7FE1E9E26AA330083CA83C383CA83C3A5
:1011900012681A600C9807F0F1F880460D9807F075
:1011A000EDF8424603233100019000922000109A8E
:1011B0000395029506F0F2FE00220021200006F0C1
:1011C0003BFF0300012828D1049A0899069B127856
:1011D00008701968002A00D09AE0002201311960D5
:1011E0004B461B681F98D2184B461A60521807F0DE
:1011F0003DF84B461B68002B00D084E0249807F094
:1012000035F8FFF7D5FA5323059A1399149807F088
:101210002DF80122049B1A707CE601221600059924
:1012200000922298E83207F021F8049B32001E70E9
:10123000089B1E70069B1968D1E75323059A1399E2
:10124000149807F013F80122049B1A70CEE453237C
:10125000059A1399149807F009F80122049B1A7053
:1012600027E4482205991798009506F0FFFF012210
:10127000049B1A7025E5472205991698009506F0FB
:10128000F5FF0122049B1A7015E54822059917986D
:10129000009506F0EBFF0122049B1A707AE44822C5
:1012A00005991798009506F0E1FF0122049B1A703A
:1012B000FFF783FB472205991698009506F0D6FFA5
:1012C0000122049B1A705FE4472205991698009545
:1012D00006F0CCFF0122049B1A70FFF767FB48223F
:1012E00005991798009506F0C1FF0122049B1A701A
:1012F000E4E5472205991698009506F0B7FF01220C
:10130000049B1A70D4E5259806F0B0FFFFF750FA59
:10131000012264E78023DB051868000F7047C04690
:101320000FB400B5084883B003F0C0FF049B002B46
:1013300007D005A91800019103F08CFD034803F0C4
:10134000B5FF012003F09EFD28450110384501102E
:1013500070B5EFF3108C72B60D4D2B68002BFCD0DE
:10136000BFF35F8F0724CB08C618C05C01230C4075
:10137000A3401C000440034207D118433070BFF360
:101380005F8F2C608CF3108870BD1000FFF7C8FFD2
:101390002C0100D0F8B54746CE46884680B5EFF31D
:1013A000108C72B61C4D2C68002CFCD0BFF35F8FE4
:1013B0009A4222D807210126894602E0013293424F
:1013C00018D34D4637001540AF40D4080119045DCD
:1013D0002742F3D110003C430C70BFF35F8F002213
:1013E0000D4B1A608CF3108800280EDBC0BCB94688
:1013F000B046F8BD01204042EFE7BFF35F8F002306
:101400002B608CF31088012040424346002BEDD026
:101410000898FFF785FFC0462C0100D0044A1078D9
:10142000431CDBB2172B00D9102313707047C04642
:101430006C1E002010B5064B064C82B001000093D4
:1014400018221F232000FFF7A5FF02B010BDC046E1
:101450003C450110885E00200021044B044ABFF384
:101460005F8F02C39342FAD17047C046000100D09B
:10147000800100D0054B064A1360064A1360536092
:101480009360D36013615361936170478080808063
:1014900000E400E004E400E01F2318401E3B83400A
:1014A000002905D0C021044A4900535013607047F9
:1014B000802201498B50FAE700E100E001228240DE
:1014C000034B1B6813405A1E9341D8B27047C04665
:1014D00000E100E001238340014A13607047C046E9
:1014E00000E200E0084B10309B688000C358002BDE
:1014F00007D0064A00209B1A2F229A424041C0B2D0
:1015000070470020FCE7C04600ED00E0701E0020A0
:1015100070B50D00EFF3108672B60F4A1368002BFA
:10152000FCD0BFF35F8F0D4B10309B6884001B59BC
:101530000B4A934203D09D4201D000F093FF074B2A
:101540009B681D51BFF35F8FBFF35F8F0022024B7B
:101550001A6086F3108870BD240100D000ED00E011
:10156000CD010010F0B557464E46DE464546E0B583
:1015700085B0060000911700EFF3108B72B66A4A2F
:101580001368002BFCD0BFF35F8F0025674B5D57BE
:101590009A46002D00DAA9E06B00654C01935B19B7
:1015A0009B009846A146C1444B4652469B79103653
:1015B0001370604BB6009B6899590B1B2F2B33D9C6
:1015C0005D4B994200D0ACE0019B42469C465B4B90
:1015D0006544AD0063535A4B0232A218043B9B1A78
:1015E0001B05584A5B0D651913436B80564B01214F
:1015F000AB80FF23AB71009BEF71AB604B460B439D
:1016000019004C4B9B689951BFF35F8FBFF35F8FFD
:101610000022454B1A608BF3108805B0F0BCBB4626
:10162000B246A946A046F0BD01200A008243D37904
:101630008C46BB4231D84546130044491B1B5B41D5
:101640005943090D3D4B63533D4B02356519043B2E
:101650005B1B1B053B4D5B0D2B43AA464D466B8028
:101660000425AC465546E044131F44441B1B1B0590
:101670005B0D1D434B46997100999D8099604946C9
:10168000DF71334B01431360BBE75800C018800083
:101690002018C179B9422FD902000623D356002B56
:1016A000F3DA02932B4B61460393131D9A460423EE
:1016B0005B429C46E14450464B461B1A1B055B0DA2
:1016C0009C46204B95719846634640460343938061
:1016D000019B5A199200039BA418A380029B1C4AE9
:1016E000A371009B2260E771A3608AE700F0BAFE55
:1016F000002553465D574FE7908802934005131D20
:101700009A46031561469C464046D44463460430DD
:101710002018181AE0230005400D1B0218430390FF
:10172000C5E700F09FFE4FE7240100D0646300206E
:10173000701E002000ED00E0CD01001000A1FFFFB1
:10174000A01E002000E0FFFF01BDFFFFAAAA0000CD
:101750000148804701BD000070B501240443EFF348
:101760000581EFF3108C72B6214A1368002BFCD070
:10177000BFF35F8F1F4B05001F4AED1A6D416A438F
:10178000120D1E4D8900AE6852B27658A6421CD08A
:101790000621595691421CD012215956914222D00D
:1017A0001E215956914220D02A2159560324914294
:1017B00010D0134B19781A708171BFF35F8F00221C
:1017C0000B4B1A608CF3108870BDAB680D4C5C50ED
:1017D000EFE700246100091989005B18FF21997166
:1017E00009499980E5E70124F4E70224F2E7C046BD
:1017F000240100D0701E0020AAAA000000ED00E025
:1018000064630020CD01001001BDFFFF10B5084B3F
:10181000084C82B001000093002205232000FFF74E
:10182000B9FD002801DB1F23181A02B010BDC04605
:101830005845011068630020024B9C4661448900B2
:10184000016070474000003470B5114C114DAC423E
:101850000FD2FF262368002B0CD0FFF7DFFD01001D
:101860002000FFF7E9FFA680BFF35F8F0834AC428A
:10187000F0D370BDFFF7D2FD01002000FFF7DCFFC1
:101880002671BFF35F8F0834AC42E3D3F1E7C04663
:101890000C2600201C26002010B50400FFF7BEFD1A
:1018A00001002000FFF7C8FFFF232371BFF35F8F04
:1018B00010BDC04610B504000120FFF7BBFD034B6F
:1018C000C3189B002360BFF35F8F10BD400000343E
:1018D000034B9C46614489000160BFF35F8F7047F2
:1018E000400000340A4B1968EFF3108072B60A68A2
:1018F000002AFCD0BFF35F8F1B68BFF35F8F00220D
:101900001A6080F3108840BF002000217047C04655
:1019100040630020F0B5DE4657464E464546E0B5EA
:1019200087B0EFF305820323012513409D40990002
:10193000B34AB44B54581D60B34B8846A946049330
:1019400029E0A3881BB2002B00DBA5E0A379002BC4
:1019500000D0E6E00823E05E002800DA0FE1430053
:1019600062691B18DB00D3189E68DD68731C00D108
:1019700011E1A64B190041449A6A0B69B01A9B1AEF
:10198000984200D20E61A14800F030FB8D4200DD8C
:10199000F5E000D12BE14B469C4843630823E55E0C
:1019A000002DCEDB62696B0092465B19DB009A4426
:1019B00053469E68DF6800F019FB8F42C1DC00D1FE
:1019C0000BE1002F00DAF0E05246534652691B69E2
:1019D0009346049A934200D1E1E052460821605EAA
:1019E0005288000459461043984702900391029987
:1019F000039A0B001000134300D1D6E013000A0035
:101A0000B61A9F41002806DB804800F0EFFA029EDC
:101A1000039F36184F4153469E60DF6000229A5E56
:101A2000002A8EDB530099186069C90041180193A0
:101A30008B68C9689B46B94200DD82E702D1B34298
:101A400000D97EE708239C46A4440595654622817B
:101A5000A446019B2C0006E053009918C9004118C8
:101A60008D68C968AB469B18DB00C318B94206DC19
:101A700000D1C0E01C000023E25E002AECDA230063
:101A800064469C4653461A806346059D1D80A38884
:101A90001BB2002B00DA59E72269EFF3108172B60E
:101AA0001368002BFCD0BFF35F8F0123A7885B4234
:101AB000A3803FB22369BFF35F8F00221A6081F3D6
:101AC0001088002F00DA41E72300083322009A46ED
:101AD00066697B00DB19DB00F318996850468C4679
:101AE0000824115FDD68002910DB019306E0AB429A
:101AF0004DD00023E15E2000002906DB4C00641875
:101B0000E4003419E368AB42F1DD019B078000205B
:101B10001F5E1980002FDCDA1400A379002B00D19E
:101B200018E70023A37126000823E15E08364B1C4A
:101B300025D00800A246656902E03E004B1C1AD081
:101B40004B005B18DB00EF180A008C46E95E7B88CF
:101B50001BB2002BF1DA01235B42DC17BB60FC6097
:101B6000824205D0534631801B893B8053461A81FF
:101B700060464B1CE4D15446002800DBEFE640BF32
:101B800007B0F0BCBB46B246A946A046F0BDA3686C
:101B90006345AED9B9E76B1C00D0EAE6F3E65B46D5
:101BA00058461B69984700281BD153461B88226959
:101BB0002381EFF3108372B611680029FCD0BFF3C4
:101BC0005F8F514662880A8022696580BFF35F8F0C
:101BD0000021116083F31088B3E6864200D8F0E656
:101BE000AFE65B461A685B6802920393FFE68642A3
:101BF00000D8D0E6C3E7B34500D83BE73FE7C0468F
:101C0000246300203C700540151900100040054079
:101C100070B52E4C2569002D04D00A212C48FFF701
:101C20000BFE70BD2B4E0321300000F0D5F9E660AD
:101C3000FFF7F4FB284B03229C46D02322701B069F
:101C40001B6801216370254B6044A3600F23800053
:101C500020610220638063694942A18019800231BA
:101C6000198647311D83585218315A5275325C39E2
:101C70009952183201319952183201319952183261
:101C800001319952083518329D5202311832995259
:101C900018320131995218320131995218320131FA
:101CA00099521832013199521832013199520C4B24
:101CB0000C49DC6001303562FFF72AFC012103206A
:101CC000FFF7EAFB084B1D60A7E7C046B81E0020DF
:101CD000406300200040054040000034FFFF10003A
:101CE0002463002015190010386005400048704733
:101CF000B81E0020F8B51F0008AB1B7804001600C2
:101D0000002B08D100F07AF932003B00121A8B4107
:101D1000002B00DA52E02269EFF3108072B61368EC
:101D2000002BFCD0BFF35F8F0223E15E63694A00A2
:101D30005218D2009B182269002936DB1D88658065
:101D4000BFF35F8F0025156080F31088069A9E60B0
:101D5000DF601A61079A5A615A8801325204520CA4
:101D6000101C002A1FD082B2588008041043266934
:101D7000EFF3108772B63268002AFCD0BFF35F8F92
:101D8000A2881A80A1802369BFF35F8F00221A60A6
:101D900087F310880A4923788C4601329A40E36819
:101DA00063441A60F8BD0120DDE7BFF35F8F0023B5
:101DB000136080F3108801204042F3E70020F1E730
:101DC0003C20000070B501000469EFF3108C72B67E
:101DD00020680028FCD0BFF35F8F02200D5E4C69A5
:101DE00068004019C00024180869002D36DB2688D9
:101DF0004E80BFF35F8F002606608CF31088E3608F
:101E000063880498013320615B0405985B0CA26031
:101E100060611A1C002B1FD093B228046280184303
:101E20000A69EFF3108C72B61368002BFCD0BFF375
:101E30005F8F8B8823808D800B69BFF35F8F0022BB
:101E40001A608CF310880B7801329A40CB680849ED
:101E50008C4663441A6070BD0122DDE7BFF35F8FDB
:101E6000002303608CF3108801204042F3E7C04652
:101E70003C20000010B543890A1493421ADD530038
:101E80009B184269DB00D3180469EFF3108C72B61B
:101E90002268002AFCD0BFF35F8F5A88090494B2ED
:101EA000090C8A4208D00369BFF35F8F00221A60D1
:101EB0008CF31088002010BD8022120214435C8035
:101EC000012302698371BFF35F8F002111608CF3DE
:101ED0001088044902788C469340C268012062440D
:101EE0001360E8E73C20000040787047F0B5CE462C
:101EF000474680B504000D0083B0EFF30583994693
:101F00000F00002B42D1314EA0463378F0680433E5
:101F10009B00816A1B58601A5B1A984212D320BF3B
:101F20002B4900204B6AAB4207D38A6A5B1B591EC0
:101F30008B4141468A424041184303B0C0BCB94678
:101F4000B046F0BD00F05AF822002B00121A8B4167
:101F5000002B28DB4B4601931E4B220000933000E0
:101F60002B00FFF72FFF011E1DDD194B5A6AAA42F5
:101F70002AD39B6A9C4225D83000FFF77BFF144A86
:101F80000020536ABB42D8D3926ACFE710490020A1
:101F90004B6AAB42D1D38A6A5B1B591E8B41A2426A
:101FA00040411843C9E70A4A0020536ABB42C4D3E0
:101FB00000204146926A5B1B8A4240415A1E93416F
:101FC0001843BAE7AA42D7D120BFD5E7B81E0020F0
:101FD00000400540E518001010B5024A0248FFF71E
:101FE000B7F910BD744501108C5E00200300416AF2
:101FF0000A00986A596A8A42FAD17047034B596AB3
:102000000A00986A596A9142FAD170470040054027
:1020100070B504000D00174A536A1900966A536A96
:102020008B42FAD13000190024184D41AB4216D82A
:1020300013D0104B2A005B6A9D4203D90D494B6AAD
:102040009342FCD3934207D10A4A02E0516A994273
:1020500002D1916AA142F9D370BDA642E9D9054BDC
:102060005B6A1C005A1CEFD0012201246442E51770
:102070005242E3E700400540F8B5DE464E4657467B
:102080004546E0B58B4605000A991800160000F099
:10209000EFFA0A9B6C001F02324B64199C46A400A5
:1020A0006444636881469F4200D967602B1FDBB29E
:1020B0009846012B30D9C02380229B01E3181201DE
:1020C0001A60294BAD0059599A4600291BD173015A
:1020D000E026226853401E40802342465B01E318FD
:1020E0001E60012A30D9802380229B01E31812014F
:1020F0001A6053464A4667605A51F0BCBB46B24626
:10210000A946A046F8BD586900F0B2FA0130430074
:102110001B18033BFDD2DAE75B46012BCBD1C02372
:1021200003229B01E3181A60023AA3681A42FCD00A
:102130007301E0262268AD0053401E4080230A4A06
:102140005B019246E3181E605A4621685140032203
:102150000A401A6001225B469A40A3681A42FCD0EA
:10216000C1E7C04600800040905E0020F0B54646C2
:102170004F46D646C0B51F00344B44009C46241839
:10218000A4006444636888461600FF2B02D88023AD
:102190005B006360031FDBB29A46012B30D9C0237A
:1021A00080229B01E31812011A60294B85005959BE
:1021B000994600291BD17301E026226853401E4036
:1021C000802352465B01E3181E60012A30D9802328
:1021D00080229B01E31812011A6080235B00636078
:1021E0004B465F51E0BCBA46B146A846F0BD5869BF
:1021F00000F03EFA013043001B18033BFDD2DAE742
:102200004346012BCBD1C02303229B01E3181A6064
:10221000023AA3681A42FCD07301E02622688500C6
:1022200053401E4080230A4A5B019146E3181E601A
:1022300042462168514003220A401A600123424667
:102240009340A2681342FCD0C1E7C0460080004022
:10225000905E0020014B8000C0587047905E0020C7
:10226000F8B5040021481E0017000D0000F000FA28
:102270000100380000F0FCF9069B36041B031E43E6
:102280002368002B20DB1A4B1A49E3185A1E93418E
:102290008022920194465B421B0B174A1B03634446
:1022A0001360164A13601F000A689743FBD1144B52
:1022B0002560E2182123A06013602368002BFCDA5C
:1022C0000823E6601360F8BD3F2322681340AB4249
:1022D000D9D1A3681B051B0D8342D4D1EE22E3683C
:1022E000D2021340B342CED1EDE7C046001BB70087
:1022F0000040FDBF08C0004000E0004000F000408A
:102300000430000010B580241C4BE4051C6000283C
:102310001AD001231A4C18431A4BDC611A4C444062
:102320001C62596298628021144BC90519601748D4
:1023300017490860E021C9041960002A07D18022EA
:10234000144B12061A6010BD0E4BD861EBE7530117
:102350009B1A9B009A18802312015B049A4209D2AF
:1023600013000D490B60074B5A608022094BD205C0
:102370001A60E8E7094B1A00F3E7C04600B00540D1
:10238000D3C007B0008005402D3FF84FFCFF01008F
:102390000820014000A00540FC620020FFFFFF0074
:1023A0008023024A9B000B43D362704700800540A4
:1023B000002310B50100988A1B8B984710BDC046BA
:1023C000162310B50100188802331B88984710BDEA
:1023D000F8B54746CE4680B50F1E18D0142399464F
:1023E000043304000025012698464B4618884346CE
:1023F00021681B88984701C4431E98410135064057
:10240000AF42F2D13000C0BCB946B046F8BD01269B
:10241000F8E7C046002370B504000D00988A05490E
:102420001B8B984703000020002C01DB0130A040EB
:102430002900984755420000AA23064A1B01136051
:102440002F230549D360054B19605368002BFCDA34
:102450007047C0460040024000B0FA0000600240F1
:102460007047C04610B50148FEF75AFF9845011065
:1024700070B5074D074EB54209D20024013E761BC8
:10248000B60808CD984723000134B342F9D170BD96
:10249000504101108C410110054B064A06491A6053
:1024A000064A074B1A6010000B689843FBD170472F
:1024B00000E00040BFCDFBFE08C00040FE7F3C00B6
:1024C00000F00040044BDB6C002B03D18022034B57
:1024D000D2021A607047C046000011504C201150C3
:1024E000044A054B1A60054A1368DB018033FBD1AF
:1024F0007047C046FFFFFF0100F0004008C00040E9
:102500004022034B9A675A671A67DA667047C046DB
:1025100000F0014010B5FEF79FFF10BD70B5044DEF
:10252000044CA968C022200001F000F8AC6070BD26
:1025300000ED00E000000020002310B5294C82B01F
:10254000A367FFF779FF0122274B1A60636C012B09
:10255000FCD10322254B1A60224A936B012BFCD13C
:10256000013300930121224A22480433FFF778FE09
:10257000052301210093204A2048FFF771FE002225
:10258000022104201E4BFFF7F1FD0022012105204E
:102590001C4BFFF7EBFD0022002107201A4BFFF731
:1025A000E5FD002200210820174BFFF7DFFD802307
:1025B000DB000093002200210920134BFFF75CFD94
:1025C0000022104B00210620FFF7D0FD0420FFF76A
:1025D00041FE0E4900F04CF801000020FFF7E0FE3C
:1025E00002B010BD008000403CB0004030B0004060
:1025F000002F685900800240008C864700C00240CE
:10260000001BB70040597307006CDC0240420F000A
:1026100001480421014B1847D01E0020D12300108F
:10262000124A936F9B0815D29066D166002905D097
:10263000FFE7FFE7FFE7516F106F704704B5802198
:102640000906C2175140002800D0C84311F0E0FC31
:10265000002104BDF0B5146E556E576F166FFFF76D
:10266000E3FF1466556657671667F0BD000000D09B
:10267000114A936F9B0813D210665166002905D04A
:10268000FFE7FFE7FFE7516F106F704704B50028C1
:1026900001D00020C04311F0BBFC002104BDC046A6
:1026A000F0B5146E556E576F166FFFF7E5FF1466A1
:1026B000556657671667F0BD000000D094464A4A39
:1026C000926F9208624601D228E0C046F0B5464EAD
:1026D000346E756E776F366F00F020F89446424A7C
:1026E00014665566576716676246F0BD94463E4AC3
:1026F000926F9208624601D254E0C046F0B53A4E5D
:10270000346E756E776F366F00F04CF89446364A2B
:1027100014665566576716676246F0BD002B24DBCA
:1027200011D000293EDA00B5C943404200D1013141
:1027300000F038F8C943404200D10131DB43524236
:1027400000D1013300BD002AEBD1002801D10029BE
:1027500005D00020C90FC90701D1C043410800B509
:1027600011F026FC0022002300BD00B500290ADB81
:10277000DB43524200D1013300F014F8C943404218
:1027800000D1013100BDC943404200D10131DB43DA
:10279000524200D1013300F005F8DB43524200D130
:1027A000013300BD002923D1002B18D1002A0CD001
:1027B000BC460D4F38667A6600210023FFE7FFE72D
:1027C000FFE77A6F386F67467047002801D00748E7
:1027D000010000B511F0ECFB0022002300BD020057
:1027E0000B00002000217047000000D0FFFFFFFF1A
:1027F000002B00D0BFE0130C28D1002AE7D080B412
:10280000114F39667A66FFE7FFE730B4040C7B6F3F
:10281000396F1B0423433B667A66FFE7FFE7FFE758
:10282000C04684B27B6F3D6F1B0423433B667A66D0
:10283000FFE7FFE7C04600232C042D0C7A6F386FAA
:1028400000196941B0BC7047000000D0F0B5944653
:102850000025140E01D112020835140F01D1120106
:102860000435940F01D192000235D40F01D15200EA
:102870000135D40B0134254F7C66254C3C660E0C8B
:1028800093B2FFE7FFE7FFE73C6F6643360C770341
:10289000BE467343DF0B5B04C01AB941130C73438C
:1028A000DB18C91ACE086643360CB64493B273439C
:1028B0001F0F1B01C01AB941130C73431F0B1B05DB
:1028C000C01AB941860D8F023E436643360C092D6E
:1028D00024DB520A7243801A7703460A6643360C99
:1028E00016235B1BDE40DF40BF1964466643821B34
:1028F0007046043506330100D940A840C01900D302
:102900000131A24206D20023F0BD0000000000D039
:10291000FFFFFFFF121B0130F3D3F1E709277F1BF5
:10292000FE406446A2B27243801A00D20139220CE2
:102930007243130C1204821A99410B00704604353D
:1029400013370100F940A840801900D30131002B52
:1029500002D1A2420AD2F0BD013000D30131121BD4
:10296000FAD2013BF8D1A24200D2F0BD013000D32F
:102970000131121BF7E7F0B51C0C00D080E00CB45D
:1029800000251C0A04D11B02160E3343120208351F
:102990001C0B04D11B01160F3343120104359C0B91
:1029A00004D19B00960F334392000235DC0B02D119
:1029B00092185B4101351C00971864410134464F61
:1029C0007C66464C3C660E0CFFE7FFE7FFE7C0461F
:1029D0003C6F6643360C7703BE4697B27743C01B05
:1029E00000D20139C01B00D201399FB27743C91B05
:1029F000C91B170C77437E04FF0B801BB941CE081F
:102A00006643360C0C2D33DBB644120B1F053A43DC
:102A10001B0B97B27743C01B00D201399FB277439B
:102A2000C91B170C77433E043F0C801BB941860D30
:102A30008F023E43664329277F1BFE400C3D7746AD
:102A4000AF40BF1930BCA2B2ABB272437343801A1D
:102A50009941220C7243130C1204801A994102000E
:102A60000B000137001BA941F9D2781E0021F0BDEF
:102A70000C277F1BFE4077467F0BAF40FF19E0E736
:102A800000245D1C07D0144F7D663966FFE7FFE721
:102A9000FFE7FFE73C6F95B29EB265436643401B7C
:102AA000B141150C1E0C6543664336042F0C3E43A2
:102AB0002D04401BB141994204D202000B002000BA
:102AC0000021F0BD01D19042F7D3801A9941013421
:102AD0009942F2D3F6E70000000000D0FFFFFFFFAD
:102AE00048404140484018B41B4B5B68FC4601938A
:102AF00008BD04DF9B2D001018B4174B1B68FC4663
:102B0000019308BD00DFA52D00109446134A926F73
:102B1000920809D2624618B40F4BDB68FC46019359
:102B200008BD0CDF5D3000100C4AF0B5146E556E18
:102B3000576F166F6246FFF7EEFF084A1466556638
:102B400057671667F0BD18B4034B9B68FC460193AA
:102B500008BD08DF012F0010A8270020000000D0CA
:102B6000FFB550404240504059404B40594000E072
:102B7000FFB5154F4C00640D03D0BC4204D10C03CB
:102B800014D80020090D09055C00640D03D0BC4277
:102B900004D11C030AD800221B0D1B0501264B4043
:102BA00009D44B4003D58B4200D18242FFBD9942EC
:102BB000FCD19042FFBD0B43DB1803431343F5D018
:102BC000C9434918FFBD0000FF07000000B5FFF72B
:102BD000CFFF01D0002000BD012000BD00B5FFF7F0
:102BE000C7FF804100BDC04600B5FFF7C1FF01D956
:102BF000002000BD012000BD00B5FFF7B1FF01D9E5
:102C0000002000BD012000BD00B5FFF7A9FF8041F5
:102C100000BD012040054A00121804D85A001218BD
:102C200001D80020704701207047000000210028D3
:102C300005D17047C1174840401AFAD0C90713B5EB
:102C4000064B1B6898470CBC441CA2401005120B95
:102C50000349091B09051943114310BD3C630020BA
:102C60001F04000010B54C00620D8023D218DB0059
:102C7000D21A5B057E2A10DD9E3A13DACC170903BF
:102C8000490819435242D140640001341532202AC8
:102C900005DAD0400843604310BD002010BD08464F
:102CA000604310BDC80FC018013810BD18B4044BE4
:102CB0005B6AFC46019308BD24DF0D320010000062
:102CC000A8270020132370B51D78012D19D014DD1D
:102CD0001F48FFF775FB06001E48FFF771FB1E4CEF
:102CE00080223100200000F021FC022D2DD01B4855
:102CF000FFF75EFB1A4B186070BD1A4B164CA364AD
:102D0000F5E7184B144C23606360A360E360236114
:102D10006361A361E36123626362A362E36223638D
:102D20006363A363E36323646364A364E36423656D
:102D30006365A365E36523666366A366E36623674D
:102D40006367A367E367A364D1E7064BA364CEE799
:102D50005344000053460000A82700204C330000D5
:102D60003C630020692D001007B5604601880A0AFF
:102D70000230DF2AFAD1C9B2820804D3028840881F
:102D80000004104300E00068014A5050039007BD62
:102D9000A82700200FB403BC0CBCF0B50124E40745
:102DA000634000E0F0B50C0DCF0F661E3605891BA1
:102DB000640503D3C943404200D30131640D03D0FD
:102DC000661CF60A07D0E41B00207F00791C8907E7
:102DD0008912803C24031D0DDF0F6E1E36059B1BE0
:102DE0006D0503D3DB43524200D301336D0D03D095
:102DF0006E1CF60A07D0ED1B00227F007B1C9B0790
:102E00009B12803D2D032F1B661B58D4A446202EF9
:102E100046DA20371400BC401D00BD40F24033416B
:102E20002A4380185941CB0F05D0C943C043002223
:102E300064425041514162464D0D28D10D0D07D1DC
:102E400000281FD0241940414941013A0D0DF9D005
:102E5000640006D3013000D30131002C01D14008B9
:102E60004000013A0BD4941CE40A04D11205114429
:102E7000DB071944F0BDD907204B194300E0D907FF
:102E80000020F0BD0029DDD1002CDBD1F0BD0132E6
:102E9000C6074008CD0728434908002EE1D0D9E7EE
:102EA0003C2E29DA203E40371400BC4000D00124DB
:102EB000F24014431A00BB401C43D317ACE7AC46A6
:102EC000202F08DA20360400B4400D00B540F84049
:102ED00039412843A5E73C2F0CDA203F4036040057
:102EE000B44000D00124F84004430800B1400C4332
:102EF000C117EAE710001900002494E70000F07FF2
:102F0000F0B50C0D661E3605891BE60A6405640DD6
:102F100002D0651CED0A04D0002001210905803C87
:102F20002403A4461C0D671E3F05DB1BE70A64054E
:102F3000640D02D0651CED0A04D0002201231B059C
:102F4000803C24037740644497B484B296B27443BF
:102F5000070C7E43150C6F4380B26843361802D3CA
:102F6000012000043F183004350C00197D418446CF
:102F700088B29AB250430C0C62431F0C7C438EB251
:102F80007E43921902D301263604A4191604170CA5
:102F90003618674101BC81B29AB25143040C6243B6
:102FA0001B0C5C4380B25843121802D3012000046A
:102FB00024181004130C401863412D185E410020A2
:102FC000474106BC88B293B258430C0C6343120CC1
:102FD000544389B251435B1802D301210904641898
:102FE00019041A0C091862416D1856410020474116
:102FF00018BCF902720D1143F0026A0D1043ED0284
:103000000A0D03D16D1940414941013B124E9B1BF2
:103010007600B3420ED26D0007D301300026714115
:103020006646354301D1400840001B05C918E40736
:103030002144F0BD0BDA013306D1013004D1013156
:103040004F0D01D04908F2E7E1070020F0BD01363D
:1030500031050020EBE70000FF030000F0B51C0D78
:10306000671E3F05DB1BE70A6405640D02D0661C82
:10307000F60A04D0002201231B05803C2403D0253E
:103080002D060026F6432E661E096E66CE0FF61933
:10309000B44649004F0D02D07E1CF60A03D0002032
:1030A0000021403F3F033E1BB600B444013F7F0573
:1030B000C91B49082E6F013676089C02950D2543E1
:1030C0007543ED137543AD1301356D10F603761B93
:1030D0000CB4CC02450D2C43A2B2B3B25A43270C18
:1030E0007B43350C6F43A4B26C431B1902D30124FC
:1030F00024043F191C041D0CA4187D4124196D41A2
:10310000009A91B2ACB26143170C7C432B0C5F4325
:1031100092B25A43A41802D301221204BF18220407
:10312000230C52187B41019C6C431B19520ED90190
:103130000A434401A01A81B2B2B2514303145A4364
:10314000360C734387B27743D617D21900277E41D6
:1031500036049B191704160C7F185E417316ED1880
:10316000F301002680337541A90F06D16400690A76
:10317000E8055B0A184309D22FE004229444803307
:103180007541A90AA8059B0A184326D34041494125
:103190002404009A019B0D005543641B4343E41A29
:1031A00095B286B27543170C7E43030C5F4392B20F
:1031B0005A43B61802D301221204BF183204330C4A
:1031C00052197B4152429C41002C02D40022013012
:1031D00051414008CA071043490802B06246D70768
:1031E0009210084BD218084B9A4203D21205891844
:1031F000C919F0BD0020002A01DC3900F0BD0133FF
:103200001905F5E7FD030000FE070000002200B5E8
:10321000203200F004F8080000BD000000220B1569
:103220000AD410B5944600F031F81414013400DAD1
:103230000021CB17144C2047002000217047624426
:10324000343A0CD40C2A07DA0400914090405242E0
:103250002032D440214310BDD843D94310BD203281
:1032600007D40C469440524220321141D0402043B2
:1032700010BD0800C917203203D452422032104139
:1032800010BD1800190010BD3F3200100A0DCC0F00
:10329000531E1B05C91A520503D3C943404200D32C
:1032A0000131520D03D0531CDB0A07D0121B002042
:1032B0006400611C89078912803A1203014BD21AFB
:1032C00070470000FF03000051434343C9188C4678
:1032D000110C83B24B4310B4040C614392B280B220
:1032E000504362431C041B0C001910BC59411304C9
:1032F000120CC018514161447047000048404140E1
:1033000048400E4B5B6818470C4B1B6818470C4A2B
:10331000936F9B0802D2094BDB681847F0B5146E17
:10332000556E576F166FFFF7F6FF054A1466556620
:1033300057671667F0BD014B9B681847A828002007
:10334000000000D007B548404140484001E0C04679
:1033500007B54200120E03D0FF2A03D1420218D84B
:10336000C00DC0054A00120E03D0FF2A03D14A0245
:103370000FD8C90DC9050122414005D4414001D5EE
:10338000814207BD884207BD0143491801D0C043AF
:10339000001807BD00B5FFF7D5FF804100BD000054
:1033A000034BDB6FFC4618477CDF45340010000000
:1033B000A8280020132310B512481C78FFF700F846
:1033C0000100012C0AD003DD80220F4800F0AEF886
:1033D0000E48FEF7EDFF0E4B186010BD0A4C54224C
:1033E000200000F0A3F80B4B6365A365E36523663B
:1033F0006366A366E36623676367A367E367236285
:10340000E361E5E753460000A82800204C330000A4
:103410003C6300201934001007B5604601880A0A91
:103420000230DF2AFAD1C9B2820804D30288408868
:103430000004104300E00068014A5050039007BDAB
:10344000A8280020C30FDB0741000A0E07D0FF2A7F
:1034500008D00909054A891819434007704719001F
:10346000002070470249C918FAE700000000003840
:103470000000F07F70B504000A4E300010F058FED6
:1034800020000AF0B7FB0500300010F089FD002D88
:1034900005D0054B2C199C4201D8280070BD03486B
:1034A000FDF73EFF0C26002000000420A44501107B
:1034B00070B505000C000B4E300010F039FE2800EE
:1034C00021000AF0A1FE0500300010F069FD002D7A
:1034D00005D0054B2C199C4201D8280070BD03482B
:1034E000FDF71EFF0C26002000000420A44501105B
:1034F00070B50400054D280010F01AFE20000AF0F7
:1035000083FB280010F04CFD70BDC0460C26002047
:1035100001480421014B1847E01E0020D123001070
:10352000014B1B6818470000E01E0020014B5B6840
:1035300018470000E01E002010B5FFF79BFF10BDEC
:1035400010B5FFF7D5FF10BD10B5FFF7D1FF10BDC7
:103550009A4200D2885470477047C046F8B5574623
:10356000DE464E464546E0B599460A9B07009A4618
:103570000D9B884693460B9C9B073BD10C9B9C4222
:103580003DD21E1B0B9415000C005E442A004B46D6
:10359000013521002020B847B542F7D1A0460B9C49
:1035A000002C20D0454636195346321B013C185D8D
:1035B00029004B46B847002CF6D12B003500984621
:1035C0000D9B9B070FD55B46EC1A0C9BA3420AD9B7
:1035D000464698462A004B46310020200134B84721
:1035E00001354445F6D32800F0BCBB46B246A94697
:1035F000A046F8BD16001500002CD3D1E0E7160058
:103600001500002CCED1EEE7F0B54546DE46574614
:103610004E46E0B585B09C4610AB1B78149F934690
:1036200098460F9C129E139DBB074CD4002D42D18F
:10363000B44248D201233B4099460E9B013B9A4637
:10364000302304E0524601341355A64201D9202C00
:10365000F8D14B46002B00D183E00E9B013B9946ED
:103660003023A54205D82EE04A4601341355AC421A
:1036700029D0202CF8D1FB060CD57B0554D4A642CA
:1036800063D0A54261D0119B102B50D0022B57D094
:10369000202C32D1202301930E9B5A46009303978E
:1036A00063460295FFF75AFF05B0F0BCBB46B24631
:1036B000A946A046F0BD01233B40994601233B4269
:1036C0002AD1B442B9D3FB061CD57B05DBD4002C30
:1036D000D5D1119B102B5BD0119B022B6BD03023CB
:1036E00001240E9A13704346002B10D17B073ED560
:1036F0002B260E9A631C1655CDE723000134302685
:103700000E9AD654202CC5D04346002BEED02D2641
:103710000E9A631C1655BEE74346002B2FD0013D81
:10372000B44200D289E798E7119B102BB2D1BB06B7
:1037300037D5202CAED058230E9A13550134A7E765
:10374000202CA7D02300013407E0631E012CC0D039
:10375000119A102A31D0022AD1D162260E9AD6545B
:1037600096E7FB06CED57B0500D488E78BE72300E0
:103770003E0790D520260E9A013316558BE70C2371
:103780003B405A1E9341ED1AB44200D255E764E71C
:10379000BB060ED478230E9A022413703023537084
:1037A000A1E7202C00D175E778230E9A1355013438
:1037B0006EE75823EFE76033EDE70E9AA61E9146B9
:1037C0004E44BA0602D55822327098E778223270F9
:1037D00095E7C04610B5002800D110BD01F01CFDD2
:1037E000FBE7C046F0B55746DE464E464546E0B5D7
:1037F00095B083460F00924698461E9A1F9B100074
:103800001900209EFFF705FA002800D0EAE11E9873
:103810001F990122C54B5242FFF7E0F9002800D062
:1038200014E11E981F990122C14B5242FFF7ECF997
:10383000002800D0E9E01E981F990022BD4BFFF739
:10384000E3F9002800D0C8E01E981F990022BA4B67
:10385000FFF7C4F9002800D0BFE01E981F9900228E
:103860000023FFF7BBF9002800D0E4E000230B930E
:10387000229B5B0500D406260024302307E0172195
:1038800006AA013452181355013E202C01D0092EEE
:10389000F5D81E981F99FFF7E5F9A84BF2009B1881
:1038A0001A685B68050008920993FFF7C3F90200E4
:1038B0000B001E981F99FFF716F9089A099BFFF74E
:1038C00042F906900791FFF7F1F98146FFF7AEF94B
:1038D00002000B0006980799FFF705F90022984BA4
:1038E00006900791FFF790F9002800D10DE1012320
:1038F0009C46E1444846FFF799F902000B000898FE
:103900000999FFF771F9002802D000239946013583
:10391000002E00D1D9E006954D46B94614E006AA1E
:10392000944617230A216344280001341F19FEF727
:103930009FFE3031397028000A21013EFEF798FEC3
:10394000092D00D817E10500202CE8D14F46069D2F
:1039500020240CAE06AA17239446634499465B467E
:10396000B34606930FE04B4628000A210134E618BF
:10397000FEF756FE3031280031700A21FEF750FE66
:10398000051E00D1E4E0202CEDD1069B5E469B464F
:103990000323229A1340012B18D1219B002B15D011
:1039A0000B9B002B00D1FDE0219B013B2193202BA1
:1039B0000CD93023219A07E0172006A901340918F1
:1039C0000B55944200D3CCE0202CF5D1229B0194DE
:1039D0000393219B0096029322E0229B524604937C
:1039E000219B3900039358461E9B1F9C029600930F
:1039F0000194434600F04AF90400200015B0F0BCE1
:103A0000BB46B246A946A046F0BD229B5B070FD439
:103A100003224C4B22990192039121990093029128
:103A20004346524639005846FFF798FD0400E4E744
:103A30000422454BEEE71E9A1F9B00200021FFF752
:103A400052F801231E901F910B9311E7229B5446BD
:103A50009B0711D1219B042B0ED9219B55469C46D7
:103A60005E46043C64442A00434601353900202068
:103A7000B047A542F7D1B346344D26002B1F9946D7
:103A80005B46A3461C003200E87843463900013DFE
:103A9000A04701364D45F6D123005C469B46229B4C
:103AA00004349B07A9D55346219AE31A9A42A4D914
:103AB0005E4615002200434639002020B047534699
:103AC0000134E31A9D42F5D897E72800FFF7B2F8D2
:103AD00002000B001E981F99FFF705F80022184BF3
:103AE00006900791FFF77AF80CAE002800D031E776
:103AF000069807990022124BFFF786F8002800D09D
:103B000028E7012301359D4324E700220698079901
:103B10000B4BFFF763F8002800D0F9E64B46002B6B
:103B20005CD101239C46E144F2E6C046FFFFEFFF73
:103B3000FFFFEF7F65CDCD4165CDCDC19056011022
:103B40000000E03F04460110FC4501100C46011046
:103B5000069B5E469B460323229A1340012B00D10D
:103B600081E0202C00D131E70B9B002B27D02D23A7
:103B7000335501342AE74F46069D202C00D1E7E655
:103B80003022331907E0172006A9013409180A5515
:103B9000202C00D1DCE6A342F5D12E220CAE01345C
:103BA000F254D7E60C23229A134257D0219B013BB3
:103BB0002193A34200D9FCE6202C00D106E7229BEA
:103BC0005B0703D52B2333550134FFE6229B1B07EC
:103BD00000D4FBE6202333550134F7E6DB0700D49D
:103BE00096E69EE7229B55469B0711D1219B032B0E
:103BF0000ED9219B54469C465E46033D65442200F7
:103C00004346013439002020B047AC42F7D1B346D7
:103C1000B9465F461C4EEC1C2A00B0784346494624
:103C20000135B847013EAC42F6D1229BBB464F4618
:103C30009B0700D4E1E65346219AE31A9A4200D842
:103C4000DBE65E4615002200434639002020B047DF
:103C500053460134E31AAB42F5D3CEE6219BA3428F
:103C600000D9A6E6B2E6219B002B00D179E70B9B99
:103C7000002B97D0219B013B21939C4200D298E6D8
:103C8000202C00D073E7A1E608460110F0B5DE460F
:103C900057464E464546E0B599B081468B4692461A
:103CA0009846229A239B10001900FEF7B2FF0028C5
:103CB00000D0CAE0229823990122824B5242FEF79B
:103CC000A3FF002800D0C0E02298239901227E4B58
:103CD0005242FEF783FF002800D0B6E022982399D5
:103CE00000220023FEF77AFF002800D0C9E1229BC2
:103CF000239C08930994089809998023269ADB004D
:103D00001A400D928022269C1201144022000B942E
:103D1000269C07000E001C4200D0ADE00B000343C0
:103D200000D0D5E0002A00D00AE222000633249316
:103D3000022313400C930223134200D002E2259B7E
:103D4000042B00D20FE2043B0B93002304250A93BB
:103D50000022229823990023FEF740FF002800D07C
:103D600003E25A4B269A134004930B9B0393249B24
:103D70000293089B099C009301945946434652467E
:103D80004846FFF72FFD02002020269B1F270340F7
:103D900059424B415B421840531C089359464346D5
:103DA0004530C8470A9AD317D4185C40D30F0A93FA
:103DB0006B1E0B9308AB9C460025674401E0202D49
:103DC0000FD020000A21FEF753FC01357E19303157
:103DD000317020000A21FEF74BFC26000400092E5A
:103DE000EDD8052306930B9B5946059300230493B6
:103DF0000A3303930A9B4846029310AB0093089A38
:103E000043460195FFF700FC0C9B002B2DD0534639
:103E1000C41A259BA34228D94D465F4681461E0001
:103E2000534639001A19202043460134A847A642B8
:103E3000F6D8534648462599C21A013200239142CA
:103E400000D386E1013018180FE0269B0493259BD0
:103E50000393249B0293229B239C0093019443464B
:103E6000524659464846FFF7BDFC19B0F0BCBB4668
:103E7000B246A946A046F0BD01432BD10B9B2200C0
:103E8000002B00D154E700230A93249B0A9A0024B4
:103E9000934200DD85E12298239900220023FEF75A
:103EA0009DFE002800D035E1269B084A02941A4066
:103EB0008023DB0013430493259B0393089B099CF9
:103EC000CBE7C046FFFFEF7FFFFFEFFFFFF7FFFFEE
:103ED00006232493B44B70009C46400D6044FEF7CB
:103EE000A9FEB24AB24BFEF72EFEB24AB24BFEF723
:103EF00003FE3603B14B360B334304000D0038008C
:103F000019000022AE4BFEF7EEFDAE4AAE4BFEF7B7
:103F10001AFE02000B0020002900FEF7EDFDFEF75F
:103F2000A1FE0A90FEF786FEA84AA94B04000D00E8
:103F3000FEF709FE0022A74BFEF7DEFDFEF792FE1C
:103F4000A54A0600A54B20002900FEF7FCFD040051
:103F500030000D000C96FEF76DFEA14AA14BFEF756
:103F6000F2FD02000B0020002900FEF7BCFD02005C
:103F70000B0006000F00FEF7E6FD320004000D0006
:103F80003B0030003900FEF7B7FD00220E900F9184
:103F9000954B20002900FEF7B8FD0022934BFEF759
:103FA000ABFD02000B0020002900FEF7AEFD002251
:103FB0008F4BFEF7A1FD02000B0020002900FEF749
:103FC000A4FD0D008021040032003B000020C90543
:103FD000FEF789FD02000B0020002900FEF78CFD92
:103FE00002000B000E980F99FEF78FFD0022734B15
:103FF000FEF782FD7F4B0C9C9C4664440022230507
:10400000FEF7A1FD06000F0002000B0008980999B9
:10401000FEF7E4FD00280AD00A9B3000013B39007E
:104020000A930022714BFEF770FD06000F000A9AFA
:10403000330063323900C62A12D80222269804259A
:1040400010400B9A0C90002A25D1259B042B05D9F2
:10405000002800D0A1E0259B043B0B93042541E000
:104060000222269810400B9A0C90002A12D1259B10
:10407000052B76D9002872D1259B0525053B0B938E
:1040800034E0802212069446229B0893239B6344CB
:10409000099330E605250B4300D1F6E60898099907
:1040A000554A564BFEF7A8FD002808D008980999F4
:1040B0000022534BFEF792FD002800D0E5E6249B3A
:1040C000002B1CD00D9B002B19D0249B013B24936B
:1040D000259BAB4204D90C9B002B5AD002230C9396
:1040E00000230B930A9B002B00D131E60898099915
:1040F00032003B00FEF709FD0890099128E6259B58
:10410000AB42EDD90C9B002B43D000230B93023321
:104110000C93E7E78020269B3A4A00061A4080234A
:1041200084460294089C099D2900DB0013430493F4
:10413000259B6144220003930B00009201938EE6BD
:104140000524A8E600230B930A93023304250C935D
:10415000FEE553468C46013B63441B1A72E602237C
:104160000C930525C2E70423EDE58020089E099FF6
:10417000000639008446269A224B6144134004937A
:104180000B9B32000393249B02930B00009201933C
:10419000F3E5259B5B1B0B93A4E7022304250C93FB
:1041A000A0E79C1A013C76E601FCFFFFFB799F50DB
:1041B0001344D33FB3C8608B288AC63F0000F03F4A
:1041C0000000F83F61436F63A787D23F71A379096D
:1041D0004F930A400000E03F1655B5BBB16B02405B
:1041E000EF39FAFE422EE63F00002C40000024404A
:1041F00000001840FF0300002D431CEBE2361A3F7D
:1042000080842E41FFF7FFFFF0B5DE4657464E464D
:104210004546E0B5A5B01E002E9B92460C93CD4AB4
:10422000CD4B80468B461A60002900D1EAE100237D
:1042300030789946002800D1ECE1C84B4C460B93EE
:10424000C74B454657460E930AE0631C984622002A
:104250003B005946A84744463078002800D187E003
:1042600001362528F1D108239A46043B9946023BA2
:104270009846013B00229C460D943078711C030047
:10428000203BDBB2102B03D80B9C9B00E3589F46CE
:104290000300303B89460D9C092B3AD900239846F0
:1042A0002A2800D1C1E000239A462E284BD00300D3
:1042B000683BDBB2122B1ED80E999B00CB589F4651
:1042C00063460E001A43D8E743460E001A43D4E76C
:1042D0004B460E001A43D0E710230E001A43CCE7DA
:1042E00053460E001A43C8E780235B001A43FF3B86
:1042F0009C467078E1444E4667284FD82428A4D9BC
:104300000300253BDBB2422B9FD896499B00CB583C
:104310009F46002394461E0000E00131B3009B1924
:104320005B001E180878303E0300303B092BF4D99F
:104330000123624689469C460023B0469A460E00F9
:10434000E1442E28B3D13021802049428C46C00060
:10435000024370784B4684446146092900D86CE1D9
:104360002A2800D17AE101239C464E46E1449EE78B
:10437000A146A846BA46CA4503D801235B42534426
:10438000994653464A4659460020C047200025B06A
:10439000F0BCBB46B246A946A046F0BD0300693B4F
:1043A000DBB20D930F2B00D94FE7012199408C46CA
:1043B0006D49894661464B4619400F91634649460F
:1043C0000B4200D028E10D9B0A2B3AD0072B00D0DE
:1043D0003BE70C9B190008C98846002B00D14BE134
:1043E00021200243914614A98C461F220F216244CA
:1043F0008C4651460D950C91A24615000F9902E08E
:1044000020290CD0130064461C4020003730092CB2
:1044100000D80738013168541A090F2BF0D80C9BCB
:1044200054460D9D9A460F9133E10C9B02CB884672
:10443000002947DB0C9301239C4670784E46E144EB
:1044400031E70C9B02CB14935346002B00D138E18B
:104450009C4608780B000C908C44002801D100F099
:1044600098FC89466146944603E05A780133002A55
:1044700001D08B42F9D1494662465B1A0C900F93EA
:10448000530500D520E10223180010400D9013427F
:1044900000D1CBE30D930B1BB1469A465E460C98B8
:1044A00022003B003100A84753460134185D002824
:1044B000F6D1B3464E460D9B002B00D0C7E1149BAE
:1044C0000C93C9E60C9301239C46283849420243C9
:1044D000884670784E46E144E5E670786C2800D155
:1044E0007FE180235B001A43FF3B9C46E14402E7E7
:1044F00080239B001A4301239C467078E144FAE62E
:104500007078682800D173E180231A437F3B9C4672
:10451000E144F0E6672800D103E1472800D15AE1E1
:10452000452800D15AE10492072142460C9B039290
:10453000073352468B43190002920CC9280000929F
:1045400001930C9122003B005946FFF79FFB0400AA
:1045500082E6C04609420010F8620020F4540110BF
:10456000385501108455011041900000462800D1B3
:10457000DBE00492072142460C9B0392073352462C
:104580008B43190002920CC92800009201930C91F0
:1045900022003B005946FFF725F904005CE6631C46
:1045A000984622003B0059462520A847444653E63A
:1045B0000C9B04330D93631C9946920700D422E1AF
:1045C0000C9B2200187859463B00A84743464444B8
:1045D000012B00D885E23300B8462E005F46250047
:1045E0004C46994622004346013439002020B0470A
:1045F000AC42F7D12C00BB46350047464E460D9BDA
:104600000C9329E6DB4B3078984600239946002826
:1046100000D012E60024AEE66F2800D188E000D872
:104620000BE31023782800D1CFE09A430A239C465D
:1046300000230F930A330D9380E05646B100891989
:10464000490001330E181878303E0100303909292D
:10465000F4D9B2461E000133994628E60C9B023677
:1046600002CB8A46C9435046C917084082460C937C
:104670003078731C99461AE61023100098431133C2
:104680001843814680201300C0000340024200D13D
:10469000A9E64B460693082305935346049310233B
:1046A0000393002302930F9B220001931CAB009302
:1046B00059463B002800FEF7A7FF434604000C9331
:1046C000CAE501235B42C3E60F9B534501D953461C
:1046D0000F930223180010400D90134200D1B7E150
:1046E0000D93D1460B1B9A463300A1442E002200A5
:1046F0004D460C98B9465F469B4608E04B4639004C
:10470000541CB0475346185D002877D022009542CC
:10471000F4D15B46BB464F46A94635004C461E00C9
:10472000C9E680231B011A43FDE620231A4320E734
:1047300008239C4600230F9308330D938023110018
:10474000DB0019401A4200D116E10D239A431000F4
:10475000802302009B001A401492184200D0C2E14C
:10476000802302005B001A4091460C9A04320F929B
:10477000184200D0B7E2430600D59FE1030600D4FB
:1047800019E30C9B1B880993002B00D0FCE110332C
:104790009843002900D1F7E1002399464346059349
:1047A000534604930D9B069003930023D2E05828B0
:1047B00008D0622867D102239C4600230F9302335E
:1047C0000D93BBE720231A43103B9C4600230F9315
:1047D00010330D93B2E780231B011A4320231A43A1
:1047E000A1E6C0239B001A43F31C9946B07882E5EA
:1047F000C0231A43F31C9946B0787CE535005E4629
:10480000BB464F4657E64346012B00D863E1631E83
:1048100043449A463300B9462E005F4655469B46B0
:10482000A24622004B46013439002020B047AC425A
:10483000F7D135005E46BB464F46A14654460C9B19
:104840004A46187859463B004444A847D7E6A14653
:104850000F9B984500D832E64444E41A3300B8462A
:104860002E005F4625004C469946220043460134FF
:1048700039002020B047AC42F7D12C00BB463500B0
:1048800047464E461BE680231000DB0018401A42C4
:1048900000D10FE1112118008A430D920D9A802357
:1048A00011009B0019408C461A4269D180231100E7
:1048B0005B00194089460C9904310F911A4200D0CF
:1048C000CAE113005B0600D5F0E013001B0600D41C
:1048D00059E20C9B00229B5ED9175A184A4092B2AB
:1048E000D90F0C91002B00D1F9E1100014AA9446C5
:1048F00042461F23149252466344A84616944D46DE
:104900000400B946B2461F00159201E0202D0FD0D9
:1049100020000A21FDF7ACFE01357E1930313170DF
:1049200020000A21FDF7A4FE26000400092EEDD880
:10493000149B4F46A94645469846159B56469A46AF
:10494000169C0D9B069343460593534604930A23F6
:1049500003930C9B02934B4601931CAB22000093E4
:1049600059463B002800FEF74FFE0F9B04000C93B6
:1049700072E4C046593500100C239A431000E7E654
:1049800007220C9B07339343013294469C446246B2
:104990000C920CCBD90F0F911100194300D191E06B
:1049A000D9171391129151401091139959401191B7
:1049B00010981199129A139B801A99411090119195
:1049C00014AA0023944642469946149252461F3335
:1049D0006344A846B24616944E46109C119DB946B3
:1049E00015921F0001E0202E10D0200029000A227D
:1049F0000023FDF77BFE013630322B00BA550D0047
:104A000022000400002BEED1092AECD8149B10944C
:104A1000119545469846159B4F46B14656469A46CF
:104A2000169C0D9B069343460593534604930A2315
:104A300003930F9B02934B4601931CAB2200009300
:104A400059463B002800FEF7DFFD0400FFF704FC99
:104A50000F9B984500D8C1E18023DB000D934346AE
:104A60000F9A1B199B1A994633002E004D46B946E2
:104A70005F469B460C9122004B46013439002020B2
:104A8000B047AC42F7D143460C9901330F930B78F2
:104A900035000C935E46BB464F46002B00D10EE519
:104AA0000D9B002B00D1F6E4002319E60C9B1B782C
:104AB0001A0015E710239A430D92EFE60C9B1B7822
:104AC000099361E6002399460028AAD10022002319
:104AD0001092119374E70C9B2200187859463B0002
:104AE000A8474C468BE50C9AFA3BFF3B07329A43AA
:104AF0000133994691444B460C93136852681592C2
:104B00001A4306D11032904300220992002900D0A6
:104B100081E06122810600D54122D2B20A9214AA14
:104B200091460A9A00210A3A149242461792524636
:104B300018925A460991B3461F311E000F9B4944F3
:104B4000BA4619941A950024674698468946159DD9
:104B500016901B920AE03032D2B24B4601341A55FD
:104B6000A8454AD0202C4AD006000D003A00002368
:104B700030002900FDF7BAFDD2B2092AEBD9149B07
:104B80009C466244D2B2E8E76123820600D5412305
:104B9000DBB20A3B0C93434614A91F228C461593A3
:104BA00053466244A046B2464C461797A9461700A2
:104BB000099D0D9E1490169308E03033DBB201344A
:104BC0003B55B5420ED3202C0CD0050031002800F7
:104BD000FDF74EFDCBB20929EFD90C9A94466344F8
:104BE000DBB2ECE7159B4D46A14644469846169B22
:104BF000564614989A46179FD0E5B742B2D9179BEC
:104C000057469846189B5E469A461B9B09949B46BE
:104C10001698199C1A9D43460593534604930D9B81
:104C20000690039300230293099B05E70F9B984589
:104C300000D914E701330F932DE410231100994399
:104C40000D91692800D0BAE080231000DB001840E5
:104C50001A4200D122E61DE60C9B1B68DA0F1100F8
:104C6000002B00D18CE0DA179818504014AA914616
:104C700042461F23149252464B44A046A94616971B
:104C800004006546B2461F000C91159201E0202DEC
:104C90000FD020000A21FDF7EBFC01357E193031E1
:104CA000317020000A21FDF7E3FC26000400092EE4
:104CB000EDD8149B444698460C9BAC461900159BB6
:104CC00056464D469A46169F0D9B029106934346C3
:104CD0000593534604930A23039363463CE6002856
:104CE00000D02EE602E60C9B1B689946002B03D1F0
:104CF00010339843002938D16123820600D541231F
:104D0000DBB20A3B0C9343461693534614A91F2269
:104D10008C4617932B006244A0464D46B246189726
:104D200099461700149C0D9E159008E03033DBB2B5
:104D300001343B55B5420ED3202C0CD00500310078
:104D40002800FDF795FCCBB20929EFD90C9A9446BF
:104D50006344DBB2ECE7169B149444469846179BD9
:104D600056464D469A461598189F43460593534616
:104D700004930D9B0690039300230293149BEBE591
:104D80000028A1D172E70C9B1B68D9175A184A401A
:104D9000A6E580231000DB0018409C460F901A42C5
:104DA0000FD00220030013400F93104219D00023AC
:104DB000A1460F934CE50C9B1B680993E4E40A00A1
:104DC00034E40223180010400D90134200D03EE559
:104DD0004346002B00D042E6FFF771FB01330F93EF
:104DE0007FE463460D93F3E70EB4012230B584B03F
:104DF00007AC08CC064D01000094280052420394F1
:104E0000FFF702FA04B030BC08BC03B01847C04634
:104E1000513500100FB430B50C4985B008AA08CA46
:104E20000D680392002D0CD000920122084C5242D2
:104E3000200002A9A847012005B030BC08BC04B07E
:104E40001847180000F032FA0020F5E7F862002059
:104E5000D537001010B5094A0300146884B0002C3F
:104E600008D0012200910648524203A9A047012020
:104E700004B010BD00F01AFA0020F9E7F862002033
:104E8000D537001000BEFDE7094A0300106800286E
:104E900005D00849C3188B4207D8136070470648ED
:104EA0000449C31810608B42F7D901204042F5E74E
:104EB000F05E0020000004206C630020002070479A
:104EC000012040427047C046030010B508001100A1
:104ED000002B05D1044B1A685B6800F03FF910BD48
:104EE00001204042FBE7C046985401100300013BFB
:104EF00010B508001400012B06D801230022210060
:104F000000F0AEF8200010BD01204042FBE7C04693
:104F1000012040427047C046012040427047C046D1
:104F2000012040427047C0460300022200209A42FE
:104F30004041704710B5FFF7A5FFC04630B50D00E2
:104F400083B01900002A0BD0074B084C0192009344
:104F500002002B002000FFF75DFF0120FFF792FF0A
:104F6000034B1A00F1E7C046144601102446011015
:104F70002045011070B5FDF77BFA074D074EB5428D
:104F800009D20024013E761BB60808CD98472300BD
:104F90000134B342F9D170BD8C410110A041011020
:104FA000030010B5080011001B68984710BDC046EB
:104FB000F0B5C64600B5437D07000C001600002B77
:104FC00046D0002A17DD0B780A2B24D00023984600
:104FD000012E13D001252900635C01350A2B26D050
:104FE000B542F8D1464509DCA419013C23780D3BB4
:104FF0005A4253413B7580BCB846F0BD4346E01869
:10500000A419F11A013C3B68984723780D3B5A429A
:1050100053413B75EFE7037D002BD7D102210F48A9
:105020003B689847012EDFD001239846D2E7631EE4
:105030005B5C0D2BD4D0884504DA4346C91AE018CE
:105040003B689847022105483B68A8469847C7E750
:105050000368110020009847CDE7C046E0560110D4
:10506000F0B54546DE464E465746E0B583B091461C
:105070001C0080460D00FCF7C1FF0023304A1218C7
:105080004B41002B02DA01222E4B52422E490800DE
:105090008A460FF01DF807006B1C03D140460CF048
:1050A0008BFD0500002C27D0284E294B1C68002CB6
:1050B00018D04B46002B21D1264B994602E024699B
:1050C000002C0FD02368002BF9D04B461B68002B17
:1050D00001D09C42F3D120002A004146B047246908
:1050E000002CEFD1002F26D1280003B0F0BCBB4626
:1050F000B246A946A046F0BD174ED6E7154B9946D5
:105100000A239B4602E02469002CEBD02368002B85
:10511000F9D04B461B68002B01D0A342F3D12A00E3
:1051200041462000B0476B465A462000DA71D91D2F
:105130000122B047E7E750460EF032FFD4E7C04601
:1051400040420F00FFFFFF7F14260020B14F0010E8
:10515000E05E0020EC5E0020A14F0010F8B557463D
:105160004E464546DE4698461A4BE0B59B461A4BDE
:1051700007000E0091469A46184D5B461C68002CAD
:1051800003D115E02469002C12D02B68002B01D02C
:10519000A342F7D1A368002BF4D031003800984720
:1051A0000028EFDDF0BCBB46B246A946A046F8BDDC
:1051B00053465B6A984508D85246926A4A4502D3DC
:1051C00002204042EEE79845FAD101200021FCF789
:1051D0001FFFD2E7E05E002000400540EC5E0020AB
:1051E0000A4A1368002B05D10CE01A001B69103223
:1051F000002B07D08342F8D1002902D11869106032
:10520000196170470029FCD01060FAE7E05E0020C9
:1052100010B500F07FFA10BDF0B5CE46474680B518
:1052200083B06B460600DD1D2870FCF7E7FE002307
:10523000194A12184B41002B02DA0122174B524235
:105240001749080088460EF043FF164B81461C683C
:10525000002C14D0144F02E02469002C0FD02368D6
:10526000002BF9D03B68002B01D09C42F4D12000E8
:1052700001222900FFF79CFE2469002CEFD14B4648
:10528000002B05D1300003B0C0BCB946B046F0BD1C
:1052900040460EF085FEF5E740420F00FFFFFF7F1E
:1052A00014260020E05E0020EC5E002070B50400B3
:1052B0000CF082FC01230100050001222000FFF711
:1052C000CFFE084B1C68002C06D06368002B05D06D
:1052D00098472469002CF8D1280070BD2469002C5F
:1052E000F3D1F9E7E05E00207047C0460022014B91
:1052F0001A707047656300204B790020FF2B0BD19B
:105300008B79002B08D1CB79012B05D1082A03D941
:10531000024B8A7809301A707047C04665630020D6
:105320000120704710B5012913D112495379107922
:1053300009781B0203430020994200D010BD537826
:10534000012B08D0022BF9D1642200210020FCF7A8
:10535000D9FF0120F2E7D37891781B021943480A5C
:10536000DB0501D4012040427F238A05D20F19407A
:10537000FDF750F86563002000487047AC570110F6
:1053800070B5050014000120012909D153780020CF
:10539000012B05D1637912791B021343072B00D02F
:1053A00070BD21002800024A9F3301F041FAF7E75F
:1053B000045701100123037000487047E4560110A0
:1053C0004B780A781B0213438A7810B512041A43EB
:1053D000CB781B0613439622D200934200D010BD17
:1053E0000022012011004042FDF714F8024B186022
:1053F000024B19607047C046805E0020845E00202A
:1054000010B5024B1878FCF765F810BD66630020F4
:10541000154B70B51A68002A22D0EFF3108172B6CE
:1054200010680028FCD0BFF35F8F00200F4A59603E
:1054300010701B68BFF35F8F186081F31088002421
:1054400000250B4E3078FCF739F8002804D10024F1
:1054500000252900200070BD3078FCF73BF8F8E704
:10546000FA240025A400ECE71C63002067630020F9
:105470006663002070B5040000200E0001F0EEFA13
:10548000002834D0002001F001FB00282FD0FCF7C9
:10549000B5FD0023174A12184B41002B16DB164DA1
:1054A00028000EF015FE002821D0002001F0D6FAC9
:1054B00000280FD101200021404200F0EDFC032420
:1054C000644228000EF06CFD200070BD01220B4BE1
:1054D0005242E4E7002001F0D9FA0028EAD0210086
:1054E0003200002001F0DEFA041EEAD1E7E70324CF
:1054F0006442E9E740420F0044630020FFFFFF7F62
:1055000010B5FCF77BFD00230D4A12184B41002B10
:1055100002DA01220B4B52420B4C20000EF0D8FD58
:1055200000280CD001200021404200F0B5FC0020F2
:1055300001F006FB0028F5D120000EF031FD10BD72
:1055400040420F00FFFFFF7F44630020F8B5DE46B6
:10555000574680B505000C00FCF750FD0023364A85
:1055600012184B41002B02DA0122344B52423449CB
:1055700008008A460EF0ACFD002803D1C0BCBB4633
:10558000B246F8BD002001F069FA00284AD0002692
:10559000002C43DD2B4B9B4614E0A919002001F0A1
:1055A0000BFB070001200021404200F075FC0020A9
:1055B00001F0C6FAFCF722FD224BF619186059607B
:1055C000B4422BDD002001F017FBA71B0200B842FC
:1055D00000DD3A00002AE0D101200021404200F025
:1055E0005BFC002001F0ACFA002001F037FA002843
:1055F00014D0002001F000FB0028E1D1FCF7FEFCF4
:105600005B460F001A685B68002184460E4812183A
:105610004B419F4202D8D3D19445D1D950460EF088
:10562000BFFCABE700200021064B186059605046D4
:105630000EF0B6FCA2E7C04640420F00FFFFFF7F1E
:1056400044630020A027002020A1070030B52A4C89
:1056500085B0002120000EF0F3FC00281CD1274B60
:105660001A68002A16D0EFF3108172B6106800286D
:10567000FCD0BFF35F8F01242148596002781B687A
:10568000D2B20470BFF35F8F0020186081F31088DE
:10569000002A17D005B030BD01200021404200F0A3
:1056A000FBFB002001F0F2F9050020000EF078FC71
:1056B000002DEFD0134B1B68002BEBD0124A106863
:1056C0009847E7E7FCF712FB0400FCF797FCFA2287
:1056D0000023920012184B41002B02DA01220B4BDF
:1056E00052420121029100210191094920000091BB
:1056F000FCF700FBCEE7C046446300201C6300209B
:1057000067630020805E0020845E0020FFFFFF7F33
:1057100011540010D02310B51B0684B01C68FCF790
:10572000E5FAFCF7E1FBA04202D0002004B010BD76
:10573000284B1B7801F060FD27480368002B45D0FB
:105740000120FCF763F8FF23244C25492070184002
:10575000FBF7DEFE20780121FBF79EFE0520FBF71C
:10576000C1FE002824D1082200211E48FDF7D8FEE2
:10577000FCF7BCFA0400FCF741FCFA22002392007B
:1057800012184B41002B02DA0122174B5242012121
:10579000029100210191154920000091FCF7AAFA1D
:1057A0000028C2DB12480121FFF71AFD0120BDE7E6
:1057B0000120FBF73FFE0B4B01001800FCF788F8B7
:1057C000002205200B49FBF7CDFEEBE7FCF764F860
:1057D000B6E7C046A4790110446300206663002048
:1057E0004D5600101C630020FFFFFF7F1154001076
:1057F000F01E002001540010004870474858011066
:1058000000487047F457011010B50400174803789A
:10581000002B20D0002C06D1154B16484380063BA8
:10582000FF3B038010BD052C1DD8134BA400E0588E
:1058300012490123013804E001330A800231142B9C
:105840000DD0C25C002AF7D1C022DBB25B0092000F
:1058500008481343E5E7112100F01AF8DAE7CA23F4
:1058600004489B00DDE70020DCE7C0464C630020D5
:1058700009040000B85E0020DC570110BA5E002069
:1058800010B5024800F0D8F810BDC04634630020BF
:1058900030B54B1E012900D1A7E0664A11780D09E9
:1058A0002C0030349F2900D9A2E00470012B00D1D4
:1058B000BEE00F21147821400C003034092900D9B2
:1058C00098E04470022B00D1B2E0547825092900F9
:1058D00030319F2C00D990E08170032B00D1A7E0DC
:1058E0000F2121400C003034092900D987E0C47011
:1058F000042B00D19CE094782509290030319F2C9D
:1059000000D97FE00171052B00D191E00F212140EA
:105910000C003034092900D976E04471062B00D1FF
:1059200086E0D4782509290030319F2C00D96EE01B
:105930008171072B00D17BE00F2121400C00303416
:10594000092966D8C471082B00D171E014792509A2
:10595000290030319F2C5FD80172092B68D00F21AC
:1059600021400C003034092958D844720A2B5FD0EA
:1059700054792509290030319F2C52D881720B2B84
:1059800056D00F2121400C00303409294BD8C47265
:105990000C2B4DD094792509290030319F2C00D94A
:1059A000073101730D2B43D00F2121400C003034FF
:1059B000092901D937310C0044730E2B38D0D17925
:1059C0000C09220030329F2900D9073282730F2B35
:1059D0002ED00F220A4011003731092A01D8303267
:1059E0001100C173102B23D010300023037030BD81
:1059F00007345AE737310C0063E707316CE737317A
:105A00000C0074E707317DE737310C0085E707317B
:105A10008EE737310C0095E707319DE737310C00F1
:105A2000A3E70731AAE737310C00C4720C2BB1D1C0
:105A3000C018DAE73463002010B588B004000D22E6
:105A400000216846FDF76CFD0D22002104A8FDF73A
:105A500067FD4B236A466846137004A90D220EF0B9
:105A600097FA1521082220006944FDF75FFD08B070
:105A700010BDC046F8B500F03FF90C23184DFF22C9
:105A8000AB6705201749FBF76DFD174C402200213D
:105A90002000FDF745FD4027002301262121134A60
:105AA00066702783A260136063545F316184453957
:105AB00063540F4A0F496360E2602787A1620B605D
:105AC0006362E2620EF0F4FA80239B052E64EB64BD
:105AD0009023094AEA508022084B5202DA64F8BD4A
