:020000041000EA
:1000000000B5324B212058609868022188439860DF
:10001000D860186158612E4B002199600221596106
:100020000121F02299502B49196001219960352056
:1000300000F044F80222904214D00621196600F024
:1000400034F8196E01211966002018661A6600F04E
:100050002CF8196E196E196E052000F02FF8012189
:100060000842F9D1002199601B49196000215960AB
:100070001A491B48016001219960EB211966A021F2
:10008000196600F012F800219960164914480160C1
:100090000121996001BC002800D000471248134993
:1000A000086003C880F30888084703B5996A0420EC
:1000B0000142FBD001200142F8D103BD02B5186610
:1000C0001866FFF7F2FF186E186E02BD00000240BE
:1000D000000000180000070000035F00212200005C
:1000E000F4000018222000A00001001008ED00E03C
:1000F00000000000000000000000000074B24E7A12
:1001000000200420F7010010C3010010C5010010F9
:10011000C1010010C1010010C1010010C101001097
:10012000C1010010C1010010C1010010C701001081
:10013000C1010010C1010010C9010010CB01001065
:10014000CD010010CD010010CD010010CD01001037
:10015000CD010010CD010010CD010010CD01001027
:10016000CD010010CD010010CD010010CD01001017
:10017000CD010010CD010010CD010010CD01001007
:10018000CD010010CD010010CD010010CD010010F7
:10019000CD010010CD010010CD010010CD010010E7
:1001A000CD010010CD010010CD010010CD010010D7
:1001B000CD010010CD010010CD010010CD010010C7
:1001C00000BE00BE00BE00BE00BE00BEEFF3058054
:1001D000103800BEF2EB8871F80C0210180D0210F6
:1001E0003802001090A31AE71E481F49086006C88D
:1001F00081F3088810471D480068002801D019487D
:10020000F3E70DA40ECC002902D000F012F8F9E7B4
:100210001749184A002000E001C19142FCD116495B
:100220008847164988471649884700BEFDE701C937
:1002300001C29A42FBD37047180D0210C000002083
:100240003C2600209432021000000420000004200C
:10025000943202100010042000100420000000005E
:10026000704700000000000008ED00E0000000D032
:100270003C260020746300200D6300105908001014
:10028000CD620010F8B5C046044B10B5002B03D06A
:100290000349044800E000BF10BDC0460000000054
:1002A0000C630020E8C40110F0B5CE46474680B587
:1002B000814685B02248884614000FF0D3FB060023
:1002C00020480FF0CFFB204D0700280010F0F8FB6E
:1002D000002820D11D4D2868002801D0002C15D001
:1002E0000023039343461A4C4A461A4902932000BE
:1002F0000323019700960FF07DF9002200212000D2
:100300002C600FF0C5F900280CD1286805B0C0BCDE
:10031000B946B046F0BD0F4809F0D8F9280010F0F2
:10032000EBFBD7E70C4C0023482200900B49200040
:100330000FF010FB01220A4B28681A70E6E7C0464E
:10034000741E00206C1E0020C82900209C52002032
:100350008C5100207051002050C50110E8C40110DC
:1003600065630020F0B5DE4657464E464546E0B58B
:1003700093B008931E9B04909B461FAB1B780868A4
:100380000C00994616000FF06DFB050060680FF039
:1003900069FB07901C980FF065FB07000FF0ECFA63
:1003A0004B468246002B00D0A2E0864E4A46049976
:1003B0003000FFF779FF0FF0BFF9002800D08BE085
:1003C00053460024002B46DD7F4B99467F4B9846D1
:1003D0004B4607934346B146B8461D9E08930AE034
:1003E000281C04F0C2F87A4904F01EF9002817D13D
:1003F0000134A2452DD05A46A300D758F558391CD0
:10040000281C04F011F9391C0028E9D1281C04F03B
:10041000F5F80028ECD1291C381C04F0A6F8E2E716
:10042000281C04F061F96E230393089B0490059146
:10043000381C029304F058F9049A059B009001912E
:1004400007980FF087FA0122624B01341A70A24517
:10045000D1D147464E46726D3B68106883420AD040
:100460005D4C73220090594920000FF073FA01226D
:10047000584B38681A700124002826DD534B554D1F
:100480009946564B726D98462B00A1004D469946F1
:10049000A300FB588A58934214D04046009229008A
:1004A00076220FF057FA01234A4638681370631C0E
:1004B00084420ADA1C00726DA300A100FB588A581E
:1004C0009342EAD1631C8442F4DB13B0F0BCBB4618
:1004D000B246A946A046F0BD414C00236A220090D6
:1004E0003A4920000FF036FA01223A4B1A7067E7BA
:1004F000002108220CA804F0DFF928000FF03CFAD4
:100500000990012008F0A4FC002398460AAC0A9345
:100510006360099B4246584301232661294EA38309
:10052000A277330022006561A06123CA23C323CAD6
:1005300023C303CA03C3002108220CA804F0BCF99A
:1005400007980FF019FA0500012008F081FC4246D7
:100550000A926260089A01232261079AA38362616A
:100560004246A27732002032130022006843A06185
:1005700023CA23C323CA23C303CA03C33D230122BF
:100580000021F2540CA8082204F096F938000FF06C
:10059000F3F90500012008F05BFC424601230A92B2
:1005A000A3834346A377330062605A4668434033CF
:1005B00022616761A06107CC07C307CC07C306CCE3
:1005C00006C3F3E610510020D0C50110E8C40110A5
:1005D000ACC527376563002010C6011068C601103E
:1005E00094C50110F0B5DE4657464E464546E0B587
:1005F00093B091461E9A089008680C0009939346A0
:100600000FF030FA060060680FF02CFA07901C9883
:100610000FF028FA04900FF0AFF90CAD002108227A
:100620008246280004F048F930000FF0A5F9804612
:10063000012008F00DFC00254A460AAC0A9522610B
:1006400042465043012266617B4EA28391463300AD
:100650002200A0616560A57783CA83C383CA83C370
:1006600003CA03C30CAB00210822180004F024F9CC
:10067000079F38000FF080F98046012008F0E8FB62
:10068000099B0A952361434658434B46A383330095
:1006900022006761A0616560A577203383CA83C3A8
:1006A00083CA83C303CA03C30CAB0822002118000A
:1006B00004F002F9049F38000FF05EF98046012033
:1006C00008F0C6FB5B460A952361434658434B46F8
:1006D000A383330065604033A0616761A57707CCD1
:1006E00007C307CC07C306CC06C330000122089914
:1006F000FFF7DAFD0FF020F8002800D090E0534615
:100700000024002B48DD4D4B99464D4B98464B46F7
:10071000079343460893049BB14698461D9E0AE002
:10072000281C03F022FF474903F07EFF002817D161
:100730000134A2452DD05A46A300D758F558391C8C
:10074000281C03F071FF391C0028E9D1281C03F094
:1007500055FF0028ECD1291C381C03F006FFE2E706
:10076000281C03F0C1FF6E230393089B049005919E
:10077000381C029303F0B8FF049A059B0090019186
:1007800007980FF0E7F801222F4B01341A70A245A9
:10079000D1D143464E460493049B726D1B6810688A
:1007A00083420BD0294C73220090254920000FF082
:1007B000D1F80122244B1A70049B186801240028E8
:1007C00027DD1F4B204D9946214B049F98462B0057
:1007D000726D4D46A1009946A300FB588A5893427A
:1007E00014D040460092290076220FF0B3F801237E
:1007F0004A4638681370631C84420ADA1C00726D22
:10080000A300A100FB588A589342EAD1631CA0427E
:10081000F4DC13B0F0BCBB46B246A946A046F0BD1E
:100820000C4C00236A220090054920000FF092F83A
:100830000122054B1A7062E710510020D0C501104B
:10084000E8C40110ACC527376563002010C601104D
:1008500068C6011094C50110F0B5DE4657464E46F5
:100860004546E0B5F94CA5440FF0ECF8F84AF94BD1
:100870009046F94A3992F94A0692F94A0592F94A9C
:100880001A9245AA924653AA9146F74A3092F74ADD
:100890001892F74A3392F74A3492F74A1992F74A74
:1008A0003592F74A3692F74A1C92F74A2392F74A52
:1008B0002492F74A1592F74A2592F74A1692F74A78
:1008C0001292F74A2692F74A2792F74A2892F74A55
:1008D0002992F74A2092F74A1792F74A2A92F74A42
:1008E0002B92F74A1B92F74A2C92F74A2192F74A29
:1008F0002D92F74A2E92F74AF7490E91F74938910F
:10090000F7491491F7492291F7493791F749109126
:10091000F7492F91F7493191F7498B46F7493291C1
:10092000F7493A91F7493B91414698465B469346D1
:1009300007911393002443461C60079B39981C6061
:100940000FF008F8069A1A9D1470059A48AB1470B7
:100950002A0013CA13C303CA03C32B004DAA1433BE
:1009600013CB13C203CB03C25346012448AA1A6017
:100970004DAA5A60CEAD200003F05CFE013401C5E3
:10098000192CF8D1FE239B0586938023DB058793E2
:10099000DD4B1A9D88938123DB058993DB4B5AAA93
:1009A0008A93DB4B8B93DB4B8C938223DB058D93FC
:1009B000D94B8E93D94B8F93D94B9093D94B91931D
:1009C0002B00283313CB13C213CB13C22B004A4680
:1009D000403313CB13C203CB03C200232A2138AA0E
:1009E0001385521813706EAB02935AAB01934B46AA
:1009F00051460093CEAA86AB42A8FFF7F3FD012231
:100A0000069B1A704346059A1B681178012200293B
:100A100001D10022013341460B60079930980B68E1
:100A20009B180B600EF096FF0023069A1A9D137018
:100A3000059A13702B0048AA543313CB13C203CB6F
:100A400003C22B00143313CB13C203CB03C2534690
:100A5000012448AA1A604DAA5A60CEAD200003F0C6
:100A6000E9FDFEAB01C501349D42F7D1FE239B0594
:100A70005A938023DB055B93A34B6EAA5C9381237F
:100A8000DB055D93A14B5E93A14B5F93A14B6093FC
:100A90008223DB056193A04B6293A04B6393A04B31
:100AA0006493A04B65931A9B683313CB13C213CB8B
:100AB00013C213CB13C213CB13C24A46189B18336D
:100AC00013CB13C203CB03C200232A2138AA1385F8
:100AD0005218137086AB02936EAB01934B4651468E
:100AE0000093CEAA5AAB42A8FFF77CFD0122069BD9
:100AF0001A704346059A1B6811780122002901D11A
:100B000000220133414600260B60079933980B6899
:100B10009B180B600EF01EFF189D059B069F1E7014
:100B20002B003E702C3348AA13CB13C21B681360F2
:100B30002B004DAA3C3313CB13C21B6851461360E4
:100B40008023DB055B93704B48A85C938123DB0516
:100B50005D936E4B08605E936D4B4DA85F9382234F
:100B60004860FE21DB05CF936B4B89055A91D093EA
:100B700068496A4BCE91D193694B6EAAD293694B67
:100B8000D393694BD493694BD593694BD693832305
:100B9000DB05D793674BD893674BD9932B004C3326
:100BA00013CB13C213CB13C26C3503CB03C22B0080
:100BB0004A4613CB13C22A201B6838A913600E853E
:100BC00009180E7086A902916EA901914946CEAB13
:100BD00000915AAA514642A8FFF704FD012139703D
:100BE0004146059A0B6811780122002901D10022A3
:100BF0000133414600260B60079934980B689B1817
:100C00000B600EF0A7FE189D059B069F1E702B0023
:100C10003E702C3348AA13CB13C21B6813602B0001
:100C20004DAA7C3313CB13C21B685146136080233B
:100C3000DB055B93344B48A85C93812308604DA887
:100C40004860FE21DB055D9378E0C046A4FBFFFF12
:100C5000CC290020D0290020C8C6011066630020DE
:100C60006563002070E00110F4C60110F0E001108F
:100C700024C7011050C7011070E1011088C701108E
:100C8000C0C70110F0E10110F4C7011024C8011021
:100C900070E2011060C801107CE60110F0E2011062
:100CA00090C80110CCC8011008C9011044C9011036
:100CB00070E30110F0E301107CC9011070E4011031
:100CC000F0E40110ACC9011070E5011004CB011073
:100CD000F0E50110A0520020E8C4011094C50110F5
:100CE000E8C9011040CA011010C6011068C6011001
:100CF00080CA011070E6011000530020BCCA011028
:100D0000D0CA0110E8CA0110000040400000A04015
:100D10000000C0400000E040000010410000204101
:100D2000000030410000404100005041000060419F
:100D3000000070410000884100009041F94B890596
:100D40005E93F94B5A915F93199BCEAA0C3313CB48
:100D500013C213CB13C213CB13C213CB13C22B007A
:100D60006EAA4C3313CB13C213CB13C26C3503CB17
:100D700003C22B004A4613CB13C21B682A20136000
:100D8000802338A95B000B8509180E7086A9029193
:100D90006EA901914946CEAB00915AAA514642A88C
:100DA000FFF720FC012139704146059A0B68117844
:100DB0000122002901D100220133414600270B60A6
:100DC000079935980B689B180B600EF0C3FD069BC6
:100DD000199E1F70330005993C330F7048AA13CB3E
:100DE00013C21B681360189D4DAA2B003C3313CB14
:100DF00013C21B6850461360330048AC04604DAC0E
:100E000044604C335AAA13CB13C213CB13C28223B0
:100E1000DB05CF93C54BC648D093C64BCE90D1933C
:100E2000C54B6EAAD293C54BD393C54BD493C54B38
:100E3000D593C54BD6938323DB05D793C34BD89368
:100E4000C34BD9932B004C3313CB13C213CB13C218
:100E50006C3503CB03C22B004A4613CB13C20124CB
:100E60001B6838A81360048529340019077086A808
:100E700002906EA80190484651460090CEAB5AAA07
:100E800042A8FFF7AFFB0123069A0599137043466A
:100E9000097801221B68002901D100220133414653
:100EA0000B60079936980B689B180B600EF052FD8B
:100EB0000023069A199D1370059A13702B0048AAF7
:100EC000643313CB13C21B6813602B004DAA743319
:100ED00013CB13C21B6807241360534648AA1A6039
:100EE0004DAA5A60FE239B055A938023DB055B9332
:100EF000984BCEAD5C938123DB055D93894B5E936C
:100F0000894B5F938A4B60938223DB056193874B08
:100F10006293884B6393884B6493884B659320005E
:100F200003F088FBE6AB01C501349D42F7D11C9C60
:100F30004022211D6EA803F0C5FC23004A4644331D
:100F400013CB13C21B682A211360002338AA138510
:100F50005218137086AB02936EAB01934B46514609
:100F600000935AAACEAB42A8FFF73CFB0122069B96
:100F70001A704346059A1B6811780122002901D195
:100F800000220133414600260B60079923980B6825
:100F90009B180B600EF0DEFC059B069F1E70199BD4
:100FA0003E7064334DAA13CB13C21B6813601C9DA3
:100FB00048AA2B00543313CB13C28023DB055B9369
:100FC000644B51465C938123DB055D93554B4DA8E3
:100FD00008605E9348A8544B4860FE215F93554BD0
:100FE00082249C4689055148534A5A915049E40548
:100FF000609161946290639364926E9161464F4BED
:101000007191659373934E4B290074934D4B6031EE
:1010100075934D4B709076938323DB0577934B4B01
:10102000729278934A4B402286A844356F94799304
:1010300003F048FC2B004A4613CB13C22A201B683E
:1010400038A913600E8509180E70CEA9029186A9E1
:10105000019149466EAB00915AAA514642A8FFF74A
:10106000C1FA012139704146059A0B6811780122B5
:10107000002901D100220133414600270B60079966
:1010800024980B689B180B600EF064FC069B159E61
:101090001F703300059920330F704DAA13CB13C274
:1010A0001B6813601C9D48AA2B00543313CB13C23A
:1010B000504633004DAC046048AC446030335AAA0B
:1010C00013CB13C213CB13C213CB13C213CB13C254
:1010D0008223DB056F93154B29007093154B144841
:1010E0007193154B60317293144B40227393144BE0
:1010F0006E907493134B86A87593134B4435769377
:101100008323DB057793114B7893114B799303F08D
:10111000D9FB2B004A4613CB13C201241B6838A805
:101120001AE0C0460000A0400000C040000010418E
:101130000000E0400000204100003041000040413C
:1011400000005041000060410000704100008841F3
:1011500000009041000040401360048529340019CC
:101160000770CEA8029086A801904846514600908C
:101170006EAB5AAA42A8FFF735FA0123069A0599E1
:1011800013704346097801221B68002901D100220F
:10119000013341460B60079925980B689B180B603B
:1011A0000EF0D8FB0023069A159D1370059A137054
:1011B0002B004DAA603313CB13C203CB03C22B0009
:1011C00048AA743313CB13C21B6807241360534619
:1011D0004DAA1A6048AA5A60FE239B055A938023A1
:1011E000DB055B93EB4B6EAD5C938123DB055D937D
:1011F000E94B5E93E94B5F93E94B60938223DB05F8
:101200006193E84B6293E84B6393E84B6493E84B3C
:101210006593200003F00EFA86AB01C501349D42B0
:10122000F7D1902216991800520003F04BFB4A4662
:10123000129B043313CB13C203CB03C200232A2116
:1012400038AA138552181370CEAB029386AB019364
:101250004B46514600935AAA6EAB42A8FFF7C2F91B
:101260000122069B1A704346059A1B6811780122D9
:10127000002901D10022013341460B6007992698CD
:101280000B689B180B600EF065FB0023069A129DFD
:101290001370059A13702B004DAA183313CB13C289
:1012A00003CB03C2159B48AA743313CB13C21B682C
:1012B000136053464DAA1A6048AA5A602B005AAAD6
:1012C0002C3313CB13C213CB13C213CB13C213CBC8
:1012D00013C207246EAD200003F0ACF986AB01C544
:1012E00001349D42F7D1902216991800520003F064
:1012F000E9FA4A46129B043313CB13C203CB03C251
:10130000012238AB1A8529329B1800221A70CEAB05
:10131000029386AB01934B46514600935AAA6EAB9B
:1013200042A8FFF75FF90123069A13704346059A16
:101330001B6811780122002901D1002201334146A6
:1013400000260B60079927980B689B180B600EF01E
:1013500001FB059B069F1E70159B3E7060334DAAD6
:1013600013CB13C203CB03C2129D48AA2B005C33DC
:1013700013CB13C21B68514613608023DB055B93BC
:10138000844B4DA85C938123086048A84860FE21E7
:10139000DB055D93804B89055E93804B5A915F938B
:1013A00082237F49DB056091290061937D4B602298
:1013B00062937D4B6C3163937C4B6EA864937C4B42
:1013C000659303F07FFA90221699520086A803F0E5
:1013D00079FA4A462B1D13CB13C203CB03C28023D9
:1013E0002A205B0038A90B8509180E70CEA902913E
:1013F00086A9019149466EAB00915AAA514642A86E
:10140000FFF7F0F8012139704146059A0B68117811
:101410000122002901D100220133414600260B6040
:10142000079928980B689B180B600EF093FA129D91
:10143000059B069F1E702B003E7018334DAA13CBE0
:1014400013C203CB03C22B0048AA5C3313CB13C2D5
:101450001B68514613602B004DA8086048A84860DF
:101460002C335AAA13CB13C213CB13C213CB13C200
:1014700013CB13C2290060226C316EA803F022FA4C
:1014800090221699520086A803F01CFA4A462B1D9A
:1014900013CB13C203CB03C202232A20FF3338A984
:1014A0000B8509180E70CEA9029186A901914946B3
:1014B0006EAB00915AAA514642A8FFF793F801215A
:1014C00039704146059A0B6811780122002901D133
:1014D0000022013341460B60079929980B6848ADFB
:1014E0009B180B600EF036FA0023069A1370059ACB
:1014F0001370209A13004C3313CB13C513004DAA5D
:10150000583313CB13C203CB03C25346012448AA5A
:101510001A604DAA5A605AAD200003F08BF86EABEA
:1015200001C501349D42F7D10724CEAD200003F060
:1015300081F8ECAB01C501349D42F7D120996022BE
:101540006C316EA803F0BEF94A46179B4C3313CB9F
:1015500013C203CB03C200232A2138AA13855218D1
:10156000137086AB02936EAB01934B4651460093CA
:101570005AAACEAB42A8FFF735F80122069B1A7093
:101580004346059A1B6811780122002912D10022D6
:1015900001330FE0000040400000A0400000C040C8
:1015A0000000E040000010410000204100003041F8
:1015B00000004041414600260B6007992A980B68BD
:1015C0009B180B600EF0C6F9179D059B069F1E70B9
:1015D0002B003E7060334DAA13CB13C21B681360FF
:1015E0002B002A00703348AD13CB13C551461300AE
:1015F0004DA8086048A848607C336EAA13CB13C27C
:1016000013CB13C213CB13C213CB13C22B9D5AAAF5
:101610002B002C3313CB13C213CB13C22900482247
:10162000443186A803F04EF94A461B9B0C3313CB7A
:1016300013C22A201B6838A913600E8509180E7082
:10164000CEA9029186A90124019149465AAB009185
:101650006EAA514642A80394FEF784FECEA90291D9
:1016600086A9019149465AAB00916EAA514603964C
:1016700042A8FEF777FE4146059A0B6811783C7048
:101680000122002901D100220133414600250B60CF
:1016900007992C980B6842AE9B180B600EF05AF914
:1016A000069B1B9A1D70059B1D7013001C3313CBEA
:1016B00013C613005646283313CB13C642AB3F93D1
:1016C00053463432110086A85022409303F0FAF8B2
:1016D000219E7822311DCEA803F0F4F82D9A1368CC
:1016E0003D93938838AA1383179B48AA703313CB72
:1016F00013C233004DAA7C3313CB13C213CB13C2D6
:1017000038AB1D829D742E9D5AAA2B00143313CB27
:1017100013C213CB13C213CB13C22B006EAA3833E0
:1017200013CB13C213CB13C213CB13C213CB13C2ED
:101730002B004A46683313CB13C213CB13C242A803
:101740000EF090F90F9050460EF08CF9119048A8C9
:101750000EF088F90C900EF00FF95A9F0A900021B4
:10176000381C5D9D5C9C02F049FF002801D000F010
:1017700084FD0021281C02F041FF002801D100F067
:101780007CFD0021201C02F039FF002801D100F06F
:1017900074FD5B9B1D930F980EF0EEF8061E29DD7D
:1017A0001D9802F0F5FA86ACB300089009915EAD81
:1017B0001E1906E080204042043428700135A642FC
:1017C00018D0391C206802F0D6FE02F08DFF02F01E
:1017D000A5FB089A099B02F03DFA02F0F1FA03001A
:1017E0008033E7DB7F28E7DD7F2004342870013574
:1017F000A642E6D10F9D28000EF0BEF80400092095
:1018000007F026FB5B4601221A60002260431D9907
:101810009F60D9605EA919615D61594698615A60FF
:1018200009236E9F8B838A77381C0021719D709CE1
:1018300002F0E4FE002801D000F007FD0021281C82
:1018400002F0DCFE002801D100F0FFFC0021201C8A
:1018500002F0D4FE002801D100F0F7FC6F9B0F933B
:1018600011980EF089F8061E29DD0F9802F090FA03
:10187000CEACB3000890099172AD1E1906E080202D
:101880004042043428700135B44218D0391C206815
:1018900002F071FE02F028FF02F040FB089A099B5B
:1018A00002F0D8F902F08CFA03008033E7DB7F28DE
:1018B000E7DD7F20043428700135B442E6D1119D64
:1018C00028000EF059F80400092007F0C1FA5B4621
:1018D00001221A62002260430F995D63D96272A9E6
:1018E0001963986359465A629F6209238B8735337F
:1018F000CA544B461C680021201CDE689D6802F01B
:101900007DFE002801D000F086FC0021301C02F092
:1019100075FE002801D100F07EFC0021281C02F099
:101920006DFE002801D100F076FC4B465D680C9FEF
:1019300038000EF021F80600092007F089FA5B460E
:101940000122002170431A6457AA59641A659865E8
:10195000092258469C64DD645F655C23C2520233F1
:10196000C15401223CA9FEF79FFC0DF0E5FE0028C2
:1019700001D000F0BDFC0A9B002B00DCB8E04B4618
:101980001B7C5BB2162B09D0AA2200930E9916235A
:1019900014980DF0DFFF0122059B1A700A9B012BA2
:1019A00070D04B465B7C5BB2162B09D0AA22009309
:1019B0000E99162314980DF0CDFF0122059B1A7085
:1019C0000A9B022B5ED04B469B7C5BB2162B09D048
:1019D000AA2200930E99162314980DF0BBFF012242
:1019E000059B1A700A9B032B4CD04B46DB7C5BB2E9
:1019F000382B09D0AA2200930E99382314980DF0A1
:101A0000A9FF0122059B1A700A9B042B3AD04B4672
:101A10001B7D5BB2382B09D0AA2200930E99382384
:101A200014980DF097FF0122059B1A700A9B052B55
:101A300028D04B465B7D5BB2382B09D0AA2200939D
:101A40000E99382314980DF085FF0122059B1A701A
:101A50000A9D062D16D00624142238AB9B184A4640
:101A60001219127C1B5752B2934208D000920E9961
:101A7000AA2214980DF06EFF0122059B1A70013402
:101A8000A542E9D14D460A9B4DAC4B442F0008932B
:101A900025000EE0311C201C02F067FD134902F006
:101AA000C3FD002800D052E3089B01370435BB4238
:101AB0001ED010204B4638565B68C01A02F0BAFDA3
:101AC0004B46196802F06BFD2C68061C211C02F0C5
:101AD0009DFD0028DED1211C301C02F08FFD002866
:101AE000E2D1211C301C02F040FDD7E7ACC52737FE
:101AF0005A460C9B526D1B68106883420AD0B7226D
:101B000000900E9937980DF025FF0122059B1A7061
:101B10000C9B18680124002821DD5F460C9D7A6D1E
:101B2000A300A100EB588A58059E934213D0109849
:101B300000920E99BA220DF00DFF01232868337030
:101B4000631CA0420ADD1C007A6DA300A100EB58C3
:101B50008A589342EBD1631C8442F4DBBB460122DA
:101B6000069B1A704346059A1B68117801220029CA
:101B700001D100220133414600250B6007992F98BF
:101B80000B683FAE9B180B600DF0E4FE069B1B9AA2
:101B90001D70059B1D7013001C3313CB13C613005F
:101BA000283313CB13C634323FAB11003D93502280
:101BB00042AB86A83E9302F085FE219E7822311D1D
:101BC000CEA802F07FFE5346319A13CA13C3179B67
:101BD00048AA703313CB13C233004DAA7C3313CB06
:101BE00013C213CB13C238AB1D829D74E14C342257
:101BF00000215BA802F060FE482200216FA85A94E1
:101C000002F05AFE0021182254A86E9402F054FEED
:101C1000FE224B4692051A603FA80DF023FF1D904F
:101C200042A80DF01FFF1E9048A80DF01BFF119059
:101C30000DF0A2FE5A9B0F900021181C5D9D5C9C2C
:101C4000089302F0DBFC002800D0CAE20021281C27
:101C500002F0D4FC002800D1C3E20021201C02F0D5
:101C6000CDFC002800D1BCE25B9B1F931D980DF0BA
:101C700083FE061E27DD1F9802F08AF886ACA44674
:101C8000B30080260C900D916344BB4F5EAD0A9368
:101C900036020899206802F06EFC02F025FD02F081
:101CA0003DF90C9A0D9B01F0D5FF02F089F8B8427E
:101CB00000DAB148B04200DBB0480A9B0434288007
:101CC0000235A342E5D11D9D28000DF055FE04000C
:101CD000072007F0BDF801220021139B60431A6022
:101CE000089A59609A601F9A5D61DA605EAA1A616B
:101CF00098611A00072393836E9B9177181C00212B
:101D0000719D709C089302F079FC002800D04EE28F
:101D10000021281C02F072FC002800D147E20021BB
:101D2000201C02F06BFC002800D140E26F9B1D9349
:101D30001E980DF021FE061E27DD1D9802F028F8E2
:101D4000CEACA446B30080260C900D9163448A4F1C
:101D500072AD0A9336020899206802F00CFC02F07A
:101D6000C3FC02F0DBF80C9A0D9B01F073FF02F04C
:101D700027F8B84200DA8048B04200DB7F480A9B6F
:101D80000434288002359C42E5D11E9D28000DF0C8
:101D9000F3FD0400072007F05BF80123139A0021EC
:101DA0001362089B604393621D9B5162D36272ABC6
:101DB0001363072393873733D1544B461C6855630D
:101DC00090630021201CDE689D6802F017FC00284B
:101DD00000D0D3E10021301C02F010FC002800D11B
:101DE000CCE10021281C02F009FC002800D1C5E14B
:101DF0004B465D6811980DF0BFFD0600072007F007
:101E000027F8012213995C230A6457AA0A65119ADC
:101E100000274A6507227043CA5202338865CF54AF
:101E2000080001224F648C64CD643CA9FEF73CFAA3
:101E30000DF082FC002800D04FE20F9B002B00DC4D
:101E400031E14B4610229B5E172B09D0AA2200934A
:101E50000E99172314980DF07DFD0122059B1A7031
:101E60000F9B012B56D04B4612229B5E172B09D09D
:101E7000AA2200930E99172314980DF06BFD0122EE
:101E8000059B1A700F9B022B44D04B4614229B5E7D
:101E9000172B09D0AA2200930E99172314980DF03E
:101EA00059FD0122059B1A700F9B032B32D04B4624
:101EB00016229B5E392B09D0AA2200930E99392352
:101EC00014980DF047FD0122059B1A700F9B042BFF
:101ED00020D04B4618229B5E392B09D0AA220093B2
:101EE0000E99392314980DF035FD0122059B1A70C7
:101EF0000F9B052B0ED04B461A229B5E392B09D027
:101F0000AA2200930E99392314980DF023FD012283
:101F1000059B1A704B461020185E4B465B68C01A32
:101F200002F088FB4B46196802F039FB1449041C87
:101F300002F06CFB002800D1B7E11148211C02F02F
:101F400014FB104902F070FB002800D018E20F9B30
:101F5000012B00D1A7E04B461220185E4B465B6870
:101F6000C01A02F067FB4B46196802F018FB0449DF
:101F7000041C09E04001A0390080FFFFFF7F000042
:101F80000000B841ACC5273702F040FB002800D163
:101F900097E1E348211C02F0E8FAE24902F044FB31
:101FA000002800D0FEE10F9B022B7CD04B46142072
:101FB000185E4B465B68C01A02F03CFB4B46196842
:101FC00002F0EDFAD649041C02F020FB002800D1F3
:101FD0009AE1D348211C02F0C8FAD24902F024FB4E
:101FE000002800D0F0E10F9B032B5CD04B4616205D
:101FF000185E4B465B68C01A02F01CFB4B46196822
:1020000002F0CDFAC849041C02F000FB002800D100
:1020100092E1C548211C02F0A8FAC24902F004FB73
:10202000002800D0E2E10F9B042B3CD04B46182047
:10203000185E4B465B68C01A02F0FCFA4B46196802
:1020400002F0ADFAB849041C02F0E0FA002800D111
:102050007EE1B548211C02F088FAB24902F0E4FAA8
:10206000002800D0D4E10F9B052B1CD04B461A2032
:10207000185E4B465B68C01A02F0DCFA4B461968E2
:1020800002F08DFAA849041C02F0C0FA002800D121
:102090006AE1A548211C02F068FAA24902F0C4FADC
:1020A000002800D0C6E1139A119B526D1B6810687E
:1020B00083420AD0B72200900E9937980DF04AFC5F
:1020C0000122059B1A70119B18680124002820DD4D
:1020D000139E119D726DA300A100EB588A58059FB5
:1020E000934213D0109800920E99BA220DF032FC50
:1020F000012328683B70631CA0420ADD1C00726D3E
:10210000A300A100EB588A589342EBD1631CA04274
:10211000F4DC0122069B1A7043461968059B1B7864
:10212000002B01D1002201314346079C196023682E
:102130003298D218226052180DF00CFC2368002B44
:1021400000D089E13A980DF005FCFEF7F3FB201C66
:1021500002F0CAFAB22303930E9B0A900B91301C33
:10216000029302F0C1FA0A9A0B9B00900191229807
:102170000DF0F0FB0122059B1A7095E4291C301C20
:1021800002F0F3F9694902F0F6F94B461860802332
:10219000041C1B06E818211C02F0EDF902F0E0FA1D
:1021A00002F06AFA624BC5184B465D6022E6211CBC
:1021B000281C02F0DAF95D4902F0DDF980231B06E4
:1021C000011C08906E90E01802F0D5F902F0C8FAF0
:1021D00002F052FA564A0300944663441D936F93EB
:1021E000A6E5211C281C02F0C0F9504902F0C3F9F1
:1021F00080231B06011C08905A90E01802F0BBF9DE
:1022000002F0AEFA02F038FA494A030094466344F9
:102210001F935B932AE5291C301C02F0A6F945495F
:1022200002F0A9F94B4618608023041C1B06E8182D
:10223000211C02F0A0F902F093FA02F01DFA4B46BD
:10224000803805005860FFF772FB211C281C02F043
:102250008CF9384902F08FF98023071C1B06391CC2
:102260006E90E01802F087F902F07AFA02F004FAB0
:1022700080380F906F90FFF7F3FA211C281C02F0B2
:1022800074F92C4902F077F98023071C1B06391CCE
:102290005A90E01802F06FF902F062FA02F0ECF9DD
:1022A00080381D905B90FFF776FA1D49201C02F0E4
:1022B000A5F9002800D04AE61949201C02F055F97A
:1022C0003FE61749201C02F099F9002800D06AE681
:1022D0001349201C02F049F95FE60023A622009072
:1022E0000E9938980DF036FB0122059B1A70A4E573
:1022F0000023A62200900E9938980DF02BFB0122A6
:10230000059B1A70FFF737FB0549201C02F076F990
:10231000002800D067E60249201C02F026F95CE69E
:102320000000B841ACC527370000644200FF7F477A
:102330000080FFFF00007F434A49201C02F05EF945
:10234000002800D06FE64749201C02F00EF964E631
:102350004449201C02F052F9002800D083E641498C
:10236000201C02F002F978E63E49201C02F046F9F2
:10237000002800D097E63B49201C02F0F6F88CE6D6
:10238000B22303930E9B201C029302F0ADF90022AE
:1023900000900191344B22980DF0DCFA0122059B4C
:1023A0001A70D4E5B22303930E9B201C029302F013
:1023B0009BF90022009001912B4B22980DF0CAFA54
:1023C0000122059B1A70EEE5B22303930E9B201C9D
:1023D000029302F089F9002200900191224B229889
:1023E0000DF0B8FA0122059B1A70FCE5B2230393A5
:1023F0000E9B201C029302F077F9002200900191BD
:102400001A4B22980DF0A6FA0122059B1A700AE6D3
:10241000B22303930E9B201C029302F065F9002265
:1024200000900191114B22980DF094FA0122059B26
:102430001A7018E6B22303930E9B201C029302F03D
:1024400053F9002200900191084B22980DF082FA76
:102450000122059B1A7026E63B980DF07BFAFEF7E9
:1024600069FAC046000064420000374000804C40DA
:102470008023DB051868000F7047C0460FB400B515
:10248000084883B004F0DEF8049B002B07D005A9B0
:102490001800019103F0AAFE034804F0D3F80120CC
:1024A00003F0BCFE0CCB01101CCB011070B5EFF398
:1024B000108C72B60D4D2B68002BFCD0BFF35F8FD4
:1024C0000724CB08C618C05C01230C40A3401C00A5
:1024D0000440034207D118433070BFF35F8F2C6074
:1024E0008CF3108870BD1000FFF7C8FF2C0100D0DE
:1024F000F8B54746CE46884680B5EFF3108C72B6E5
:102500001C4D2C68002CFCD0BFF35F8F9A4222D860
:1025100007210126894602E00132934218D34D4635
:1025200037001540AF40D4080119045D2742F3D1AC
:1025300010003C430C70BFF35F8F00220D4B1A60FC
:102540008CF3108800280EDBC0BCB946B046F8BD3D
:1025500001204042EFE7BFF35F8F00232B608CF335
:102560001088012040424346002BEDD00898FFF729
:1025700085FFC0462C0100D0044A1078431CDBB212
:10258000172B00D9102313707047C046801E0020FF
:1025900010B5064B064C82B00100009318221F2391
:1025A0002000FFF7A5FF02B010BDC04620CB0110F0
:1025B000905E00200021044B044ABFF35F8F02C3EA
:1025C0009342FAD17047C046000100D0800100D08C
:1025D000054B064A1360064A136053609360D3604C
:1025E00013615361936170478080808000E400E054
:1025F00004E400E01F2318401E3B8340002905D05F
:10260000C021044A49005350136070478022014999
:102610008B50FAE700E100E001228240034B1B6887
:1026200013405A1E9341D8B27047C04600E100E003
:1026300001238340014A13607047C04600E200E076
:10264000084B10309B688000C358002B07D0064A07
:1026500000209B1A2F229A424041C0B270470020AE
:10266000FCE7C04600ED00E0841E002070B50D00C0
:10267000EFF3108672B60F4A1368002BFCD0BFF33D
:102680005F8F0D4B10309B6884001B590B4A93429F
:1026900003D09D4201D000F093FF074B9B681D5172
:1026A000BFF35F8FBFF35F8F0022024B1A6086F388
:1026B000108870BD240100D000ED00E0CD010010B5
:1026C000F0B557464E46DE464546E0B585B00600B5
:1026D00000911700EFF3108B72B66A4A1368002B53
:1026E000FCD0BFF35F8F0025674B5D579A46002DE6
:1026F00000DAA9E06B00654C01935B199B009846DA
:10270000A146C1444B4652469B7910361370604B2C
:10271000B6009B6899590B1B2F2B33D95D4B9942FF
:1027200000D0ACE0019B42469C465B4B6544AD004B
:1027300063535A4B0232A218043B9B1A1B05584A9A
:102740005B0D651913436B80564B0121AB80FF2352
:10275000AB71009BEF71AB604B460B4319004C4BC8
:102760009B689951BFF35F8FBFF35F8F0022454B8A
:102770001A608BF3108805B0F0BCBB46B246A94680
:10278000A046F0BD01200A008243D3798C46BB42AB
:1027900031D84546130044491B1B5B415943090D81
:1027A0003D4B63533D4B02356519043B5B1B1B05D9
:1027B0003B4D5B0D2B43AA464D466B800425AC4632
:1027C0005546E044131F44441B1B1B055B0D1D4372
:1027D0004B46997100999D8099604946DF71334B52
:1027E00001431360BBE75800C01880002018C1796E
:1027F000B9422FD902000623D356002BF3DA0293F5
:102800002B4B61460393131D9A4604235B429C465F
:10281000E14450464B461B1A1B055B0D9C46204B62
:10282000957198466346404603439380019B5A192D
:102830009200039BA418A380029B1C4AA371009BD7
:102840002260E771A3608AE700F0BAFE00255346D4
:102850005D574FE7908802934005131D9A46031574
:1028600061469C464046D444634604302018181AFA
:10287000E0230005400D1B0218430390C5E700F05C
:102880009FFE4FE7240100D06C630020841E0020CF
:1028900000ED00E0CD01001000A1FFFFB41E0020FC
:1028A00000E0FFFF01BDFFFFAAAA0000014880472A
:1028B00001BD000070B501240443EFF30581EFF37F
:1028C000108C72B6214A1368002BFCD0BFF35F8FC7
:1028D0001F4B05001F4AED1A6D416A43120D1E4D34
:1028E0008900AE6852B27658A6421CD006215956CD
:1028F00091421CD012215956914222D01E21595684
:10290000914220D02A2159560324914210D0134BD2
:1029100019781A708171BFF35F8F00220B4B1A6018
:102920008CF3108870BDAB680D4C5C50EFE7002451
:102930006100091989005B18FF2199710949998083
:10294000E5E70124F4E70224F2E7C046240100D0C1
:10295000841E0020AAAA000000ED00E06C630020A5
:10296000CD01001001BDFFFF10B5084B084C82B02F
:1029700001000093002205232000FFF7B9FD002885
:1029800001DB1F23181A02B010BDC0463CCB01105A
:1029900070630020024B9C466144890001607047CF
:1029A0004000003470B5114C114DAC420FD2FF26DF
:1029B0002368002B0CD0FFF7DFFD01002000FFF79C
:1029C000E9FFA680BFF35F8F0834AC42F0D370BD3F
:1029D000FFF7D2FD01002000FFF7DCFF2671BFF3F7
:1029E0005F8F0834AC42E3D3F1E7C0462C260020C9
:1029F0003C26002010B50400FFF7BEFD01002000BA
:102A0000FFF7C8FFFF232371BFF35F8F10BDC046E0
:102A100010B504000120FFF7BBFD034BC3189B005A
:102A20002360BFF35F8F10BD40000034034B9C4612
:102A3000614489000160BFF35F8F7047400000343C
:102A40000A4B1968EFF3108072B60A68002AFCD0AE
:102A5000BFF35F8F1B68BFF35F8F00221A6080F3A4
:102A6000108840BF002000217047C0464863002006
:102A7000F0B5DE4657464E464546E0B587B0EFF323
:102A800005820323012513409D409900B34AB44BAE
:102A900054581D60B34B8846A946049329E0A38887
:102AA0001BB2002B00DBA5E0A379002B00D0E6E0F1
:102AB0000823E05E002800DA0FE1430062691B187A
:102AC000DB00D3189E68DD68731C00D111E1A64BB2
:102AD000190041449A6A0B69B01A9B1A984200D2B5
:102AE0000E61A14800F030FB8D4200DDF5E000D121
:102AF0002BE14B469C4843630823E55E002DCEDB6B
:102B000062696B0092465B19DB009A4453469E68EB
:102B1000DF6800F019FB8F42C1DC00D10BE1002F10
:102B200000DAF0E05246534652691B699346049A14
:102B3000934200D1E1E052460821605E52880004D1
:102B4000594610439847029003910299039A0B004B
:102B50001000134300D1D6E013000A00B61A9F41BB
:102B6000002806DB804800F0EFFA029E039F36182B
:102B70004F4153469E60DF6000229A5E002A8EDB42
:102B8000530099186069C900411801938B68C9689E
:102B90009B46B94200DD82E702D1B34200D97EE70D
:102BA00008239C46A444059565462281A446019BC2
:102BB0002C0006E053009918C90041188D68C968B7
:102BC000AB469B18DB00C318B94206DC00D1C0E05D
:102BD0001C000023E25E002AECDA230064469C46D7
:102BE00053461A806346059D1D80A3881BB2002BA7
:102BF00000DA59E72269EFF3108172B61368002BEF
:102C0000FCD0BFF35F8F0123A7885B42A3803FB254
:102C10002369BFF35F8F00221A6081F31088002FB1
:102C200000DA41E72300083322009A4666697B00F8
:102C3000DB19DB00F318996850468C460824115FB5
:102C4000DD68002910DB019306E0AB424DD0002384
:102C5000E15E2000002906DB4C006418E400341912
:102C6000E368AB42F1DD019B078000201F5E198005
:102C7000002FDCDA1400A379002B00D118E7002321
:102C8000A37126000823E15E08364B1C25D00800FE
:102C9000A246656902E03E004B1C1AD04B005B184F
:102CA000DB00EF180A008C46E95E7B881BB2002B24
:102CB000F1DA01235B42DC17BB60FC60824205D085
:102CC000534631801B893B8053461A8160464B1C1A
:102CD000E4D15446002800DBEFE640BF07B0F0BC6B
:102CE000BB46B246A946A046F0BDA3686345AED92F
:102CF000B9E76B1C00D0EAE6F3E65B4658461B6971
:102D0000984700281BD153461B8822692381EFF383
:102D1000108372B611680029FCD0BFF35F8F514653
:102D200062880A8022696580BFF35F8F002111608D
:102D300083F31088B3E6864200D8F0E6AFE65B4640
:102D40001A685B6802920393FFE6864200D8D0E6D9
:102D5000C3E7B34500D83BE73FE7C0462C630020FC
:102D60003C700540712A00100040054070B52E4CA3
:102D70002569002D04D00A212C48FFF70BFE70BDF9
:102D80002B4E0321300000F0D5F9E660FFF7F4FB8D
:102D9000284B03229C46D02322701B061B6801216E
:102DA0006370254B6044A3600F23800020610220E4
:102DB000638063694942A1801980023119864731D5
:102DC0001D83585218315A5275325C399952183253
:102DD0000131995218320131995218320131995208
:102DE000083518329D520231183299521832013189
:102DF00099521832013199521832013199521832D0
:102E0000013199521832013199520C4B0C49DC6056
:102E100001303562FFF72AFC01210320FFF7EAFBAE
:102E2000084B1D60A7E7C046CC1E00204863002069
:102E30000040054040000034FFFF10002C630020DC
:102E4000712A00103860054000487047CC1E0020F1
:102E5000F8B51F0008AB1B7804001600002B08D142
:102E600000F07AF932003B00121A8B41002B00DA95
:102E700052E02269EFF3108072B61368002BFCD089
:102E8000BFF35F8F0223E15E63694A005218D200EC
:102E90009B182269002936DB1D886580BFF35F8F90
:102EA0000025156080F31088069A9E60DF601A6125
:102EB000079A5A615A8801325204520C101C002A97
:102EC0001FD082B25880080410432669EFF31087A0
:102ED00072B63268002AFCD0BFF35F8FA2881A80D6
:102EE000A1802369BFF35F8F00221A6087F31088E7
:102EF0000A4923788C4601329A40E36863441A6099
:102F0000F8BD0120DDE7BFF35F8F0023136080F37E
:102F1000108801204042F3E70020F1E73C20000048
:102F200070B501000469EFF3108C72B620680028B8
:102F3000FCD0BFF35F8F02200D5E4C696800401922
:102F4000C00024180869002D36DB26884E80BFF3A8
:102F50005F8F002606608CF31088E3606388049816
:102F6000013320615B0405985B0CA26060611A1C50
:102F7000002B1FD093B22804628018430A69EFF334
:102F8000108C72B61368002BFCD0BFF35F8F8B8858
:102F900023808D800B69BFF35F8F00221A608CF352
:102FA00010880B7801329A40CB6808498C466344FC
:102FB0001A6070BD0122DDE7BFF35F8F002303605D
:102FC0008CF3108801204042F3E7C0463C2000000B
:102FD00010B543890A1493421ADD53009B184269C5
:102FE000DB00D3180469EFF3108C72B62268002A54
:102FF000FCD0BFF35F8F5A88090494B2090C8A424F
:1030000008D00369BFF35F8F00221A608CF3108829
:10301000002010BD8022120214435C80012302694B
:103020008371BFF35F8F002111608CF31088044916
:1030300002788C469340C268012062441360E8E73E
:103040003C20000040787047F0B5CE46474680B53A
:1030500004000D0083B0EFF3058399460F00002BA9
:1030600042D1314EA0463378F06804339B00816A28
:103070001B58601A5B1A984212D320BF2B490020BC
:103080004B6AAB4207D38A6A5B1B591E8B41414690
:103090008A424041184303B0C0BCB946B046F0BDB7
:1030A00000F05AF822002B00121A8B41002B28DB6B
:1030B0004B4601931E4B2200009330002B00FFF77C
:1030C0002FFF011E1DDD194B5A6AAA422AD39B6AA3
:1030D0009C4225D83000FFF77BFF144A0020536A3A
:1030E000BB42D8D3926ACFE7104900204B6AAB426B
:1030F000D1D38A6A5B1B591E8B41A24240411843BF
:10310000C9E70A4A0020536ABB42C4D300204146A3
:10311000926A5B1B8A4240415A1E93411843BAE7A8
:10312000AA42D7D120BFD5E7CC1E002000400540E1
:10313000412A001010B5024A0248FFF7B7F910BD46
:1031400058CB0110945E00200300416A0A00986A7F
:10315000596A8A42FAD17047034B596A0A00986A41
:10316000596A9142FAD170470040054070B5040099
:103170000D00174A536A1900966A536A8B42FAD1B6
:103180003000190024184D41AB4216D813D0104B13
:103190002A005B6A9D4203D90D494B6A9342FCD3D6
:1031A000934207D10A4A02E0516A994202D1916AD8
:1031B000A142F9D370BDA642E9D9054B5B6A1C0058
:1031C0005A1CEFD0012201246442E5175242E3E782
:1031D00000400540F8B5DE464E4657464546E0B548
:1031E0008B4605000A991800160000F0EFFA0A9BBA
:1031F0006C001F02324B64199C46A400644463684F
:1032000081469F4200D967602B1FDBB29846012B95
:1032100030D9C02380229B01E31812011A60294B88
:10322000AD0059599A4600291BD17301E026226846
:1032300053401E40802342465B01E3181E60012A72
:1032400030D9802380229B01E31812011A60534673
:103250004A4667605A51F0BCBB46B246A946A046F2
:10326000F8BD586900F0B2FA013043001B18033B67
:10327000FDD2DAE75B46012BCBD1C02303229B01B1
:10328000E3181A60023AA3681A42FCD07301E026E0
:103290002268AD0053401E4080230A4A5B019246DB
:1032A000E3181E605A462168514003220A401A6002
:1032B00001225B469A40A3681A42FCD0C1E7C0468F
:1032C00000800040985E0020F0B546464F46D64646
:1032D000C0B51F00344B44009C462418A40064442D
:1032E000636888461600FF2B02D880235B0063606A
:1032F000031FDBB29A46012B30D9C02380229B01E9
:10330000E31812011A60294B850059599946002982
:103310001BD17301E026226853401E408023524691
:103320005B01E3181E60012A30D9802380229B01B3
:10333000E31812011A6080235B0063604B465F5103
:10334000E0BCBA46B146A846F0BD586900F03EFA66
:10335000013043001B18033BFDD2DAE74346012B43
:10336000CBD1C02303229B01E3181A60023AA36861
:103370001A42FCD07301E0262268850053401E40AB
:1033800080230A4A5B019146E3181E604246216889
:10339000514003220A401A60012342469340A2682A
:1033A0001342FCD0C1E7C04600800040985E002078
:1033B000014B8000C0587047985E0020F8B50400AB
:1033C00021481E0017000D0000F000FA010038002F
:1033D00000F0FCF9069B36041B031E432368002BF8
:1033E00020DB1A4B1A49E3185A1E9341802292019E
:1033F00094465B421B0B174A1B0363441360164A37
:1034000013601F000A689743FBD1144B2560E21834
:103410002123A06013602368002BFCDA0823E660F8
:103420001360F8BD3F2322681340AB42D9D1A36893
:103430001B051B0D8342D4D1EE22E368D202134058
:10344000B342CED1EDE7C046001BB7000040FDBF40
:1034500008C0004000E0004000F0004004300000E0
:1034600010B580241C4BE4051C6000281AD00123F1
:103470001A4C18431A4BDC611A4C44401C625962C6
:1034800098628021144BC9051960174817490860D4
:10349000E021C9041960002A07D18022144B1206CA
:1034A0001A6010BD0E4BD861EBE753019B1A9B00CD
:1034B0009A18802312015B049A4209D213000D4925
:1034C0000B60074B5A608022094BD2051A60E8E76F
:1034D000094B1A00F3E7C04600B00540D3C007B05F
:1034E000008005402D3FF84FFCFF010008200140FF
:1034F00000A0054004630020FFFFFF008023024A74
:103500009B000B43D362704700800540002310B539
:103510000100988A1B8B984710BDC046162310B532
:103520000100188802331B88984710BDF8B547463C
:10353000CE4680B50F1E18D01423994604330400DC
:103540000025012698464B461888434621681B886B
:10355000984701C4431E984101350640AF42F2D15D
:103560003000C0BCB946B046F8BD0126F8E7C046F9
:10357000002370B504000D00988A05491B8B9847FD
:1035800003000020002C01DB0130A04029009847F7
:1035900055420000AA23064A1B0113602F23054948
:1035A000D360054B19605368002BFCDA7047C046A6
:1035B0000040024000B0FA00006002407047C04680
:1035C00010B50148FEF75AFF7CCB011070B5074DCE
:1035D000074EB54209D20024013E761BB60808CD3D
:1035E000984723000134B342F9D170BD98C401104B
:1035F000D4C40110054B064A06491A60064A074B17
:103600001A6010000B689843FBD1704700E000403F
:10361000BFCDFBFE08C00040FE7F3C0000F0004034
:10362000044BDB6C002B03D18022034BD2021A60C7
:103630007047C046000011504C201150044A054B01
:103640001A60054A1368DB018033FBD17047C0461E
:10365000FFFFFF0100F0004008C000404022034B84
:103660009A675A671A67DA667047C04600F00140E9
:1036700010B5FEF79FFF10BD70B5044D044CA9684E
:10368000C022200001F01EF9AC6070BD00ED00E02A
:1036900000000020002310B5294C82B0A367FFF77B
:1036A00079FF0122274B1A60636C012BFCD10322A6
:1036B000254B1A60224A936B012BFCD101330093F6
:1036C0000121224A22480433FFF778FE0523012115
:1036D0000093204A2048FFF771FE002202210420B7
:1036E0001E4BFFF7F1FD0022012105201C4BFFF7C7
:1036F000EBFD0022002107201A4BFFF7E5FD002219
:1037000000210820174BFFF7DFFD8023DB0000932B
:10371000002200210920134BFFF75CFD0022104B13
:1037200000210620FFF7D0FD0420FFF741FE0E49DF
:1037300000F04CF801000020FFF7E0FE02B010BDE1
:10374000008000403CB0004030B00040002F68597D
:1037500000800240008C864700C00240001BB7007A
:1037600040597307006CDC0240420F0001480421FD
:10377000014B1847F01E00202D350010124A936FA0
:103780009B0815D29066D166002905D0FFE7FFE7B8
:10379000FFE7516F106F704704B580210906C2170B
:1037A0005140002800D0C84318F0DEFD002104BDC0
:1037B000F0B5146E556E576F166FFFF7E3FF146682
:1037C000556657671667F0BD000000D0114A936F29
:1037D0009B0813D210665166002905D0FFE7FFE76A
:1037E000FFE7516F106F704704B5002801D000202B
:1037F000C04318F0B9FD002104BDC046F0B5146EF9
:10380000556E576F166FFFF7E5FF146655665767DD
:103810001667F0BD000000D094464A4A926F9208A5
:10382000624601D228E0C046F0B5464E346E756E51
:10383000776F366F00F020F89446424A146655665A
:10384000576716676246F0BD94463E4A926F9208EB
:10385000624601D254E0C046F0B53A4E346E756E01
:10386000776F366F00F04CF89446364A146655660A
:10387000576716676246F0BD002B24DB11D0002984
:103880003EDA00B5C943404200D1013100F038F8BA
:10389000C943404200D10131DB43524200D10133E0
:1038A00000BD002AEBD1002801D1002905D000205D
:1038B000C90FC90701D1C043410800B518F014FD74
:1038C0000022002300BD00B500290ADBDB43524281
:1038D00000D1013300F014F8C943404200D1013156
:1038E00000BDC943404200D10131DB43524200D107
:1038F000013300F005F8DB43524200D1013300BD33
:10390000002923D1002B18D1002A0CD0BC460D4F22
:1039100038667A6600210023FFE7FFE7FFE77A6F4A
:10392000386F67467047002801D00748010000B58E
:1039300018F0DAFC0022002300BD02000B0000207A
:1039400000217047000000D0FFFFFFFF002B00D0D8
:10395000BFE0130C28D1002AE7D080B4114F39669C
:103960007A66FFE7FFE730B4040C7B6F396F1B0406
:1039700023433B667A66FFE7FFE7FFE7C04684B272
:103980007B6F3D6F1B0423433B667A66FFE7FFE7CF
:10399000C04600232C042D0C7A6F386F0019694142
:1039A000B0BC7047000000D0F0B594460025140E5E
:1039B00001D112020835140F01D112010435940F00
:1039C00001D192000235D40F01D152000135D40B40
:1039D0000134254F7C66254C3C660E0C93B2FFE704
:1039E000FFE7FFE73C6F6643360C7703BE46734341
:1039F000DF0B5B04C01AB941130C7343DB18C91AFF
:103A0000CE086643360CB64493B273431F0F1B01B6
:103A1000C01AB941130C73431F0B1B05C01AB941DF
:103A2000860D8F023E436643360C092D24DB520A75
:103A30007243801A7703460A6643360C16235B1BD3
:103A4000DE40DF40BF1964466643821B7046043582
:103A500006330100D940A840C01900D30131A24269
:103A600006D20023F0BD0000000000D0FFFFFFFFE2
:103A7000121B0130F3D3F1E709277F1BFE40644698
:103A8000A2B27243801A00D20139220C7243130C85
:103A90001204821A99410B00704604351337010055
:103AA000F940A840801900D30131002B02D1A24275
:103AB0000AD2F0BD013000D30131121BFAD2013B12
:103AC000F8D1A24200D2F0BD013000D30131121B67
:103AD000F7E7F0B51C0C00D080E00CB400251C0A00
:103AE00004D11B02160E3343120208351C0B04D1FD
:103AF0001B01160F3343120104359C0B04D19B00AC
:103B0000960F334392000235DC0B02D192185B41D1
:103B100001351C00971864410134464F7C66464CC1
:103B20003C660E0CFFE7FFE7FFE7C0463C6F6643CD
:103B3000360C7703BE4697B27743C01B00D20139DB
:103B4000C01B00D201399FB27743C91BC91B170C98
:103B500077437E04FF0B801BB941CE086643360CC9
:103B60000C2D33DBB644120B1F053A431B0B97B2E7
:103B70007743C01B00D201399FB27743C91B170C92
:103B800077433E043F0C801BB941860D8F023E43B4
:103B9000664329277F1BFE400C3D7746AF40BF1987
:103BA00030BCA2B2ABB272437343801A9941220C6B
:103BB0007243130C1204801A994102000B00013762
:103BC000001BA941F9D2781E0021F0BD0C277F1BF4
:103BD000FE4077467F0BAF40FF19E0E700245D1CF5
:103BE00007D0144F7D663966FFE7FFE7FFE7FFE781
:103BF0003C6F95B29EB265436643401BB141150CC4
:103C00001E0C6543664336042F0C3E432D04401BB7
:103C1000B141994204D202000B0020000021F0BD06
:103C200001D19042F7D3801A994101349942F2D3DD
:103C3000F6E70000000000D0FFFFFFFF48404140D2
:103C4000484018B41B4B5B68FC46019308BD04DF79
:103C5000EB3F001018B4174B1B68FC46019308BDDE
:103C600000DFF53F00109446134A926F920809D284
:103C7000624618B40F4BDB68FC46019308BD0CDFAD
:103C8000AD4200100C4AF0B5146E556E576F166FAA
:103C90006246FFF7EEFF084A1466556657671667D7
:103CA000F0BD18B4034B9B68FC46019308BD08DFC8
:103CB00051410010C8270020000000D0FFB550403F
:103CC0004240504059404B40594000E0FFB5154F2D
:103CD0004C00640D03D0BC4204D10C0314D8002066
:103CE000090D09055C00640D03D0BC4204D11C031E
:103CF0000AD800221B0D1B0501264B4009D44B405E
:103D000003D58B4200D18242FFBD9942FCD1904243
:103D1000FFBD0B43DB1803431343F5D0C9434918D8
:103D2000FFBD0000FF07000000B5FFF7CFFF01D087
:103D3000002000BD012000BD00B5FFF7C7FF804196
:103D400000BDC04600B5FFF7C1FF01D9002000BD8E
:103D5000012000BD00B5FFF7B1FF01D9002000BD73
:103D6000012000BD00B5FFF7A9FF804100BD012083
:103D700040054A00121804D85A00121801D8002031
:103D800070470120704700000021002805D17047CE
:103D9000C1174840401AFAD0C90713B5064B1B6833
:103DA00098470CBC441CA2401005120B0349091B88
:103DB00009051943114310BD446300201F0400008E
:103DC00010B54C00620D8023D218DB00D21A5B05BF
:103DD0007E2A10DD9E3A13DACC17090349081943ED
:103DE0005242D140640001341532202A05DAD04015
:103DF0000843604310BD002010BD0846604310BD5D
:103E0000C80FC018013810BD18B4044B5B6AFC46DB
:103E1000019308BD24DF5D4400100000C827002086
:103E2000C94211D300B549004908002200F018F832
:103E3000002904D4002240428A41114600BD80215D
:103E40000906002000BD000018B4044BDB6EFC46E0
:103E5000019308BD6CDF6B4400100000C8270020F0
:103E600018B4044B9B6FFC46019308BD78DF874470
:103E700000100000C8270020132370B51D78012D05
:103E800019D014DD1F48FFF749FB06001E48FFF755
:103E900045FB1E4C80223100200000F013FD022D56
:103EA0002DD01B48FFF732FB1A4B186070BD1A4B20
:103EB000164CA364F5E7184B144C23606360A360B1
:103EC000E36023616361A361E36123626362A362D0
:103ED000E36223636363A363E36323646364A364B0
:103EE000E36423656365A365E36523666366A36690
:103EF000E36623676367A367E367A364D1E7064BC1
:103F0000A364CEE75344000053460000C8270020B6
:103F10004C33000044630020B93F0010244A4B009A
:103F200094465B0D6344F0B504000D005A1C21DB80
:103F30005A1C35D0342B1CDA3326F61A3700203FB2
:103F40001CD40121B9400B000121B1400A00121913
:103F50006B41002F1EDB0224BC4021000224B44030
:103F600020001600002544428D4126402B403000A1
:103F70001900F0BDCB0F0020D907FAE7202101205E
:103F8000891BC8400121B14003000A0012196B418E
:103F9000002FE0DA20240225A41BE5402900DDE7FC
:103FA000CB0F044ADB071A4300201100E1E7C046AB
:103FB00001FCFFFF0000F03F07B5604601880A0AD8
:103FC0000230DF2AFAD1C9B2820804D302884088BD
:103FD0000004104300E00068014A5050039007BD00
:103FE000C82700200FB403BC0CBCF0B50124E407C3
:103FF000634000E0F0B50C0DCF0F661E3605891B3F
:10400000640503D3C943404200D30131640D03D09A
:10401000661CF60A07D0E41B00207F00791C890784
:104020008912803C24031D0DDF0F6E1E36059B1B7D
:104030006D0503D3DB43524200D301336D0D03D032
:104040006E1CF60A07D0ED1B00227F007B1C9B072D
:104050009B12803D2D032F1B661B58D4A446202E97
:1040600046DA20371400BC401D00BD40F240334109
:104070002A4380185941CB0F05D0C943C0430022C1
:1040800064425041514162464D0D28D10D0D07D17A
:1040900000281FD0241940414941013A0D0DF9D0A3
:1040A000640006D3013000D30131002C01D1400857
:1040B0004000013A0BD4941CE40A04D112051144C7
:1040C000DB071944F0BDD907204B194300E0D9079D
:1040D0000020F0BD0029DDD1002CDBD1F0BD013284
:1040E000C6074008CD0728434908002EE1D0D9E78C
:1040F0003C2E29DA203E40371400BC4000D0012479
:10410000F24014431A00BB401C43D317ACE7AC4643
:10411000202F08DA20360400B4400D00B540F840E6
:1041200039412843A5E73C2F0CDA203F40360400F4
:10413000B44000D00124F84004430800B1400C43CF
:10414000C117EAE710001900002494E70000F07F8F
:10415000F0B50C0D661E3605891BE60A6405640D74
:1041600002D0651CED0A04D0002001210905803C25
:104170002403A4461C0D671E3F05DB1BE70A6405EC
:10418000640D02D0651CED0A04D0002201231B053A
:10419000803C24037740644497B484B296B274435D
:1041A000070C7E43150C6F4380B26843361802D368
:1041B000012000043F183004350C00197D4184466D
:1041C00088B29AB250430C0C62431F0C7C438EB2EF
:1041D0007E43921902D301263604A4191604170C43
:1041E0003618674101BC81B29AB25143040C624354
:1041F0001B0C5C4380B25843121802D30120000408
:1042000024181004130C401863412D185E4100203F
:10421000474106BC88B293B258430C0C6343120C5E
:10422000544389B251435B1802D301210904641835
:1042300019041A0C091862416D18564100204741B3
:1042400018BCF902720D1143F0026A0D1043ED0221
:104250000A0D03D16D1940414941013B124E9B1B90
:104260007600B3420ED26D0007D3013000267141B3
:104270006646354301D1400840001B05C918E407D4
:104280002144F0BD0BDA013306D1013004D10131F4
:104290004F0D01D04908F2E7E1070020F0BD0136DB
:1042A00031050020EBE70000FF030000F0B51C0D16
:1042B000671E3F05DB1BE70A6405640D02D0661C20
:1042C000F60A04D0002201231B05803C2403D025DC
:1042D0002D060026F6432E661E096E66CE0FF619D1
:1042E000B44649004F0D02D07E1CF60A03D00020D0
:1042F0000021403F3F033E1BB600B444013F7F0511
:10430000C91B49082E6F013676089C02950D25437E
:104310007543ED137543AD1301356D10F603761B30
:104320000CB4CC02450D2C43A2B2B3B25A43270CB5
:104330007B43350C6F43A4B26C431B1902D3012499
:1043400024043F191C041D0CA4187D4124196D413F
:10435000009A91B2ACB26143170C7C432B0C5F43C3
:1043600092B25A43A41802D301221204BF182204A5
:10437000230C52187B41019C6C431B19520ED9012E
:104380000A434401A01A81B2B2B2514303145A4302
:10439000360C734387B27743D617D21900277E4174
:1043A00036049B191704160C7F185E417316ED181E
:1043B000F301002680337541A90F06D16400690A14
:1043C000E8055B0A184309D22FE0042294448033A5
:1043D0007541A90AA8059B0A184326D340414941C3
:1043E0002404009A019B0D005543641B4343E41AC7
:1043F00095B286B27543170C7E43030C5F4392B2AD
:104400005A43B61802D301221204BF183204330CE7
:1044100052197B4152429C41002C02D400220130AF
:1044200051414008CA071043490802B06246D70705
:104430009210084BD218084B9A4203D212058918E1
:10444000C919F0BD0020002A01DC3900F0BD01339C
:104450001905F5E7FD030000FE070000002200B586
:10446000203200F010F8080000BD002200B500F076
:104470000CF8CA179A4200D100BDD8430121C907E0
:10448000414000BD00220B150AD410B5944600F03F
:1044900031F81414013400DA0021CB17144C2047F2
:1044A0000020002170476244343A0CD40C2A07DA09
:1044B00004009140904052422032D440214310BD2C
:1044C000D843D94310BD203207D40C469440524201
:1044D00020321141D040204310BD0800C9172032BE
:1044E00003D452422032104110BD1800190010BDF3
:1044F000A74400100A0DCC0F531E1B05C91A520504
:1045000003D3C943404200D30131520D03D0531CA1
:10451000DB0A07D0121B00206400611C8907891286
:10452000803A1203014BD21A70470000FF030000CB
:1045300051434343C9188C46110C83B24B4310B40A
:10454000040C614392B280B2504362431C041B0CC2
:10455000001910BC59411304120CC0185141614498
:10456000704700004840414048400E4B5B68184788
:104570000C4B1B6818470C4A936F9B0802D2094BDF
:10458000DB681847F0B5146E556E576F166FFFF75E
:10459000F6FF054A1466556657671667F0BD014B6E
:1045A0009B681847C8280020000000D007B5484085
:1045B0004140484001E0C04607B54200120E03D01A
:1045C000FF2A03D1420218D8C00DC0054A00120EBE
:1045D00003D0FF2A03D14A020FD8C90DC905012211
:1045E000414005D4414001D5814207BD884207BD05
:1045F0000143491801D0C043001807BD00B5FFF7BB
:10460000DBFF01D0002000BD012000BD00B5FFF799
:10461000D3FF804100BDC04600B5FFF7C7FF01D9F9
:10462000002000BD012000BD00B5FFF7BFFF8041A5
:1046300000BD0000C10FC90700D54042002817D0B7
:10464000F44603B40B4B1B68984706BC81409E3868
:104650004042803107D20B0607D04900490AC00505
:104660001043084360470130F8E7490A8902F5E73B
:10467000704700004463002041000A0E80231B069F
:104680007E2A0BDD9E3A0BDAC11740024008184320
:104690005242D040490001314843704700207047E2
:1046A000C00FC01801387047C0420DD300B540009C
:1046B0004008002100F012F8002801D4404200BD5B
:1046C0008020000600BD0000034BDB69FC46184754
:1046D0001CDFC54700100000C8280020014B5B6AA2
:1046E00018470000C8280020034BDB6FFC46184722
:1046F0007CDFDD4700100000C8280020132310B520
:1047000012481C78FEF70AFF0100012C0AD003DDD5
:1047100080220F4800F0D6F80E48FEF7F7FE0E4B49
:10472000186010BD0A4C5422200000F0CBF80B4B4F
:104730006365A365E36523666366A366E366236733
:104740006367A367E3672362E361E5E7534600001D
:10475000C82800204C330000446300209947001013
:1047600043001B0E7F3B5A1C0DDB5A1C0ED0172B2F
:1047700008DA1622D21A0123934018180223934014
:104780005B4218407047C00FC007FBE7C00FC3076C
:10479000FE2080051843F5E707B5604601880A0A40
:1047A0000230DF2AFAD1C9B2820804D302884088D5
:1047B0000004104300E00068014A5050039007BD18
:1047C000C82800200021C2158032803201D0024A60
:1047D0001047002070470000CD2A0000C30FDB0700
:1047E00041000A0E07D0FF2A08D00909054A891896
:1047F0001943400770471900002070470249C91843
:10480000FAE70000000000380000F07F70B50400F7
:104810000A4E300017F028FE200011F08DFB050035
:10482000300017F059FD002D05D0054B2C199C4286
:1048300001D8280070BD0348FDF720FE2C2600207B
:104840000000042088CB011070B505000C000B4E51
:10485000300017F009FE2800210011F077FE050056
:10486000300017F039FD002D05D0054B2C199C4266
:1048700001D8280070BD0348FDF700FE2C2600205B
:104880000000042088CB011070B50400054D2800FD
:1048900017F0EAFD200011F059FB280017F01CFD6D
:1048A00070BDC0462C26002001480421014B18474A
:1048B000001F00202D350010014B1B681847000019
:1048C000001F0020014B5B6818470000001F0020FC
:1048D00010B5FFF79BFF10BD10B5FFF7D5FF10BD5A
:1048E00010B5FFF7D1FF10BD9A4200D2885470472F
:1048F0007047C046F8B55746DE464E464546E0B5D9
:1049000099460A9B07009A460D9B884693460B9C46
:104910009B073BD10C9B9C423DD21E1B0B94150068
:104920000C005E442A004B46013521002020B84788
:10493000B542F7D1A0460B9C002C20D04546361935
:104940005346321B013C185D29004B46B847002CEA
:10495000F6D12B00350098460D9B9B070FD55B4683
:10496000EC1A0C9BA3420AD9464698462A004B46AD
:10497000310020200134B84701354445F6D32800E2
:10498000F0BCBB46B246A946A046F8BD16001500CD
:10499000002CD3D1E0E716001500002CCED1EEE7B5
:1049A000F0B54546DE4657464E46E0B585B09C46D6
:1049B00010AB1B78149F934698460F9C129E139D34
:1049C000BB074CD4002D42D1B44248D201233B4016
:1049D00099460E9B013B9A46302304E0524601342F
:1049E0001355A64201D9202CF8D14B46002B00D1FB
:1049F00083E00E9B013B99463023A54205D82EE06B
:104A00004A4601341355AC4229D0202CF8D1FB067C
:104A10000CD57B0554D4A64263D0A54261D0119B2E
:104A2000102B50D0022B57D0202C32D120230193B1
:104A30000E9B5A460093039763460295FFF75AFF71
:104A400005B0F0BCBB46B246A946A046F0BD012366
:104A50003B40994601233B422AD1B442B9D3FB06DD
:104A60001CD57B05DBD4002CD5D1119B102B5BD042
:104A7000119B022B6BD0302301240E9A13704346F6
:104A8000002B10D17B073ED52B260E9A631C1655A2
:104A9000CDE72300013430260E9AD654202CC5D001
:104AA0004346002BEED02D260E9A631C1655BEE70A
:104AB0004346002B2FD0013DB44200D289E798E74E
:104AC000119B102BB2D1BB0637D5202CAED058236A
:104AD0000E9A13550134A7E7202CA7D023000134E8
:104AE00007E0631E012CC0D0119A102A31D0022A8F
:104AF000D1D162260E9AD65496E7FB06CED57B0519
:104B000000D488E78BE723003E0790D520260E9A35
:104B1000013316558BE70C233B405A1E9341ED1A87
:104B2000B44200D255E764E7BB060ED478230E9A50
:104B30000224137030235370A1E7202C00D175E7B5
:104B400078230E9A135501346EE75823EFE760334C
:104B5000EDE70E9AA61E91464E44BA0602D558229B
:104B6000327098E77822327095E7C04610B5002879
:104B700000D110BD01F01CFDFBE7C046F0B5574663
:104B8000DE464E464546E0B595B083460F00924658
:104B900098461E9A1F9B10001900209EFFF7E7F809
:104BA000002800D0EAE11E981F990122C54B52420D
:104BB000FFF7C2F8002800D014E11E981F990122C7
:104BC000C14B5242FFF7CEF8002800D0E9E01E9812
:104BD0001F990022BD4BFFF7C5F8002800D0C8E0A0
:104BE0001E981F990022BA4BFFF7A6F8002800D0A4
:104BF000BFE01E981F9900220023FFF79DF80028B0
:104C000000D0E4E000230B93229B5B0500D4062632
:104C10000024302307E0172106AA01345218135547
:104C2000013E202C01D0092EF5D81E981F99FFF7C0
:104C3000C7F8A84BF2009B181A685B680500089239
:104C40000993FFF7A5F802000B001E981F99FEF7C5
:104C5000F8FF089A099BFFF724F806900791FFF7E1
:104C6000D3F88146FFF790F802000B0006980799E9
:104C7000FEF7E7FF0022984B06900791FFF772F8C6
:104C8000002800D10DE101239C46E1444846FFF78E
:104C90007BF802000B0008980999FFF753F80028E9
:104CA00002D0002399460135002E00D1D9E00695A7
:104CB0004D46B94614E006AA944617230A216344D8
:104CC000280001341F19FEF781FD303139702800AA
:104CD0000A21013EFEF77AFD092D00D817E10500F3
:104CE000202CE8D14F46069D20240CAE06AA17239F
:104CF0009446634499465B46B34606930FE04B46A1
:104D000028000A210134E618FEF738FD303128006A
:104D100031700A21FEF732FD051E00D1E4E0202C9F
:104D2000EDD1069B5E469B460323229A1340012B3E
:104D300018D1219B002B15D00B9B002B00D1FDE03F
:104D4000219B013B2193202B0CD93023219A07E092
:104D5000172006A9013409180B55944200D3CCE062
:104D6000202CF5D1229B01940393219B0096029362
:104D700022E0229B52460493219B3900039358461C
:104D80001E9B1F9C029600930194434600F04AF933
:104D90000400200015B0F0BCBB46B246A946A046B0
:104DA000F0BD229B5B070FD403224C4B229901924A
:104DB0000391219900930291434652463900584687
:104DC000FFF798FD0400E4E70422454BEEE71E9A46
:104DD0001F9B00200021FEF734FF01231E901F912E
:104DE0000B9311E7229B54469B0711D1219B042B67
:104DF0000ED9219B55469C465E46043C64442A00DD
:104E00004346013539002020B047A542F7D1B346CB
:104E1000344D26002B1F99465B46A3461C003200EA
:104E2000E87843463900013DA04701364D45F6D1AB
:104E300023005C469B46229B04349B07A9D553461E
:104E4000219AE31A9A42A4D95E46150022004346ED
:104E500039002020B04753460134E31A9D42F5D86B
:104E600097E72800FEF794FF02000B001E981F9999
:104E7000FEF7E7FE0022184B06900791FEF75CFF55
:104E80000CAE002800D031E7069807990022124B9B
:104E9000FEF768FF002800D028E7012301359D4375
:104EA00024E70022069807990B4BFEF745FF0028E0
:104EB00000D0F9E64B46002B5CD101239C46E1442F
:104EC000F2E6C046FFFFEFFFFFFFEF7F65CDCD416C
:104ED00065CDCDC198E901100000E03FF0CB011095
:104EE000E8CB0110F8CB0110069B5E469B460323DE
:104EF000229A1340012B00D181E0202C00D131E710
:104F00000B9B002B27D02D23335501342AE74F4626
:104F1000069D202C00D1E7E63022331907E0172048
:104F200006A9013409180A55202C00D1DCE6A34259
:104F3000F5D12E220CAE0134F254D7E60C23229A7E
:104F4000134257D0219B013B2193A34200D9FCE699
:104F5000202C00D106E7229B5B0703D52B2333557A
:104F60000134FFE6229B1B0700D4FBE620233355C8
:104F70000134F7E6DB0700D496E69EE7229B554610
:104F80009B0711D1219B032B0ED9219B54469C4694
:104F90005E46033D6544220043460134390020202B
:104FA000B047AC42F7D1B346B9465F461C4EEC1C45
:104FB0002A00B078434649460135B847013EAC4225
:104FC000F6D1229BBB464F469B0700D4E1E65346F1
:104FD000219AE31A9A4200D8DBE65E4615002200C9
:104FE000434639002020B04753460134E31AAB4210
:104FF000F5D3CEE6219BA34200D9A6E6B2E6219BDB
:10500000002B00D179E70B9B002B97D0219B013B14
:1050100021939C4200D298E6202C00D073E7A1E6B1
:10502000F4CB0110F0B5DE4657464E464546E0B596
:1050300099B081468B4692469846229A239B10004F
:105040001900FEF794FE002800D0CAE022982399A8
:105050000122824B5242FEF785FE002800D0C0E0BC
:105060002298239901227E4B5242FEF765FE0028CA
:1050700000D0B6E02298239900220023FEF75CFEC0
:10508000002800D0C9E1229B239C0893099408982A
:1050900009998023269ADB001A400D928022269CD3
:1050A0001201144022000B94269C07000E001C42A3
:1050B00000D0ADE00B00034300D0D5E0002A00D0C3
:1050C0000AE2220006332493022313400C930223A6
:1050D000134200D002E2259B042B00D20FE2043BD6
:1050E0000B93002304250A9300222298239900237E
:1050F000FEF722FE002800D003E25A4B269A134006
:1051000004930B9B0393249B0293089B099C00939D
:1051100001945946434652464846FFF72FFD020088
:105120002020269B1F27034059424B415B421840D9
:10513000531C0893594643464530C8470A9AD3172B
:10514000D4185C40D30F0A936B1E0B9308AB9C469C
:105150000025674401E0202D0FD020000A21FEF732
:1051600035FB01357E193031317020000A21FEF700
:105170002DFB26000400092EEDD8052306930B9B7A
:1051800059460593002304930A3303930A9B484628
:10519000029310AB0093089A43460195FFF700FC79
:1051A0000C9B002B2DD05346C41A259BA34228D913
:1051B0004D465F4681461E00534639001A1920208D
:1051C00043460134A847A642F6D853464846259997
:1051D000C21A01320023914200D386E1013018182F
:1051E0000FE0269B0493259B0393249B0293229B11
:1051F000239C009301944346524659464846FFF784
:10520000BDFC19B0F0BCBB46B246A946A046F0BDF5
:1052100001432BD10B9B2200002B00D154E700232C
:105220000A93249B0A9A0024934200DD85E1229888
:10523000239900220023FEF77FFD002800D035E1EE
:10524000269B084A02941A408023DB0013430493F0
:10525000259B0393089B099CCBE7C046FFFFEF7F8C
:10526000FFFFEFFFFFF7FFFF06232493B44B70000F
:105270009C46400D6044FEF78BFDB24AB24BFEF7F0
:1052800010FDB24AB24BFEF7E5FC3603B14B360BCC
:10529000334304000D00380019000022AE4BFEF726
:1052A000D0FCAE4AAE4BFEF7FCFC02000B00200027
:1052B0002900FEF7CFFCFEF783FD0A90FEF768FD9C
:1052C000A84AA94B04000D00FEF7EBFC0022A74BF7
:1052D000FEF7C0FCFEF774FDA54A0600A54B2000B2
:1052E0002900FEF7DEFC040030000D000C96FEF7EE
:1052F0004FFDA14AA14BFEF7D4FC02000B00200099
:105300002900FEF79EFC02000B0006000F00FEF7CE
:10531000C8FC320004000D003B0030003900FEF7ED
:1053200099FC00220E900F91954B20002900FEF76A
:105330009AFC0022934BFEF78DFC02000B0020002C
:105340002900FEF790FC00228F4BFEF783FC020041
:105350000B0020002900FEF786FC0D0080210400D0
:1053600032003B000020C905FEF76BFC02000B0079
:1053700020002900FEF76EFC02000B000E980F992A
:10538000FEF771FC0022734BFEF764FC7F4B0C9C14
:105390009C46644400222305FEF783FC06000F00B0
:1053A00002000B0008980999FEF7C6FC00280AD0F5
:1053B0000A9B3000013B39000A930022714BFEF733
:1053C00052FC06000F000A9A330063323900C62AE5
:1053D00012D802222698042510400B9A0C90002A1D
:1053E00025D1259B042B05D9002800D0A1E0259BC1
:1053F000043B0B93042541E00222269810400B9AAF
:105400000C90002A12D1259B052B76D9002872D149
:10541000259B0525053B0B9334E08022120694461C
:10542000229B0893239B6344099330E605250B4395
:1054300000D1F6E608980999554A564BFEF78AFCC2
:10544000002808D0089809990022534BFEF774FCF5
:10545000002800D0E5E6249B002B1CD00D9B002BE0
:1054600019D0249B013B2493259BAB4204D90C9B70
:10547000002B5AD002230C9300230B930A9B002B82
:1054800000D131E60898099932003B00FEF7EBFBAA
:105490000890099128E6259BAB42EDD90C9B002B87
:1054A00043D000230B9302330C93E7E78020269B25
:1054B0003A4A00061A40802384460294089C099DBB
:1054C0002900DB0013430493259B614422000393CE
:1054D0000B00009201938EE60524A8E600230B93AF
:1054E0000A93023304250C93FEE553468C46013B98
:1054F00063441B1A72E602230C930525C2E70423BA
:10550000EDE58020089E099F000639008446269A12
:10551000224B6144134004930B9B32000393249B62
:1055200002930B0000920193F3E5259B5B1B0B9309
:10553000A4E7022304250C93A0E79C1A013C76E61D
:1055400001FCFFFFFB799F501344D33FB3C8608B2E
:10555000288AC63F0000F03F0000F83F61436F63B8
:10556000A787D23F71A379094F930A400000E03F1B
:105570001655B5BBB16B0240EF39FAFE422EE63F3D
:1055800000002C400000244000001840FF030000F1
:105590002D431CEBE2361A3F80842E41FFF7FFFFBC
:1055A000F0B5DE4657464E464546E0B5A5B01E006E
:1055B0002E9B92460C93CD4ACD4B80468B461A606B
:1055C000002900D1EAE1002330789946002800D173
:1055D000ECE1C84B4C460B93C74B454657460E93E0
:1055E0000AE0631C984622003B005946A8474446FF
:1055F0003078002800D187E001362528F1D1082332
:105600009A46043B9946023B9846013B00229C4641
:105610000D943078711C0300203BDBB2102B03D8B3
:105620000B9C9B00E3589F460300303B89460D9C32
:10563000092B3AD9002398462A2800D1C1E000233B
:105640009A462E284BD00300683BDBB2122B1ED8A3
:105650000E999B00CB589F4663460E001A43D8E72D
:1056600043460E001A43D4E74B460E001A43D0E7D8
:1056700010230E001A43CCE753460E001A43C8E726
:1056800080235B001A43FF3B9C467078E1444E4602
:1056900067284FD82428A4D90300253BDBB2422B2E
:1056A0009FD896499B00CB589F46002394461E00E6
:1056B00000E00131B3009B195B001E180878303EF2
:1056C0000300303B092BF4D90123624689469C46EE
:1056D0000023B0469A460E00E1442E28B3D1302173
:1056E000802049428C46C000024370784B46844477
:1056F0006146092900D86CE12A2800D17AE101230A
:105700009C464E46E1449EE7A146A846BA46CA4595
:1057100003D801235B425344994653464A465946AF
:105720000020C047200025B0F0BCBB46B246A946C9
:10573000A046F0BD0300693BDBB20D930F2B00D9EF
:105740004FE7012199408C466D49894661464B4699
:1057500019400F91634649460B4200D028E10D9B4A
:105760000A2B3AD0072B00D03BE70C9B190008C945
:105770008846002B00D14BE121200243914614A919
:105780008C461F220F2162448C4651460D950C9188
:10579000A24615000F9902E020290CD013006446A0
:1057A0001C4020003730092C00D8073801316854DC
:1057B0001A090F2BF0D80C9B54460D9D9A460F9159
:1057C00033E10C9B02CB8846002947DB0C93012375
:1057D0009C4670784E46E14431E70C9B02CB149313
:1057E0005346002B00D138E19C4608780B000C9002
:1057F0008C44002801D100F098FC8946614694460B
:1058000003E05A780133002A01D08B42F9D149468E
:1058100062465B1A0C900F93530500D520E10223DA
:10582000180010400D90134200D1CBE30D930B1BD9
:10583000B1469A465E460C9822003B003100A847CC
:1058400053460134185D0028F6D1B3464E460D9BF1
:10585000002B00D0C7E1149B0C93C9E60C930123E5
:105860009C46283849420243884670784E46E144B7
:10587000E5E670786C2800D17FE180235B001A4355
:10588000FF3B9C46E14402E780239B001A4301232F
:105890009C467078E144FAE67078682800D173E19C
:1058A00080231A437F3B9C46E144F0E6672800D101
:1058B00003E1472800D15AE1452800D15AE104927A
:1058C000072142460C9B0392073352468B43190033
:1058D00002920CC92800009201930C9122003B0017
:1058E0005946FFF79FFB040082E6C046A155001011
:1058F00000630020FCE7011040E801108CE8011073
:1059000041900000462800D1DBE004920721424686
:105910000C9B0392073352468B43190002920CC929
:105920002800009201930C9122003B005946FFF79A
:1059300025F904005CE6631C984622003B005946AA
:105940002520A847444653E60C9B04330D93631C63
:105950009946920700D422E10C9B22001878594600
:105960003B00A84743464444012B00D885E233005E
:10597000B8462E005F4625004C4699462200434615
:10598000013439002020B047AC42F7D12C00BB468F
:10599000350047464E460D9B0C9329E6DB4B30788D
:1059A000984600239946002800D012E60024AEE66F
:1059B0006F2800D188E000D80BE31023782800D1AD
:1059C000CFE09A430A239C4600230F930A330D939A
:1059D00080E05646B1008919490001330E18187845
:1059E000303E010030390929F4D9B2461E00013396
:1059F000994628E60C9B023602CB8A46C94350469C
:105A0000C917084082460C933078731C99461AE6F1
:105A1000102310009843113318438146802013004F
:105A2000C0000340024200D1A9E64B46069308237A
:105A300005935346049310230393002302930F9B73
:105A4000220001931CAB009359463B002800FEF74F
:105A5000A7FF434604000C93CAE501235B42C3E65B
:105A60000F9B534501D953460F9302231800104052
:105A70000D90134200D1B7E10D93D1460B1B9A460E
:105A80003300A1442E0022004D460C98B9465F46D3
:105A90009B4608E04B463900541CB0475346185DFE
:105AA000002877D022009542F4D15B46BB464F4692
:105AB000A94635004C461E00C9E680231B011A4347
:105AC000FDE620231A4320E708239C4600230F937A
:105AD00008330D9380231100DB0019401A4200D1D6
