:020000041000EA
:1000000000B5324B212058609868022188439860DF
:10001000D860186158612E4B002199600221596106
:100020000121F02299502B49196001219960352056
:1000300000F044F80222904214D00621196600F024
:1000400034F8196E01211966002018661A6600F04E
:100050002CF8196E196E196E052000F02FF8012189
:100060000842F9D1002199601B49196000215960AB
:100070001A491B48016001219960EB211966A021F2
:10008000196600F012F800219960164914480160C1
:100090000121996001BC002800D000471248134993
:1000A000086003C880F30888084703B5996A0420EC
:1000B0000142FBD001200142F8D103BD02B5186610
:1000C0001866FFF7F2FF186E186E02BD00000240BE
:1000D000000000180000070000035F00212200005C
:1000E000F4000018222000A00001001008ED00E03C
:1000F00000000000000000000000000074B24E7A12
:1001000000200420F7010010C3010010C5010010F9
:10011000C1010010C1010010C1010010C101001097
:10012000C1010010C1010010C1010010C701001081
:10013000C1010010C1010010C9010010CB01001065
:10014000CD010010CD010010CD010010CD01001037
:10015000CD010010CD010010CD010010CD01001027
:10016000CD010010CD010010CD010010CD01001017
:10017000CD010010CD010010CD010010CD01001007
:10018000CD010010CD010010CD010010CD010010F7
:10019000CD010010CD010010CD010010CD010010E7
:1001A000CD010010CD010010CD010010CD010010D7
:1001B000CD010010CD010010CD010010CD010010C7
:1001C00000BE00BE00BE00BE00BE00BEEFF3058054
:1001D000103800BEF2EB88718CB60010ACB600107F
:1001E0003802001090A31AE71E481F49086006C88D
:1001F00081F3088810471D480068002801D019487D
:10020000F3E70DA40ECC002902D000F012F8F9E7B4
:100210001749184A002000E001C19142FCD116495B
:100220008847164988471649884700BEFDE701C937
:1002300001C29A42FBD37047ACB60010C000002048
:100240007817002064CD0010000004200000042076
:1002500064CD0010001004200010042000000000F5
:10026000704700000000000008ED00E0000000D032
:1002700078170020102B0020CD240010C1020010A0
:100280008D240010F8B5C046044B10B5002B03D0E8
:100290000349044800E000BF10BDC0460000000054
:1002A000AC2A0020F8AB00104A435A4310B5002A8C
:1002B00003DD0021029802F04BF8002010BDC0467B
:1002C000F0B5DE4657464E464546E0B52B4CA544B4
:1002D00004F094FE2A4B2B4D03932B4B2B4C029393
:1002E0002B4B2C4F9B462C4B2C4E9A462C4B984616
:1002F0002C4B04932C4B0593002399464B460398B3
:100300002B60236004F068FE4B463B703370029B09
:100310006022079308AB00936021012307A8FFF731
:10032000C3FF002816D10122337829683A70002BC8
:100330001DD10022013123684046D2182260521894
:10034000296004F049FE2368002B12D1049804F0C0
:1003500043FED3E70023212259460090504604F083
:100360003BFE01230122296833703B70E3E7012241
:10037000E1E7059804F030FEC0E7C046DCDBFFFF94
:10038000F8AB0010041B002058B20010001B002026
:1003900014AC0010062B002078AC0010052B0020B8
:1003A000ACAC0010C0AC0010D8AC00108023DB0552
:1003B0001868000F7047C0460FB400B5084883B0F6
:1003C00002F020FA049B002B07D005A91800019128
:1003D00001F0F2FF034802F015FA012002F004F8E0
:1003E000F4AC001004AD001070B5EFF3108C72B6D1
:1003F0000D4D2B68002BFCD0BFF35F8F0724CB087B
:10040000C618C05C01230C40A3401C0004400342FA
:1004100007D118433070BFF35F8F2C608CF31088C6
:1004200070BD1000FFF7C8FF2C0100D0F8B547469B
:10043000CE46884680B5EFF3108C72B61C4D2C6802
:10044000002CFCD0BFF35F8F9A4222D807210126EF
:10045000894602E00132934218D34D4637001540D9
:10046000AF40D4080119045D2742F3D110003C438A
:100470000C70BFF35F8F00220D4B1A608CF3108855
:1004800000280EDBC0BCB946B046F8BD0120404292
:10049000EFE7BFF35F8F00232B608CF31088012000
:1004A00040424346002BEDD00898FFF785FFC04639
:1004B0002C0100D0044A1078431CDBB2172B00D962
:1004C000102313707047C046D80F002010B5064B9C
:1004D000064C82B00100009318221F232000FFF772
:1004E000A5FF02B010BDC04608AD001034260020A4
:1004F0000021044B044ABFF35F8F02C39342FAD139
:100500007047C046000100D0800100D0054B064A6C
:100510001360064A136053609360D36013615361A4
:10052000936170478080808000E400E004E400E094
:100530001F2318401E3B8340002905D0C021044AD8
:100540004900535013607047802201498B50FAE7ED
:1005500000E100E001228240034B1B6813405A1E59
:100560009341D8B27047C04600E100E001238340C8
:10057000014A13607047C04600E200E0084B1030AB
:100580009B688000C358002B07D0064A00209B1AA6
:100590002F229A424041C0B270470020FCE7C0467B
:1005A00000ED00E0DC0F002070B50D00EFF31086C9
:1005B00072B60F4A1368002BFCD0BFF35F8F0D4B50
:1005C00010309B6884001B590B4A934203D09D4214
:1005D00001D000F093FF074B9B681D51BFF35F8F65
:1005E000BFF35F8F0022024B1A6086F3108870BD44
:1005F000240100D000ED00E0CD010010F0B5574619
:100600004E46DE464546E0B585B00600009117002F
:10061000EFF3108B72B66A4A1368002BFCD0BFF35D
:100620005F8F0025674B5D579A46002D00DAA9E0E1
:100630006B00654C01935B199B009846A146C14431
:100640004B4652469B7910361370604BB6009B6840
:1006500099590B1B2F2B33D95D4B994200D0ACE03D
:10066000019B42469C465B4B6544AD0063535A4B2D
:100670000232A218043B9B1A1B05584A5B0D6519F0
:1006800013436B80564B0121AB80FF23AB71009B62
:10069000EF71AB604B460B4319004C4B9B68995173
:1006A000BFF35F8FBFF35F8F0022454B1A608BF360
:1006B000108805B0F0BCBB46B246A946A046F0BDC6
:1006C00001200A008243D3798C46BB4231D845468B
:1006D000130044491B1B5B415943090D3D4B6353B8
:1006E0003D4B02356519043B5B1B1B053B4D5B0D08
:1006F0002B43AA464D466B800425AC465546E04444
:10070000131F44441B1B1B055B0D1D434B46997176
:1007100000999D8099604946DF71334B0143136016
:10072000BBE75800C01880002018C179B9422FD902
:1007300002000623D356002BF3DA02932B4B6146BB
:100740000393131D9A4604235B429C46E1445046A2
:100750004B461B1A1B055B0D9C46204B957198461A
:100760006346404603439380019B5A199200039BC2
:10077000A418A380029B1C4AA371009B2260E7710E
:10078000A3608AE700F0BAFE002553465D574FE7A5
:10079000908802934005131D9A46031561469C46B6
:1007A0004046D444634604302018181AE02300055C
:1007B000400D1B0218430390C5E700F09FFE4FE772
:1007C000240100D00B2B0020DC0F002000ED00E006
:1007D000CD01001000A1FFFF0C10002000E0FFFF82
:1007E00001BDFFFFAAAA00000148804701BD00002B
:1007F00070B501240443EFF30581EFF3108C72B65A
:10080000214A1368002BFCD0BFF35F8F1F4B0500FC
:100810001F4AED1A6D416A43120D1E4D8900AE68E4
:1008200052B27658A6421CD00621595691421CD08D
:1008300012215956914222D01E215956914220D060
:100840002A2159560324914210D0134B19781A705B
:100850008171BFF35F8F00220B4B1A608CF31088FD
:1008600070BDAB680D4C5C50EFE7002461000919C6
:1008700089005B18FF21997109499980E5E70124F6
:10088000F4E70224F2E7C046240100D0DC0F002088
:10089000AAAA000000ED00E00B2B0020CD01001003
:1008A00001BDFFFF10B5084B084C82B0010000935A
:1008B000002205232000FFF7B9FD002801DB1F23DC
:1008C000181A02B010BDC04624AD00100F2B002036
:1008D000024B9C466144890001607047400000342F
:1008E00070B5114C114DAC420FD2FF262368002B7E
:1008F0000CD0FFF7DFFD01002000FFF7E9FFA68025
:10090000BFF35F8F0834AC42F0D370BDFFF7D2FD68
:1009100001002000FFF7DCFF2671BFF35F8F083472
:10092000AC42E3D3F1E7C0466817002078170020F7
:1009300010B50400FFF7BEFD01002000FFF7C8FF5F
:10094000FF232371BFF35F8F10BDC04610B50400B5
:100950000120FFF7BBFD034BC3189B002360BFF3CF
:100960005F8F10BD40000034034B9C4661448900FA
:100970000160BFF35F8F7047400000340A4B196875
:10098000EFF3108072B60A68002AFCD0BFF35F8FC5
:100990001B68BFF35F8F00221A6080F3108840BF8E
:1009A000002000217047C046E82A0020F0B5DE464E
:1009B00057464E464546E0B587B0EFF30582032320
:1009C000012513409D409900B34AB44B54581D6013
:1009D000B34B8846A946049329E0A3881BB2002B99
:1009E00000DBA5E0A379002B00D0E6E00823E05E61
:1009F000002800DA0FE1430062691B18DB00D318FE
:100A00009E68DD68731C00D111E1A64B19004144BA
:100A10009A6A0B69B01A9B1A984200D20E61A148DB
:100A200000F030FB8D4200DDF5E000D12BE14B46BC
:100A30009C4843630823E55E002DCEDB62696B00B2
:100A400092465B19DB009A4453469E68DF6800F0CB
:100A500019FB8F42C1DC00D10BE1002F00DAF0E07E
:100A60005246534652691B699346049A934200D1F9
:100A7000E1E052460821605E528800045946104366
:100A80009847029003910299039A0B0010001343B8
:100A900000D1D6E013000A00B61A9F41002806DBF9
:100AA000804800F0EFFA029E039F36184F415346EC
:100AB0009E60DF6000229A5E002A8EDB5300991848
:100AC0006069C900411801938B68C9689B46B942A7
:100AD00000DD82E702D1B34200D97EE708239C46BD
:100AE000A444059565462281A446019B2C0006E09E
:100AF00053009918C90041188D68C968AB469B1806
:100B0000DB00C318B94206DC00D1C0E01C000023A2
:100B1000E25E002AECDA230064469C4653461A80C3
:100B20006346059D1D80A3881BB2002B00DA59E7A0
:100B30002269EFF3108172B61368002BFCD0BFF36B
:100B40005F8F0123A7885B42A3803FB22369BFF375
:100B50005F8F00221A6081F31088002F00DA41E7CE
:100B60002300083322009A4666697B00DB19DB000C
:100B7000F318996850468C460824115FDD680029F7
:100B800010DB019306E0AB424DD00023E15E200074
:100B9000002906DB4C006418E4003419E368AB421A
:100BA000F1DD019B078000201F5E1980002FDCDA39
:100BB0001400A379002B00D118E70023A3712600AD
:100BC0000823E15E08364B1C25D00800A246656963
:100BD00002E03E004B1C1AD04B005B18DB00EF1804
:100BE0000A008C46E95E7B881BB2002BF1DA0123F8
:100BF0005B42DC17BB60FC60824205D0534631800B
:100C00001B893B8053461A8160464B1CE4D15446F5
:100C1000002800DBEFE640BF07B0F0BCBB46B246A1
:100C2000A946A046F0BDA3686345AED9B9E76B1CE1
:100C300000D0EAE6F3E65B4658461B699847002871
:100C40001BD153461B8822692381EFF3108372B6B0
:100C500011680029FCD0BFF35F8F514662880A807B
:100C600022696580BFF35F8F0021116083F31088D4
:100C7000B3E6864200D8F0E6AFE65B461A685B68EA
:100C800002920393FFE6864200D8D0E6C3E7B3455D
:100C900000D83BE73FE7C046CC2A00203C70054027
:100CA000AD0900100040054070B52E4C2569002D9F
:100CB00004D00A212C48FFF70BFE70BD2B4E0321F8
:100CC000300000F0D5F9E660FFF7F4FB284B032273
:100CD0009C46D02322701B061B6801216370254BA4
:100CE0006044A3600F238000206102206380636959
:100CF0004942A18019800231198647311D8358521B
:100D000018315A5275325C39995218320131995260
:100D1000183201319952183201319952083518327E
:100D20009D520231183299521832013199521832BB
:100D300001319952183201319952183201319952C8
:100D40001832013199520C4B0C49DC60013035628C
:100D5000FFF72AFC01210320FFF7EAFB084B1D6087
:100D6000A7E7C04624100020E82A002000400540E4
:100D700040000034FFFF1000CC2A0020AD09001015
:100D8000386005400048704724100020F8B51F0067
:100D900008AB1B7804001600002B08D100F07AF98C
:100DA00032003B00121A8B41002B00DA52E022691C
:100DB000EFF3108072B61368002BFCD0BFF35F8F87
:100DC0000223E15E63694A005218D2009B1822692F
:100DD000002936DB1D886580BFF35F8F0025156015
:100DE00080F31088069A9E60DF601A61079A5A6144
:100DF0005A8801325204520C101C002A1FD082B2B1
:100E00005880080410432669EFF3108772B63268E1
:100E1000002AFCD0BFF35F8FA2881A80A1802369CB
:100E2000BFF35F8F00221A6087F310880A49237886
:100E30008C4601329A40E36863441A60F8BD012091
:100E4000DDE7BFF35F8F0023136080F3108801207C
:100E50004042F3E70020F1E73C20000070B50100BC
:100E60000469EFF3108C72B620680028FCD0BFF341
:100E70005F8F02200D5E4C6968004019C000241885
:100E80000869002D36DB26884E80BFF35F8F002671
:100E900006608CF31088E360638804980133206156
:100EA0005B0405985B0CA26060611A1C002B1FD0CC
:100EB00093B22804628018430A69EFF3108C72B66B
:100EC0001368002BFCD0BFF35F8F8B8823808D804D
:100ED0000B69BFF35F8F00221A608CF310880B78C8
:100EE00001329A40CB6808498C4663441A6070BD51
:100EF0000122DDE7BFF35F8F002303608CF31088CE
:100F000001204042F3E7C0463C20000010B5438971
:100F10000A1493421ADD53009B184269DB00D31870
:100F20000469EFF3108C72B62268002AFCD0BFF37C
:100F30005F8F5A88090494B2090C8A4208D0036969
:100F4000BFF35F8F00221A608CF31088002010BD61
:100F50008022120214435C80012302698371BFF373
:100F60005F8F002111608CF31088044902788C4651
:100F70009340C268012062441360E8E73C2000000F
:100F800040787047F0B5CE46474680B504000D0066
:100F900083B0EFF3058399460F00002B42D1314E09
:100FA000A0463378F06804339B00816A1B58601AAE
:100FB0005B1A984212D320BF2B4900204B6AAB42E8
:100FC00007D38A6A5B1B591E8B4141468A424041C6
:100FD000184303B0C0BCB946B046F0BD00F05AF8A3
:100FE00022002B00121A8B41002B28DB4B46019369
:100FF0001E4B2200009330002B00FFF72FFF011E35
:101000001DDD194B5A6AAA422AD39B6A9C4225D8F5
:101010003000FFF77BFF144A0020536ABB42D8D34D
:10102000926ACFE7104900204B6AAB42D1D38A6A5B
:101030005B1B591E8B41A24240411843C9E70A4A33
:101040000020536ABB42C4D300204146926A5B1B16
:101050008A4240415A1E93411843BAE7AA42D7D167
:1010600020BFD5E724100020004005407D09001076
:1010700010B5024A0248FFF7B7F910BD40AD0010A5
:10108000382600200300416A0A00986A596A8A4299
:10109000FAD17047034B596A0A00986A596A91421B
:1010A000FAD170470040054070B504000D00174AA2
:1010B000536A1900966A536A8B42FAD130001900BC
:1010C00024184D41AB4216D813D0104B2A005B6A4E
:1010D0009D4203D90D494B6A9342FCD3934207D1F9
:1010E0000A4A02E0516A994202D1916AA142F9D3B7
:1010F00070BDA642E9D9054B5B6A1C005A1CEFD0B3
:10110000012201246442E5175242E3E70040054012
:10111000F8B5DE464E4657464546E0B58B460500D7
:101120000A991800160000F0EFFA0A9B6C001F02E3
:10113000324B64199C46A4006444636881469F4214
:1011400000D967602B1FDBB29846012B30D9C02332
:1011500080229B01E31812011A60294BAD005959F6
:101160009A4600291BD17301E026226853401E4095
:10117000802342465B01E3181E60012A30D9802398
:1011800080229B01E31812011A6053464A466760A9
:101190005A51F0BCBB46B246A946A046F8BD5869B4
:1011A00000F0B2FA013043001B18033BFDD2DAE72E
:1011B0005B46012BCBD1C02303229B01E3181A60AD
:1011C000023AA3681A42FCD07301E0262268AD00FF
:1011D00053401E4080230A4A5B019246E3181E607A
:1011E0005A462168514003220A401A6001225B4698
:1011F0009A40A3681A42FCD0C1E7C0460080004074
:101200003C260020F0B546464F46D646C0B51F00E6
:10121000344B44009C462418A40064446368884608
:101220001600FF2B02D880235B006360031FDBB234
:101230009A46012B30D9C02380229B01E31812016A
:101240001A60294B85005959994600291BD1730111
:10125000E026226853401E40802352465B01E3187B
:101260001E60012A30D9802380229B01E3181201DD
:101270001A6080235B0063604B465F51E0BCBA4656
:10128000B146A846F0BD586900F03EFA013043006F
:101290001B18033BFDD2DAE74346012BCBD1C02319
:1012A00003229B01E3181A60023AA3681A42FCD099
:1012B0007301E0262268850053401E4080230A4ABD
:1012C0005B019146E3181E604246216851400322AB
:1012D0000A401A60012342469340A2681342FCD0A0
:1012E000C1E7C046008000403C260020014B800042
:1012F000C05870473C260020F8B5040021481E0065
:1013000017000D0000F000FA0100380000F0FCF9B1
:10131000069B36041B031E432368002B20DB1A4B5D
:101320001A49E3185A1E93418022920194465B4267
:101330001B0B174A1B0363441360164A13601F00FC
:101340000A689743FBD1144B2560E2182123A06063
:1013500013602368002BFCDA0823E6601360F8BDF5
:101360003F2322681340AB42D9D1A3681B051B0D54
:101370008342D4D1EE22E368D2021340B342CED1ED
:10138000EDE7C046001BB7000040FDBF08C00040AD
:1013900000E0004000F000400430000010B5802460
:1013A0001C4BE4051C6000281AD001231A4C18437A
:1013B0001A4BDC611A4C44401C62596298628021CD
:1013C000144BC9051960174817490860E021C90482
:1013D0001960002A07D18022144B12061A6010BD32
:1013E0000E4BD861EBE753019B1A9B009A188023A0
:1013F00012015B049A4209D213000D490B60074B9E
:101400005A608022094BD2051A60E8E7094B1A009E
:10141000F3E7C04600B00540D3C007B000800540E8
:101420002D3FF84FFCFF01000820014000A00540BF
:10143000A42A0020FFFFFF008023024A9B000B43E9
:10144000D362704700800540002310B50100988AE0
:101450001B8B984710BDC046162310B50100188895
:1014600002331B88984710BDF8B54746CE4680B575
:101470000F1E18D0142399460433040000250126BA
:1014800098464B461888434621681B88984701C4F4
:10149000431E984101350640AF42F2D13000C0BC36
:1014A000B946B046F8BD0126F8E7C046002370B53E
:1014B00004000D00988A05491B8B98470300002003
:1014C000002C01DB0130A040290098475542000064
:1014D000AA23064A1B0113602F230549D360054B3D
:1014E00019605368002BFCDA7047C0460040024088
:1014F00000B0FA00006002407047C04610B50148D5
:10150000FEF75AFF64AD001070B5074D074EB542A7
:1015100009D20024013E761BB60808CD9847230067
:101520000134B342F9D170BDB0AB0010ECAB001088
:10153000054B064A06491A60064A074B1A60100016
:101540000B689843FBD1704700E00040BFCDFBFE25
:1015500008C00040FE7F3C0000F00040044BDB6C04
:10156000002B03D18022034BD2021A607047C04681
:10157000000011504C201150044A054B1A60054AD6
:101580001368DB018033FBD17047C046FFFFFF01CA
:1015900000F0004008C000404022034B9A675A67A1
:1015A0001A67DA667047C04600F0014010B5FEF7D2
:1015B0009FFF10BD70B5044D044CA968C0222000E7
:1015C00000F0CCFEAC6070BD00ED00E0000000203B
:1015D000002310B5294C82B0A367FFF779FF0122E1
:1015E000274B1A60636C012BFCD10322254B1A6038
:1015F000224A936B012BFCD1013300930121224A33
:1016000022480433FFF778FE052301210093204A86
:101610002048FFF771FE0022022104201E4BFFF735
:10162000F1FD0022012105201C4BFFF7EBFD0022FC
:10163000002107201A4BFFF7E5FD002200210820BA
:10164000174BFFF7DFFD8023DB0000930022002112
:101650000920134BFFF75CFD0022104B00210620F0
:10166000FFF7D0FD0420FFF741FE0E4900F04CF8D3
:1016700001000020FFF7E0FE02B010BD0080004036
:101680003CB0004030B00040002F6859008002405C
:10169000008C864700C00240001BB700405973070A
:1016A000006CDC0240420F0001480421014B184746
:1016B0004010002069140010124A936F9B0815D245
:1016C0009066D166002905D0FFE7FFE7FFE7516F7D
:1016D000106F704704B580210906C21751400028D9
:1016E00000D0C84309F024FA002104BDF0B5146EFF
:1016F000556E576F166FFFF7E3FF14665566576711
:101700001667F0BD000000D0114A936F9B0813D2FA
:1017100010665166002905D0FFE7FFE7FFE7516F2C
:10172000106F704704B5002801D00020C04309F0B5
:10173000FFF9002104BDC046F0B5146E556E576F19
:10174000166FFFF7E5FF1466556657671667F0BD1D
:10175000000000D094464A4A926F9208624601D235
:1017600028E0C046F0B5464E346E756E776F366F22
:1017700000F020F89446424A14665566576716678B
:101780006246F0BD94463E4A926F9208624601D28C
:1017900054E0C046F0B53A4E346E756E776F366FD2
:1017A00000F04CF89446364A14665566576716673B
:1017B0006246F0BD002B24DB11D000293EDA00B5D3
:1017C000C943404200D1013100F038F8C9434042DA
:1017D00000D10131DB43524200D1013300BD002A68
:1017E000EBD1002801D1002905D00020C90FC9077D
:1017F00001D1C043410800B509F08AF90022002355
:1018000000BD00B500290ADBDB43524200D10133A1
:1018100000F014F8C943404200D1013100BDC94372
:10182000404200D10131DB43524200D1013300F08C
:1018300005F8DB43524200D1013300BD002923D11A
:10184000002B18D1002A0CD0BC460D4F38667A66A2
:1018500000210023FFE7FFE7FFE77A6F386F674655
:101860007047002801D00748010000B509F050F981
:101870000022002300BD02000B0000200021704761
:10188000000000D0FFFFFFFF002B00D0BFE0130CD3
:1018900028D1002AE7D080B4114F39667A66FFE775
:1018A000FFE730B4040C7B6F396F1B0423433B66A6
:1018B0007A66FFE7FFE7FFE7C04684B27B6F3D6FC4
:1018C0001B0423433B667A66FFE7FFE7C04600231D
:1018D0002C042D0C7A6F386F00196941B0BC704729
:1018E000000000D0F0B594460025140E01D112027C
:1018F0000835140F01D112010435940F01D1920063
:101900000235D40F01D152000135D40B0134254FDB
:101910007C66254C3C660E0C93B2FFE7FFE7FFE7C1
:101920003C6F6643360C7703BE467343DF0B5B04A4
:10193000C01AB941130C7343DB18C91ACE086643A9
:10194000360CB64493B273431F0F1B01C01AB94142
:10195000130C73431F0B1B05C01AB941860D8F0270
:101960003E436643360C092D24DB520A7243801A2B
:101970007703460A6643360C16235B1BDE40DF40C6
:10198000BF1964466643821B704604350633010066
:10199000D940A840C01900D30131A24206D2002389
:1019A000F0BD0000000000D0FFFFFFFF121B013060
:1019B000F3D3F1E709277F1BFE406446A2B27243CE
:1019C000801A00D20139220C7243130C1204821ABD
:1019D00099410B007046043513370100F940A840C7
:1019E000801900D30131002B02D1A2420AD2F0BDEE
:1019F000013000D30131121BFAD2013BF8D1A242CF
:101A000000D2F0BD013000D30131121BF7E7F0B571
:101A10001C0C00D080E00CB400251C0A04D11B0271
:101A2000160E3343120208351C0B04D11B01160F8E
:101A30003343120104359C0B04D19B00960F3343B2
:101A400092000235DC0B02D192185B4101351C007B
:101A5000971864410134464F7C66464C3C660E0C38
:101A6000FFE7FFE7FFE7C0463C6F6643360C7703AE
:101A7000BE4697B27743C01B00D20139C01B00D2CB
:101A800001399FB27743C91BC91B170C77437E04EA
:101A9000FF0B801BB941CE086643360C0C2D33DB9F
:101AA000B644120B1F053A431B0B97B27743C01B7A
:101AB00000D201399FB27743C91B170C77433E040C
:101AC0003F0C801BB941860D8F023E436643292798
:101AD0007F1BFE400C3D7746AF40BF1930BCA2B221
:101AE000ABB272437343801A9941220C7243130CB8
:101AF0001204801A994102000B000137001BA94112
:101B0000F9D2781E0021F0BD0C277F1BFE407746DE
:101B10007F0BAF40FF19E0E700245D1C07D0144F96
:101B20007D663966FFE7FFE7FFE7FFE73C6F95B2A9
:101B30009EB265436643401BB141150C1E0C6543C4
:101B4000664336042F0C3E432D04401BB14199429D
:101B500004D202000B0020000021F0BD01D1904210
:101B6000F7D3801A994101349942F2D3F6E7000085
:101B7000000000D0FFFFFFFF48404140484018B43C
:101B80001B4B5B68FC46019308BD04DF0B1E001075
:101B900018B4174B1B68FC46019308BD00DF151EE7
:101BA00000109446134A926F920809D2624618B404
:101BB0000F4BDB68FC46019308BD0CDFCD20001005
:101BC0000C4AF0B5146E556E576F166F6246FFF7EC
:101BD000EEFF084A1466556657671667F0BD18B4DD
:101BE000034B9B68FC46019308BD08DF711F001082
:101BF00000190020000000D0FFB550404240504086
:101C000059404B40594000E0FFB5154F4C00640D62
:101C100003D0BC4204D10C0314D80020090D0905DF
:101C20005C00640D03D0BC4204D11C030AD800221E
:101C30001B0D1B0501264B4009D44B4003D58B429D
:101C400000D18242FFBD9942FCD19042FFBD0B43BF
:101C5000DB1803431343F5D0C9434918FFBD000007
:101C6000FF07000000B5FFF7CFFF01D0002000BD47
:101C7000012000BD00B5FFF7C7FF804100BDC04691
:101C800000B5FFF7C1FF01D9002000BD012000BD54
:101C900000B5FFF7B1FF804100BD012040054A00BB
:101CA000121804D85A00121801D8002070470120D9
:101CB000704700000021002805D17047C117484037
:101CC000401AFAD0C90713B5064B1B6898470CBCDD
:101CD000441CA2401005120B0349091B09051943B6
:101CE000114310BDE42A00201F04000010B54C0071
:101CF000620D8023D218DB00D21A5B057E2A10DD2C
:101D00009E3A13DACC170903490819435242D140CD
:101D1000640001341532202A05DAD04008436043BC
:101D200010BD002010BD0846604310BDC80FC0188C
:101D3000013810BD132370B51D78012D19D014DDA5
:101D40001F48FFF789FB06001E48FFF785FB1E4C66
:101D500080223100200000F001FB022D2DD01B4815
:101D6000FFF772FB1A4B186070BD1A4B164CA36438
:101D7000F5E7184B144C23606360A360E3602361B4
:101D80006361A361E36123626362A362E36223632D
:101D90006363A363E36323646364A364E36423650D
:101DA0006365A365E36523666366A366E3662367ED
:101DB0006367A367E367A364D1E7064BA364CEE739
:101DC0005344000053460000001900204C3300002B
:101DD000E42A0020D91D001007B5604601880A0AD0
:101DE0000230DF2AFAD1C9B2820804D302884088BF
:101DF0000004104300E00068014A5050039007BD02
:101E0000001900200FB403BC0CBCF0B50124E4079A
:101E1000634000E0F0B50C0DCF0F661E3605891B40
:101E2000640503D3C943404200D30131640D03D09C
:101E3000661CF60A07D0E41B00207F00791C890786
:101E40008912803C24031D0DDF0F6E1E36059B1B7F
:101E50006D0503D3DB43524200D301336D0D03D034
:101E60006E1CF60A07D0ED1B00227F007B1C9B072F
:101E70009B12803D2D032F1B661B58D4A446202E99
:101E800046DA20371400BC401D00BD40F24033410B
:101E90002A4380185941CB0F05D0C943C0430022C3
:101EA00064425041514162464D0D28D10D0D07D17C
:101EB00000281FD0241940414941013A0D0DF9D0A5
:101EC000640006D3013000D30131002C01D1400859
:101ED0004000013A0BD4941CE40A04D112051144C9
:101EE000DB071944F0BDD907204B194300E0D9079F
:101EF0000020F0BD0029DDD1002CDBD1F0BD013286
:101F0000C6074008CD0728434908002EE1D0D9E78D
:101F10003C2E29DA203E40371400BC4000D001247A
:101F2000F24014431A00BB401C43D317ACE7AC4645
:101F3000202F08DA20360400B4400D00B540F840E8
:101F400039412843A5E73C2F0CDA203F40360400F6
:101F5000B44000D00124F84004430800B1400C43D1
:101F6000C117EAE710001900002494E70000F07F91
:101F7000F0B50C0D661E3605891BE60A6405640D76
:101F800002D0651CED0A04D0002001210905803C27
:101F90002403A4461C0D671E3F05DB1BE70A6405EE
:101FA000640D02D0651CED0A04D0002201231B053C
:101FB000803C24037740644497B484B296B274435F
:101FC000070C7E43150C6F4380B26843361802D36A
:101FD000012000043F183004350C00197D4184466F
:101FE00088B29AB250430C0C62431F0C7C438EB2F1
:101FF0007E43921902D301263604A4191604170C45
:102000003618674101BC81B29AB25143040C624355
:102010001B0C5C4380B25843121802D30120000409
:1020200024181004130C401863412D185E41002041
:10203000474106BC88B293B258430C0C6343120C60
:10204000544389B251435B1802D301210904641837
:1020500019041A0C091862416D18564100204741B5
:1020600018BCF902720D1143F0026A0D1043ED0223
:102070000A0D03D16D1940414941013B124E9B1B92
:102080007600B3420ED26D0007D3013000267141B5
:102090006646354301D1400840001B05C918E407D6
:1020A0002144F0BD0BDA013306D1013004D10131F6
:1020B0004F0D01D04908F2E7E1070020F0BD0136DD
:1020C00031050020EBE70000FF030000F0B51C0D18
:1020D000671E3F05DB1BE70A6405640D02D0661C22
:1020E000F60A04D0002201231B05803C2403D025DE
:1020F0002D060026F6432E661E096E66CE0FF619D3
:10210000B44649004F0D02D07E1CF60A03D00020D1
:102110000021403F3F033E1BB600B444013F7F0512
:10212000C91B49082E6F013676089C02950D254380
:102130007543ED137543AD1301356D10F603761B32
:102140000CB4CC02450D2C43A2B2B3B25A43270CB7
:102150007B43350C6F43A4B26C431B1902D301249B
:1021600024043F191C041D0CA4187D4124196D4141
:10217000009A91B2ACB26143170C7C432B0C5F43C5
:1021800092B25A43A41802D301221204BF182204A7
:10219000230C52187B41019C6C431B19520ED90130
:1021A0000A434401A01A81B2B2B2514303145A4304
:1021B000360C734387B27743D617D21900277E4176
:1021C00036049B191704160C7F185E417316ED1820
:1021D000F301002680337541A90F06D16400690A16
:1021E000E8055B0A184309D22FE0042294448033A7
:1021F0007541A90AA8059B0A184326D340414941C5
:102200002404009A019B0D005543641B4343E41AC8
:1022100095B286B27543170C7E43030C5F4392B2AE
:102220005A43B61802D301221204BF183204330CE9
:1022300052197B4152429C41002C02D400220130B1
:1022400051414008CA071043490802B06246D70707
:102250009210084BD218084B9A4203D212058918E3
:10226000C919F0BD0020002A01DC3900F0BD01339E
:102270001905F5E7FD030000FE0700005143434345
:10228000C9188C46110C83B24B4310B4040C614343
:1022900092B280B2504362431C041B0C001910BC64
:1022A00059411304120CC018514161447047000099
:1022B000132310B512481C78FFF7CEF80100012C4B
:1022C0000AD003DD80220F4800F048F80E48FFF7DF
:1022D000BBF80E4B186010BD0A4C5422200000F0D1
:1022E0003DF80B4B6365A365E36523666366A366F0
:1022F000E36623676367A367E3672362E361E5E758
:1023000053460000001A00204C330000E42A00204D
:102310001523001007B5604601880A0A0230DF2A3B
:10232000FAD1C9B2820804D302884088000410435D
:1023300000E00068014A5050039007BD001A0020D9
:1023400001480421014B1847501000206914001067
:10235000014B1B681847000050100020014B5B68C0
:10236000184700005010002010B5002800D110BD03
:1023700000F0FEF9FBE7C0460FB430B50C4985B05C
:1023800008AA08CA0D680392002D0CD00092012201
:10239000084C5242200002A9A847012005B030BCD9
:1023A00008BC04B01847180000F02CFA0020F5E72C
:1023B000A02A00206923001010B5094A0300146800
:1023C00084B0002C08D0012200910648524203A993
:1023D000A047012004B010BD00F014FA0020F9E776
:1023E000A02A00206923001000BEFDE7094A03006F
:1023F0001068002805D00849C3188B4207D813601D
:10240000704706480449C31810608B42F7D9012071
:102410004042F5E79C26002000000420102B0020FD
:10242000030010B508001100002B05D1044B1A68F9
:102430005B6800F03FF910BD01204042FBE7C04659
:1024400090AF00100300013B10B508001400012BF1
:1024500006D801230022210000F0AEF8200010BDB4
:1024600001204042FBE7C046012040427047C04681
:10247000012040427047C046012040427047C0469C
:102480000300022200209A424041704710B5FFF736
:10249000ABFFC04630B50D0083B01900002A0BD049
:1024A000074B084C0192009302002B002000FFF71D
:1024B00063FF0120FFF798FF034B1A00F1E7C046C6
:1024C000B8AD0010C8AD0010F0AC001070B5FFF74B
:1024D0001BF8074D074EB54209D20024013E761B7A
:1024E000B60808CD984723000134B342F9D170BD36
:1024F000ECAB0010F8AB0010030010B508001100A1
:102500001B68984710BDC046F0B5C64600B5437D70
:1025100007000C001600002B46D0002A17DD0B78B0
:102520000A2B24D000239846012E13D00125290020
:10253000635C01350A2B26D0B542F8D1464509DC4B
:10254000A419013C23780D3B5A4253413B7580BC92
:10255000B846F0BD4346E018A419F11A013C3B68A7
:10256000984723780D3B5A4253413B75EFE7037D73
:10257000002BD7D102210F483B689847012EDFD0AE
:1025800001239846D2E7631E5B5C0D2BD4D08845AF
:1025900004DA4346C91AE0183B6898470221054807
:1025A0003B68A8469847C7E7036811002000984792
:1025B000CDE7C046ECAF0010F0B54546DE464E46CE
:1025C0005746E0B583B091461C0080460D00FEF7EB
:1025D00061FD0023304A12184B41002B02DA012220
:1025E0002E4B52422E4908008A4608F0B9FA0700DD
:1025F0006B1C03D1404606F0D7F90500002C27D00C
:10260000284E294B1C68002C18D04B46002B21D19A
:10261000264B994602E02469002C0FD02368002B3A
:10262000F9D04B461B68002B01D09C42F3D120000F
:102630002A004146B0472469002CEFD1002F26D153
:10264000280003B0F0BCBB46B246A946A046F0BD88
:10265000174ED6E7154B99460A239B4602E024699C
:10266000002CEBD02368002BF9D04B461B68002BC5
:1026700001D0A342F3D12A0041462000B0476B4667
:102680005A462000DA71D91D0122B047E7E75046CB
:1026900008F036FAD4E7C04640420F00FFFFFF7F44
:1026A00070170020092500108C2600209826002095
:1026B000F9240010F8B557464E464546DE46984682
:1026C0001A4BE0B59B461A4B07000E0091469A46FE
:1026D000184D5B461C68002C03D115E02469002CC2
:1026E00012D02B68002B01D0A342F7D1A368002B96
:1026F000F4D03100380098470028EFDDF0BCBB462D
:10270000B246A946A046F8BD53465B6A984508D82C
:102710005246926A4A4502D302204042EEE798456B
:10272000FAD101200021FEF7BFFCD2E78C26002061
:1027300000400540982600200A4A1368002B05D166
:102740000CE01A001B691032002B07D08342F8D12D
:10275000002902D118691060196170470029FCD066
:102760001060FAE78C26002010B500F07FFA10BD4B
:10277000F0B5CE46474680B583B06B460600DD1DFA
:102780002870FEF787FC0023194A12184B41002BD2
:1027900002DA0122174B524217490800884608F016
:1027A000DFF9164B81461C68002C14D0144F02E050
:1027B0002469002C0FD02368002BF9D03B68002B34
:1027C00001D09C42F4D1200001222900FFF79CFE99
:1027D0002469002CEFD14B46002B05D1300003B00B
:1027E000C0BCB946B046F0BD404608F089F9F5E7EF
:1027F00040420F00FFFFFF7F701700208C26002053
:102800009826002070B5040006F0CEF801230100E0
:10281000050001222000FFF7CFFE084B1C68002CAA
:1028200006D06368002B05D098472469002CF8D1A6
:10283000280070BD2469002CF3D1F9E78C26002014
:102840007047C0460022014B1A7070470C2B0020C5
:102850004B790020FF2B0BD18B79002B08D1CB7942
:10286000012B05D1082A03D9024B8A7809301A7046
:102870007047C0460C2B00200120704710B501297D
:1028800013D112495379107909781B0203430020B0
:10289000994200D010BD5378012B08D0022BF9D1FA
:1028A000642200210020FEF779FD0120F2E7D378B1
:1028B00091781B021943480ADB0501D401204042EC
:1028C0007F238A05D20F1940FEF7F0FD0C2B002064
:1028D00000487047B8B0001070B505001400012022
:1028E000012909D153780020012B05D16379127990
:1028F0001B021343072B00D070BD21002800024AA1
:102900009F3301F041FAF7E710B000100123037084
:1029100000487047F0AF00104B780A781B02134351
:102920008A7810B512041A43CB781B0613439622FB
:10293000D200934200D010BD00220120110040427D
:10294000FEF7B4FD024B1860024B19607047C04699
:102950002C2600203026002010B5024B1878FDF7F9
:1029600005FE10BD0D2B0020154B70B51A68002A0E
:1029700022D0EFF3108172B610680028FCD0BFF3AC
:102980005F8F00200F4A596010701B68BFF35F8F84
:10299000186081F31088002400250B4E3078FDF775
:1029A000D9FD002804D1002400252900200070BD95
:1029B0003078FDF7DBFDF8E7FA240025A400ECE70A
:1029C000C42A00200E2B00200D2B002070B504001F
:1029D00000200E0001F0EEFA002834D0002001F0B3
:1029E00001FB00282FD0FEF755FB0023174A1218D1
:1029F0004B41002B16DB164D280008F0B1F80028DB
:102A000021D0002001F0D6FA00280FD101200021AA
:102A1000404200F0EDFC03246442280008F070F806
:102A2000200070BD01220B4B5242E4E7002001F070
:102A3000D9FA0028EAD021003200002001F0DEFAA5
:102A4000041EEAD1E7E703246442E9E740420F00AD
:102A5000EC2A0020FFFFFF7F10B5FEF71BFB0023D1
:102A60000D4A12184B41002B02DA01220B4B524245
:102A70000B4C200008F074F800280CD00120002135
:102A8000404200F0B5FC002001F006FB0028F5D123
:102A9000200008F035F810BD40420F00FFFFFF7F17
:102AA000EC2A0020F8B5DE46574680B505000C003C
:102AB000FEF7F0FA0023364A12184B41002B02DAD7
:102AC0000122344B5242344908008A4608F048F843
:102AD000002803D1C0BCBB46B246F8BD002001F0BF
:102AE00069FA00284AD00026002C43DD2B4B9B4678
:102AF00014E0A919002001F00BFB070001200021C0
:102B0000404200F075FC002001F0C6FAFEF7C2FA60
:102B1000224BF61918605960B4422BDD002001F0F9
:102B200017FBA71B0200B84200DD3A00002AE0D1E3
:102B300001200021404200F05BFC002001F0ACFAD3
:102B4000002001F037FA002814D0002001F000FB2B
:102B50000028E1D1FEF79EFA5B460F001A685B6819
:102B6000002184460E4812184B419F4202D8D3D10F
:102B70009445D1D9504607F0C3FFABE700200021B0
:102B8000064B18605960504607F0BAFFA2E7C046EE
:102B900040420F00FFFFFF7FEC2A0020F8180020C2
:102BA00020A1070030B52A4C85B00021200007F095
:102BB000C7FF00281CD1274B1A68002A16D0EFF354
:102BC000108172B610680028FCD0BFF35F8F01241B
:102BD0002148596002781B68D2B20470BFF35F8F3E
:102BE0000020186081F31088002A17D005B030BD8E
:102BF00001200021404200F0FBFB002001F0F2F92F
:102C00000500200007F07CFF002DEFD0134B1B6860
:102C1000002BEBD0124A10689847E7E7FEF7B2F8AE
:102C20000400FEF737FAFA220023920012184B41F3
:102C3000002B02DA01220B4B5242012102910021AA
:102C40000191094920000091FEF7A0F8CEE7C046A7
:102C5000EC2A0020C42A00200E2B00202C26002065
:102C600030260020FFFFFF7F69290010D02310B518
:102C70001B0684B01C68FEF785F8FEF781F9A042B8
:102C800002D0002004B010BD284B1B7801F060FD7D
:102C900027480368002B45D00120FDF703FEFF23E2
:102CA000244C254920701840FDF77EFC2078012136
:102CB000FDF73EFC0520FDF761FC002824D1082229
:102CC00000211E48FFF744FBFEF75CF80400FEF706
:102CD000E1F9FA220023920012184B41002B02DA8C
:102CE0000122174B52420121029100210191154905
:102CF00020000091FEF74AF80028C2DB12480121AB
:102D0000FFF71AFD0120BDE70120FDF7DFFB0B4BAC
:102D100001001800FDF728FE002205200B49FDF7F1
:102D20006DFCEBE7FDF704FEB6E7C046A8B6001061
:102D3000EC2A00200D2B0020A52B0010C42A002017
:102D4000FFFFFF7F69290010601000205929001043
:102D50000048704754B100100048704700B100109F
:102D600010B5040017480378002B20D0002C06D1A2
:102D7000154B16484380063BFF3B038010BD052CD6
:102D80001DD8134BA400E05812490123013804E078
:102D900001330A800231142B0DD0C25C002AF7D116
:102DA000C022DBB25B00920008481343E5E7112123
:102DB00000F01AF8DAE7CA2304489B00DDE7002098
:102DC000DCE7C046F42A0020090400006426002045
:102DD000E8B000106626002010B5024800F0D8F8D0
:102DE00010BDC046DC2A002030B54B1E012900D1A1
:102DF000A7E0664A11780D092C0030349F2900D9CC
:102E0000A2E00470012B00D1BEE00F211478214014
:102E10000C003034092900D998E04470022B00D10D
:102E2000B2E054782509290030319F2C00D990E078
:102E30008170032B00D1A7E00F2121400C0030341A
:102E4000092900D987E0C470042B00D19CE0947854
:102E50002509290030319F2C00D97FE00171052B15
:102E600000D191E00F2121400C003034092900D914
:102E700076E04471062B00D186E0D478250929003C
:102E800030319F2C00D96EE08171072B00D17BE09F
:102E90000F2121400C003034092966D8C471082B59
:102EA00000D171E014792509290030319F2C5FD8B9
:102EB0000172092B68D00F2121400C003034092900
:102EC00058D844720A2B5FD0547925092900303133
:102ED0009F2C52D881720B2B56D00F2121400C0011
:102EE000303409294BD8C4720C2B4DD09479250964
:102EF000290030319F2C00D9073101730D2B43D0AD
:102F00000F2121400C003034092901D937310C0040
:102F100044730E2B38D0D1790C09220030329F290E
:102F200000D9073282730F2B2ED00F220A401100D6
:102F30003731092A01D830321100C173102B23D048
:102F400010300023037030BD07345AE737310C00CE
:102F500063E707316CE737310C0074E707317DE731
:102F600037310C0085E707318EE737310C0095E7E4
:102F700007319DE737310C00A3E70731AAE7373166
:102F80000C00C4720C2BB1D1C018DAE7DC2A002087
:102F900010B588B004000D2200216846FFF7D8F96B
:102FA0000D22002104A8FFF7D3F94B236A46684697
:102FB000137004A90D2207F09BFD152108222000A3
:102FC0006944FFF7CBF908B010BDC046F8B500F072
:102FD0003FF90C23184DFF22AB6705201749FDF779
:102FE0000DFB174C402200212000FFF7B1F94027CC
:102FF000002301262121134A66702783A2601360F3
:1030000063545F316184453963540F4A0F496360EB
:10301000E2602787A1620B606362E26207F080FDD5
:1030200080239B052E64EB649023094AEA5080229A
:10303000084B5202DA64F8BD00001150110500205F
:10304000A026002084001050000110508000105075
:1030500010D001000020115010B501210520FDF70E
:1030600067FA10BD10B500220021024800F010F9E7
:1030700010BDC046C0260020044B1970002904D0A2
:1030800080219023024A8902D1507047082B0020EA
:10309000002011500B785B0602D14B78052B00D035
:1030A00070478A78014B1A60FAE7C0460000115059
:1030B000F0B5C64600B5CC7888780A794B797F217F
:1030C000A40701401B02C50913434F00A20F1400BF
:1030D000324E7A195201B218907001206840507037
:1030E00000205B055B0DD0701383D4768046CA0048
:1030F000012D33D02A488446880162448446B44472
:103100006046826040461060002933D0254AC900DD
:1031100090466246414451603F223F339343022C24
:1031200000D15B0020487A1901685201B218D160C1
:103130001E4ACB18036051405A40802388465B01E9
:103140009A4228D84346A4061C4380237F197F0156
:10315000F61972681B062343136011E01448844675
:10316000880162448446B4446046826240461060EE
:10317000002909D100236D0175196B600D4BEB60BF
:10318000012080BCB846F0BD084AC900904662469E
:1031900041445162C0E7FEF7B1F9D3E7A026002011
:1031A0008400105004001050A82A00200000105085
:1031B000800010500001105010B507F0B1FC10BD98
:1031C00010B57F200C0020404000E40911000019D8
:1031D0001A00034B4001C01800F05AF8012010BD3E
:1031E000A02600207F23180000B5084083B00B42C2
:1031F00004D14B424B41084A013393668022C909EE
:103200004000064B401840010021C018120107F091
:10321000BFFC03B000BDC04600201150A026002016
:103220007F22130010B50B400A4200D110BDC9091E
:103230005B005B1804485B01C018002300220349AF
:10324000C37007F0A5FCF1E7A0260020FFF7FFFF01
:1032500080220A4B520410B51A60094B09491A60C2
:1032600010000B689843FBD18022002152010648D0
:10327000FFF76EF80922054B5A6710BD00E00040C9
:1032800000F0004008C00040000010500000115045
:10329000002310B5C382013382828376016104006A
:1032A00007F06EFC002804D080219023074A890291
:1032B000D150200007F074FC002802D001232377AE
:1032C00010BD200007F054FCFAE7C0460020115062
:1032D0007047C0467047C0460020704700207047C6
:1032E0007047C0467047C0467047C0467047C046EA
:1032F000024B5878431E9841C0B2704744210020C9
:10330000024B18784007C00F7047C0464421002088
:10331000F8B54746CE4680B52A4F06003B78FF2BCE
:1033200004D00120C0BCB946B046F8BD00215422EB
:103330002548FFF70DF80022244C254B20001A7079
:10334000FDF7F6FA234B1C60234C2000143CFDF7DC
:10335000FDFA200001F0E4FD204B214D1C60214BC3
:10336000002B04D02800FFF7D1FA1F4B18601F492B
:10337000002489461C49002388462A7810E04346E9
:103380001B6862019B18002B12D05B68002B0FD0CA
:1033900098472A780134E4B2511C2300A14209DB8A
:1033A000A242ECD89B1A5B014B445B68002BEFD127
:1033B0000020B7E730003E70FFF708FE3000FFF74F
:1033C0004BFEAEE79410002044210020FC2000209A
:1033D000092B0020982100208C1000209C21002027
:1033E000072B00200D290010181E002010B200101D
:1033F000F0B5DE4657464E464546E0B5C84B91B05F
:1034000002931B78FF2B00D13EE1C64BC64E9B4674
:103410005F46C64B0DAC0193C54B009335686A6996
:10342000EFF3108172B61368002BFCD0BFF35F8FEF
:10343000A9612800210001F0A3FB6A69AB69BFF311
:103440005F8F0021116083F31088002800D11BE1F9
:103450006378082BE2D89B00FB589F466368002BDB
:10346000DCD0A0689847D9E77F222179AF4D0A4088
:103470005300EB189846C809804440460123303079
:1034800005799D430571057903339D430571002A34
:1034900000D100E14346A74A1B7D1278934200D336
:1034A000EFE0A54A5B011568ED18002D00D1EBE0B7
:1034B000A36862792078AD69A847AFE79F4A13787F
:1034C000002B00D1E0E01378013BDBB213701378DE
:1034D000002BA3D10122954D01212B780420134309
:1034E0002B703423EA5C8A43EA54EA5C8243EA5450
:1034F0000133EA5C8A43EA54EA5C8243EA54237863
:1035000000209B4600F09EFC602223791A40602A2E
:1035100000D1EFE0402A00D1F5E0DB06DB0E012B05
:1035200000D113E1022B00D1C7E0002B00D0E1E075
:10353000202A00D11CE2002A00D0DBE06379092BAD
:1035400000D9D7E07E4A9B00D3589F46774D2B7811
:10355000DB0700D462E7FFF7C9FE5FE7019BDB787A
:10356000DB0700D45AE76068FFF7B4FE56E76F4DFB
:103570002B78DB0700D451E728780007C00FFFF74E
:10358000B3FE4BE723786A4999468B46694B6A49F3
:1035900098468A4639001A7847460023B0460025E7
:1035A0004E46894610E053461B686A019B18002B63
:1035B00000D176E0DB68300098473A780135EDB20B
:1035C000511C2B008D4244DC9542ECD39B1A5B01CD
:1035D0005B44EFE7237858499946564B8A4698460C
:1035E0003100BB464E461A780025002347468946DF
:1035F0000FE053461B686A019B18002B55D0DB680F
:10360000300098473A780135EDB2511C2B008D42BD
:1036100007DC9542EDD39B1A009A5B019446634404
:10362000EDE7019D542200212800FEF791FE1022B3
:10363000FF214448FEF78CFE28002022FF21143091
:103640004E465F46FEF784FE00F0F2FBFFF74AFEAF
:10365000E4E6364D542200212800FEF779FE1022C0
:10366000FF21281DFEF774FE28002022FF211430C0
:1036700046464F46FEF76CFE00F0DAFB2379AB704E
:10368000CCE6501C984213DA11B0F0BCBB46B246EF
:10369000A946A046F0BDA3686279207800F0E6FB59
:1036A000BCE646464F46214DE6E74E465F46CBE731
:1036B0001F4D9B1A5B015D19FAE67023217A0B42BC
:1036C00018D1C80982460F330B405B009846194851
:1036D000EB1853441B7D00789946834266D2164806
:1036E0005B01006881469944002A00D15FE14B46A6
:1036F000002B68D120780021FFF774FD802120780D
:10370000FFF770FD8AE6104800F09CFB0121584647
:103710000EAAFFF7E1F8002800D07FE6EAE7C046EE
:103720009410002068B100109C210020442100204A
:1037300010B20010072B0020181E0020092B0020BB
:103740008CB1001048210020D9280010237A0F2BBB
:10375000D0D8CF4AEB181B791578AB423ED3691C01
:103760009942C7DB5D1BCB4B6D01ED18686900F01A
:1037700069FB012158466B690EAA9847002800D0C2
:103780004CE66022150023791D401A42B2D16379BC
:103790000A3B012BAED800F055FB63790A2B00D110
:1037A00099E158460EA900F0D9FA37E6431C4B457B
:1037B00000DAF7E04B461B1A5B019946B548814495
:1037C000002A00D1F3E04B46586900F03BFB4B4622
:1037D000012158465B690EAA98479CE7AE4A5B01F7
:1037E0001568ED18002DC1D184E7A37999466B784F
:1037F0009945D6D06B78002B00D033E14B466B70E7
:10380000002B00D12BE148460138C0B2FFF7A4FAE3
:10381000002800D17EE143780793022B00D079E1A4
:103820000122C179B1468B11491113400A40302160
:1038300012015B0113432A78A8468A4313432B7075
:1038400009239A4682445646BA46C37882781B02B8
:103850001343C31805938E4B04938E4B08938E4BE2
:1038600009938E4B0A93059BB34200D855E17378B8
:1038700001220B2B03D13378F278F6187378042BDE
:1038800000D044E1059B00279B1B9BB20693049B41
:103890000B921D78002303931BE0099A7B011568A6
:1038A000ED18002D00D132E1310058462B69069AFF
:1038B00098478446082803D9069A824200D313E128
:1038C000049B01371D78FFB26B1C03979F4200DDFC
:1038D0001DE1BD42E1D8039B5D1B089B6D019C4629
:1038E0006544E1E76B780CAA023213705846012355
:1038F0000EA900F049FA91E5E3881A0AD8B20F2A16
:1039000000D9F7E666499300CB589F460EA800F011
:103910009FFA5846A179FFF7A5FB02222B781343A3
:103920002B707BE5E388012B00D0E3E608222B789F
:10393000584693430EA92B7000F010FA6EE5022052
:1039400029780CAB9A1C8B068908DB0F01400B43CE
:103950001380584602230EA900F016FA5EE5E388AC
:10396000012B00D0C6E608222B7813432B7018E7F2
:10397000237A0F2B00D9BDE6EB181D79444B1B7839
:103980009D4228D2444B6D011B685D19002D00D16A
:10399000B0E6686900F056FA012158466B690EAA34
:1039A0009847B8E6002A00D0A4E600239946627939
:1039B0000220130003928343012B15D0002A00D06C
:1039C00098E62B004344534430331B790CAA9B07E1
:1039D000DB0F0232BCE75A1CAA4200DA8AE6ED1A73
:1039E0002C4B6D01ED18D4E7E388002B12D1029B1C
:1039F0001878039B012B23D0FFF7F4FB43460221E9
:103A0000EB18534430331A790A4301211A711A7999
:103A10000A431A714B46002B00D1FFE4586900F0AD
:103A200011FA4B4601215B690EAA584698470020BF
:103A300000F008FA3523EB5CDB0700D5EEE4B0E6D6
:103A4000FFF7EEFB43460221EB18534430331A795B
:103A50008A431A711A7903998A431A71DAE7FFF7D0
:103A600041FC9EE600215846FFF706FB5846FFF74B
:103A7000A3FBAB78074903930491054B064998468D
:103A80001A780591002329001D008A461BE0C046D4
:103A9000072B002010B20010181E00205821002013
:103AA000B4B10010059B6A011B689B18002B4DD018
:103AB000DB685846984743461A780135EDB2511CE9
:103AC0002B008D422EDC9542ECD39B1A049A5B01AD
:103AD00094466344ECE70CAB9A1C584601230EA9AC
:103AE000157000F051F999E40B9A012A4FD0002A81
:103AF0003CD00023B07804E00133DBB20F71934275
:103B000034D2C118C9B241440D79FF2DF4D04E46CC
:103B10004546574600236B70ECE54E465746FFF787
:103B2000DFFB3EE65546542200212800FEF710FC3C
:103B30001022FF21281DFEF70BFC28002022FF2168
:103B40001430FEF705FC039BAB7057E65546FAE7C9
:103B5000FEF7BEFE021E00D1CCE5D37891781B02A1
:103B60000B4358460EA900F00FF9D4E565463B001B
:103B70002A0031000A9800F073FEAC46049B039AB9
:103B80001B7866440133934200DB6CE6BFE7174BBA
:103B900029699942ADD1079AABE7FFF79DFB021E59
:103BA00000D1A7E5584613780EA900F0EDF8B2E56C
:103BB0002189FFF7D5F8021EF4D19BE5022A0FD028
:103BC000FFF78CFB021EC8D194E5FFF7C1F8021E77
:103BD00000D18FE5122358460EA900F0D5F89AE5DA
:103BE000FFF7BAF8021EB8D184E5C0466142001062
:103BF000F8B557464E46DE4645460C00E0B5160081
:103C00001F00002A3CD0702398461E4B00259B467F
:103C10001D4B9A461AE05B461B7820009946534696
:103C2000997800F0DFFD00281CD021004846FFF7FE
:103C30003FFA002816D0A378DA09012A19D00A9A87
:103C4000013513702378E418AE4219DD6378052B33
:103C500008D1E3789B079B0FBB4203D14246A37870
:103C60001A42D8D00020F0BCBB46B246A946A046B6
:103C7000F8BD0B9A013513702378E418AE42E5DCE9
:103C80000120F0E79410002044210020702270B53C
:103C90008B780C001A4201D0002070BD064B20002A
:103CA0001D78064B997800F09DFD0028F4D0210086
:103CB0002800FFF7FDF9F0E79410002044210020D0
:103CC0000B007F2010B51840DB0934334000044A54
:103CD000C018044B1168C01800F040FD10BDC0466C
:103CE00098210020442100200B007F2010B51840AF
:103CF000DB0934334000044AC018044B1168C01873
:103D000000F054FD10BDC046982100204421002041
:103D100070B57F240F480C4064000419CD09641964
:103D200030342079C00701D5002070BD01262579E7
:103D30000948354300782571FFF742FA0028F4D18D
:103D4000012223799343237123790332934323710F
:103D5000EAE7C046442100209410002070B5094CC9
:103D60000600082220000D00FEF7F8FA002380214B
:103D7000E360A3602B783000994300220023FFF713
:103D8000C7FF70BDE8200020F8B5CE4647469046F4
:103D9000254E80B58146082230000D001F00FEF739
:103DA000DDFA4346B3600023F381EC79AB7924025A
:103DB0001C43231CBC4200D93B1C9FB2B381002C86
:103DC0000DD0002F17D04246002A2BD0402F1BD8F1
:103DD0009FB233787F2B1CD80021144A0FE080213A
:103DE0002B780022994348460023FFF791FFC0BC7F
:103DF000B946B046F8BD7F230022317899433B0095
:103E00004846FFF785FFF2E740239FB233787F2BC8
:103E1000E2D9064C3A0041462000FEF79FFA802185
:103E20002200ECE70020E2E7E82000200421002047
:103E300010B5142200210248FEF78AFA10BDC046D0
:103E4000E8200020014B18617047C046E8200020A0
:103E500010B5054C010008222000FEF77FFA002370
:103E6000A360E36010BDC046E820002070B5384C68
:103E70001D0023780600DA09C9098A4210D0002003
:103E8000002D00D070BD21003000FFF703F9236939
:103E9000002B03D022000321300098470120F1E7D6
:103EA0007F2B06D8A068002834D02A002949FEF7C5
:103EB00055FAE289A1685219E38892B24919E28160
:103EC000A160934214D03F2D12D9A389981A051CE2
:103ED00080B240282AD82078ADB27F2828D8002187
:103EE0009A4232D01B4A2B003000FFF711FFC9E77E
:103EF0002369002B05D022000221300098470028BA
:103F00000AD0802123780022994330000023FFF754
:103F1000FFFEB7E70020B5E700213000FFF762F9A8
:103F200030008021FFF75EF90120ABE74025D2E7A2
:103F30009A4207D0074C2A002000FEF70FFA802192
:103F40002200D0E780210022CDE70022CBE7C04647
:103F5000E82000200421002070B50400FFF7C8F914
:103F6000002800D170BDFFF7CBF90028FAD1E37823
:103F7000002BF7D025001035280000F0EBFD3F287E
:103F8000F0D90020E178FFF79BFE0028EAD0280056
:103F900000F0E0FDE1783F2807D992239B00E2186A
:103FA00000204023FFF7B4FEDCE70020FFF79CFE73
:103FB000D8E7C04610B50400FFF79AF9002801D1F0
:103FC000002010BDFFF79CF90028F9D1B222920021
:103FD0006243034B01309B181B791840F1E7C04640
:103FE000201E0020B2239B00434310B5024818183E
:103FF00000F092FD10BDC046301E0020F0B5B22684
:10400000B6004643224B3500C646984680231035FD
:10401000040000B545445B029A4200D31D4A2800C3
:1040200092B200F0FBFD0700FFF762F9002803D110
:10403000380080BCB846F0BDFFF762F90028F7D120
:10404000B2239B005C434444E378002BF0D028006B
:1040500000F080FD3F28EBD90020E178FFF730FE2B
:104060000028E5D0280000F075FDE1783F280AD946
:1040700092239B009C466644320040234244002029
:10408000FFF746FED4E70020FFF72EFED0E7C0463C
:10409000201E0020FFFF0000F8B50400FFF728F9FC
:1040A000002801D10020F8BDFFF72AF90028F9D136
:1040B000B2239B005C432600144D24367619300051
:1040C00000F02AFD0028EDD02F190020B978FFF765
:1040D000F7FD0028E6D0A2239B009C4664446519A6
:1040E00029004022300000F099FDB978041E08D064
:1040F00003002A000020FFF70BFE0028D2D020008A
:10410000D1E70020FFF7F0FDCCE7C046201E0020DD
:1041100070B5B224A40044430B4B0500E41880237F
:104120005B029A4200D3094A200092B200F03CFEA2
:104130000600200000F0F0FC3F2801D8300070BDE0
:104140002800FFF7A9FFF9E7441E0020FFFF000049
:10415000B2239B00434310B50248181800F0FAFC44
:1041600010BDC046441E0020B222F0B500251B4CF5
:1041700083B0002120009200FEF7EAF8184B2100DE
:104180001D70FF236371E1235B02A36020000823FD
:104190008022A37338310095073B5200103000F0A5
:1041A00085FC21000123200080223931FF3152009B
:1041B0000093243000F07AFC8E239B00E71838002F
:1041C000FCF7B6FB90239B00E6183000FCF7B0FB31
:1041D000E56127622663656303B0F0BD201E002001
:1041E0001C1E00200A4A116B136A00290CD0002BF8
:1041F00007D00023D36153631363002313620120AC
:10420000704753631363FAE7002BF8D0D161F4E7EA
:10421000201E002070B50F4C052200212000FEF763
:1042200097F80D4D2B78DA0707D50C4C9B070CD56A
:104230000121200000F094FE70BD2000103000F03D
:104240006FFE2B78054C9B07F2D4200000F068FE2F
:10425000EEE7C046201E00201C1E0020441E002049
:10426000F0B5C64600B54B79060082B0022B1CD1D2
:104270008B79022B19D1244FBB78002B15D18B7869
:1042800009253B700C780C196378242B07D012E0B9
:104290002378E4185D196378ADB2242B0BD1AA42C0
:1042A000F6D23800FFF758FE00E00025280002B0E3
:1042B00080BCB846F0BD1A00052B17D0042AF0D1F7
:1042C00063790A2BEDD12378210098460F4B3000FB
:1042D00001930133009341440223023AFFF788FC23
:1042E0000028E2D00E354544ADB2DAE721003000B7
:1042F000FFF7CCFC0028D8D0A3787B7023785D1919
:10430000E4186278ADB2D9E7201E0020221E0020FA
:10431000F8B5602314001278050013400020202B0C
:1043200012D12F4A6379277916781B023B439E42AC
:104330000AD16378222B1AD007D8202B3CD0212B0E
:1043400002D1012930D00120F8BD232BFCD1012955
:1043500040D00329F7D1234B002BF4D0E178A37888
:1043600009020020194300E000BF0120ECE7012909
:1043700030D00329E7D101252E00A378E478023953
:1043800024021C431471264024321000714000F0B6
:10439000E7FD154B002BD6D06208002031002A40E3
:1043A00000E000BF0120CFE70723210028000F4ACB
:1043B000FFF7EAFC0120C7E70129F5D00329C2D1A4
:1043C0000B4B002BBFD0083200201100FEF7A4FADF
:1043D0000120B9E721002800FFF7C0FC0120B3E766
:1043E000201E00200000000000000000281E002009
:1043F00019290010F0B54F464646D646C0B5374D90
:104400008046EA780C001F008A423CD0AB788B4291
:1044100010D00020E0BCBA46B146A846F0BD304BF3
:10442000002B04D02F4800F08DFB002853D028002B
:10443000FFF792FDAB78A34201D00120EAE72A4BB7
:10444000002B02D0002000E000BF0020FFF724FE78
:104450000028F2D1254C200000F05EFB0028ECD1B2
:10446000002FEAD0BF06E8D1243C4046A178FFF7F0
:1044700027FC0028E1D0002300224046A178FFF766
:1044800047FC0120C6E79AB292239B00EE18102346
:104490009A46AA443100504600F086FC144B002B8B
:1044A000BDD06B79FF2BBAD0002FB8D0F21991464E
:1044B00003E001364E45B2D06B7932789A42F8D19A
:1044C000504600F03FFB0028F3D15346103B59798A
:1044D00000E000BFEDE700E000BFA8E7201E0020DD
:1044E00000000000301E002000000000441E0020DC
:1044F00000000000B32270B5144C84B000212000ED
:104500009200FDF725FF231D029323002000802544
:104510004026CD336D00FF33A930009300220023E5
:10452000002103960195FF3000F0B4F9230020002C
:104530004433A834029301220023002103960195FD
:104540000094843000F0A6F904B070BD6022002011
:1045500010B5054C200000F0D3F920002538FF38B5
:1045600000F0CEF9012010BD0824002010B5064C43
:1045700000232000B130FF30237000F0D1FC200078
:104580008C3000F0CDFC10BD60220020F8B55746FD
:104590004546DE464E46E0B54B7980460F00FF2B80
:1045A0005CD1424B9946AA234946FF33CB5C002B92
:1045B00054D18533CE5C002E50D1BB783C780B7043
:1045C0003B793C19002B46D0D8235B004B449A46DC
:1045D0008C234B449B46A51803E0AC423BD2237886
:1045E000E4186378052BF8D1AC4234D22100404660
:1045F000FFF74CFB002831D0A3780136F6B2DB0977
:10460000012B32D0504600F08BFCAA234946A278F9
:10461000FF33CA54637922791B021343244A5B0592
:1046200094465B0DD42163445A4253414A460220CA
:104630004900525C5B00824313434A46535451463F
:104640004046083900F0C6F9002807D02378E4185E
:104650003B79B342C5D8E01B80B200E00020F0BC3B
:10466000BB46B246A946A046F8BD584600F058FCE5
:104670008523A2780D490220CA54637922791B024E
:1046800013430B4A5B05944684215B0D63445A42F5
:104690005341064A5B00525C82431343034A0020A5
:1046A00053545946083900F061F9CFE760220020E1
:1046B00000FEFFFFF8B5AA2506001F48FF35455D3F
:1046C0001F008D4215D08523C35C00208B420FD183
:1046D0001A4B002B04D039040020090C00E000BF65
:1046E000174C3000210000F041F9002814D00120BF
:1046F000F8BDDA235B00C35A002B14D1114B002BF9
:1047000004D000201049BAB200E000BF30000F49C9
:1047100000F060F90120EBE73A002100300000F0E2
:10472000F1F80120E4E7D6235B00C158B130BAB2FA
:10473000FF3000F039FBE1E76022002000000000BC
:10474000E422002000000000642200200824002051
:1047500010B50020FEF7DCFD10BDC046037870B533
:10476000DB0704000E00DD0F002B17D103785B0779
:1047700001D5280070BD01213000494206F0E8F95A
:104780002378DB07DD0F002B0AD123785B0708D4E1
:104790000422237801251343237002E00025E8E773
:1047A0000025300006F0ACF9E3E7C04670B50C0018
:1047B000012106004942200006F0CAF933785B0760
:1047C000DD0F002B04DB200006F09AF9280070BDF5
:1047D0003378DB0704D40422337893433370F2E751
:1047E0000025F0E7437902791B021343C2785B0589
:1047F00092075B0D920F022A1DD0032A0CD00020D5
:10480000012A08D102394A425141124A9446614470
:1048100099424041C0B2704702394A1E91410E4A46
:10482000494211408022D2009446002061449942BE
:104830004041C0B2EFE7022905D0002040229A4251
:104840004041C0B2E7E7054A981843425841C0B218
:10485000E1E7C046FF03000040FCFFFF00FEFFFF52
:104860008A1870B5914207D27F264C78052C04D067
:104870000C7809198A42F8D870BD34008D782C4024
:1048800064000419ED0963550C7809198A42ECD8C3
:10489000F2E7C046F0B5C64600B582B0150008AADA
:1048A00040CA040017886A46928D012090460A008B
:1048B0002178024081432000114321703A00009387
:1048C00031000123083000F0F1F8002E01D0002F54
:1048D00008D10A9B012063604346638002B080BC1C
:1048E000B846F0BD26001C363000FCF721F8002346
:1048F000002D01D0330000266361A661E9E7C046C0
:1049000001207047F8B502240B7807001C40634271
:104910005C41144B64421C40134B08009C46083019
:104920000D001600644400F0F7F8002807D1002EAF
:1049300005D0344203D101242B781C4201D0002041
:10494000F8BD38006978FFF7BBF90028F7D02B785D
:104950001C42F4D10023002238006978FFF7D8F90F
:10496000EEE7C04640FEFFFFFF010000F8B50D0076
:104970000835060028000C0000F0CEF8002803D00F
:10498000012723781F4201D00020F8BD3000617854
:10499000FFF796F90028F7D028006288616800F0D8
:1049A0003DF9237805001F4000280BD0002FEBD1E4
:1049B0000300626830006178FFF7AAF90028E3D0AD
:1049C0002800E2E7002FDFD130006178FFF78CF993
:1049D000DAE7C046F8B5CE46474680B58A89060074
:1049E0000C000B78002A07D101251D4240D0002081
:1049F000C0BCB946B046F8BD9B0733D42A4B40250E
:104A0000994627000837380000F0A4F88542EED810
:104A10000122237890461A42E9D130006178FFF7ED
:104A20004FF90028E3D0380000F094F8424623788C
:104A30001A40854231D8002AD9D1494662880140BE
:104A4000151C8A4200D90D1CADB200226178002DE0
:104A500000D062682B003000FFF75AF90028C6D05A
:104A60002800C5E7FE2380251B029946AD00C8E754
:104A70004978FFF725F90028B9D023781D42B6D12F
:104A8000638800226178002B00D062683000FFF755
:104A90003FF90028ABD06088AAE7002AA7D13000F0
:104AA0006178FFF721F9A2E7C0FF0000F0B5C64624
:104AB00000B504006846057E8020884617001E0069
:104AC0000002824226D8E068002803D00121494232
:104AD00006F03EF82069002803D00121494206F083
:104AE00037F84346236073045B0CED031D4300233A
:104AF000E0686381A780E5802381002801D005F06C
:104B0000FFFF2069002801D005F0FAFF012080BCDA
:104B1000B846F0BD0020FAE710B5048941898288C3
:104B2000A3B288B28C4207D31B1A9BB2101C9A42C4
:104B300000D9181C80B210BD5100091A5B189BB235
:104B4000F4E7C04603894089181A43425841C0B26D
:104B50007047C04610B5048941898288A3B288B2E3
:104B60008C4207D31B1A9BB200209A4201D9D21A59
:104B700090B210BD5100091A5B189BB2F4E7C04611
:104B800070B5040000690E00002803D001214942DD
:104B900005F0DEFF25896089A288A9B283B285422B
:104BA00032D3CD1AADB2002D28D0AA4208D29142FC
:104BB0002FD3891A8BB263819A4203D89B1A9BB276
:104BC0009A42FBD9E28821685204520C53433000C8
:104BD000C918FDF7C3FB63890125591C89B2A28856
:104BE0008B420DD900215200891A89B22069618156
:104BF000002801D005F084FF280070BD618989B2CA
:104C000052009142F2DBEFE75500ED1A4D19ADB2BB
:104C1000C9E789188BB26381CEE7C046F0B5464636
:104C20004F46D646C0B50600006989469046002822
:104C300003D00121494205F08BFF31897289B58883
:104C40008BB294B2914254D31F1BBFB2002F4AD0F3
:104C5000BD4205D2AB4251D25B199CB22F00748188
:104C60004346B8453DD89FB2A54203D8641BA4B2C1
:104C7000A542FBD9F28831685204520C9046624337
:104C80002B1B9BB2891842469F4225D953439BB2A6
:104C90001A0048469A46FDF761FB434648467D1B8D
:104CA00064195C4331685044A2B2FDF757FB718927
:104CB000B588CB199BB26A00994216D99B1A9BB250
:104CC00030697381002801D005F01AFF3800E0BC7C
:104CD000BA46B146A846F0BD48467A43FDF73EFBCA
:104CE000E5E73B1CBFE773899BB26A009342E7DBB1
:104CF000E4E76F003F1BDF19BFB2A7E75B1B9CB265
:104D0000ACE7C046F8B50400C0680E00002803D028
:104D10000121494205F01CFF258920896189A2886B
:104D2000ADB283B28FB2884229D3DB1B9BB29A42C9
:104D300009D8E779FF0906D1E068002801D005F01D
:104D4000DFFE3800F8BD2B0095421DD39B1A9BB2A5
:104D50009342FBD2E28820685204520C5343310044
:104D6000C018FDF7FBFA6B1C9BB2A2889D4217D9B5
:104D7000002352009B1A9BB201272381DCE75100DC
:104D8000C91B5B189BB2D2E7E28820685204520C20
:104D900053433100C018FDF7E1FA0135A288ABB2E8
:104DA00052009342E8DBE5E7F0B54E465746DE4653
:104DB0004546E0B589460600170083B0002A67D053
:104DC000C068002803D00121494205F0C1FE3389A3
:104DD000F2799BB298467389B5889BB2D20940D1CB
:104DE00098455ED26A00D31A43449BB2AB425DD26F
:104DF000EB1A1A1C9BB2BB4200D93A1C97B27B1B20
:104E00009BB20193F3885B045B0C9A464346DB1923
:104E10009BB29B464446A84503D3641BA4B2AC4254
:104E2000FBD25346634330682D1BADB2C018BD4260
:104E30004BD3524649467A43FDF790FAB3885B005C
:104E4000D84501D89B4503DB5A46D31A9BB29B46F3
:104E50005B463D003381F06800281AD005F050FE13
:104E600017E0F2885204520C9246AF4220D2984585
:104E70004DD34246D21A92B26900781B80B2D21941
:104E800001908A4233DA4346FB189BB29B46C1E746
:104E90000025280003B0F0BCBB46B246A946A04698
:104EA000F0BD4246D31A9BB2AB42A1D30025D2E754
:104EB000002DD0D07F1B574398465A19002392B239
:104EC000B94493462F000193A4E753465D43ADB226
:104ED0002A004946FDF742FA019B2900E218534691
:104EE0005A43306892B24944FDF738FAA6E75A1996
:104EF00092B29346D21B92B2904693420CD943464B
:104F0000591A8BB29846FB189BB29B4682E7690000
:104F1000CA1A424492B2B0E7914200DD7AE7EEE766
:104F200010B50400C068002803D00121494205F0F3
:104F30000FFE2069002803D00121494205F008FE38
:104F40000023E06863812381002801D005F0D8FDAB
:104F50002069002801D005F0D3FD012010BDC04616
:104F600070B50400C0680D00002803D0012149423B
:104F700005F0EEFD2069002803D00121494205F02B
:104F8000E7FD7F21E379ED011940E0682943E171F4
:104F9000002801D005F0B4FD2069002801D005F0FB
:104FA000AFFD012070BDC0460FB400B583B005A9A8
:104FB0000348019100F026F803B008BC04B018477C
:104FC00094AE001010B500F01DF80248FFF7ECFF9A
:104FD00010BDC04694AE00100FB400B583B004A954
:104FE00001C9019100F00EF80348FFF7DDFF03B09F
:104FF00008BC04B01847C04694AE001010B5FDF7C9
:10500000B3FB10BD03000A0010B503490968C86866
:10501000190002F0E9FE10BDB41400207047C0462C
:1050200010B508001100FFF7CDFF002010BDC046ED
:1050300010B5010000230022002003F017FD10BD71
:1050400070B50B0C0024150C002B28D1002D3CD181
:105050008BB291B2594300F047F8051E33D00300DC
:10506000083B5A6803239A43043A242A12D80300BF
:10507000132A0AD90460446008331B2A05D98460C6
:10508000C460242A2AD00300103300221A605A6018
:105090009A6002E00021FDF75BF9280070BD002D49
:1050A00016D1151C89B292B24A43ADB29BB26B4382
:1050B000110C5B18190C0BD1190492B2114300F0BA
:1050C00013F8051ECBD10025E7E72B1C0D1CE9E7E3
:1050D00003F0FCFB0C2300250360DEE70300046102
:1050E00018334461D1E7C046F0B54E464546DE462A
:1050F0005746E0B50D000B35060085B0162D21D8BA
:10510000102900D9D4E000F0D5FA10251823022187
:10511000CA4FFB181A005C68083A944200D186E135
:1051200003226368A1689343E268CA609160012129
:10513000E3185A6830000A435A6000F0C3FA2000AE
:105140000830B8E007239D4300D5B1E0A94200D95B
:10515000AEE000F0AFFAFC235B009D4200D2E0E13C
:10516000690A00D1AEE0042900D9A1E138239846AC
:10517000A90988443931CB00082252429446AF4FE6
:10518000FB189C446346DC68A44514D0032399466D
:105190000B0061469C4607E0E068002A00DB40E126
:1051A000814200D141E104004A46636893435A1B9F
:1051B0000F2AF1DD41463A003C690832944200D1A1
:1051C0001EE1032063688343581B0F2800DDACE118
:1051D0003A617A610028AADA7A68904680229200C1
:1051E000934200D336E1DA08580901238340404650
:1051F00018438046D300DB199A687860E360A260A8
:105200009C60D46001208B109840404562D8434692
:1052100003420AD103239943434640000431034229
:1052200003D1400004310342FBD00323B3469C4624
:105230000E00B8460190F00040440100B246CB6831
:105240000BE064465A681F00A243DB68541B0F2C16
:1052500000DD39E1002C00DB53E19942F1D101235B
:105260009946CA44534608319B07E8D1032205E01A
:1052700003680838013E834200D013E23242F7D17E
:105280004346019A5B68934342465360019A520039
:1052900001929A421CD8002A06D119E004229146B4
:1052A000019ACA44520001921342F7D05646C2E70F
:1052B0000C233360002005B0F0BCBB46B246A946C3
:1052C000A046F0BD80233F22402190469B0053E73B
:1052D0005E4647460322BC68636893439846AB42E8
:1052E00003D35B1B0F2B00DD8DE0230043440293AF
:1052F000534B08201B6810335B19019303F008FB24
:10530000504903900B688A46013306D08446019BBE
:105310004242013B6344134001933000019903F082
:10532000AFFA03008146013300D11CE1029B8342A6
:1053300000D916E1444B02989B461A68019B5946D6
:105340009C4662440A6003990139484500D157E1FF
:1053500053461B68013300D15EE14B4602981B1A8D
:105360009B185A46136007234A4648461A40029241
:10537000184200D115E10398013384469B1A019A23
:1053800099444A44019263440A409B1A19403000F0
:105390008A4603F075FA431C00D158E14B46C01A07
:1053A0000300534401935B461A68012052441A607B
:1053B0004B464946BB60019B03434B60BC4213D044
:1053C00043460F2B00D82BE107210C3B8B43616830
:1053D0000140052019436160E118486088600F2B87
:1053E00000D93FE14B465B6818490868904200D2FB
:1053F0000A6017490868904200D20A604C46B4E03F
:105400007B689846FEE60122290013431143651983
:1054100061603000BD606B6000F054F9200008301E
:1054200049E7A268D060826081E66146C3E6DC6835
:105430000231A34200D1BEE672E6C046A0100020B1
:10544000D81C002098100020A81C0020D01C002090
:10545000D41C00205A0A042A7CD9142A00D9B0E0AE
:1054600010005B3082465C32D20008204042844605
:10547000BA189444624692680B308146944500D134
:1054800086E00800A2466146844602E092689142A6
:1054900004D04C465068A0439842F7D8D368614680
:1054A00054469C466346A260E3609C60D460A9E6D3
:1054B000142967D9542900D98CE06E239846290B0A
:1054C00088446F31CB0057E6BA46012051468446E6
:1054D0004919054350464560856847466046EB607C
:1054E0005E469D60534639617961204308374860C4
:1054F000CF6030008F609C5000F0E4F850460830D8
:10550000D9E6BA4601205E465244516801435160D3
:10551000BA683000D3609A6000F0D4F838000830E0
:10552000C9E62B00E9080833F2E561198846012134
:105530008C460D434146656039617961CA608A6075
:10554000624602434A60E050300000F0BBF82000A1
:105550000830B0E69A091000393238308246D2005D
:1055600083E7BC4241D0BC686368032293431A00BE
:105570005B1BAA4202D30F2B00DD44E7300000F092
:10558000A1F897E65B23984688445C31CB00F3E5AD
:105590005346981001238340404618438046786064
:1055A00080E7019B039A4B440B40D31A194030000B
:1055B0008A4603F065F9431C00D0EFE600239A46C3
:1055C000F1E6542A2ED81A0B10006F326E30824644
:1055D000D2004AE7AA235B0099422ED8DD3B9846C9
:1055E000E90B88447831CB00C6E5304B9B461A68FE
:1055F000019B9C465B4662441A60039B591EA7E6CA
:105600004846084200D0A3E6B968434489460121D0
:105610000B4349464B60E7E653464A461A60A2E60A
:105620004860ABE7AA204000824226D8DA0B10007F
:10563000783277308246D20017E71D4B994226D840
:105640007C239846A90C88447D31CB0094E5019ACF
:10565000029B94464A46083B63449B1A01930023ED
:105660009A46A0E621003000083104F0E9FB5B46D1
:105670001A68BB6899465B68B6E60D4882420CD84A
:105680009A0C10007D327C308246D200EDE6FE237B
:105690007E227F2190469B006EE5FE227E209200B6
:1056A0008246E2E643465B68F0E5C046A81C00205F
:1056B0005405000010B5024803F026F910BDC0469D
:1056C000A01C002010B5024803F020F910BDC04610
:1056D000A01C0020F0B557464E46DE464546E0B5D4
:1056E0000C000600170083B0002900D1ACE0FFF7E2
:1056F000E1FF08235B429946A1444B465B680322C5
:1057000019003D0091430B35CA468846162D67D8CF
:105710001025AF4267D8A8456EDA4946C0484144D3
:105720004A68009080689346884200D1A0E001203A
:10573000844610006246904308184068104200D02A
:1057400077E05A46032082439346C3445D454EDDCD
:105750006046184212D14B4648461B68C31A0320C4
:105760009B465B688343D21842440092954200DC1A
:10577000CCE0434400939D4200DCCBE03900300094
:10578000FFF7B2FC071E00D11EE14B4601225B6809
:10579000934302004B44083A934200D1E3E042466F
:1057A000043A242A00D9E3E003002100132A09D98E
:1057B00023680360636843601B2A00D9DCE00300B0
:1057C000083108330A681A604A685A608A689A6021
:1057D0003000210004F034FB3000FFF773FF20E0BD
:1057E0000432954395D50C230027336019E0D84641
:1057F000CB688A68D3609A6043465F1B5346012298
:1058000050465B68404413400F2F22D841460B435B
:1058100051464B604368134343603000FFF752FF2B
:105820002700380003B0F0BCBB46B246A946A046EC
:10583000F0BD1A42A2D14B464A461B68D31A032236
:105840009B465B68934394E71100FFF74DFC07000C
:10585000E7E751462B434919554617436B604F60A4
:105860004368083113434360300004F0E9FAD4E799
:1058700003218A4394462900C44410318C4500DB3F
:1058800084E0DB0700D579E74B4648461B68C31A1E
:1058900003209B465B688343D218424401929142A5
:1058A00000DD66E75B465A46DB6892685F46D36078
:1058B0009A604246043A0837242A00D999E03B000E
:1058C000132A0AD9594623688B606368CB601B2A68
:1058D00000D993E05B460834103322681A6062688E
:1058E0005A60A2689A605B4601225919009B3000F9
:1058F0009960019B5B1B13434B605B465B681340E5
:105900005A462B435360FFF7DDFE8AE7CB688A686F
:10591000D3609A605B465A46DB6892685F46D36004
:105920009A604246043A0837242A17D83B00132AC3
:1059300009D9594623688B606368CB601B2A39D824
:105940005B460834103322681A6062685A60A268A5
:105950009A60009B3C009846DA464DE721003800EB
:1059600002F0C0FEF5E703225B689343984443E7E7
:10597000210002F0B7FE2BE7A3688360E368C360F1
:10598000242A26D00300103110331BE74B46591947
:10599000009B0122996063465B1B13434B604B469F
:1059A0005B68300013404A462B435360FFF78AFE82
:1059B000270036E7A3680B61E3684B61242A10D007
:1059C0005B4610341833BEE73000FFF77BFE00273C
:1059D00027E72369183103610300626918334261C4
:1059E000F0E623698B615B4662692033CA61183433
:1059F000A9E72100380002F075FE74E7A3680B6187
:105A0000E3684B61242A03D05B461034183364E703
:105A100023698B615B4662692033CA6118345CE795
:105A2000A0100020F0B5DE46454657464E46E0B58C
:105A3000DBB0884693461C0010930500079002F0E7
:105A4000E1FE036818001C9302F0AEFF1B90002DCE
:105A500004D06B6B002B01D101F014FA43460125F1
:105A60005A6E0C215B5E154201D100F03DFE990497
:105A700001D500F0A7FF802189010B4341468B81AE
:105A8000D1491BB20A4041464A661A0701D400F0C8
:105A900003FE42461269002A01D100F0FDFD1A22E0
:105AA0001A400A2A01D100F008FE31AB2E930023E0
:105AB0000024119330932F930023189319940023FB
:105AC0001F931D93219320930B93C04B5D4613931B
:105AD000BF4B2EAF1E93434608932B7831AE002B5D
